:020000040800F2
:1080000000000220D9D001084184000845840008FE
:10801000498400084D8400085184000800000000D5
:10802000000000000000000000000000558400086F
:1080300059840008000000005D8400086184000885
:1080400025D1010825D1010825D1010825D1010834
:1080500025D1010825D1010825D1010825D1010824
:1080600025D1010825D1010825D1010825D1010814
:1080700025D1010825D1010849A7000825D101080B
:1080800025D1010825D1010825D1010825D10108F4
:1080900025D1010825D1010825D1010825D10108E4
:1080A00025D1010825D1010825D1010825D10108D4
:1080B00025D1010825D1010825D1010825D10108C4
:1080C00025D1010825D1010825D1010825D10108B4
:1080D00025D1010825D1010825D1010825D10108A4
:1080E00025D1010825D1010825D1010825D1010894
:1080F00025D1010825D1010825D1010825D1010884
:1081000025D1010825D1010825D1010825D1010873
:1081100025D1010825D1010825D1010825D1010863
:1081200025D1010825D1010825D1010825D1010853
:1081300025D1010825D1010825D1010825D1010843
:1081400025D1010825D1010825D1010825D1010833
:1081500025D1010825D1010825D1010825D1010823
:1081600025D1010825D1010825D1010825D1010813
:1081700025D1010825D1010825D1010825D1010803
:1081800025D1010825D101080000000000000000F1
:10819000844641EA000313F003036DD1403A41D312
:1081A00051F8043B40F8043B51F8043B40F8043BD1
:1081B00051F8043B40F8043B51F8043B40F8043BC1
:1081C00051F8043B40F8043B51F8043B40F8043BB1
:1081D00051F8043B40F8043B51F8043B40F8043BA1
:1081E00051F8043B40F8043B51F8043B40F8043B91
:1081F00051F8043B40F8043B51F8043B40F8043B81
:1082000051F8043B40F8043B51F8043B40F8043B70
:1082100051F8043B40F8043B51F8043B40F8043B60
:10822000403ABDD2303211D351F8043B40F8043B00
:1082300051F8043B40F8043B51F8043B40F8043B40
:1082400051F8043B40F8043B103AEDD20C3205D310
:1082500051F8043B40F8043B043AF9D2043208D008
:10826000D2071CBF11F8013B00F8013B01D30B887A
:1082700003806046704700BF082A13D38B078DD058
:1082800010F003038AD0C3F10403D21ADB071CBF2A
:1082900011F8013B00F8013B80D331F8023B20F894
:1082A000023B7BE7043AD9D3013A11F8013B00F8CD
:1082B000013BF9D20B7803704B7843708B78837055
:1082C000604670472DE9F84FDFF86C811446074689
:1082D0000D465748574900F0B1FA39462346404603
:1082E0002A460DF0B9FA41F6A813661E18F80310D5
:1082F00000290CBFBA46AA46002C00F097803AF934
:10830000040BDFF838E13AF9029CDEF80470DEF87D
:108310000050DEF80830DEF80C200028B8BF4042DC
:10832000B9F1000FB8BFC9F10009411BC7EB090B38
:108330000029D4BF10461846BBF1000FD4BF144625
:108340001C4600FB01F804FB0BFC07EBEC3405EBCF
:10835000E8300AF1040106F00107751E002E63D013
:10836000DFB131F904AC31F9026CBAF1000FB8BFDA
:10837000CAF1000A002EB8BF7642C0EB0A0BC4EB6C
:108380000608BBF1000FD4BF17461F46B8F1000F17
:10839000D4BF16461E46013D3AE031F9046C31F96E
:1083A00002CC31F9048B002EB8BF7642BCF1000F2D
:1083B000B8BFCCF1000C371AC4EB0C0C002FD4BFA3
:1083C00093469B46BCF1000FD4BF92469A4631F9C2
:1083D000026C0BFB07F70AFB0CF900EBE730B8F176
:1083E000000FB8BFC8F10008002EB8BF764204EBFA
:1083F000E934C0EB080BC4EB0608BBF1000FD4BF97
:1084000017461F46B8F1000FD4BF16461E46023D60
:1084100007FB0BF906FB08F76E1C00EBE93001F1D6
:10842000040104EBE734B8D18EE81100BDE8F88F01
:10843000700200202CF00120A8D60120BC030020EF
:10844000704700BFFEE700BFFEE700BFFEE700BFCA
:10845000FEE700BF704700BF704700BF704700BF16
:1084600010B5074C074801F095F923889B0605D500
:10847000A1880448C9B201F05BFCA08010BD00BF18
:1084800000100140F0020020F0B585B003A80121E2
:1084900002F0AAFB4FF680734FF4E8321C490093B8
:1084A0001C481D4B1D4E1E4C02F000FD1D4800F0E7
:1084B000ADFB1D481B4900F04DF8002530464FF03C
:1084C000660E1849184A134B00940427C4F808E0B4
:1084D000E7602560656000F061FE2A462B46134880
:1084E0004FF4FA4102F0A0F810B9072086F8BC005A
:1084F0000E480F4902F0C4F810B9072186F8BC10E5
:108500000C4802F045F903A802F076FB05B0F0BD77
:1085100014040020A8D6012000000010F002002062
:10852000BC030020D00300207002002014D40120DE
:10853000C5820008CC03002008B5FFF7A5FF03485B
:1085400001F06AFB024802F091FDF8E7F00200201A
:10855000A8D60120F8B504460D4604F1200601F026
:108560002FFC04F1140002F057F904F15C0700221B
:1085700004F16C0CA561E261C7EB0C0046F8202BFE
:1085800004F16003011F9C456262A262E262226301
:108590006263A263E263C1F38205326011466264E2
:1085A000E26422656265A265E26539D01DB3012DE2
:1085B0001CD0022D17D0032D12D0042D0DD0052D67
:1085C00007D0062D1CBF1A6004F16403002643F88F
:1085D000046B4FF0000E43F804EB002243F8042B29
:1085E000002743F8047B002043F8040B002143F8E4
:1085F000041B9C4514D01E46002546F8045B20331E
:1086000043F81C5C756043F8145C43F8105C43F855
:108610000C5C43F8085C43F8045C9C452946EAD1AD
:108620004FF0000CE166616784F848C084F878C0B8
:10863000F8BD00BF90F84830002B00F0B580D0EDB9
:10864000176A9FED777ADFED777A37EE666A012B4E
:10865000E6EE276AC0ED176A00F08F8090ED181AD9
:1086600077EE411A022BA1EEA71A80ED181A40F0FE
:10867000B18090ED192ADFED6C2A70EEC25AB0EE8F
:10868000423AA5EEA23AF0EE470AF0EE673A80EDE4
:10869000193AD0ED1D6A90ED1A5A9FED646ABFEE4B
:1086A000007AF4EE476AF1EE10FA70EEC50A08BFE0
:1086B000F0EE406AA3EEA05A70EE663A08BF80ED75
:1086C0001D0AF0EEE37AF4EEC67AF1EE10FAD4BFAA
:1086D0000022012280ED1A5A80F878200AB180ED3C
:1086E0001D0A90ED1B1A70EE411A00EB8301F5EEA6
:1086F000C01AF1EE10FAD1ED137A40F38180DFED6C
:108700004C4A74EEC15A34EEE75A85EE254ADFED45
:10871000460AB4EEE04AF1EE10FA08D4F2EE040A8A
:10872000B4EE604AF1EE10FAD8BFF0EE440A90EDD4
:108730001C7ADFED3E6A70EE473AB0EEE36AB4EEC3
:10874000E66AF1EE10FA4EBFDFED351A394A0267DC
:10875000E0EEA17AF5EEC07AF1EE10FA59D4B7EE58
:10876000001AF4EE417AF1EE10FAC8BFF0EE417A49
:10877000C1ED137A80ED1B0A704790ED184AD0EDD9
:10878000194A9FED295A70EEC40A77EE646AA0EE8A
:10879000854AE6EEA74A80ED184AC0ED194AF0EE88
:1087A000470AF0EE673A74E790ED177AD0ED187A41
:1087B0009FED1B6A9FED1C1ADFED1A1A30EEC72AD7
:1087C00076EE672AA2EE017AE2EEA17A80ED177AC0
:1087D000C0ED187A90ED193A9FED114ADFED114A7C
:1087E000DFED113A74EE435A032BA5EEA43A18BFFD
:1087F000F0EE440A80ED193A18BFF0EE643A48E70B
:108800009FED0D2A71EE022A37EE823A83EE224A5C
:108810007DE7DFED037AC1ED137A80ED1B0A704727
:10882000000000006F12033BCDCCCC3D0AD7A33C27
:10883000C520803F000080BF6F12833A2DE9F041D0
:10884000DB4B044600881D7807EE900A0E46FBEECF
:10885000C87A04F11C0227461DB1B7EE007A77EE04
:10886000677A597821B1A06990ED020A77EEC07A53
:10887000D2ED000AD3ED016ACE4B37EEE01A0121AA
:10888000E6EE810AE2EC010A7D8802EE905A1D783C
:10889000B81CFBEEC82A1DB1F7EE001A71EEE22AF1
:1088A0005F7837B1A56905EB810898ED022A72EE71
:1088B000C22A92ED003AD3ED013A1D7A32EEC34A54
:1088C0000131A3EE843A0833A2EC013AB0F802C0B9
:1088D00005EE90CAFBEEC85A1DB1F7EE004A74EEE1
:1088E000E55A5F7837B1A56905EB810E9EED025A16
:1088F00075EEC55A1546B5EC016A93ED017A93F809
:1089000008C035EEC60A071DA7EE006A01F101088E
:1089100003F1080E05ED016A808807EE900AFBEE70
:10892000C87ABCF1000F03D0F7EE000A70EEE77AC8
:108930009EF8015035B1A06900EB880CDCED026AAD
:1089400077EEE67A92ED011ADEED011A37EEC12AD2
:108950000231A1EE821A08320A2903F1100302ED56
:10896000011A91D194ED0F4AD4ED102AE7693760CE
:10897000B0EE003AA2EEC34AB5EEC04AF1EE10FAEC
:1089800000F13D81F7EE003AB4EE634AF1EE10FAE1
:10899000C8BFB0EE634A94ED085A86ED044AB5EEBE
:1089A000C05AF1EE10FA00F12781F7EE004AB4EE5A
:1089B000645AF1EE10FAC8BFB0EE645AD4ED095A09
:1089C00094ED0A6A86ED035A35EEC60A0025B5EE27
:1089D000C00AF1EE10FA00F10D81B7EE007AB4EEA4
:1089E000C70AF1EE10FAC8BFB0EE470A86ED010AD9
:1089F000D4ED0E0A94ED0D0AF1EE606A76EEA60A49
:108A00002046FFF717FE94ED131AD4ED171A9FEDC9
:108A10006A2ADFED6A7A71EE212AE2EE827AF5EEB9
:108A2000C07AF1EE10FA00F1E280B7EE003AF4EE0F
:108A3000437AF1EE10FAD8BFB0EE673AD4ED163AA9
:108A400094ED1A4A86ED053A73EE844AF5EEC04A73
:108A5000F1EE10FA00F1C880B7EE005AF4EE454A84
:108A6000F1EE10FAD8BFB0EE645AD4ED155A94ED79
:108A7000196A86ED085A35EE860AB5EEC00AF1EE9F
:108A800010FA00F1AE80B7EE007AB4EE470AF1EECC
:108A900010FAD8BFB0EE407AD4ED140AD4ED186ABB
:108AA00086ED077A70EEA61AF5EEC01AF1EE10FA0E
:108AB00000F19480B7EE001AF4EE411AF1EE10FACC
:108AC000C8BFF0EE411AA06994ED0B2A90ED003A70
:108AD000D0ED013ADFED3A7A94ED0C4A94ED116A4B
:108AE00038499FED395AC6ED061AA4EE233A62EED4
:108AF000272A33EE461AFDEEE24AF0EEC11A14EED2
:108B0000902A4FEA820808EB010EF4EEC51AF1EE46
:108B100010FA9EED000A9EED017AD8BF9FED2B3A28
:108B2000DFED2B7AF8EEE45A77EE406A72EEE50A52
:108B3000D8BFA1EE036AA0EEA60AD8BFB0EE463AAF
:108B400030EE032A86ED020AB4EEE72AF1EE10FABF
:108B500084ED113A20D5C6ED027A04F1140001F03B
:108B60007BFEA37D277D8BB9002F4BD1E17D607DFE
:108B700051B180F0010286F8252086F826102046A3
:108B8000BDE8F04101F0E4B90A46F4E7002FEDD169
:108B9000012586F82450E9E7DFED0E2AB4EEE22A3B
:108BA000F1EE10FAC8BFB0EE622A86ED022AD4E7D1
:108BB00000000020080000206666863FCDCCCCBCBB
:108BC00000008044F0250208CDCC4C3FCDCCCC3DFC
:108BD000000040C200004042000000005FED021AA9
:108BE00071E71FED037A57E71FED055A3DE71FEDCB
:108BF000063A23E77560FBE61FED095ADEE61FED36
:108C00000A4AC8E686F82430B0E700BF2DE9F84FDD
:108C10009F4E074600F140084FF0EF0CB1463D462D
:108C200006F1400A4C460FCC544528606960AA60A2
:108C3000EB60A14605F11005F4D13B46F94313F86A
:108C4000012B4144434501F007004AD048B30128B5
:108C500021D002281BD0032815D004280FD00528C6
:108C600009D0062803D013F801BB5A4492B213F876
:108C700001AB524492B213F8014B224492B213F862
:108C8000019B4A4492B213F8015B2A4492B213F852
:108C9000011B0A4492B213F8010B0244434592B2FD
:108CA0001FD09B4693F802901BF801ABDD789BF830
:108CB00000B01C795979987952441BFA82F219FA5A
:108CC00082F9083315FA89F514FA85F411FA84FA51
:108CD00013F801BC10FA8AF11BFA81F0434582B205
:108CE000DFD1D243B6F84030B6F8425094B2A34236
:108CF00000F0BA806749443E8E420CF1FF3C8DD1B2
:108D0000654B664A66483A6000258021FF24BB60B7
:108D1000FB603B617B61BB61FB613B627B62BB6271
:108D2000FB62786087F83410A7F8405087F830501D
:108D300087F8315087F8325087F8355087F8365029
:108D400087F8334013F050FCF32013F05DFCB7F8C4
:108D50004060544A544806EB06134FEA830A5244D3
:108D6000824200F28A80002E00F089804F4EDFF8A8
:108D700044910AF1006E5644D1440EF580452C46CC
:108D800005F1400BC5EB070A20465AF804100434DD
:108D900013F0AAFC5C45F7D13B466FEA070C13F8C9
:108DA000012BC44443450CF007014BD049B30129C2
:108DB00021D002291BD0032915D004290FD0052961
:108DC00009D0062903D013F8010B024492B213F81C
:108DD00001EB724492B213F8015B2A4492B213F889
:108DE00001BB5A4492B213F801AB524492B213F849
:108DF000014B224492B213F801CB6244434592B234
:108E000020D0194693F802E011F801BBDD7891F803
:108E100000A01C79587993F806C05A441AFA82F2D5
:108E20001EFA82F115FA81F5083314FA85F410FA66
:108E300084FE13F8010C1CFA8EF210FA82F14345FD
:108E40008AB2DED1D34399B2484613F06DFC304666
:108E5000B7F8401013F068FCB7F8408008F101063D
:108E6000A7F84060BDE8F88F65457FF443AF0CF18B
:108E70000105A7F84050BDE8F88FA7F8405008203A
:108E8000022113F0F5FBDFF82C90084E084D76E731
:108E90007C7F0008BC3F0008AE47013F0A5785426F
:108EA0001F85A8C244400008FF7F00084240000818
:108EB00000400008404000082DE9F04F83B00C4608
:108EC00001F204460193174613F08EFBF32013F0D2
:108ED0009BFB04F10800C000022113F0C9FB019BB9
:108EE0007604002B00F0B08008374FF0000A3046BF
:108EF00057F8081C13F0F8FB301D57F8041C13F04A
:108F0000F3FB57F8048C3C68B8F1030F06F1080630
:108F100040F29280A8F1040954F8041B30464D46F3
:108F200013F0E2FB032DC9F3820206F1040B7CD996
:108F3000002A46D0012A3AD0022A30D0032A26D06D
:108F4000042A1CD0052A12D0062A08D0584654F804
:108F5000041B13F0C9FBA9F104050BF1040B5846DF
:108F600054F8041B13F0C0FB043D0BF1040B5846EE
:108F700054F8041B13F0B8FB043D0BF1040B5846E6
:108F800054F8041B13F0B0FB043D0BF1040B5846DE
:108F900054F8041B13F0A8FB043D0BF1040B5846D6
:108FA00054F8041B13F0A0FB043D0BF1040B5846CE
:108FB000043D54F8041B13F097FB032D0BF1040B35
:108FC00033D92346584653F8041B009313F08CFB07
:108FD00000990BF104090968484613F085FBA16864
:108FE0000BF1080013F080FBE1680BF10C0013F0AB
:108FF0007BFB21690BF1100013F076FB61690BF12B
:10900000140013F071FB203454F8081C0BF1180005
:1090100013F06AFB203D0BF11C0054F8041C13F004
:1090200063FB032D0BF1200BCBD8A8F1040020F03B
:10903000030C0CF1040E7644019C0AF1010AA245CE
:1090400007F10C077FF453AF03B0BDE8F08F00BF0A
:109050002DE9F047074613F0C7FAF32013F0D4FACE
:10906000B7F84010484B494801EB011294002344E3
:1090700083427BD90025A7F840500221082013F035
:10908000F7FADFF81081DFF8109141490C4601F141
:10909000400A7E1A20463159043413F025FB54450A
:1090A000F8D13B4607F1400013F8012B83424FF003
:1090B00007054AD04DB3012D21D0022D1BD0032D21
:1090C00015D0042D0FD0052D09D0062D03D013F88F
:1090D00001CB624492B213F801EB724492B213F8DE
:1090E000011B0A4492B213F801AB524492B213F836
:1090F000016B324492B213F8014B224492B213F83E
:10910000015B2A44834292B21FD09C4693F802E04E
:109110001CF801ABDE789CF800C01D7959799C7968
:1091200052441CFA82F21EFA82FE083316FA8EF6B8
:1091300015FA86F511FA85FA13F801CC14FA8AF1BA
:109140001CFA81F48342A2B2DFD1D34399B24046E4
:1091500013F0EAFA4846B7F8401013F0E5FAB7F80A
:109160004000421CA7F84020BDE8F087002984D0C9
:10917000DFF82490DFF81C8004F10066A144A044CD
:1091800006F5804182E700BF44400008FF7F0008E9
:1091900000400008404000084240000870B5044606
:1091A0009430C4F88C10C4F890201D46049E01F041
:1091B0006FFB04F19E0001F0AFFCD4F88C20C4F8E2
:1091C000C4600B23C4F8C05084F8BC30D4F89010AD
:1091D00092F83160C86EEC7A086706F0030C81F8EB
:1091E00048C092F8303013F0010F03F003060CBFB3
:1091F0000220012014B96C68844234D0730868607E
:109200000126EE722B7292F83200DFED1A7A00F02E
:1092100003042C7092F8335007EE105AB8EE470A48
:10922000C0EE270AC1ED130A92F834C001EE10CA4D
:10923000F8EE411A81EEA72A81ED142A92F835E062
:1092400002EE90EAB8EE623AC3EE273AC1ED153A63
:1092500092F8362004EE102AF8EE444A84EEA75A1B
:1092600081ED165A70BD95F808E0730883EA0E0682
:10927000C7E700BF00007F43D0F89020D0F88C30C3
:1092800092F8481083F83110D0F8C0104A68097A73
:10929000B2F1010CDCF1000252EB0C0C09B14CF004
:1092A000020C83F830C0D0F8C010DFED1C7A0A78C9
:1092B00083F83220D0F8901091ED137A27EE270A28
:1092C000FCEEC00A10EE90CA83F833C0D0F89020AC
:1092D00092ED141A61EE271ABCEEE12A12EE101A72
:1092E00083F83410D0F89020D2ED152A22EEA73A58
:1092F000FCEEC33A13EE901A83F83510D0F89020A4
:1093000092ED164A64EE274ABCEEE45A15EE101AA6
:1093100083F83610D0F88C00FFF79ABE00007F4328
:1093200070B500F194050446284601F0A3FBD34B29
:1093300019681A68560801F07F005FFA86FC402819
:109340004FEA4C0194F8BC2094BF002001205FFA42
:1093500081FC360648BF8CF0FF0C0B2A69D8DFE889
:1093600012F0A9000C00CB00DA00E600F7000101C2
:109370000B011E01320145014F01D4F89030DFEDA1
:10938000C07A93ED137A27EE270AFCEEC00A10EE9E
:10939000906AF2B2100600F1B1814FEA420E5FFA14
:1093A0008EFC002284F8962084F89AC093ED141A5B
:1093B000DFEDB31A21EE212AFCEEC22A12EE901A3A
:1093C000C8B2010600F188814200D0B2002184F8C1
:1093D000971084F89B0093ED153ADFEDA93A23EE40
:1093E000234AFCEEC44A14EE906AF2B2160600F16B
:1093F00069814FEA420E5FFA8EFC002284F89820C1
:1094000084F89CC093ED165ADFED9D5A25EE256A2F
:10941000FCEEC66A16EE903AD9B2080600F16681F3
:109420004B005FFA83FE4FF0000C84F899C084F87B
:109430009DE0D4F8C00041F6A812865C84F89460E0
:10944000817A11B3D4F8C4308E485A681E68B2428B
:10945000A8BF1646F11130F91130002B12DB58006D
:10946000B0F5404F80F2E680B0F5004F11DAB0F56C
:10947000804F80F2F58086114FF0000E84F89A60DC
:1094800084F896E0012184F89410284601F082FACD
:1094900070BDC0F38713FF26002084F8983084F84D
:1094A0009C3084F8970084F8960084F89B6084F8D8
:1094B0009A60E7E7D4F8C400724E416802689142AE
:1094C000A8BF0A464FEAE21E36F91E30002BB0DB79
:1094D0005800B0F5404F80F2D780B0F5004F80F2D1
:1094E0001781B0F5804F80F247818611002184F802
:1094F0009A6084F896109CE7D4F8C0004668027A17
:10950000B6F1010CDCF1000151EB0C0C002A6FD01C
:109510004CF0020C6CE0D4F8901091F848E0A644AE
:109520000023FF228EF896308EF89A2081E7D4F837
:10953000C02092F800E01CFB0CF3580AA644A0F1EE
:1095400080066FEA000C8EF896608EF89AC070E77D
:1095500094F8C8C0A444464200218CF89A608CF864
:10956000961066E794F8C8E0A644434200208EF8BF
:1095700096308EF89A005CE7FF21002284F896105E
:1095800084F8971084F8981084F8991084F89A2039
:1095900084F89B2084F89C2084F89D2049E700B142
:1095A000FF20002684F8960084F89A0084F897003B
:1095B00084F89B0084F8986084F89C6084F8996033
:1095C00084F89D6035E700B1FF2084F8960084F8A8
:1095D0009A0084F8970084F89B0084F8980084F837
:1095E0009C0084F8990084F89D0022E794F8C8C094
:1095F000A444FF2300208CF896308CF89A0018E7DA
:1096000018681B688608F1B24FEA410E5FFA8EF2C5
:10961000310648BF82F0FF021606C3F3012C49D47D
:1096200053005FFA83FE0021A4448CF896108CF856
:109630009AE0FEE6FF224FF0000C4FEA901E84F8FD
:1096400099E084F89DC084F897C084F896C084F8A7
:10965000982084F89C2084F89B2084F89A2011E7B5
:1096600000224FEA901CFF2184F89BC084F89720C9
:1096700084F8962084F89A1004E700BF94F701203C
:1096800000007F43F43502084FF0FF0C00234FEA3F
:10969000901E84F899E084F89D3084F8973084F81F
:1096A000963084F898C084F89CC084F89BC084F8F5
:1096B0009AC0BEE6BF2A3CD8920002F0FC014FF0EF
:1096C000FF0EB1E7BF2A3CD902F140006FEA8001EA
:1096D0005FFA81FCFF2291E6BF2838D900F14006ED
:1096E0006FEA860E5FFA8EF0FF2170E6BF2934D84C
:1096F0008A0002F0FC0C4FF0FF0E96E6BF2A35D927
:1097000002F140016FEA81005FFA80FCFF2249E626
:10971000C0F387100026FF2184F8980084F89C008D
:1097200084F8976084F8966084F89B1084F89A1007
:109730007FE602F140006FEA80065FFA86FEFF21B5
:1097400072E7960006F0FC024FF0FF0C56E64FEA77
:10975000800C0CF0FC01FF2039E601F140006FEABB
:1097600080065FFA86FE4FF0FF0C5EE6960006F07C
:10977000FC024FF0FF0C15E600224FEA901CFF237D
:1097800084F89BC084F8972084F8962084F89A3057
:109790004FE600BF2DE9F047564D2B6800F19E06BD
:1097A000591C04463046296001F0EEF93046234644
:1097B000002210F8011B802922D0A9B9D3F8A46097
:1097C00036B12F68DFF82C81BE1BB6F57A7F50DCEE
:1097D000D3F8B01051B12F68DFF818C1791AB1F57C
:1097E0007A6F2CDC10F8011C7F2960D00132032A2B
:1097F00003F10403DDD12046FFF792FDBDE8F087B9
:10980000D4F88810271D07EBC1094E1C06F00F0E77
:109810004FF004084FF0000C07F83180A9F802203F
:10982000C9F804C0C4F888E029682F682E68216050
:10983000C3F8A470C3F8B06010F8011CBDE7D4F8F9
:10984000886004F1040E0EEBC60A771C4FF0040981
:1098500007F00F080EF83690CAF80410AAF8022094
:10986000C4F88880DCF8001021600026C3F8B060DE
:10987000B8E7D4F8887004F1040C0CEBC70E07F1BC
:1098800001094FF0040A09F00F090CF837A0CEF8CF
:109890000460AEF80220C4F88890D8F80060266012
:1098A000C3F8A41010F8011C002991D09CE7D3F84C
:1098B000A41000299AD02F68D4F8886004F1040E0F
:1098C0000EEBC60A07F1010C771CC1EB0C094FF037
:1098D000040807F00F010EF83680CAF80490AAF8C1
:1098E0000220C4F888102E6826600027C3F8A470F0
:1098F0007CE700BF94F70120D0F89030DFED327A9A
:109900005A891988B3F802C007EE102A9A8803EE24
:10991000101A03EE90CAD988B3F808C004EE102AD2
:109920009A8904EE901A05EE10CAD989B3F810C0CE
:1099300005EE902A5A8A06EE101A02EE902A06EEDA
:1099400090CAB8EE470AF8EE430AB8EE631AF8EE8A
:10995000441AB8EE642AB8EE455AF8EE655AB8EEE5
:10996000466AF8EE666AF8EE622A9A6920EE277A6D
:1099700020EEA73A61EE273A21EEA74A62EE274A87
:1099800025EE270A65EEA70A26EE271A66EEA71A25
:1099900062EEA77A092183ED1F7A82ED077A82EDC4
:1099A000023AC2ED033A82ED044AC2ED054A82ED65
:1099B000060AC2ED080A82ED091AC2ED0A1AC2EDC2
:1099C0000B7A80F8BC10704700008037D0F89030D8
:1099D000DFED1B7A5A8993ED1F7A06EE902AF1EE9D
:1099E000470AB8EE660AB0EE606AA0EE276A10B5C4
:1099F000FEEE001AB4EEE16AF1EE10FA044604DD60
:109A0000B5EEC06AF1EE10FA03D4072084F8BC006A
:109A100010BDB3EE082AC2EE062A9969D0F88C0070
:109A2000B2EE083AA0EEA23AC1ED012A81ED003A69
:109A3000FFF70EFB4FF0000C84F8BCC010BD00BF58
:109A40000000803770B54B888EB0044623B3012BDD
:109A50000BD14A68B2F57A7F09DB90F89E0030B9E5
:109A60000823C4F8A40084F8BC300EB070BD94F88C
:109A7000BC10082900F0A38009293CD006294AD04F
:109A8000052900F0A080B2F57A7FACBF0621052140
:109A900084F8BC100EB070BD4968B1F57A6F21DA58
:109AA000B1F57A7F90F8BC2016DA012A40F2838063
:109AB000032A00F09D80022A5CD0042A1FD0501F88
:109AC000C6B2012E13D894F8C8C00CF1010505F0F8
:109AD000030384F8C830C8E7022A08D0022084F8BB
:109AE000BC00C2E7042580F8BC500EB070BD002158
:109AF00084F8BC10B9E72046FFF768FFB5E7D0F857
:109B0000C04094F800E00EF1010101F00302227060
:109B1000FFF7B2FBA9E73F4AD4F8C00011684FF045
:109B20000A0E0126002584F8BCE001F1050C019520
:109B3000467213689C45FCD201F02EFA02A9D4F8B3
:109B4000C00001AA01F062FA02AAD4F88C0094F8CD
:109B5000C810019BFFF7B0F9D4F8C0000021417292
:109B600094F8C82084F8BC10561C06F0030584F84D
:109B7000C8507AE7D0F8C03059681D7A481E46426E
:109B800056EB000C0DB14CF0020C0CF1010EDE7A1C
:109B90001EF0010F0EF003020CBF022001200EB9CF
:109BA000814234D0586051080125DD721972204677
:109BB000FFF762FB59E7032280F8BC2055E72046F7
:109BC000FFF79AFE51E794F8C850D4F8C00005F2A8
:109BD0000446710402F070FC94F8C8C00CF1010353
:109BE00003F00302002084F8C82084F8BC003CE79E
:109BF000D0F8904094F84830E66E266703F1010CE7
:109C00000CF0030E84F848E0FFF736FB2DE751080F
:109C10004D40CAE794F7012030B5D0F88820D0F83D
:109C200084300446D01A83B0020718BF6D4607D1AE
:109C30003DE0D4F88820D4F88410501A030736D0B9
:109C4000D4F8843004EBC30101F1040C9CE8030058
:109C500085E803009DF80020581C00F00F03042A3B
:109C6000C4F88430E5D1019971B9BDF80220022A07
:109C7000DFD1D4F8C01001F5CD5C9CF8080080F06D
:109C800001038CF80830D4E7B1F57A7F0ADBBDF820
:109C9000020038B994F89F3023B9C4F8A83084F88A
:109CA000BC20C6E720466946FFF7CCFEC1E71F4D42
:109CB00023682A68C3EB020CBCF57A7F1ED994F89E
:109CC000BC1007292BD001291CD903291AD02D68D3
:109CD0001649C3EB050C40F6B83294450CD994F8FC
:109CE000BC30086820605D1EE9B2052901D90B2B44
:109CF00002D1002284F8BC2003B030BD94F8BC101F
:109D00000129E2D8D4F8902092F8781009B9236894
:109D1000DDE72B682360012084F8BC00D7E72B68BF
:109D20002360002084F8BC00ECE700BF94F701201A
:109D300038B54B11044601F01F01042B3ED8DFE873
:109D400003F025251C14030031B3012932D0FFF79D
:109D50003DFED4F890300025DA6E1A67204683F86D
:109D60004850FFF789FA284638BDD0F8C0000C1CCF
:109D700018BF01248472002038BD022912D9D0F8FE
:109D8000903003290CBF987DD87D38BDD0F8902045
:109D900032F81150280A38BD4FF0080C084684F8F4
:109DA000BCC038BD014491F89E10D1F1010038BF0C
:109DB000002038BDFFF7A0FD002038BD002038BDD1
:109DC0002DE9F04701219CB004464FF4800012F0C9
:109DD000B3FF0520012112F0AFFF4FF48070012185
:109DE000002512F0C5FF0327FF2301A95448019362
:109DF000DFF854918DF80B508DF8087012F0B4FC18
:109E000001A9504801978DF80B508DF8087012F099
:109E1000ABFC0F94DFF834C1CDF838C04FF40054D8
:109E20004FF4806E04F1804C01264FF400334FF064
:109E30000A084FF480724FF4006A48460DA9CDF825
:109E40004CE01793169215940D950CF580341095EF
:109E5000129518951A951B95CDF84480CDF850A011
:109E6000199612F059FB4846314612F091FB4FF417
:109E700070624FF4403103A8069204910395059552
:109E800012F022FA204607A9CDF82CA007958DF8EC
:109E900020608DF821500A9509958DF8308012F0D8
:109EA000E5F9204632460221072312F02FFA204618
:109EB00039460222072312F029FA204641463A4643
:109EC000072312F023FA204631460422072312F01A
:109ED0001DFA20460B210522072312F017FA20460F
:109EE00004210622072312F011FA072120460A4610
:109EF0000B4612F00BFA204605210822072312F028
:109F000005FA204606210922072312F0FFF94246EE
:109F100007232046294612F0F9F92046314612F06F
:109F200059FA2046314612F0E7F92046314612F040
:109F300047FA204612F03EFA1CB0BDE8F08700BF99
:109F40000000024000080240106402404C20014022
:109F5000014812F02FBA00BF002001402DE9F04166
:109F60002A4C2B4F82B00620012112F0E5FE02257B
:109F70004FF440630026204669464FF001080093E5
:109F80008DF804508DF805508DF806808DF8076027
:109F900012F0EAFB20460A21042212F03DFD204681
:109FA0000B21042212F038FD4FF47042204669461E
:109FB00000928DF804508DF805508DF806608DF8EC
:109FC0000760402512F0D0FB69463846009512F034
:109FD000CBFB20460C21052212F01EFD20460D2150
:109FE000052212F019FD20460F21052212F014FD62
:109FF00020460E21052212F00FFD384606210522CB
:10A0000012F00AFD404602B0BDE8F08100040240B3
:10A0100000080240F0B5154C85B001214FF48000D6
:10A0200012F098FE204612F00FFD04A9104B41F8E3
:10A03000103D4FF480624FF4804C20466946002763
:10A040004BF6FF763325ADF80A20ADF80CC0ADF81D
:10A050000470ADF80660ADF8085012F02BFD2046F4
:10A06000012112F0A1FD012005B0F0BD0058004013
:10A07000A0860100F0B5002085B00C4616461F46AC
:10A0800012F054FE002012F001FE4BF680318C429B
:10A090000CD04AF64440844260D0B4F5FA4F63D005
:10A0A000344B9C4254D0002005B0F0BD4FF4817079
:10A0B000032112F0E1FD012012F0E8FD3B2012F037
:10A0C00081FE4FF4805510BB3B2012F07BFEF0B9AF
:10A0D0003B2012F077FED0B93B2012F073FEB0B9EE
:10A0E0003B2012F06FFE90B93B2012F06BFE70B96E
:10A0F0003B2012F067FE50B93B2012F063FE30B9EE
:10A100003B2012F05FFE10B9083DDDD1CBE7012105
:10A110004FF4804012F01EFE174812F06DFE4FF40F
:10A12000007C002269461448ADF80C20ADF800C050
:10A13000ADF806C00294ADF80260ADF8047012F0FC
:10A1400091FE69460D4812F015FF012005B0F0BDE3
:10A1500040F28910042112F08FFDACE740F20F109D
:10A16000062112F089FDA6E74FF4D570042112F004
:10A1700083FDA0E700770100003800400034004074
:10A1800070B573480E464FF40031154612F056FD77
:10A190004FF4961498B34FF400316D4812F04EFD11
:10A1A0004FF4003158B36A4812F048FD4FF40031C3
:10A1B00028B3674812F042FD4FF40031F8B164480B
:10A1C00012F03CFD4FF40031C8B1614812F036FD89
:10A1D0004FF4003198B15E4812F030FD4FF4003179
:10A1E00068B15B4812F02AFD4FF4003138B158488D
:10A1F00012F024FD18B1083CCDD1002070BD5448A8
:10A20000012112F0E1FC5248524912F009FD4FF4CD
:10A21000805450BB4F494E4812F002FD4D4920BBBF
:10A220004B4812F0FDFC4B49F8B9494812F0F8FCD4
:10A230004849D0B9464812F0F3FC4649A8B9444809
:10A2400012F0EEFC434980B9414812F0E9FC414963
:10A2500058B93F4812F0E4FC3E4930B93C4812F08E
:10A26000DFFC10B9083CD5D1C7E7394834210022BA
:10A2700012F0CAFC3648384912F0D2FC4FF4805430
:10A2800050BB3549324812F0CBFC334920BB304833
:10A2900012F0C6FC3049F8B92D4812F0C1FC2E4925
:10A2A000D0B92B4812F0BCFC2B49A8B9284812F0B1
:10A2B000B7FC294980B9264812F0B2FC264958B9A2
:10A2C000234812F0ADFC244930B9214812F0A8FC13
:10A2D00010B9083CD5D190E7C5F3002141EA46000A
:10A2E000C1B21B4812F09AFC19481C4912F098FCA4
:10A2F0004FF48054002833D11849154812F090FCCF
:10A30000164968BB124812F08BFC144940BB104838
:10A3100012F086FC114918BB0D4812F081FC0F4960
:10A32000F0B90B4812F07CFC0C49C8B9084812F08F
:10A3300077FC0A49A0B9064812F072FC074978B9BF
:10A34000034812F06DFC58B9083CD5D155E700BF61
:10A350000058004001000300820007008000070051
:10A36000E9B2364812F05AFC3448354912F058FC2C
:10A370004FF4805650BB3249304812F051FC3049FE
:10A3800020BB2E4812F04CFC2D49F8B92B4812F096
:10A3900047FC2B49D0B9294812F042FC2849A8B9FA
:10A3A000264812F03DFC264980B9244812F038FCBA
:10A3B000234958B9214812F033FC214930B91F48CC
:10A3C00012F02EFC10B9083ED5D116E71B481D49E6
:10A3D00012F034FC4FF4961450BB1A49174812F08F
:10A3E0002DFC184920BB154812F028FC1549F8B976
:10A3F000124812F023FC1349D0B9104812F01EFC89
:10A400001049A8B90D4812F019FC0E4980B90B4843
:10A4100012F014FC0B4958B9084812F00FFC094916
:10A4200030B9064812F00AFC10B9083CD5D1E4E670
:10A430000248012112F0D8FB012070BD00580040F5
:10A4400080000700040000102DE9E8418846174607
:10A450000F2100221E460546FFF792FE002840D03D
:10A46000284600211722FFF78BFE002839D0284606
:10A4700001211722FFF784FE98B32846022100220B
:10A48000FFF77EFE68B3284603210022FFF778FE1F
:10A4900038B3284604211222FFF772FE08B328467B
:10A4A00005210022FFF76CFED8B128460621622262
:10A4B000FFF766FEC7B1B7F120035A425A412EB1E9
:10A4C000032E25D0052E08BF42F00C02D8B94AF65B
:10A4D000444188450CBF6022002238B90020BDE805
:10A4E000E8810020002FE6D10222E8E72846082173
:10A4F000FFF746FE0028F1D0284609210022BDE8DA
:10A50000E841FFF73DBE28460721FFF739FEDEE7A9
:10A5100042F00802DAE700BF2DE9F04F3B4F3C4E16
:10A52000044683B001214FF4001012F005FC3846B8
:10A53000002112F02DF8384611F056FF354BE3613B
:10A5400000254FF480634FF6FE724FF4006B4FF41A
:10A55000005A4FF480794FF4003840212363A262FF
:10A560006162A5612562E5626564A564E5642565AF
:10A57000C4F834B0C4F838A0C4F83C90C4F84080A3
:10A58000384604F118010093019211F0C5FF2946E5
:10A59000304611F0FDFF304611F026FF1E4F0199A5
:10A5A000009AE5654FF0C06025666166A566E266C3
:10A5B000C4F870B0C4F874A0C4F87890C4F87C8073
:10A5C000C4F88050C4F88450C4F88850C4F88C5043
:10A5D0006065A76504F15401304611F09DFF3046D7
:10A5E0000E4E182101224FF4804411F0DBFF0C487D
:10A5F00034600221012212F0E7FC01210A460948D9
:10A6000012F0E2FC012003B0BDE8F08F7060024060
:10A61000586002400C3800400C34004000E100E07B
:10A6200000380040003400402DE9F0410026134D71
:10A6300046610446884617461E462860FFF78EFC92
:10A6400010B90020BDE8F0812046FFF7E3FC0028A8
:10A65000F7D0204641463A463346FFF70BFD002827
:10A66000EFD041463A4633462046FFF7EDFE00283C
:10A67000E7D02046BDE8F041FFF74EBF90F701203C
:10A6800070B501220E4609210446FFF779FD054603
:10A6900040B31B486661828B00235205E36023614F
:10A6A0006360A36024D51748818B4B051CD580229D
:10A6B00004F1900004F5C876A2626266206204F19B
:10A6C00018011148E66511F027FF04F154010F4805
:10A6D00011F022FF0C48012111F05AFF0B48012113
:10A6E00011F056FF284670BD012112F033FCDEE761
:10A6F000012112F02FFC0348818B4B05D7D4F3E7DF
:10A700000038004000340040706002405860024051
:10A7100010B54469034654B101F1640201F1240CFF
:10A7200000EB820003EB8C012022A04710BD4268A1
:10A7300001F164002431541C03EB800203EB81001F
:10A740005C601A61D86010BD08B50F4B1A6812F032
:10A75000C05F0FD10C4B1A6812F0A05F00D108BD8A
:10A760000A484FF0A051996000680021BDE80840F8
:10A77000FFF7CEBF05484FF0C05199600068202117
:10A78000FFF7C6FFE6E700BF0060024090F7012038
:10A7900070B5102086B0012112F0EAFA1C4D1D4E52
:10A7A0000120014612F0C8FA0024022328464FF483
:10A7B000C06269468DF805308DF8043000928DF83E
:10A7C00006408DF8074011F0CFFF284609210722E7
:10A7D00012F022F928460A21072212F01DF94FF43F
:10A7E00016550C22304602A9ADF81220ADF80C40E7
:10A7F000ADF80E40ADF81040ADF81440029512F0DF
:10A80000EFFB3046012112F057FC06B070BD00BFCF
:10A81000000002400010014030B5012183B0054620
:10A82000022012F089FA00240123C0220948009274
:10A8300069468DF804408DF806408DF805308DF896
:10A84000073011F091FFAC70EC702C706C7003B09D
:10A8500030BD00BF0004024038B50C4D8278C3788B
:10A860000270044643708021284612F0C9F8D0F1E6
:10A87000010038BF0020A0704021284612F0C0F827
:10A88000D0F1010138BF0021E17038BD0004024061
:10A890002DE9F041012182B00546022012F04CFA68
:10A8A0000420012112F048FA002401264FF4087315
:10A8B0006946364800938DF804608DF805608DF880
:10A8C00006408DF8074011F04FFF694630223048AE
:10A8D0008DF804608DF805608DF806408DF807400E
:10A8E000009211F041FFA81DC14305F10A0705F1CF
:10A8F00007083944B845AC7001F00706EC702046F3
:10A900002C716C71AC713CD02EB3012E1ED0022E76
:10A9100019D0032E13D0042E0DD0052E08D0062EEC
:10A920001CBF88F8004005F10808002308F8013B27
:10A93000002408F8014B4FF0000C08F801CB4FF051
:10A94000000E08F801EB002208F8012B002008F89F
:10A95000010BB84515D04146002601F8016B08F1FE
:10A96000080808F8076C4E7008F8056C08F8046CC5
:10A9700008F8036C08F8026C08F8016CB84530461A
:10A98000E9D12870687002B0BDE8F081000402408F
:10A990000008024070B543788278064603F1200033
:10A9A000C5B275701AB1AA4234BF00220122B17932
:10A9B00019B18D4298BF42F00202F3789400E0B2E0
:10A9C0001BB19D4298BF40F00100F2791AB1954247
:10A9D00098BF40F00200317983005FFA83FC19B11F
:10A9E0008D4298BF4CF0010C347A1CB1A54298BF3F
:10A9F0004CF0020C70794FEA8C02D4B218B1854247
:10AA000098BF44F00104717A19B18D4298BF44F0A7
:10AA1000020416481021002211F0F8FF08251348FF
:10AA20002021002211F0F2FF14F0800F4FF00002FD
:10AA30000F4818BF01222021013D11F0E7FFADB200
:10AA400063000A4820210122DCB211F0DFFF002D53
:10AA5000E5D106481021012211F0D8FF32780448D0
:10AA60004FF40071BDE8704011F0D0BF0008024003
:10AA7000000402402DE9F001861D00F10A05F443AF
:10AA8000C31D00222C44AB42827004F00707C27041
:10AA900011460271427182713AD027B3012F1DD045
:10AAA000022F17D0032F11D0042F0CD0052F07D061
:10AAB000062F1CBF1A7000F10803002103F8011BC8
:10AAC000002603F8016B002403F8014B4FF0000847
:10AAD00003F8018B4FF0000C03F801CB002103F8C1
:10AAE000011BAB4214D01F46002207F8012B08338C
:10AAF00003F8072C7A7003F8052C03F8042C03F8EC
:10AB0000032C03F8022C03F8012CAB421146EAD1C6
:10AB10000170BDE8F001704770B5012182B00646B2
:10AB2000022012F009F90420012112F005F9002594
:10AB300001244FF480736946114800938DF8045046
:10AB40008DF806508DF805408DF8074011F00CFE89
:10AB500069464FF440620B488DF804508DF806505A
:10AB60008DF805408DF80740009211F0FDFD30464C
:10AB7000FF2100F8011B00F8011B017002B070BD3D
:10AB80000004024000080240F0B5144B0778144D51
:10AB900083B00446186801907A00BDF80410284676
:10ABA000D7B211F02DFF40EA070366782370BDF895
:10ABB0000610284611F024FF7500A178EFB2384343
:10ABC0004A0060704FF480710648D6B211F018FF49
:10ABD00040EA0603A37003B0F0BD00BFE8D101084E
:10ABE000000802400004024001B970474FF00060C5
:10ABF0004FF4004111F030BB074B0848084A10B42D
:10AC0000F0245A60002180F82340072299605DF803
:10AC1000044B1A60704700BF10E000E000ED00E058
:10AC20003F90020010B40023012480F8244080E803
:10AC300006008360C3615DF8044B70472DE9F00F97
:10AC400090F8243082B0002B40F0CA80416904693A
:10AC5000019400914D1101994268009ED0F800C006
:10AC60005FEA611902EB850306F01F0700F0AE8072
:10AC700052F8254053F8042FDCF80060C7F1200893
:10AC800004FA07F122FA08FA4AEA010585EA0604FD
:10AC90006FEA040B4FEA5B0606F05531C1EB0B057A
:10ACA000AC0804F0333A05F0333BDA440AEB1A16E9
:10ACB00006F00F3101EB01254FEA8909042105EB6C
:10ACC000054AA9F1040449454FEA1A66C4F3800510
:10ACD00076D03DB302FA07FB53F8042FDCF80410DA
:10ACE00022FA08F444EA0B0585EA010A6FEA0A0B26
:10ACF0004FEA5B0101F05534C4EB0B054FEA950AAE
:10AD000005F033310AF0333B8B440BEB1B1404F09A
:10AD10000F3505EB052A08210AEB0A4B494506EBDE
:10AD20001B664DD053F8045F5CF8014002FA07FA45
:10AD3000043125FA08FB53F8042F4BEA0A0B8BEA7F
:10AD4000040B05FA07FA5CF8014022FA08F545EA17
:10AD50000A056FEA0B0B85EA040A6FEA0A0A4FEA52
:10AD60005B054FEA5A0405F05535C5EB0B0504F0B9
:10AD70005534C4EB0A044FEA950B4FEA940A0BF0E2
:10AD8000333B05F033350AF0333A5D4404F0333495
:10AD9000544405EB151B04EB141A0BF00F350AF0A5
:10ADA0000F3405EB052B04EB042A0BEB0B450431A8
:10ADB0000AEB0A4406EB1566494506EB1466B1D169
:10ADC0008369B34202D2009FC7618661009A019DE8
:10ADD000511C8D42CCBF0022012280F82420416109
:10ADE00002B0BDE8F00F704710B400248461C46164
:10ADF000446180F824408260C36001615DF8044BC7
:10AE0000704700BF2DE9F00F00F5845500F5875B12
:10AE1000DFED237A2349244A296100F58654AC46A4
:10AE20002F46DA46002300F58556A1466A61C5ED36
:10AE3000037AB046CCF81C305D46BB61B446C4ED25
:10AE4000077A216262625F46CBF80C304C46CAF842
:10AE50000830CB46CA4600F58850C6ED057AB16188
:10AE6000F261C9F804302360C8ED007AC8F8041014
:10AE7000C8F80820C8F81030CCF80C30C5ED047ABA
:10AE80006961AA610360FB61C4ED027AE16022613D
:10AE9000CBF81830CAF81430BDE8F00F704700BF87
:10AEA00022BA003D0AD7233CCAAA7F3FF8B505461F
:10AEB00000F5CE5669610698EA61002102240C363D
:10AEC000AB6128626C6006F1B8022972A9725A2738
:10AED0000023093F136042F8043C93605360136100
:10AEE000D360936153611362D361936253621363BE
:10AEF000D362936353631364D36302F14802E7D1CF
:10AF000030462449B42205F5EA5412F00DF904F153
:10AF100014072C20C6F8840307F1B80C5A26002425
:10AF2000093ECCF800404CF8044CCCF80840CCF872
:10AF30000440CCF81040CCF80C40CCF81840CCF8C9
:10AF40001440CCF82040CCF81C40CCF82840CCF879
:10AF50002440CCF83040CCF82C40CCF83840CCF829
:10AF60003440CCF84040CCF83C400CF1480CD6D1F1
:10AF7000B4220849384612F0D7F82C21C7F88413B8
:10AF80002846FFF73FFF042201232C616A70EB7211
:10AF9000F8BD00BFF8370208037A30B423B3426823
:10AFA00041F2381C41F2181550F80C104559B2F115
:10AFB000010C42F2DC0442F2E003DCF1000252EB4D
:10AFC0000C0C0551C1504CF002020578B5F1030C90
:10AFD000DCF1000442F2E50142F2E40354EB0C051B
:10AFE0004554C25430BC704741F2581141F27812B6
:10AFF00045584168835842F2DC0442F2E00C0551A6
:10B000004C1E624240F80C306241DEE74368F0B407
:10B0100000F5035404F11C060C27114D0D60002BA4
:10B020008E604F6001EB070412DD00EB830C476973
:10B03000DCF818500B4E0D61012B4F61CE6003DD23
:10B04000806908628E61CD6103EB430304EB8304E6
:10B05000611A054F8D1007FB05F61660F0BC7047AE
:10B060007374617462756666ABAAAAAA2DE9F04F83
:10B07000437890F800B02DED028BDA1EB3EB0B0590
:10B080000446D0B218BF012501288FB040F29A853E
:10B09000BBF1030618BF0126E77A7FB9002D40F007
:10B0A000BB82BBF1030F00F0F886BBF1010F00F08B
:10B0B00023830FB0BDEC028BBDE8F08F15B1002EDD
:10B0C00000F0AD8241F6A815002666556368012B95
:10B0D00000F0C086236A6569E069A6690D930C9348
:10B0E000C71A0A952B440B96207A9FEDD67ADFED8E
:10B0F000D67A002814BFB0EE678AB0EE478AB7F55B
:10B10000005FC0F0568503F5005EA7F50057C4F850
:10B11000EC3FF1460026C3EB090A43F8046BAAF1A1
:10B1200004019945C1F382023AD01AB3012A1BD017
:10B13000022A15D0032A10D0042A0BD0052A06D0E3
:10B14000062A18BF43F8046B002043F8040B0025BF
:10B1500043F8045B002643F8046B002143F8041B0A
:10B160004FF0000B43F804BB4FF0000C43F804CB46
:10B17000994515D09A464FF000084AF8048B2033C1
:10B1800043F81C8CCAF8048043F8148C43F8108CE4
:10B1900043F80C8C43F8088C43F8048C9945E9D1AA
:10B1A000002304F58059B7F5004FC4F8E83F09F1D2
:10B1B0001405C0F0F7840EF50048A7F50047C5F860
:10B1C00004E04146F34600262BF8026BCEEB010269
:10B1D000901E5945C0F342033CD02BB3012B1ED027
:10B1E000022B18D0032B12D0042B0CD0052B06D029
:10B1F000062B18BF2BF8026B00262BF8026B4FF0C2
:10B20000000C2BF802CB4FF0000A2BF802AB4FF0EA
:10B2100000092BF8029B4FF0000E2BF802EB0026E2
:10B220002BF8026B594515D05846002220F8022B06
:10B230000BF1100B2BF80E2C42802BF80A2C2BF85C
:10B24000082C2BF8062C2BF8042C2BF8022C594533
:10B250001646E9D141F2140104F581506650DFF839
:10B26000F0E1C0F804E00146DFF8E8B1DFF8E8A15A
:10B27000DFF8E891DFF8E8C1DFF8E8E1C1F808B0ED
:10B2800040F61740C1F814A0C1F818908742C5F8DD
:10B2900038C0C5F834E004F12405284640F2718432
:10B2A00004F5825606F11809414608F58162FFF758
:10B2B000B9FC08F5005BC9F80480C44600202CF8EE
:10B2C000020BC8EB0B018A1EE345C2F342033AD0DE
:10B2D00013B3012B1BD0022B15D0032B10D0042B42
:10B2E0000BD0052B06D0062B18BF2CF8020B002024
:10B2F0002CF8020B00272CF8027B00262CF8026B9E
:10B3000000212CF8021B4FF0000E2CF802EB00205D
:10B310002CF8020BE34516D0E046002228F8022B59
:10B320000CF1100C2CF80E2CA8F802202CF80A2C8A
:10B330002CF8082C2CF8062C2CF8042C2CF8022CB9
:10B34000E3451046E8D194F800B0404F41F2580C64
:10B350000023BBF1030F44F80C00C9F82830C9F8EA
:10B36000307000F082856068002840F37D8704F526
:10B370008A5904F5AC5A0026207A09F10C020AF128
:10B380000407B4460DF128090DF13008002800F03B
:10B39000518159F8061058F8060042F8481CA0F1EF
:10B3A000080A084400234FF0000B814242F838ACF1
:10B3B00042F8441C42F840BC42F8343C42F82C3C71
:10B3C00000F003840B464FF07F0B03F801BB6FEADC
:10B3D000010E864483420EF0070A64D0BAF1000FD2
:10B3E0004CD0BAF1010F25D0BAF1020F1ED0BAF13C
:10B3F000030F18D0BAF1040F11D0BAF1050F0AD01B
:10B40000BAF1060F04D04FF07F0E013381F801E04E
:10B410007F2103F8011B4FF07F0A03F801AB4FF0C7
:10B420007F0E03F801EB7F2103F8011B4FF07F0A29
:10B4300003F801AB4FF07F0E03F801EB834232D0EB
:10B440001CE000BF0000FA4600007A4600E0FF441E
:10B45000BDFFFF3FBDFFFF3EE7FFFF3FE7FFFF3EB2
:10B460003333333F0000203F0000804400000000E1
:10B470000000904200000043000080439A467F2174
:10B480000AF8011B083303F8071C8AF8011003F8B7
:10B49000051C03F8041C03F8031C03F8021C03F842
:10B4A000011C8342EAD1207A42F8307C61680CF1B9
:10B4B000010C614507F5007706F1040602F1200250
:10B4C0003FF764AF01290CBF94F800B094F800B0C6
:10B4D000034608BF2822084618BF2022002B0CBFB5
:10B4E0001021172101FB02F73E1106EB46084FEA37
:10B4F000A8024FF07E53E6642265E36504F1840EF2
:10B500000027F0EE000AF14610EE901A00228EF8A5
:10B510001020083749F8301B402F89F81020CEED55
:10B520000C0A8EF87020CEED180A8EF8A020CEED11
:10B53000240A8EF8D020CEED300A8EF80021CEED10
:10B540003C0A8EF83021CEED480A8EF86021CEED0F
:10B55000540A0EF5C07ED4D104F6246904F62C6892
:10B5600004F6286C1FED401AC4F8E85D00230121A1
:10B5700004F63467F7EE001A6065C4F8200EA36580
:10B5800084ED181A04F6446AC9F8003004F64865D8
:10B59000C8F8003004F56569CCF8003004F654684A
:10B5A00084F8001E84F8181E84F8022E84F8012EF8
:10B5B00084F81A2E84F8192E04F6586CC7ED001A78
:10B5C00084F8381E04F65C614FF480564FF07C5EC0
:10B5D00004F66467C4F83C2EC4F8402EC4F81C6E10
:10B5E000CAF80030C5F800E0C4F84C2EC4F8700E5C
:10B5F000C9F80030C8F80030CCF800300B60C4F84F
:10B60000782EC4F87C2E84F86C2EC7ED001A002129
:10B6100084F801B0E17244E5002E40F0EE8341F67B
:10B62000A8120021A154002F7FF450AD002D7FF40B
:10B630004DAD36E558F8061059F806301FED750A7D
:10B64000D0604FEA510E03EB4E0AAEF1080B5345A2
:10B650005061C2F808B042F8083C42F8043C82ED60
:10B66000000A46D01946C3EB0A0B21F8020BABF1D6
:10B67000020E8A45CEF342003BD030B301281ED0E3
:10B68000022819D0032814D004280ED0052809D088
:10B69000062804D04FF0000E0231A3F802E0002388
:10B6A00021F8023B002021F8020B4FF0000E21F898
:10B6B00002EB002321F8023B002021F8020B4FF09F
:10B6C000000E21F802EB8A4513D00846002320F82B
:10B6D000023B103121F80E3C438021F80A3C21F84E
:10B6E000083C21F8063C21F8043C21F8023C8A453C
:10B6F000EBD117610020D9E6277A002F40F067824E
:10B7000094F8380E002840F0E08104F5636B9BED5F
:10B71000005A1FEDA92A5FEDA92A1FEDA96A9F4EC5
:10B720009F4ADFEDA06AA04BF7EE005A35EE653A6E
:10B73000E3EE022AFDEEE23AB8EEE34A13EE905A47
:10B7400072EEC44A02EB850E24EE867ADEED008AA4
:10B75000FDEEC77A17EE901A06EB810999ED008A83
:10B7600028EE880A60EE260ABDEEE01A11EE107A85
:10B7700007EA0306002EC0F28185BB1BD4F81C2EFD
:10B7800001EE903A9D1AFAEEEA1A002DB8BF6D420A
:10B79000B7EE005A402DF4EEC51AC4BFC4F81C3EE3
:10B7A0001A46F1EE10FA00F1B984B0EE002AF4EE78
:10B7B000C21AF1EE10FA00F37683DFED7C2A21EE57
:10B7C000A26A04F6346CDCED006AD4F8201ED4F8CA
:10B7D000E87D0697F7EE045AF4EEE56AF1EE10FA0A
:10B7E00048BFF0EE656A26EE863A0129FDEEC33ABF
:10B7F000D4F83C9E396813EE903A00F06083B9F1BA
:10B80000000F0791C0F234850025002A059540F30A
:10B81000998004F58A5A04F58B5ED346F0460EF102
:10B82000040E29462E462F460AF1040A0BF1140B8A
:10B83000CDF810E008F114089C46089403E0974204
:10B8400001F1010160DADBF80040DAF800309FED29
:10B85000588A09EB0700A042ACBFC4EB00040446C1
:10B8600003EB440E33F91440BEF90230B7B204EED4
:10B87000107A08EE903A049FD8F8003004EE904A0F
:10B8800098423C68A8BFC3EB000004EB400334F9C6
:10B890001000B3F90240F8EEE47AB8EEE80A01EEDF
:10B8A000900A05EE104ABBEEC84AB8EEE12A70EEE7
:10B8B000670AF8EEC52AE4EE207A01F01F0E66440E
:10B8C00032EEC26A27EE881AA4EE062A3714A2EED8
:10B8D000081AB5EEC01AF1EE10FAD4BF2B4645F0A7
:10B8E0000103BEF11F0F4FEA4305A8D1DDF814E0B4
:10B8F000079C48090EF1200E9742CDF814E044F859
:10B90000203001F101019EDB11F01F006346089C0D
:10B9100016D0079E059F05E0013111F01F004FEA88
:10B9200045050CD01F28F7D14A09013111F01F003D
:10B9300046F8225007F120074FEA4505F2D1059756
:10B94000D4F81C2ED4F8405E069EB5EB020B48BF1F
:10B9500041F254114FEA42000490776848BF6158A1
:10B96000049E07974CBF59445946002E40F3A380CC
:10B9700004F58A5A04F58B580022D146C346104676
:10B98000154616460AF1040A09F1140908F10408DB
:10B990000BF1140B8C46089417E000BF1C860208BC
:10B9A0001882020800000046010000800000804765
:10B9B0000000003800009042000000430000804377
:10B9C000049CB44202F101025DDDD9F80070DAF89E
:10B9D00000405FED093A0CEB06011FFA85FEB94203
:10B9E00006EE90EAACBFC7EB010E8E4604EB4E07A5
:10B9F00034F91E60B7F90240DBF8007005EE904A9A
:10BA0000B942D8F80040A8BFC7EB010104EB4107D9
:10BA100003EE106A34F91110B7F90240F8EEC38A48
:10BA2000F8EEE54A07EE101A07EE904AFBEEC86AF8
:10BA3000F8EEC70A34EEE88AB8EEE71AE6EE888A2E
:10BA400002F01F0E1D4471EE601A28EEA30AE6EE06
:10BA5000A10A2E14A0EEA30AB5EEC00AF1EE10FA68
:10BA6000D4BF074640F00107BEF11F0F4FEA470061
:10BA7000A6D1049CDDF81CE05109B4424EF82170B7
:10BA800002F10102A1DC12F01F06089C0DD0079DF7
:10BA90001F2E08BF560902F1010208BF45F8260013
:10BAA00012F01F064FEA4000F2D1D4F81C2ED4F851
:10BAB000401EC2EB010B069805990BEB62024FF09A
:10BAC0000109FFF791F984F8389E636B4FEAA308E8
:10BAD00018F1100F04F124043FF4EBAA204608F1FA
:10BAE0000F06FFF7ABF818F10F0506F007073FF454
:10BAF000E0AA57B3012F22D0022F1CD0032F16D05B
:10BB0000042F10D0052F0AD0062F04D02046FFF7AF
:10BB100095F808F10E052046FFF790F8013D204604
:10BB2000FFF78CF8013D2046FFF788F8013D2046DD
:10BB3000FFF784F8013D2046FFF780F8013D2046DD
:10BB4000FFF77CF8013D3FF4B4AA2046FFF776F8F2
:10BB50002046FFF773F82046FFF770F82046FFF7FE
:10BB60006DF82046FFF76AF82046FFF767F8204691
:10BB7000FFF764F82046FFF761F8083DE5D1FFF7CD
:10BB800098BA04F5825707F1180900214FF4816231
:10BB9000FFF748F84FF4005BC9F804604FF0000865
:10BBA000FFF78BBBF0466B609E464FF40041FFF7FA
:10BBB00009BB00259E46C4F8EC5F2B464FF40059A4
:10BBC000FFF7A8BA0026FFF767BA01206CE494F8E3
:10BBD000383E002B7FF479AF04F5636898ED001AC6
:10BBE0005FED8C1A1FED8C5A1FED8C2ABF4FC04D94
:10BBF000DFEDC02AC048B7EE006A31EE463AA3EE48
:10BC0000215AFDEEC56AF8EEE65A16EE906A75EE18
:10BC1000653A07EB860C63EE824A9CED004AFDEE26
:10BC2000E48A18EE90EA05EB8E0A9AED008A24EE7B
:10BC3000080A20EE227AFDEEC77A17EE901A01EA82
:10BC40000003002BC0F23281CF1AD4F81C2E00EE74
:10BC5000907ABD1AFAEEEA0A002DB8BF6D42B7EE2F
:10BC6000001A402DF4EEC10AC4BFC4F81C7E3A4647
:10BC7000F1EE10FA00F12081F0EE001AF4EEE10A84
:10BC8000F1EE10FA00F301839FED9C5A20EE852A15
:10BC900004F63469D9ED002AD4F8200EB7EE046A10
:10BCA000F4EEC62AF1EE10FA48BFF0EE462A22EE74
:10BCB000823A0128FDEEC36A16EE903A00F0E8825F
:10BCC000D4F8E86DD4F83CBE31680796BBF1000F9C
:10BCD0000891C0F2D783002A4FF0000140F3608141
:10BCE00004F58850049004F5895ADDF81080069018
:10BCF000CDF814A008F108090AF10805DDF818804C
:10BD0000DDF814A0CDF8109008F114090AF1140818
:10BD1000CDF818900994DFF8F0E1CDF814800846CA
:10BD20000E460F468C4691469A462C4604E0CC457A
:10BD300000F1010080F28382069A049D13682A684C
:10BD4000DFED724A0BEB0C059D42ACBFC3EB050364
:10BD50002B4602EB0308D35C98F80120DDF8148031
:10BD60001FFA87FC03EE90CA3EF913C03EF9123069
:10BD7000D8F8002005EE903A95422368A8BFC2EBA0
:10BD800005055A195D5D52783EF915303EF912509D
:10BD900004EE10CA00EE903AB8EEC40AB8EEE58A96
:10BDA00001EE105AFBEEC83AF8EEE01A38EE407A8F
:10BDB000B8EEC15AA3EE870A00F01F08574435EECB
:10BDC000612A60EE247AE3EE821A4FEA274CE1EE14
:10BDD000A47AF5EEC07AF1EE10FAD4BF334646F0FD
:10BDE0000103B8F11F0F4FEA4306A0D14FEA5018E4
:10BDF000089A203142F8283099E72046FFF702F8E8
:10BE000041F25C01635803F500579846002228F878
:10BE1000022B103323F80E2CA8F8022023F80A2C4A
:10BE200023F8082C23F8062C23F8042C23F8022CE2
:10BE30009F42EAD141F2580094F800B0E77A2250CC
:10BE400084F801B0002E3FF4EAAB002F7FF43AA94A
:10BE5000FFF727B900236169E2690B930D930A91FB
:10BE60000C92A369276AFFF73FB9227A63680193AE
:10BE7000002A0CBF102608264FF48055B0EE480A61
:10BE80000296009504F568600AA90CAA1C4B0EF0F6
:10BE90002BFA94F800B0FFF7BABB04F568600EF017
:10BEA00063FBFFF706B99FED176A8AE45A1E62F03A
:10BEB000010B0BF10103C7E69FED102AE8E6B9F18B
:10BEC000000F0491C0F2E382002A40F3EB820025C8
:10BED00004F58A5808F1040B08F1140A059529465F
:10BEE0002E462F469446984617E000BF1882020857
:10BEF0001C86020800000046010000800000804708
:10BF0000ECD101080000004850000020000000387B
:10BF1000674501F1010180F20581DAF80020DBF8C4
:10BF200000301FED065A09EB07009042A8BFC2EB94
:10BF3000000003EB400233F91030B2F9020002EEC8
:10BF4000903A06EE100AB7B202EE107AB8EEE23A74
:10BF5000F8EEC66ABBEEC82A76EEC35A01F01F0E91
:10BF6000A2EE253A4644371463EE053AF5EEC03AA0
:10BF7000F1EE10FAD4BF2B4645F00103BEF11F0FBE
:10BF80004FEA4305C4D1DDF814E004984A090EF1E4
:10BF9000200ECDF814E040F82230B9E7D4F81C2E7A
:10BFA000D4F8405E079FAD1A7868069048BF41F20A
:10BFB00014104FEA420C4ABF205828464019BCF1E1
:10BFC000000F40F38E8004F58956059604F5885BD2
:10BFD000DDF814800496D94609F1140A08F108091D
:10BFE000DDF81080CDF81490002208F11409CDF886
:10BFF00010900994B64F08911546164696460BF1D7
:10C00000080B98468146644603E0744502F101023C
:10C0100070DDDAF80030DBF800109FEDB06A09EB54
:10C020000E009842ACBFC3EB0003034601EB030CC8
:10C03000CB5C9CF80110DDF810C01FFA86FE02EE02
:10C0400090EA37F913E037F91130DCF8001003EE0D
:10C0500010EADDF814E0884206EE903ADEF800308F
:10C06000A8BFC1EB00001918185C497837F91030E7
:10C0700037F91100F8EEC34A08EE103AB8EEE64A76
:10C0800000EE100AFBEEC82AB8EEC87A74EE645AC5
:10C09000F8EEC07AE2EEA54A02F01F0C464477EEB5
:10C0A000C70A64EE868AA2EEA07A4FEA264EE7EE31
:10C0B000068AF5EEC08AF1EE10FAD4BF2B4645F0A1
:10C0C0000103BCF11F0F4FEA43059ED14FEA521CFA
:10C0D000069941F82C3098E7D4F81C2ED4F8407E0D
:10C0E000BD1A079805EB6202FEF77EFE012184F877
:10C0F000381EEAE412F01F0043460899099C06D155
:10C10000EAE7013212F01F004FEA4505E4D01F288C
:10C11000F7D15709069E46F82750F2E79FED6D6A62
:10C12000FFF74FBB11F01F02434610D0059805E002
:10C13000013111F01F024FEA450507D01F2AF7D140
:10C140004F09049E203046F82750F1E70590D4F8B7
:10C150001C2ED4F8407E0698B7EB020B48BF41F284
:10C1600054114FEA420948BF6158466804964CBFD3
:10C170000BEB010ADA46B9F1000F7FF79CAC002205
:10C1800004F58A5110461546164601F1040B01F1DB
:10C1900014089C4603E0B14502F101023BDDD8F8EA
:10C1A0000030DBF800709FED4D4A0AEB0601994222
:10C1B000A8BFC3EB010107EB410337F91170B3F9D5
:10C1C000021008EE907A08EE101AAEB204EE906AF1
:10C1D000B8EEE80AB8EEC87AFBEEC84A77EE407AC5
:10C1E00002F01F0EA4EEA70A65442E1460EE040AA6
:10C1F000F5EEC00AF1EE10FAD4BF034640F0010399
:10C20000BEF11F0F4FEA4300C5D14FEA521E049FF3
:10C2100047F82E30BFE712F01F06634607D144E40B
:10C22000013212F01F064FEA40003FF43EAC1F2ED1
:10C23000F6D15509DDF810A04AF82500F0E710F016
:10C240001F025346099C07D1A8E6013010F01F02D7
:10C250004FEA46063FF4A2AE1F2AF6D14509089FD1
:10C26000203147F82560F0E7237A2022FFF736B91E
:10C2700041F2541021588944FFF7C6BA701E60F08D
:10C28000010808F10106FFF778BA9FED132AFFE4D1
:10C29000D4F8E81DD4F83CCE0F680791BCF1000F2C
:10C2A000059703DA41F21416A559AC44002A4FF061
:10C2B00000015DDD04F5885BDA4608460D460F4651
:10C2C0008E460BF1080B0AF1140A994604940CE00F
:10C2D00050000020000080470000004800000038A7
:10C2E000964500F1010080F2B780DAF80030DBF803
:10C2F00000601FED061A0CEB0E049C42A8BFC3EBB6
:10C3000004043319345D5B78694E36F9144036F90C
:10C31000133005EE104A02EE103A1FFA87FE01EEC6
:10C3200090EAF8EEC52AB8EEC23AFBEEC81A73EEF0
:10C33000626A00F01F08E1EEA62A4F444FEA274E3A
:10C3400022EE816AB5EEC06AF1EE10FAD4BF2E4635
:10C3500045F00106B8F11F0F4FEA4605C0D1440968
:10C36000DDF81480203148F82460B9E7D4F81C2E99
:10C37000D4F8405E079E570070680690AD1A059786
:10C3800000F18A800495059E002E7FF7AAAE002258
:10C3900004F5885A0AF1080C0AF1140BDFF8108131
:10C3A00010461646174699468A4604E0059BBB424E
:10C3B00002F101023CDD049DDBF80010DCF80030E6
:10C3C000DFED3C3A3D448D42A8BFC1EB050559194C
:10C3D0005B5D4D7838F9131038F9153004EE901A7A
:10C3E00005EE903AB7B204EE107AF8EEE48AB8EEB1
:10C3F000E58ABBEEC84A38EE680A02F01F0EE4EE8A
:10C40000008A4E44371428EEA37AB5EEC07AF1EED6
:10C4100010FAD4BF054640F00105BEF11F0F4FEAE8
:10C420004500C3D15109DDF818E04EF82150BDE7B1
:10C4300012F01F054B46514607D14DE6013212F06E
:10C440001F054FEA40003FF447AE1F2DF6D15709B4
:10C45000069E46F82700F1E710F01F074B46049CA4
:10C4600007D183E7013010F01F074FEA45053FF47D
:10C470007DAF1F2FF6D14209DDF814C020314CF8F2
:10C480002250EFE741F21417E559AB4423E441F29F
:10C490005417E159894417E541F21416A0592F1891
:10C4A000049770E74FF00009CDF8149051E600BFF3
:10C4B00050000020000000382DE9F04F8FB000F54B
:10C4C00003530093009D46687C4A029205F11C07C5
:10C4D0000446009701200C238B46002E00996072C1
:10C4E0000491039340F3D08004EB86087448D8F895
:10C4F000182065690692012E0590079503DDA7694E
:10C50000089009920A9705AB06EB4609019303EBE5
:10C5100089060DF1080ACAEB06016A4E881006FB6F
:10C5200000F8B8F1000F00F08E80029ADBF800509E
:10C53000AA4240F08380039FDBF804309F427DD104
:10C540005546002628E004EB820E5D49DEF81830DF
:10C5500060690693012A0591079003D0A0690891AC
:10C5600009930A9002EB4208019A02EB880CCAEB8D
:10C570000C01544B881003FB00F80136464562D28B
:10C5800059F82700EF68874258D12F69DBF804304B
:10C590009F4205F10C0551D10BF108093A46494675
:10C5A000A868BF08FBF7F4FD09EB870B002EE4D168
:10C5B00004F5035C21789CF825800CF1250ECA1E39
:10C5C000504250EB020318F1000118BF01218B42C9
:10C5D00004D000290CBF00220322227004F5035C62
:10C5E0000CF1240E9EF80010E07A11F0010F0CBF40
:10C5F0000223012310B962689A4216D04A08636088
:10C600000CBF002101210120E07221722046FEF7BB
:10C610002DFD6268294B009904910C20002A029399
:10C62000039090DCDDF804C0A1E74A0894F8088084
:10C630000CBF0021012181EA0800E5E700206072BB
:10C640000FB0BDE8F08F257A0DBB42F2DC0741F256
:10C650005819E25944F8092004F58B5A42F2E003D4
:10C66000CAF8005041F2781B04F58C5CE15844F89C
:10C670000B10CCF8005041F6A811012000266054A0
:10C6800066720FB0BDE8F08F05AE019641E742F249
:10C69000DC0041F218162558A55104F589580027E9
:10C6A00042F2E003C8F8007041F2381904F58A5AE2
:10C6B000E25844F80920CAF80070DCE7737461742A
:10C6C00062756666ABAAAAAA2DE9F00FD2ED0A7AC6
:10C6D00083460068DBED055A2DED028B27EEA77A25
:10C6E00002EE900A90B0B8EEE23A27EE270A0E92D8
:10C6F00023EE003A92F8342009938A46C5EE833A35
:10C70000002A42F06981BE4BCBF8183083EE255ADF
:10C71000002843F36B800BF12C073E7F411E002461
:10C7200001F007050D94002E02F05A810122824289
:10C7300007F1300300F08880002D38D095422DD0CD
:10C74000022D25D0032D1DD0042D15D0052D0DD083
:10C75000062D05D01F7F002F02F082810132303379
:10C76000197F002902F07381013230331F7F002FBF
:10C7700002F06481013230331D7F002D02F05581BB
:10C78000013230331E7F002E02F0468101323033F9
:10C790001C7F002C02F03781013230331D7F002DC9
:10C7A00002F028810132824203F130034CD00D990E
:10C7B0001F7F27B90BEB810C0131CCF81C2C3033D7
:10C7C0001E7F013226B90BEB81050131C5F81C2C07
:10C7D00093F84C40571C24B90BEB81090131C9F87F
:10C7E0001C7C93F87C60951C26B90BEB810C013105
:10C7F000CCF81C5C93F8AC40D71C24B90BEB810936
:10C800000131C9F81C7C93F8DC60151D26B90BEBCF
:10C81000810C0131CCF81C5C93F80C41571D24B9F4
:10C820000BEB81090131C9F81C7C93F83C61951D23
:10C8300026B90BEB810C0131CCF81C5C073282422B
:10C8400003F5A873B4D10D910E9F1A9C97F825207B
:10C85000002C7FD06B4E06903168DDF868800D9813
:10C8600000233C46684F694DDFED690ADBED066A3F
:10C8700007FB01F94D4401EE105AB8EE416AF7EE9C
:10C88000001A26EE202A36EEA14AB4EEC25AF1EE84
:10C8900010FA8BED064A40F3FA81DBED034AB4EE61
:10C8A000E43AF1EE10FA40F3F281002840F0FB8107
:10C8B000013343452946D5D1099E1A9C514A0D9012
:10C8C00006EBC407BE420698116043D04FF0000C3F
:10C8D000B91B46F804CB0D1FB742C5F3820339D00C
:10C8E0001BB3012B1CD0022B17D0032B12D0042B0F
:10C8F0000DD0052B07D0062B1CBF002346F8043BA8
:10C90000002446F8044B4FF0000946F8049B00222F
:10C9100046F8042B002146F8041B002546F8045B6A
:10C92000002346F8043BB74214D0B44600244CF828
:10C93000044B203646F81C4CCCF8044046F8144C06
:10C9400046F8104C46F80C4C46F8084C46F8044C97
:10C95000B742EAD10BF61C5600280A9640F39C8396
:10C960000BF148070BF138090BF13C0C0022CDF814
:10C9700004B0CDF820B00297CDF80C90CDF81CC0D3
:10C980000692D34603994D7C022D00F0DE84012DE2
:10C9900000F08F86089B019C9E6894F84870012ED9
:10C9A00000F0F687002F00F05A83E06A002802F0BA
:10C9B000F3851A99002902F01387421E12F007042A
:10C9C0000B4609994DD01A9B099D013B104605F174
:10C9D000080102F1FF327DD0012C42D0022C39D067
:10C9E000032C30D0042C27D0052C1ED0062C15D0BB
:10C9F000013B104601F1080102F1FF326AD00DE05F
:10CA000000007AC4500200200D6619005FF36E3CEE
:10CA10000000802F0000004300008043013B1046CF
:10CA200001F1080102F1FF3254D0013B104601F13F
:10CA3000080102F1FF324DD0013B104601F108011F
:10CA400002F1FF3246D0013B104601F1080102F12C
:10CA5000FF323FD0013B104601F1080102F1FF32E5
:10CA600038D00831013BD71EA2F1040CA2F1050811
:10CA7000A2F10609A2F1070A0D461C461046002A3B
:10CA800001F04B82561E083A23B3013B304601F1B8
:10CA9000080106F1FF361DD0A31E304605F1100136
:10CAA00018D0E31E384605F1180113D0231F604645
:10CAB00005F120010ED0631F404605F1280109D081
:10CAC000A31F484605F1300104D0E31F05F13801EA
:10CAD0005046C6D1DDF804C04FF0FF36CCF82C002C
:10CAE000DDF8089019ED063AB5EE403AF1EE10FA8D
:10CAF00041F03981DDF81CA0039C9AED002AD4EDA9
:10CB0000007A002B01F0AF8016F0030730460A9A36
:10CB100053D0B7EE008AF4EEC87AF1EE10FAAABF4D
:10CB2000B0EE006AB0EE676A36EE676A77EE827A38
:10CB3000F0EE004AF4EEE47AF1EE10FA81F2918020
:10CB40000A9A06F1FF3C012FA2EC016A604634D03C
:10CB5000022F18D0B7EE003AF4EEC37AF1EE10FAD5
:10CB6000B4BFF0EE674A74EEE74A77EE827AB0EE31
:10CB7000006AF4EEC67AF1EE10FA81F27280E2EC0D
:10CB8000014A0CF1FF30F7EE003AF4EEE37AF1EEF1
:10CB900010FAAABFB0EE006AB0EE676A36EE676AB6
:10CBA00077EE827AB0EE005AF4EEC57AF1EE10FA22
:10CBB00081F25780A2EC016A0138F7EE006AF4EEC8
:10CBC000E67AF1EE10FAA6BFB0EE006A36EE676ABA
:10CBD000B0EE676A77EE827AB0EE000AF4EEC07AC1
:10CBE000F1EE10FA81F23D80043202ED016A9146C5
:10CBF000451E002801F03780B7EE001AF4EEC17A26
:10CC0000F1EE10FAC1F2528370EE670A77EE827A83
:10CC1000B0EE006AF4EEC67AF1EE10FA81F22180ED
:10CC2000F7EE005AF4EEE57AF1EE10FAB4BFB0EE8A
:10CC3000676A36EE676A77EE827AB0EE004AF4EE03
:10CC4000C47A4A46F1EE10FAE2EC010A81F2098058
:10CC5000F7EE005AF4EEE57AF1EE10FAB4BFB0EE5A
:10CC6000674A34EE674A09F1080277EE827A02EDEC
:10CC7000016AB0EE006AF4EEC67AF1EE10FA80F2C4
:10CC8000F08709F10C0202ED014AE81E95E7F4EE87
:10CC9000C43AF1EE10FA7FF608AE00283FF408AE71
:10CCA000002A3FF405AE94ED028A5FEDA68A5FED9F
:10CCB000A66A94ED010AA24EA24F019778EE287A57
:10CCC00038EEC87AFDEEE72ABDEEC74AF8EEE24A32
:10CCD00020EE262A37EEE48AF8EEC48A06FB05FC2D
:10CCE000019E994F99499A4A9FED9A1A94ED066AC6
:10CCF000D4ED000AD4ED0B1AFDEEC27A68EE264A96
:10CD000037EE687A6644FDEEE48A00EE106A27EE9C
:10CD1000267A019617EE906A4FEA860918EE906A15
:10CD2000FDEEC78A013809EB070CB8EE400A01EBAB
:10CD3000860918EE907A12EE906A0BEB8005FEEEF3
:10CD4000004AB8EEE78AE0EE014A01EB8701D5F828
:10CD50001C5CDCED007A9CED011A99ED000A02EBF7
:10CD6000860C14EE107ADBF80460DCED002A02EB8E
:10CD7000870905EB4505B042ACBF02270127DAF869
:10CD80001420DBF80860029732EE482A31EE671A69
:10CD90000BEB0515B6EE004AC8EB020C1835F0EEA9
:10CDA000448A012E91ED008ADAF81010E2EE017A41
:10CDB00005F104029C4422EE807AE6EE248A99ED85
:10CDC000002A01F07782F4EEC48AF1EE10FA41F104
:10CDD000B38078EEA86AB7EE000AF7EE008AB4EEE8
:10CDE000E87A04EE101AF1EE10FAF8EEC44A0EDDFD
:10CDF000B5EE006A22EE088A24EE862A28EE021A90
:10CE0000F4EE417AF1EE10FAC8BFF0EE417ADFEDB0
:10CE1000528A9FED524A1361FDEEE72A74EEA84A4A
:10CE200012EE906AE7EE674A26F00107576006EEB9
:10CE3000107AB8EEC68AB0EE002A74EEE74A82EEA7
:10CE4000088A002760EEA40A27EE041AE7EE270AF4
:10CE5000B6EE004ABDEEE06ABCEEC17A16EE109A5C
:10CE6000C9EB0C060E4496FBF1FCF4EEC41A01FB70
:10CE70001C61F1EE10FA6960C2ED078A82ED088A42
:10CE800082ED037A976081F24D80DFED3B2AC2ED9F
:10CE9000058A71EEA21AC4EE218AC2ED068A77EEE7
:10CEA000E57ADFED2F4A029F82ED090AE7EEA45AE8
:10CEB000013301254FF00009434582F82D70C2ED82
:10CEC0000A6A82F82C500199CBED055A4FF0000206
:10CED000CBF818907FF4C6ACEEE422493960029892
:10CEE00040ED047A019E019C029B0199B56AE769B5
:10CEF00053ED028A53ED011A059504974B6A002AF7
:10CF000000F0A9800A9A089892ED002AFFEE006AC4
:10CF1000B4EE662AF1EE10FA07EB234700F55269EA
:10CF200002F00482DBF810A0DBF80460CDF82CB02E
:10CF30000D4808F1080108F104020025E34625E048
:10CF40000D6619005FF36E3CB07802081C8602087B
:10CF5000188202080000802F0000000000008047B7
:10CF6000CDCCCC3D000080BF500000200000003838
:10CF70006666663FCDCC4C3E0AD7233CB9EC012A0D
:10CF8000B4EE412AF1EE10FA02F0CE819CB2574580
:10CF900006EE104A059C5FED0B0A51ED022AA8BF70
:10CFA000CAEB07072344F41916F8078094F801C068
:10CFB000A77830F91CC030F9177030F91880E47880
:10CFC00005EE107A00EE10CA08EE108AB8EEC57AA7
:10CFD000F8EEC03AB8EEC84A73EEC77A30F914706A
:10CFE000049C77EE444AF6EE005AB0EE678A03EEF0
:10CFF000107AA4EEA58A5D4504EB2347F8EEC36AD8
:10D0000037EE883A36EEE30ABBEEC86AA0EE253A60
:10D0100001F1080102F10802BFEE001A38EE035ACE
:10D0200005F1010596EE035A26EE057AA4EEA57ADF
:10D03000E6EE073A63EEA00A22EE202AE8EE822A04
:10D0400041ED042A52ED022AE1EE822A42ED022A43
:10D0500094D1DDF82CB0019C089F63623868DDF83C
:10D060001890DDF804C00299039D079E09F1010A9A
:10D0700001F130020CF1300905F1300306F1300402
:10D080005045CDF818A0CDF8049002920393079470
:10D090003FF778ACDDF820B00D9FDBED031A5FEDB4
:10D0A0004C5A1FED4C1AC01B06EE100AF8EEC68A49
:10D0B000B0EE004A78EEE13AF5EEC03AF1EE10FA41
:10D0C000C8BFB0EE651AE1EE231AF4EEC41AF1EE11
:10D0D00010FACBED031A41F37B84F7EE007A71EE80
:10D0E000E76AB6EE008A16EE901A4A08C2F1BE4808
:10D0F00008F55D1A0AF5CE5C0CF11F0503EE105A17
:10D1000026EE880AB7EE087A23EE005AA3EE457A97
:10D1100063EE074A0E9BB7EE006AD3ED0B0AB0EE42
:10D12000002AF0EE462AE0EE822AF4EEC62AF1EE5C
:10D1300010FA01F11A87F4EEC22AF1EE10FA41F367
:10D1400098840E9E1A9DD6ED0A8AF7EE001AE8EE34
:10D15000861A64EEA15A002D00F0F1809BED041AAE
:10D160005FED7B3A099F35EEC14A07F10800A4EE56
:10D17000231A07F1040A01216C1E8BED041AD7ED66
:10D18000004A64EE817AA94240ED027ADAED006A43
:10D190009BED048A26EE880A07F1100204F00306CC
:10D1A0008AED000A07F10C0900F0C980002E5AD060
:10D1B000012E38D0022E1AD09BED043A099D35EE8F
:10D1C000C35A0221A5EE233A08328BED043A12ED40
:10D1D000047A67EE030A42ED040A99ED002ADBEDBA
:10D1E000042A22EE226A89ED006A05F11409DBEDBA
:10D1F000048A5FED9F1A35EEE81A0131E1EE218ACB
:10D200000832CBED048A52ED043A23EEA84A02ED2F
:10D21000044AD9ED004ADBED047A64EEA76A16EE03
:10D22000907A49F8087B9BED048A1FEDAD0A1A98A5
:10D2300035EEC83A0131A3EE008A814202F10802BC
:10D240008BED048A12ED045A25EE087A02ED047A79
:10D25000D9ED000A9BED042A60EE822A12EE904A74
:10D2600049F8084B6BD01A9BDBED048A5FEDBE1AC0
:10D2700035EEE86AC846E6EE218A154605F1080C47
:10D280000CF10800CBED048A12ED021A61EE283A87
:10D2900002F1180642ED023ADBED044A99ED004A2C
:10D2A00064EE247A043117EE907A48F8087BDBEDBF
:10D2B000046A35EEE68A9942E8EE216A02F120021C
:10D2C00009F12009CBED046A95ED000A20EE263A1B
:10D2D0000CED023A19ED065A9BED047A65EE070A49
:10D2E00049ED060A9BED042A75EEC22AA2EEA12A98
:10D2F0008BED042ADCED008A28EE826A00ED026ADA
:10D3000098ED021ADBED043A21EE234A88ED024A39
:10D31000DBED044A75EEE47AE7EEA14ACBED044A70
:10D3200056ED026A26EEA48A06ED028A19ED020A7B
:10D330009BED043A20EE035A09ED025A94D110B045
:10D34000BDEC028BBDE8F00F7047089FBB68012B56
:10D3500000F0FE85019991F84840002C3FF47FAE23
:10D36000CE6A002E02F046821A9F002F02F04982F8
:10D37000721E12F007043B4609993FD01A9BDDF854
:10D3800024C0013B10460CF1080102F1FF326ED0BF
:10D39000012C33D0022C2AD0032C21D0042C18D0FD
:10D3A000052C0FD0062C06D0013B104601F10801D8
:10D3B00002F1FF325BD0013B104601F1080102F19E
:10D3C000FF3254D0013B104601F1080102F1FF3257
:10D3D0004DD0013B104601F1080102F1FF3246D069
:10D3E000013B104601F1080102F1FF323FD0013B41
:10D3F000104601F1080102F1FF3238D00831013B3B
:10D40000D71EA2F1040CA2F10508A2F10609A2F1AF
:10D41000070A0D461C461046002A01F05881561E88
:10D42000083A23B3013B304601F1080106F1FF360B
:10D430001DD0A31E304605F1100118D0E31E38465A
:10D4400005F1180113D0231F604605F120010ED00D
:10D45000631F404605F1280109D0A31F484605F186
:10D46000300104D0E31F05F138015046C6D1019FB9
:10D470004FF0FF3CF862CDF814C0DDF8089059ED8C
:10D48000065AF5EE405AF1EE10FA41F0458059ED9A
:10D49000038A59ED056A59ED047A002B00F03D87A7
:10D4A00005980A9A10F0030771D0B7EE008AF4EEDF
:10D4B000C87AF1EE10FAA6BFF0EE005A75EEE75A00
:10D4C000F0EE675A66EEA55AB7EE006A77EEA87AD4
:10D4D000F4EE465AB0EE003AF1EE10FAF4EEC37AEA
:10D4E000A8BFF0EE465AF1EE10FA80F21487059DBF
:10D4F0000A9A6E1E012FE2EC015A304647D0022FE5
:10D5000020D0F4EEC67AF1EE10FAACBF73EE675A93
:10D51000F0EE675A66EEA55AB7EE006A77EEA87A83
:10D52000F4EE465AF0EE003AF1EE10FAF4EEE37A39
:10D53000B8BFB0EE656AF1EE10FA80F2EC86A2ECAC
:10D54000016A701EB7EE006AF4EEC67AF1EE10FAC8
:10D55000A6BFF0EE005A75EEE75AF0EE675A66EE97
:10D56000A55AB7EE006A77EEA87AF4EE465AF0EEC6
:10D57000004AF1EE10FAF4EEE47AB8BFB0EE656A54
:10D58000F1EE10FA80F2C786A2EC016A0138B7EE1C
:10D59000005AF4EEC57AF1EE10FAA6BFF0EE005A8A
:10D5A00075EEE75AF0EE675A66EEA55AB7EE006AD6
:10D5B00077EEA87AF4EE465AB0EE000AF1EE10FAD1
:10D5C000F4EEC07AA8BFF0EE465AF1EE10FA80F2FF
:10D5D000A286043242ED015A924600F1FF3C002837
:10D5E00000F09B86F4EEC67AF1EE10FAC1F2B28436
:10D5F00070EE675A66EEA55AB7EE006A77EEA87A23
:10D60000F4EE465AB0EE001AF1EE10FAF4EEC17ADA
:10D61000A8BFF0EE465AF1EE10FA80F27C86F4EEE6
:10D62000C67AF1EE10FA5246E2EC015AACBF71EE46
:10D63000675AF0EE675A66EEA55AB7EE006A77EEC3
:10D64000A87AF4EE465AF0EE002AF1EE10FAF4EE63
:10D65000E27AA8BFF0EE465AF1EE10FA80F25B864D
:10D66000F4EEC67AF1EE10FA0AF1080242ED015A20
:10D67000ACBF72EEE75AF0EE675A66EEA55AB7EE07
:10D68000006A77EEA87AF4EE465AB0EE002AF1EE80
:10D6900010FAF4EEC27AB8BFB0EE656AF1EE10FA95
:10D6A00080F239860AF10C0202ED016AACF1030046
:10D6B0006DE7089B9D68012D01F00F80019F97F891
:10D6C0004840002C3FF4CBACF86A002802F0A1805F
:10D6D0001A9A002A02F0B180411E11F00704134685
:10D6E000099A3ED01A9B099E013B084606F10802A2
:10D6F00001F1FF316ED0012C33D0022C2AD0032C43
:10D7000021D0042C18D0052C0FD0062C06D0013BBC
:10D71000084602F1080201F1FF315BD0013B0846E7
:10D7200002F1080201F1FF3154D0013B084602F139
:10D73000080201F1FF314DD0013B084602F1080219
:10D7400001F1FF3146D0013B084602F1080201F128
:10D75000FF313FD0013B084602F1080201F1FF31E1
:10D7600038D00832013BCF1EA1F1040CA1F105080D
:10D77000A1F10609A1F1070A15461C460846002931
:10D7800001F0D7834E1E083923B3013B304602F126
:10D79000080206F1FF361DD0A31E304605F1100227
:10D7A00018D0E31E384605F1180213D0231F604637
:10D7B00005F120020ED0631F404605F1280209D072
:10D7C000A31F484605F1300204D0E31F05F13802DB
:10D7D0005046C6D1DDF804C04FF0FF37CCF82C001E
:10D7E000DDF8088018ED061AB5EE401AF1EE10FAD1
:10D7F00001F0BF83079D039CD5ED000AD4ED007AAC
:10D80000002B01F03C8117F0030638460A9953D0EB
:10D81000B7EE004AF4EEC47AF1EE10FAAABFB0EE09
:10D82000006AB0EE676A36EE676A77EEA07AF0EECD
:10D83000001AF4EEE17AF1EE10FA81F21E810A99F3
:10D8400007F1FF39012EA1EC016A484634D0022EBF
:10D8500018D0B7EE006AF4EEC67AF1EE10FAB4BF53
:10D86000F0EE671A71EEE71A77EEA07AB0EE006A72
:10D87000F4EEC67AF1EE10FA81F2FF80E1EC011AC3
:10D8800009F1FF30F7EE008AF4EEE87AF1EE10FAD3
:10D89000AABFB0EE006AB0EE676A36EE676A77EE4E
:10D8A000A07AB0EE002AF4EEC27AF1EE10FA81F21C
:10D8B000E480A1EC016A0138B7EE007AF4EEC77A91
:10D8C000F1EE10FAA6BFB0EE006A36EE676AB0EE6F
:10D8D000676A77EEA07AF0EE002AF4EEE27AF1EED3
:10D8E00010FA81F2CA80043101ED016A8A4600F122
:10D8F000FF3C002801F0C380B7EE008AF4EEC87A3E
:10D90000F1EE10FAC1F2228372EEE74A77EEA07AC6
:10D91000B0EE006AF4EEC67AF1EE10FA81F2AD8054
:10D92000F7EE005AF4EEE57AF1EE10FAB4BFB0EE7D
:10D93000676A36EE676A77EEA07AB0EE003AF4EEE8
:10D94000C37A5146F1EE10FAE1EC014A81F295807A
:10D95000F7EE005AF4EEE57AF1EE10FAB4BFB0EE4D
:10D96000673A33EE673A0AF1080177EEA07A01EDE3
:10D97000016AB0EE006AF4EEC67AF1EE10FA81F2B6
:10D980007C800AF10C0101ED013AACF1030093E750
:10D99000002F3FF464ABE56A002D01F047871A9A27
:10D9A000002A01F03C876B1E13F0070709993FD04E
:10D9B0001A9DDDF824806A1E184608F1080103F15B
:10D9C000FF336ED0012F33D0022F2AD0032F21D066
:10D9D000042F18D0052F0FD0062F06D0013A184675
:10D9E00001F1080103F1FF335BD0013A184601F160
:10D9F000080103F1FF3354D0013A184601F1080140
:10DA000003F1FF334DD0013A184601F1080103F14B
:10DA1000FF3346D0013A184601F1080103F1FF3304
:10DA20003FD0013A184601F1080103F1FF3338D025
:10DA30000831013ADF1EA3F1040CA3F10508A3F19C
:10DA40000609A3F1070A0D4614461846002B01F0FB
:10DA500075825E1E083B22B3013A304601F108018F
:10DA600006F1FF361DD0A21E304605F1100118D078
:10DA7000E21E384605F1180113D0221F604605F159
:10DA800020010ED0621F404605F1280109D0A21FD7
:10DA9000484605F1300104D0E21F05F13801504637
:10DAA000C6D1DDF804804FF0FF39C8F82C00CDF85E
:10DAB0001090029F17ED064AB5EE404AF1EE10FABB
:10DAC00041F05081079D039C95ED001A94ED005A9A
:10DAD000002A01F07C80049F0A9B17F0030654D0B3
