:020000040800F2
:1000000010040020F51500081D0100080D0100086E
:100010001101000815010008190100080000000086
:1000200000000000000000000000000021010008A6
:100030002501000800000000290100082D0100082A
:100040003516000835160008351600083516000864
:100050003516000835160008351600083516000854
:100060003516000835160008351600083516000844
:100070003516000835160008351600083516000834
:100080003516000835160008351600083516000824
:100090003516000835160008351600083516000814
:1000A00035160008D5010008351600083516000879
:1000B00035160008351600083516000835160008F4
:1000C00035160008351600083516000835160008E4
:1000D00035160008351600083516000835160008D4
:1000E0003516000835160008351600080000000017
:1000F0000000000000000000000000000000000000
:1001000000000000000000005FF808F1FEE700BFFB
:10011000FEE700BFFEE700BFFEE700BF704700BF7D
:10012000704700BF704700BF704700BF38B541F24D
:100130006C65C2F200052B6840F21444C2F2000460
:10014000013320462B6000F0B7FB40F21843C2F2A7
:1001500000031978207862787F2808BF41F00101F8
:1001600002F003021970A378022A18BF03F00303F8
:1001700020D0022B18BF002226D040F21043C2F23A
:10018000000319780A44D2B21A702A6893060AD179
:1001900041F24853C2F200031978972903D9C2F3F8
:1001A0008212683A1A7041F24850C2F2000000F020
:1001B00011FB38BD13F0030308BF4FF0FF32DCD052
:1001C000022B18BF0022D8D1D2F1010238BF002281
:1001D000D3E700BF4FF4305010B5C4F20100012145
:1001E00001F0F8F900B910BD4FF4305040F21C4452
:1001F000C4F201000121C2F2000401F0F7F9204627
:10020000032100F069FA0028EDD040F20003C2F2A9
:1002100000031A88DAB940F22843C2F20003D3F887
:10022000882CD3F88C1C013A521AC2F30902618956
:100230000AB904221A70D3F88C2C501CC0F30900A0
:1002400003EB4202C3F88C0CA2F8881410BD013AEB
:100250001A8010BDF8B541F24455C2F200050746B8
:100260000E4601F00FF8286801F05CF856B12868D6
:100270000024395901F078F82B680434181DA6427F
:100280002860F6D8F8BD00BF30B5982383B08DF84C
:100290000030582541B948F21F55C5F2EB15A5FBB2
:1002A00000156D093035EDB24CF6CD42CCF6CC429E
:1002B000A2FB0043DB0899B2A2FB0142D20802EB89
:1002C000820203EB8303A1EB4202A0EB430341F262
:1002D000485030323033C2F20000002469468DF8B5
:1002E00001508DF802208DF803308DF8044000F0A5
:1002F000C5FA03B030BD00BF10B541F24054C2F2A0
:100300000004204640F2F311002200F0FBFA41F213
:100310006C6340F21C40C2F2000300220121C2F2D1
:1003200000001A6000F068F940F21440C2F20000C8
:1003300000F0A8FA41F24850C2F2000000F026FA9C
:100340002046BDE8104000F02BBB00BF2DE9F04176
:1003500041F25455C2F2000528464FF47A7140F23A
:100360002844C2F2000400F0F9FD0822204613469A
:100370004FF0005100F09EFBD4F8883C41F26866D3
:10038000C4F88C3CD4F810CD41F244524FF480476D
:1003900000234FF01008C2F20006C0F6000741F239
:1003A000485041F27C61C2F2000285F80C81C4F829
:1003B00014CDA4F88434A3602370A36123612B704F
:1003C000A5F80E3133801760C2F20000C0F60001BC
:1003D000BDE8F04100F052BA2DE9F047FFF78CFF7D
:1003E000FFF7B4FF4FF48050C4F201004FF4005106
:1003F00001F044F8002840F0BF8040F2284441F268
:10040000686641F2401840F2040740F21845C2F213
:100410000004C2F20006C2F20008C2F20007C2F2F3
:100420000005227840F22843042AC2F2000300F0BB
:10043000D680D3F88C2CD3F8883CD31AC3F30903A5
:100440001F2B1BD9D4F88C1CD4F8882C40F22843DD
:100450008A1AC2F20003C2F30902184672B11A786E
:1004600022B1012A06D000F03DFCEBE7184600F06F
:10047000D7FBE7E7184600F001FCE3E700224FF066
:100480000009D4F8140DD4F8101D40F22843411A85
:10049000490682F0010089F0010EC2F200035FD02C
:1004A0001EEA000F5CD0D3F8102D41F25450991879
:1004B000013202F07F02C3F8102D91F8901CC2F2B5
:1004C000000000F0A5FD831E032B5ED8DFE803F0DB
:1004D0000F020244C31E41F2485057F82310C2F2E3
:1004E000000000F0CBF94FF000090122C9E7B6F88F
:1004F000009041F2545A09F00300C2F2000A08EBDE
:1005000000200AF101014FF4807201F094F809F122
:10051000010080B210F00309308039D04FF47C41E3
:10052000D4F810CD0023CFF6FF714FF0100E03204A
:100530001A468AF80030AAF80E31C4F87C34A4F8C0
:1005400084349946C4F87814C4F87414C4F814CDEB
:100550008AF80CE1207094E700224FF0010990E73F
:1005600032B100232B702B78002BFCD0FFF7EEFE6E
:10057000B9F1000F3FF455AF00F030FA4FF480406E
:10058000C0F6000000F068FAFEE70022914678E726
:1005900080084946FFF778FE41F24010C2F20000A1
:1005A0004FF48061FFF756FED4F8883C1021C4F860
:1005B0008C3CD4F8100D02234A468AF80090AAF821
:1005C0000E91A4F88494C4F80890C4F81890C4F864
:1005D0001090C4F8140D8AF80C11237051E741F201
:1005E000485041F28461C2F20000C0F6000100F000
:1005F00045F9012243E700BFF0B5054687B04FF447
:1006000040600126032410230F46C4F2010069460E
:100610008DF802408DF80330ADF8006000F0D4FE94
:100620004FF400606946A0221823C4F201008DF83F
:100630000240ADF800208DF8033000F0C5FE4FF405
:100640000060694640220423C4F201008DF8024094
:10065000ADF800208DF8033000F0B6FE4FF44050A6
:1006600000244FF4827E4FF40072072301A9002F6B
:100670000CBF28272027C4F20100ADF806E0ADF832
:100680000E20ADF81430ADF81070ADF80440ADF8A0
:100690000840ADF80A40ADF80C40ADF8124000F04B
:1006A00021FF4FF440603146C4F2010000F0ECFE3F
:1006B0004FF440503146C4F2010000F033FF2C806B
:1006C000AC70EC702C716C71AC71EC712C726C7242
:1006D000AC72EC7207B0F0BD38B50446C0780D4678
:1006E000012841D019D3022813D14FF44050C4F24D
:1006F000010000F027FF00F00F0003024FF440500C
:100700002380C4F20100002100F01AFF0020E070F5
:1007100038BD431E5842584138BD4FF44050C4F2D2
:10072000010000F00FFF2388A278184383B204EB86
:1007300042024FF440602380C4F201009380012103
:1007400000F0A2FE4FF44060C4F20100012100F06D
:100750009DFE4FF44050C4F20100062100F0F0FE6F
:100760000120A570E07038BD4FF44050C4F2010084
:1007700000F0E8FEA1784FF440508901C4F2010076
:1007800000F0DEFE0223E370002038BD70B54FF4A8
:10079000406582B0C4F20105044640F6E2522846A4
:1007A0000326102301A9ADF804208DF807308DF839
:1007B000066000F009FE00234FF480622A612046A3
:1007C0002681A380E3802021042200F03DFF02B0B7
:1007D00070BD00BFF0B40389C588AB4240D38788A1
:1007E00041F69C06C0F6000636F817204FF4406329
:1007F000C4F2010301375A6107F00307C15D41F2FA
:100800009C628780C0F600024FF4806432F81110B9
:1008100010225C614FF44063C4F201034FF40064A2
:100820005C6111F0010F4FF0020414BF1C615C61A8
:10083000013A4FF44063C4F201034FF4006492B2F2
:1008400049081C61002AE5D136F817204FF4806171
:1008500019611A61013505F00305C580F0BC7047C8
:10086000828841F69C03C0F6000333F812204FF44F
:100870004063C4F201035A61ECE700BF042200F0B8
:10088000EBBE00BF30B5044683B04FF48050012268
:100890004823C4F201004FF4604501A98DF80730E8
:1008A000ADF804508DF8062000F08EFDFF23237074
:1008B000A370637003B030BDF8B54FF48055C4F237
:1008C0000105044607784FF40051284600F0D6FD94
:1008D0007F00FFB2384320704FF48041284666788D
:1008E00000F0CCFD7600F6B2A378304360704FF490
:1008F000004128465D0000F0C1FDEDB22843A07024
:10090000F8BD00BF30B5144685B00D4600F0DEFBE3
:100910002CB14FF000604FF4804100F0A7FC45F689
:100920001C20012100F0C2FD4FF48040012100F0A5
:10093000CBFD0120014600F0ABFD4FF43050002408
:10094000C4F20100ADF80850ADF80440ADF80A401B
:10095000ADF806408DF80C4000F034FE4FF43050F6
:1009600001A9C4F2010000F0F1FD4FF43050012163
:10097000C4F2010000F00EFE4FF4A06000F030FC65
:100980001922012368468DF801408DF802408DF848
:1009900000208DF8033000F02DFC05B030BD00BF05
:1009A00038B501214FF430500A46C4F2010000F07E
:1009B000FFFD4EF2100341F63F114FF46D42CEF2AF
:1009C0000003C0F20101CEF20002F02559600024BC
:1009D00082F8235007209C60186038BD4FF46142B4
:1009E0004EF2100010B4CEF200024FF0FF31CEF202
:1009F000000004244FF48053C2F88010C4F20203B4
:100A0000C2F88410C2F88011C2F884110460196819
:100A10004FF4855241F001011960C4F202021068DE
:100A20000021CFF6FF010140116018684FF48A5190
:100A300020F0847020F4803018601868C4F202013D
:100A400020F4802018601068002320F4FE0010605D
:100A50005DF8044B0B60704710B54468006800F007
:100A600031FBA04710BD00BF70B51C2604463246BE
:100A70000021383000F0E8FD4FF4007532460021C7
:100A800004F1540000F0E0FD2A46002104F170005A
:100A900000F0DAFD2A4604F51C70002100F0D4FDB8
:100AA000B4F880240023A4F882242361A361A4F86D
:100AB000703470BD70B441F6E404C0F6000406461C
:100AC00054F8220034460022855E02320E2AE56187
:100AD00004F10404F8D100224FF40020C6F88C2C55
:100AE0007060C6F8882CA6F88034C6F8142D7161A1
:100AF0003046C6F8102D70BCFFF7B6BF2DE9F007E1
:100B0000B0F88094B0F8708409F1FF3708F5807C64
:100B10000024012F1FFA8CFC25460FDD0123C3EBB7
:100B20000C02D2B200EB42020133B2F970609BB208
:100B3000B2F97022BB4235441444F0DB002944D0A2
:100B4000C9EB0C0C1FFA8CFC0CF1020200EB480301
:100B5000D2B23832B3F97070B3F970A230F91260C2
:100B600085EAE579A9EBE57984EAE471A1EBE47122
:100B70002F44A244BF1B4944C6EB0A0686EAE67925
:100B8000A9EBE6790CF1010208F1FF0387EAE77CA3
:100B9000ACEBE77C01EB8101CC44D2B2DBB289083B
:100BA00000EB420200EB43038C45B2F87090B2F8C0
:100BB0007082B3F87020B3F8703210D9B0F8823474
:100BC000344601333D46A0F88234002DACBF0220EC
:100BD0000020002CA8BF0130BDE8F00770470FFAD5
:100BE00089F90FFA88F8A944A04412B21BB2C3EBEA
:100BF0000803C2EB090283EAE376A6EBE37682EA16
:100C0000E277A7EBE2773E448E4281BFB0F88214D0
:100C10001C4601F1FF33154688BFA0F88234D4E7A3
:100C200010B416E0D0F8881C426800EB4103B3F81A
:100C30008844836824B201330131A4EB2224C1F338
:100C400009012244B3F5805FC0F8881C42608360CC
:100C50000BD2D0F88C2CD0F8883CD31AC3F30903FC
:100C6000002BDFD15DF8044B704700230122836025
:100C7000C36002705DF8044B704700BF70B41CE0A5
:100C8000D0F8884C416800EB4403B3F8883482689C
:100C90001BB2A3EB212303FB03F6C5680132013429
:100CA000C4F309040B4405EB2615B2F5805FC0F8C8
:100CB000884C4360C56082600AD2D0F88C2CD0F892
:100CC000883CD31AC3F30903002BD9D170BC7047F9
:100CD0000023B5F5F03F8360C360EED302230370B9
:100CE000F4E700BF2DE9F0410446D4F88C2CD4F889
:100CF000883CD31AC3F30903002B00F0FD80D4F81D
:100D000014C02769D4F8881C6744380E00F14002EB
:100D100004EB410540F20C03B5F88854C2F200031D
:100D2000D2B233F91280626833F910602BB2A3EBB0
:100D30002223C8F1000803FB08F806FB03F6013183
:100D40004FEA28251344C1F30901361200206565D6
:100D5000A8466360C4F8881CA6630546234607229C
:100D600002E0D3F854809E6BD969013A92B208FB35
:100D7000015506FB01000433002AF2D12346062266
:100D80009E6ED96C013A92B2DE661965043B002A68
:100D9000F6D12378002DACBF4FF001084FF0FF389B
:100DA0000028ACBF01224FF0FF32022B1CBF08FB12
:100DB00000F802FB1588A66908BFC0EB050806EB22
:100DC0004606B4F8702406EB08018E100CEBE10C1B
:100DD000001204EB42012D1207EBC6072761A66142
:100DE000C4F814C0A1F87000A1F87052B4F88214CD
:100DF00001320139D2B289B2A4F87024A4F8821465
:100E000049B9B4F88024032BA4F8822425D0052BFB
:100E100013D0022B03D0032B7FF467AF28E02046CA
:100E2000FFF76CFE38B9B4F8843401339BB2202B41
:100E3000A4F8843462D02378EDE720460121FFF73F
:100E40005DFED4F8143DE218013382F8900C03F0F3
:100E50007F02C4F8142D2378DDE7D4F8143D042173
:100E60005A1C02F07F02234483F8901CC4F8142D0E
:100E7000B4F87064B4F8805406F58076B6B26F00AA
:100E8000002D69D0002213461146B21AD2B204EBEB
:100E900042029D42B2F970C094BF01204FF0FF3072
:100EA0000CFB001103F10103B2F970229BB294BF55
:100EB0004FF0FF300120BB4200FB02111A46E4DB79
:100EC000D4F87C348B42B8BFC4F87C140029BCBF72
:100ED0000023C4F87C34D4F874348B4207DDD4F892
:100EE0007824934203DDD4F87C24934219D0C4F8CB
:100EF0007834C4F87414F8E6BDE8F0814FF47C430C
:100F0000D4F8101DCFF6FF730322C4F87C04A4F8B4
:100F10008404C4F87834C4F87434C4F8141D2270FE
:100F2000A6E7A6EB5502D2B204EB4202B2F970007A
:100F30000028DCDAB2F97022002AD8DDB4F8842463
:100F4000013D013292B2042AA4F8842404BF052290
:100F50002270A4F88254CAE73946B1E70023102270
:100F6000A0F8101180F80C210370A0F80E31A0F841
:100F70000A31704790F80C310B41DB0706D5042984
:100F80000AD8DFE801F0283C06321400032303707E
:100F90007047022380F80C3190F80D3133B90122EB
:100FA000A0F806314370A0F8083102707047B0F81D
:100FB0000E31B0F8102101339BB29A42A0F80E31E5
:100FC00002D8B0F80A3103BB1622102380F80C2196
:100FD00080F80D31704790F80D310822013BDBB2EB
:100FE00080F80D3180F80C21D8E790F80D310122FE
:100FF000013BDBB280F80D3180F80C21CEE70C23E9
:1010000080F80C3190F80D31C8E705230370704764
:10101000037870B50A460446ABB1012B11D1B0F884
:101020000651B0F8080161194E78013080B23243A0
:1010300004284A7018BF9200A4F8080118BF4A702B
:1010400006D0184670BDFFF795FF2378184670BD8F
:101050000135ADB20022B5F5827FA4F80651A4F89F
:1010600008211CBF64196270EBD141F64810C0F62C
:101070000000621C04F201154FF0FF3312F8011B4F
:101080005940C9B250F82110AA4281EA1323F5D180
:1010900094F8021194F8010194F80421090441EA3A
:1010A000006194F803011143B4F80A21DB4341EADB
:1010B0000021994214BF0423022301322370A4F8B3
:1010C0000A21BEE780F30888704700BF4FF48053C1
:1010D000C4F202031968002241F001011960596845
:1010E000CFF6FF020A405A601A6882B022F084727A
:1010F00022F480321A601868002220F480201860E0
:1011000058684FF41F0120F4FE0058609960009267
:1011100001921A6842F480321A6003E0009BB3F532
:10112000A06F0DD04FF48053C4F202031B6803F488
:1011300000330193009B01330093019B002BEDD002
:101140004FF48053C4F202031B6813F4003318BF3A
:1011500001230193019B012B00D0FEE74FF40052C5
:10116000C4F2020211684FF4805341F01001116083
:101170001168C4F2020321F003011160116841F00B
:10118000020111605A685A605A685A605A6842F4FB
:1011900080625A605A6822F47C125A605A6842F49B
:1011A000E8125A601A6842F080721A604FF4805355
:1011B000C4F202031A689201F8D55A6822F00302B9
:1011C0005A605A6842F002025A604FF48053C4F2E7
:1011D00002035B6803F00C03082BF6D102B07047E2
:1011E00040F0BF604FF46D4340F40030CEF2000396
:1011F000D8607047C37830B473B90378012103F025
:101200001F02914030BC5A094FF461432032CEF2A4
:10121000000343F8221070474FF46D43CEF20003F1
:10122000DB684478DB43C3F302230F22C3F10401DC
:1012300022FA03F38C408578017803EA0502224301
:1012400001F160431201D2B203F5614383F8002338
:101250000278012102F01F03994030BC4FF4614332
:101260005209CEF2000343F82210704721F060418A
:1012700021F07F014FF46D430843CEF200039860E4
:10128000704700BF4FF4005340F2231148F6AB12F1
:10129000C4F20203C4F26751CCF6EF5259605A60AF
:1012A000704700BF4FF40053C4F20203DA68D1075D
:1012B0000BD4DA68520701D502207047DB6813F0BF
:1012C000100F0CBF0420032070470120704700BF9F
:1012D00010B582B00446FFF7E5FF421E534253416A
:1012E000002C08BF0023C3B1FF2300220192019309
:1012F000019B2BB1019B013B0193019B002BF9D179
:10130000FFF7D0FF013C0CBF00230123012814BFCD
:10131000002303F00103002BE6D1002C08BF0520B9
:1013200002B010BD38B5054640F6FF70FFF7D0FF9C
:10133000042800D038BD4FF40054C4F202042369DD
:1013400040F6FF7043F0020323616561236943F0B7
:1013500040032361FFF7BCFF05281FBF226941F648
:10136000FD731340236138BD70B5002382B005467C
:101370000F200C460193FFF7ABFF042801D002B009
:1013800070BD4FF40056C4F202063269A3B242F0B7
:10139000010232610F202B80FFF79AFF042808D04A
:1013A0000528ECD0326941F6FE731340336102B078
:1013B00070BD02350195019B240C1C800F20FFF7A6
:1013C00087FF0528EED1DAE7F0B4CD78EB0648BF09
:1013D0008B78098805F00F0648BF1E4311F0FF0FF8
:1013E00022D00768002302E00133082B1BD0012222
:1013F0009A4002EA01049442F6D19A004FF00F0C91
:101400000CFA02FC06FA02F227EA0C07282D47EA3A
:10141000020708BF4461E7D0482D03F1010308BF6C
:101420000461082BE3D10760FF2925D94768002311
:1014300002E00133082B1ED0012403F1080204FA54
:1014400002F202EA01049442F3D19A004FF00F0C29
:101450000CFA02FC06FA02F227EA0C07282D47EAEA
:10146000020708BF4461E4D0482D03F1010308BF1F
:101470000461082BE0D14760F0BC704783681942D3
:101480000CBF002001207047016170474161704727
:101490004FF48053C4F202035A6919B922EA0000DA
:1014A0005861704710435861704700BF4FF4805334
:1014B000C4F202039A6919B922EA000098617047E0
:1014C00010439861704700BF4FF48053C4F2020389
:1014D000DA6919B922EA0000D86170471043D8616F
:1014E000704700BFF0B40B884C888A881C43CB88B7
:1014F00014430A891C434B898F8922430588CE896E
:101500001A433A43324305F4415313439BB20380D9
:10151000838B0A8A23F400631B041B0C8383F0BCB7
:1015200002827047038829B923F040031B041B0C77
:10153000038070479BB243F040030380704700BFB5
:1015400081817047808980B2704700BF038870B482
:1015500003F08F0303800688CA884B88B6B216430F
:101560008D880C881E434FF450524FF43053C4F210
:101570000103B6B2C4F201020680984218BF90423D
:101580008585048508BF0B7A70BC08BF03860123DC
:1015900083827047038829B923F001039B059B0DC3
:1015A000038070479BB243F001030380704700BF84
:1015B00083899BB21AB923EA0101818170471943DB
:1015C00081817047038923F007031B041B0C0381EF
:1015D000704700BF038A828911420CBF002001209E
:1015E00019420CBF002000F001007047C94389B2C6
:1015F00001827047002103E0094B5B5843500431DE
:101600000848094B42189A42F6D3084A02E00023E0
:1016100042F8043B064B9A42F9D3FEF7DDFE7047D1
:10162000601D0008000000201002002010040020AF
:1016300070160020FEE7002310B5934203D0CC5C67
:10164000C4540133F9E710BD02440346934202D06B
:1016500003F8011BFAE77047034610B532B111F8E1
:10166000014B013A03F8014B002CF7D11A44002139
:10167000934202D003F8011BFAE710BD9852445977
:1016800000000000404F5646000000004053594EF5
:101690000000000040435243000000000000000032
:1016A000000000000000000000000000000000003A
:1016B000000000000000000000000000000000002A
:1016C000000000000000000000000000000000001A
:1016D00000000000000000000000000000001001F9
:1016E0000005547154B58824249B0001009C00F02F
:1016F000B8035401080044001000880088FC806092
:1017000044D840F0446444B444BC908044FC44F465
:1017100010010801A00044100802908450FC44EC21
:1017200050F1009C10F1449C448C40BC446C1091DE
:101730000078A40C001C806E206E00FC44CC20FCC1
:1017400064CC44B41081007C880C286CA802900200
:101750008890009C200200F028000010000244F84D
:10176000241C44184870049C048C40F2442C5410EF
:101770004030B0011001542850204438848C64C497
:10178000500040B2041C003808082828A802407203
:101790000C100C921001E09044000000A060080EB4
:1017A00080822810E0000C0280033800886088489E
:1017B0001800280000EC14081011402E08FC04FC4E
:1017C00000FE00FD80FC40FC20FC10FC00C000E09E
:1017D000007000380018001C008C00C4FCFF0000E2
:1017E00000000000000000000000000000000000F9
:1017F00000000000000000000000000000000000E9
:1018000000000000000000000000000000000000D8
:1018100000000000000000000000000000000000C8
:1018200000000000000000000000000000000000B8
:1018300000000000000000000000000000000000A8
:101840000000000000000000000000000000000098
:101850000000000000000000000000000000000088
:101860000000000000000000000000000000000078
:101870000000000000000000000000000000000068
:101880000000000000000000000000000000000058
:1018900000000000000000000000FCFF20004000ED
:1018A00080000001ECFF2800C9FF4000FF0040005D
:1018B000C9FF2800EBFFCDFF7B00FF007B00CDFFC1
:1018C000EBFF0000BAFF1900B400FF00B4001900DC
:1018D000BAFF0000DDFF5500CD00FF00CD00550030
:1018E000DDFF00000000000000000000000000001C
:1018F000A4180008B418000800000000C41800086C
:1019000000000000D41800080000000000000000E3
:10191000000000002819000800000000000000007E
:1019200000000000381900082D009500E300FF00BA
:10193000E30095002D00000000006200B400EC0000
:10194000FF00EC00B4006200000000009630077752
:101950002C610EEEBA51099919C46D078FF46A70A3
:1019600035A563E9A395649E3288DB0EA4B8DC79C3
:101970001EE9D5E088D9D2972B4CB609BD7CB17E43
:10198000072DB8E7911DBF906410B71DF220B06A13
:101990004871B9F3DE41BE847DD4DA1AEBE4DD6D23
:1019A00051B5D4F4C785D38356986C13C0A86B6423
:1019B0007AF962FDECC9658A4F5C0114D96C066343
:1019C000633D0FFAF50D088DC8206E3B5E10694C23
:1019D000E44160D5727167A2D1E4033C47D4044B63
:1019E000FD850DD26BB50AA5FAA8B5356C98B24243
:1019F000D6C9BBDB40F9BCACE36CD832755CDF45C3
:101A0000CF0DD6DC593DD1ABAC30D9263A00DE51F2
:101A10008051D7C81661D0BFB5F4B42123C4B356E2
:101A20009995BACF0FA5BDB89EB802280888055F62
:101A3000B2D90CC624E90BB1877C6F2F114C6858C2
:101A4000AB1D61C13D2D66B69041DC760671DB01B0
:101A5000BC20D2982A10D5EF8985B1711FB5B60682
:101A6000A5E4BF9F33D4B8E8A2C9077834F9000FC2
:101A70008EA8099618980EE1BB0D6A7F2D3D6D0862
:101A8000976C6491015C63E6F4516B6B62616C1C52
:101A9000D83065854E0062F2ED95066C7BA5011B82
:101AA000C1F4088257C40FF5C6D9B06550E9B71222
:101AB000EAB8BE8B7C88B9FCDF1DDD62492DDA15E2
:101AC000F37CD38C654CD4FB5861B24DCE51B53A02
:101AD0007400BCA3E230BBD441A5DF4AD795D83D02
:101AE0006DC4D1A4FBF4D6D36AE96943FCD96E3442
:101AF000468867ADD0B860DA732D0444E51D033322
:101B00005F4C0AAAC97C0DDD3C710550AA41022731
:101B100010100BBE86200CC925B56857B3856F2001
:101B200009D466B99FE461CE0EF9DE5E98C9D92961
:101B30002298D0B0B4A8D7C7173DB359810DB42EA1
:101B40003B5CBDB7AD6CBAC02083B8EDB6B3BF9AED
:101B50000CE2B6039AD2B1743947D5EAAF77D29D79
:101B60001526DB048316DC73120B63E3843B649459
:101B70003E6A6D0DA85A6A7A0BCF0EE49DFF099359
:101B800027AE000AB19E077D44930FF0D2A30887C9
:101B900068F2011EFEC206695D5762F7CB67658079
:101BA00071366C19E7066B6E761BD4FEE02BD38979
:101BB0005A7ADA10CC4ADD676FDFB9F9F9EFBE8ED9
:101BC00043BEB717D58EB060E8A3D6D67E93D1A119
:101BD000C4C2D83852F2DF4FF167BBD16757BCA6F9
:101BE000DD06B53F4B36B248DA2B0DD84C1B0AAF99
:101BF000F64A0336607A0441C3EF60DF55DF67A819
:101C0000EF8E6E3179BE69468CB361CB1A8366BCA8
:101C1000A0D26F2536E2685295770CCC03470BBBF8
:101C2000B91602222F260555BE3BBAC5280BBDB2F8
:101C3000925AB42B046AB35CA7FFD7C231CFD0B598
:101C40008B9ED92C1DAEDE5BB0C2649B26F263EC8A
:101C50009CA36A750A936D02A906099C3F360EEB98
:101C60008567077213570005824ABF95147AB8E258
:101C7000AE2BB17B381BB60C9B8ED2920DBED5E538
:101C8000B7EFDC7C21DFDB0BD4D2D38642E2D4F188
:101C9000F8B3DD686E83DA1FCD16BE815B26B9F618
:101CA000E177B06F7747B718E65A0888706A0FFF78
:101CB000CA3B06665C0B0111FF9E658F69AE62F838
:101CC000D3FF6B6145CF6C1678E20AA0EED20DD738
:101CD0005483044EC2B30339612667A7F71660D058
:101CE0004D476949DB776E3E4A6AD1AEDC5AD6D998
:101CF000660BDF40F03BD83753AEBCA9C59EBBDEB8
:101D00007FCFB247E9FFB5301CF2BDBD8AC2BACA67
:101D10003093B353A6A3B4240536D0BA9306D7CDD7
:101D20002957DE54BF67D9232E7A66B3B84A61C4F7
:101D3000021B685D942B6F2A37BE0BB4A18E0CC3B7
:101D40001BDF055A8DEF022DF8B500BFF8BC08BCAB
:101D50009E467047F8B500BFF8BC08BC9E46704769
:101D6000401F00008C160008941600080000320086
:101D700064009600C800FA002C015E018F01C001CA
:101D8000F101220252028202B102E1020F033D037D
:101D90006B039803C503F1031C04470471049B04FF
:101DA000C304EB04130539055F058405A805CB05BD
:101DB000ED050E062F064E066C068A06A606C2061E
:101DC000DC06F5060E0725073B0750076407760774
:101DD00088079807A707B507C207CE07D807E10706
:101DE000E907F007F607FA07FD07FF070008FF07F6
:101DF000FD07FA07F607F007E907E107D807CE075E
:101E0000C207B507A7079807880776076407500732
:101E10003B0725070E07F506DC06C206A6068A065E
:101E20006C064E062F060E06ED05CB05A8058405AB
:101E30005F0539051305EB04C3049B0471044704D3
:101E40001C04F103C50398036B033D030F03E10278
:101E5000B102820252022202F101C0018F015E0131
:101E60002C01FA00C8009600640032000000CEFF8A
:101E70009CFF6AFF38FF06FFD4FEA2FE71FE40FE03
:101E80000FFEDEFDAEFD7EFD4FFD1FFDF1FCC3FC30
:101E900095FC68FC3BFC0FFCE4FBB9FB8FFB65FB8E
:101EA0003DFB15FBEDFAC7FAA1FA7CFA58FA35FAB0
:101EB00013FAF2F9D1F9B2F994F976F95AF93EF92F
:101EC00024F90BF9F2F8DBF8C5F8B0F89CF88AF8B9
:101ED00078F868F859F84BF83EF832F828F81FF807
:101EE00017F810F80AF806F803F801F800F801F8F6
:101EF00003F806F80AF810F817F81FF828F832F86F
:101F00003EF84BF859F868F878F88AF89CF8B0F879
:101F1000C5F8DBF8F2F80BF924F93EF95AF976F92D
:101F200094F9B2F9D1F9F2F913FA35FA58FA7CFAC0
:101F3000A1FAC7FAEDFA15FB3DFB65FB8FFBB9FB78
:101F4000E4FB0FFC3BFC68FC95FCC3FCF1FC1FFDB3
:101F50004FFD7EFDAEFDDEFD0FFE40FE71FEA2FEDA
:101F6000D4FE06FF38FF6AFF9CFFCEFF0000000092
:0400000508000000EF
:00000001FF
