:020000040800F2
:1010000034050020B1950008C5760008B5760008C3
:10101000B9760008BD760008C1760008000000001F
:10102000000000000000000000000000C976000879
:10103000CD76000800000000D1760008D5760008C3
:10104000F9950008F9950008F9950008F995000848
:10105000F9950008F9950008F9950008F995000838
:10106000F9950008F9950008F9950008F995000828
:10107000F9950008F9950008F9950008F995000818
:10108000F9950008F9950008F9950008F995000808
:10109000F9950008F9950008F9950008F9950008F8
:1010A000F995000801790008F9950008F9950008FC
:1010B000F9950008F9950008F9950008F9950008D8
:1010C000F9950008F9950008F9950008F9950008C8
:1010D000F9950008F9950008F9950008F9950008B8
:1010E000F9950008F9950008F9950008000000003E
:1010F00000000000000000000000000000000000F0
:1011000000000000000000005FF808F10023FF224B
:10111000037043804270031D443000221A705A70DD
:101120005A8004339842F8D1704700BFC9012DE9B5
:10113000F003DFF88CC0A1F14006B6B26FF03F08B3
:101140004FF000094FF0FF3718F4004F0CBF434633
:1011500008F5C0633CF8134000214518EB88F31AEA
:101160009BB21AB2002A0CDA03F5C0639BB21AB222
:10117000002AF9DBB2F5C06F06DDA3F5C0639BB2B0
:101180001AB2B2F5C06FF8DC3CF812306A7902FB93
:101190000344BC4202D804314029DED1A74202D91F
:1011A00027461FFA86F908F101080136B8F1410F08
:1011B000B6B2C9D10FFA89F0BDE8F003704700BF9D
:1011C000CC3F010830B4031F0478457807E02CBFFA
:1011D00000220122023B72B19A88028008469A7866
:1011E000991C9442F3D1DA78023BAA4294BF0022C0
:1011F0000122002AF0D10470457030BC704700BF56
:1012000088422DE9F047064689462BD0841CA1422E
:1012100028D0051D11E0521094F801A004D052000E
:10122000A81A314608F060FAC145377086F801A067
:1012300005F1020504F1020414D015F8027C33789C
:10124000A8469F4210D02CBF00230123A21B20469A
:10125000002BE0D1FFF7B6FFC14505F1020504F10F
:101260000204EAD1BDE8F087737815F8012C9A42A0
:101270002CBF00230123E9E72DE9F00302F1FF3C35
:101280000CEBDC7C4FEA6C0C82B06145ADF80430AD
:10129000B8BF0B466CDA5D1C6B0003F10044013CE7
:1012A00010F8146010F8258000EB4409B0451F4683
:1012B00000EB850435D02CBF0026012616B1013B7A
:1012C00000EB43042688C519634525F8026CE2DB70
:1012D000D50705D4023A02EBD272B3EB620F3BD0D2
:1012E0008B429DF804609DF805C013DD5A1E02EB89
:1012F000D272521010F8125000EB4204B54225D0C1
:101300002CBF00270127551E05EBD5756D1087B939
:1013100000EB4304267084F801C002B0BDE8F0037E
:101320007047667899F80150AE422CBF002601261E
:10133000C4E72788914220F81370EBDA13462A4657
:1013400010F8125000EB4204B542D9D167786745D6
:101350002CBF00270127D6E701335B0003F10042D1
:10136000013A30F81220013B228000EB4304B7E73A
:1013700000EB41040B46ABE72DE9F04F0B1A212B94
:1013800085B08246934640F3FB80002A00F0C78078
:1013900000F102099B101AF813209AF802000BF1D1
:1013A000FF3B90420AEB430400F0A0802CBF0025D5
:1013B0000125002D6DD011F8025CAA4200F0A78033
:1013C0002CBF00220122002A72D1A84200F0E38043
:1013D0002CBF00230123002B79D09AF800309AF813
:1013E000010031F8024C1A46AAF8004001F8010C3D
:1013F00001F8023C9AF8026008464D462C469AF8DD
:101400000050A046AE4208D02CBF002301236BB190
:10141000A6780234AE42A046F6D19AF80130677839
:101420009F422CBF00230123002BF1D1A0F1020E1B
:10143000734607E094BF002701271A1A77B11EF8F8
:101440000220023BAA42F5D19AF801705A789742DD
:101450002CBF002701271A1A002FF0D1A3420BD965
:1014600062781888254625F8020B5A701E70A678F7
:1014700013F8022C1846C1E720465A46FFF77CFFB6
:10148000CAEB0403212B7BDDBBF1000F48D02146C2
:1014900080E711F8025CA84230D02CBF0020012068
:1014A000A8B9AA426FD02CBF00220122002A94D1F1
:1014B0009AF801209AF800002588AAF800500AF846
:1014C0001300627011F8022C9AF8026094E7B9F8E0
:1014D00000209AF800609AF801308AF80260AAF8B1
:1014E00000208AF8033011F8022C85E765789AF815
:1014F0000360AE422CBF002501255AE711F8010C0C
:101500009AF8036086422CBF00200120C8E711F83A
:10151000012C667896422CBF0022012253E78846B0
:101520005E10B41E64100AEB4407002500E0013C85
:101530007B5B4FF00002ADF80C308DF80020039B70
:10154000504621463246023DFFF796FE002CEED172
:10155000444634F8023DBAF80000ADF80C30CAEB4E
:1015600004054FF0000128F8020C039B8DF80010D1
:101570006A1050460021FFF77FFE032DA046E7DCEE
:1015800005B0BDE8F08F11F8012C607890422CBFB7
:10159000002201228AE711F8013C9AF803209A42BE
:1015A0002CBF0023012316E72DE9F04F002389B05B
:1015B00003700446009104AB002203F8012B08A934
:1015C0008B42F9D16078002800F0218100F1FF3CC6
:1015D0005FFA8CFC0CF1010C13464FEA4C0C1746D9
:1015E000914607E00233012163455FFA86F902F86C
:1015F000101C15D0E218917808AA0A4412F8105C61
:1016000009F10106002DEDD0092908BF013703F1CA
:10161000020308BFFFB20121634502F8101CE9D1A3
:10162000B9F1000F00F0F3800025AC468445A846D0
:101630003CD20CF1010A5FFA8AFA824533D24FEAB2
:101640004C0C534603E00133DBB298422BD904EB38
:101650000C018A785D00092A04EB0506F3D096F8A0
:1016600002E09645EFD1F678C97806F1010E714592
:1016700001F1010B01D05E45E5D1B1428CBF2D19BE
:1016800004EB0C050335287808F1080104EB41014F
:10169000C8708A7060780133DBB208F101089842A3
:1016A0005FFA88F8D3D8D4468445C2D304EB480601
:1016B00004F112031236B34201931BD0F51A6A10DB
:1016C000B2FA82F2C2F11F02520018463146FFF709
:1016D00053FE212D40F3AA8004F1320529460198DA
:1016E000FFF78EFDAE4205D028460235FFF76AFDB2
:1016F000AE42F9D108EB0903DBB2012B00F0A08068
:101700003B44DBB2022B00984FF000010CBF0122DA
:10171000022201F02BF96078002878D008F1FF3917
:1017200004F114035FFA89F9002603EB4909B24674
:10173000CDF80C800293C846B146264605E009F173
:1017400001035FFA83F948455ED906EB490797F82C
:1017500002B008AD5D4415F8102C002AEFD0009BB4
:101760004FF4CC7404FB0A344434204600215A461A
:1017700001F0E8FDBBF1090F20464FF0010149D00F
:10178000002201F0DFFD7F222046022101F0DAFD78
:10179000002205F8102C039B5BB3029D019F03E020
:1017A000454526D02F4602353B785B45F8D120468B
:1017B00002217A7801F0C6FD0AF1010A009B5FFA66
:1017C0008AFA4FF4CC7404FB0A34443420460021D6
:1017D0005A4601F0B7FD7A7820460132D2B2012193
:1017E00001F0B0FD204602217F2201F0ABFD45450E
:1017F000D8D1707809F101035FFA83F90AF1010A7F
:1018000048455FFA8AFAA0D8BAF1030F39D009B077
:10181000BDE8F08FFA7801F095FDFA7820460221B4
:1018200001F090FD012205F8102CB4E73146019833
:10183000FFF7E6FC08EB0903DBB2012B7FF460AF96
:10184000A578092D35D06378022B26D82BD10098A6
:101850000021032201F08AF8009B2A4603F1440488
:101860002046002101F06EFD20460121002201F0FA
:1018700069FD204602217F2209B0BDE8F04F01F04A
:1018800061BD009B012103F20C542046002201F0AF
:1018900059FD204602210022EEE700980021042293
:1018A00001F064F8D8E700210A46009801F05EF8DC
:1018B000D2E700980021082201F058F86378002B45
:1018C000A5D0009B002703F144053E46E31993F899
:1018D000038028464246012101F034FD2846424655
:1018E000022101F02FFD28460021092201F02AFDE6
:1018F00001366378F6B2B34207F1020705F5CC75FD
:1019000085D9042EE2D182E730B40D4D0D4C002371
:10191000EA18127A0C49403A002AD4BF6FF03F000F
:10192000402000EBC21281FB0201D217C2EB611210
:10193000E11801330C2BCA71EAD130BC704700BFEB
:10194000C4060020580700201F85EB510A4B0B4AA4
:1019500010B403F11804597A187AA1F5005101EB7B
:10196000C011023341F38911A34202F8011FF2D1E1
:101970005DF8044B704700BFC40600205E070020DE
:10198000F8B5594DAB79012B06D0112B30D0202B57
:101990003FD0212B53D0F8BDEF79DFF868C1002F7D
:1019A00047D1297A8CF80070F72900F095804F4EC6
:1019B00000243246334601E0412868D80901C9B203
:1019C000197050780232084303F8010B117804446F
:1019D000F729C6EB0300E4B2EED1461E3544297A5E
:1019E000641AE4B28C4256D0FF238CF80030F8BD64
:1019F000EB79002BCFD12B7A002BCCD16B7A002B3B
:101A0000C9D1AB7AF72BC6D1BDE8F840384803F00E
:101A1000D5BFEB79002BBED12B7A002BBBD16B7AD3
:101A2000002BB8D1AB7AF72BB5D1324B01221A700B
:101A3000F8BD9CF8003001339F42ACD1B1E7EB799F
:101A40002D4C191103F00F022C48CBB2032B22703E
:101A5000037017D80A2A15D86B7A287A284E1B02E9
:101A6000EC7A43EA0033C1EB4111A87A06EBC101DD
:101A70002343043143EA00130C32012021F81230D1
:101A80004875F8BD1A48BDE8F84003F0CDBE461EC3
:101A90003544297AA4E7A6B1154CD7B93846C4F81D
:101AA00000748319B3F5806F3FF675AF20440F497A
:101AB000324607F0A3FDD4F800343344C4F80034B0
:101AC000F8BD002F3FF467AF0948BDE8F84003F0C8
:101AD000EDBFD4F80004E4E77B42DBB29F4283D140
:101AE0004FF0FF36D8E700BFC4060020CC06002028
:101AF000101300208405002054070020B0050020AA
:101B0000F80D0020850500202DE9F0010F48104C4C
:101B1000DFF850800F4F104A104E114DDFF848C0CB
:101B20000023FF21C4F8843088F80030C4F88030E6
:101B30003B70C0F884303170C0F880302970536237
:101B40008CF800301362BDE8F0017047B405002046
:101B50003C0600208405002088050020B0050020F8
:101B6000540700207805002085050020F8B5124BA9
:101B7000124D1F78EB1913F8013CF72B00D0F8BD7C
:101B80000F4C04F1500C637ABB4205D0FF2B03D0FD
:101B900010346445F7D1F8BD267A56B10023E25CD3
:101BA000E95C01339142D8B201D0FF2AF0D1B042B2
:101BB000F5D3E3689847F8BD78050020C4060020F7
:101BC000C89900082DE9F003614BD3F88470D3F86D
:101BD00080403F1B17F07F07F7D15E4E06F10608E5
:101BE00016F801CFD3F88040D3F88450013C641B31
:101BF0006406574DF6D0D5F88440464504F10109F6
:101C000009F07F0905F804C0C5F88490E8D1D3F83D
:101C10008040D3F88450013C641B66064C4DF6D0DE
:101C2000D5F884404FF0010C04EB0C0606F07F065B
:101C300005F804C0C5F88460D3F88040D3F8845018
:101C4000013C641B6406424DF6D0D5F88440661C06
:101C500006F07F062855C5F88460002A76D0002556
:101C60002E46C85D0F440644F6B24FEA101CD3F866
:101C70008000D3F884400138001B4006344CF6D075
:101C8000D4F8840000F1010808F07F0804F800C0CF
:101C9000C4F8848097F800C00CF00F0CD3F88000D3
:101CA000D3F884400138001B4706294CF6D0D4F8FD
:101CB00084000135EDB2471C07F07F079542C4F858
:101CC000847004F800C02F46CBD3340906F00F020D
:101CD000D3F88010D3F884000139091A4D061C4846
:101CE000F6D0D0F884104D1C05F07F054454C0F8A0
:101CF0008450D3F88010D3F884000139091A4C06B7
:101D00001348F6D0D0F884104C1C04F07F044254E1
:101D1000C0F88440D3F88020D3F88410013A521AD6
:101D200050060B49F6D0D1F88420F724501C00F05F
:101D30007F008C54C1F88400D3F88410D3F880203D
:101D40008A1A5206F8D1BDE8F00370471446BFE77F
:101D5000B4050020C7990008F8B50746B1B10D4693
:101D60000026402D34BF2C464024304639462246BA
:101D7000FFF728FF01362D1B2744F6B2F1D10021D1
:101D800030460A46BDE8F840FFF71CBF0E46F6E7AE
:101D900038B590F840300546002463B14FF4CC705C
:101DA00000FB0450443003F093F9013495F84030BF
:101DB000E4B2A342F2D80A4A0023516AFC204C1C28
:101DC00004F01F04505485F83A305462AB8785F80C
:101DD000203085F8223085F82130C5F8A83A38BD82
:101DE000880500202DE9F843044600F1070848481B
:101DF000FFF78CF9434604F11301002203F8012B8D
:101E00008B42FAD104F1440617463546284607F5B9
:101E1000CC7700F065FFB7F5CC6FC5F8D08005F53D
:101E2000CC75F3D104F2A468404605F0CBF904F276
:101E30009C7005F0C7F904F6940005F0C3F904F6A8
:101E40008C1005F0BFF901250023022207207F2115
:101E500003274FF078094FF0040C4FF0320E84F84E
:101E6000492084F8582084F85F2084F8757084F83D
:101E7000203084F8223084F82330A370A37184F8D2
:101E8000443084F8453084F8473084F8553084F87D
:101E9000543084F8573084F8563084F8623084F82F
:101EA0005B3084F85C3084F85D3084F85E3084F810
:101EB000633084F8763084F8773084F80190E570E8
:101EC00084F85950207184F8740084F805C084F8AF
:101ED000461084F8481084F85AE004F17D0284F832
:101EE000783004F1FD07802300251370557002320D
:101EF0009742F8D1012284F87C503046414684F85C
:101F000040202B4601F0DAF92570BDE8F88300BFC8
:101F100034050020F8B590F8203005460E46ABBBDE
:101F200090F8233093BB4278272A30D8224B95F87B
:101F300040105A6A002402F1010CFA270CF01F0C21
:101F40000120C3F824C09F5485F8216085F8200043
:101F500085F8224085F83E4085F8354085F83640C2
:101F600085F83A402C8769B14FF4CC7000FB0450DF
:101F70003146443001F024F8013495F84030E4B2A1
:101F8000A342F1D80023C5F8A83AF8BDF8BD0B4824
:101F90000B4F00FB02F0A9780A4CA7FB002004FBC2
:101FA00001F1C0080B2285F834306B62A862E96247
:101FB00085F83020BAE700BF880500200DBB02007D
:101FC000CDCCCCCC063A6D0090F820300BB1FFF7A9
:101FD000DFBE7047838F10B504460BB1013B83878A
:101FE00004F2A46005F03EF904F29C7005F03AF9A1
:101FF00004F6940005F036F904F68C10BDE81040A4
:1020000005F030B92DE9F041037882B004460D4661
:10201000092B43D8DFE813F0EE008B000A008B0099
:102020000A00EE008B000A0045000A00B0F8BA165C
:1020300090F8B8362980B0F8B2176980B0F8AA18BD
:10204000A980B0F8A219E9802BB1B0F8F436D3F129
:10205000010338BF0023137094F8B0372BB1B4F8E4
:10206000EC37D3F1010338BF00235370A379002B61
:1020700040F0078194F8A8382BB1B4F8E438D3F1D4
:10208000010338BF0023937094F8A0392BB1B4F842
:10209000DC39D3F1010338BF0023D37002B0BDE8AF
:1020A000F08100F2A460019205F0D4F9288004F2D6
:1020B0009C7005F0CFF9688004F6940005F0CAF929
:1020C000A88004F68C1005F0C5F994F8B836019A8A
:1020D000E88023B1B4F8F636003318BF012313703B
:1020E00094F8B8366BB1B4F8F63653B194F8B0370B
:1020F000002B00F0CF80B4F8EC37002B40F0CA8002
:102100000123A18F53700B1C18BF0123937023B1BF
:1021100094F83E30002B40F0B180637923B994F8F5
:102120002030002B40F0AA800023D370B6E7B0F82F
:10213000BA3690F8B8062B80B4F8B2376B8094F8B2
:10214000CC8794F8D4C6B4F8BA17B4F8C236B4F849
:10215000C477B4F8CC664FEA48284FEA4C2C1FFAF3
:1021600088F8CF1B1FFA8CFC9E1B08FB07F70CFBA3
:1021700006F6A1EB1741A3EB1643C1F34E01C3F3DF
:102180004E030B44AB8094F8DF8794F8E7C6B4F8AD
:10219000BA17B4F8C236B4F8C477B4F8CC6604EB16
:1021A000480804EB4C0CB8F8CE87BCF8D6C6CF1B59
:1021B0009E1B08FB07F70CFB06F6A1EB1741A3EBF0
:1021C0001643C1F34E01C3F34E030B44EB8028B119
:1021D000B4F8F406D0F1010038BF0020107094F874
:1021E000B037002B8DD0B4F8EC37D3F1010338BFF2
:1021F000002386E7B0F8BA3690F8B8162B8090F82E
:10220000E066B0F8C236B0F8CC067602B6B2181A5C
:1022100006FB00F0A3EB10436B8094F8D466B4F88F
:10222000C236B4F8CC067602B6B2181A06FB00F035
:10223000A3EB1043AB8094F8E766B4F8C236B4F869
:10224000CC0604EB4606B6F8D666181A06FB00F074
:10225000A3EB1043EB8029B1B4F8F416D1F10101DE
:1022600038BF0021117094F8B836002B3FF449AF05
:10227000B4F8F636003318BF012342E70123D370C8
:102280000CE7A38F003318BF01239370002B3FF49A
:1022900044AF3DE7002334E70378092B6AD8DFE831
:1022A00003F0553A0C3A0C553A0C050CFF230B7011
:1022B0004B708B70CB700020704790F80C37D3F1C7
:1022C000010338BF00235B420B7090F80438002BE9
:1022D0000CBFFF2301234B7090F8FC38002B0CBF80
:1022E000FF2302238B7090F8F439002B0CBFFF23DF
:1022F0000323CB7090F80C37002B39D190F80438B9
:10230000002B35D190F8FC3893BB90F8F4090030DD
:1023100018BF01207047FF230B704B7090F80C37EB
:10232000D3F1010338BF00235B428B7090F804386F
:10233000002B0CBFFF230123CB7090F80C37BBB9E7
:1023400090F80408003018BF01207047FF230B707D
:102350004B708B7090F80C37D3F1010338BF00231A
:102360005B42CB7090F80C07003018BF012070471B
:10237000012070470020704710B490F8843AC3B130
:1023800090F8853A072B14D80C1D0A46002302F852
:10239000013B9442FAD190F8852A3AB1FF22CA54FF
:1023A00090F8852A0133DBB29A42F7D85DF8044BE6
:1023B00070470378092BF9D8012202FA03F313F4CA
:1023C000657F20D113F04A0F4FD113F0210FEDD0CC
:1023D00090F8B8362BB1B0F8F436002B0CBFFF23C1
:1023E00000230B7090F8E0365B004B7090F8D43609
:1023F0005B008B7090F8E73600EB4300B0F8D63600
:102400001B12CB70D2E790F8B8363BB1B0F8F43677
:10241000002B5CD190F8E0365B00DBB20B7090F8DB
:10242000B0373BB1B0F8EC37002B4ED190F8D8372D
:102430005B00DBB24B7090F8A8383BB1B0F8E438E1
:10244000002B40D190F8D0385B00DBB28B7090F855
:10245000A03933B1B0F8DC3993BB90F8C8395B00D0
:10246000DBB2CB705DF8044B704790F8B8362BB1F7
:10247000B0F8F436002B0CBFFF2300230B7090F84C
:10248000B0372BB1B0F8EC37002B0CBFFF23002383
:102490004B7090F8CC2790F8D43613448B7090F89A
:1024A000E73690F8DF2700EB4303B3F8D63600EBAE
:1024B0004200B0F8CE275B1203EB5223CB7075E7D6
:1024C0000023CB70CEE70023C0E70023B2E7002350
:1024D000A4E700BF2DE9F041044600F14407384667
:1024E00004F5EE7802F000FE404602F0FDFD04F532
:1024F0005D7002F0F9FD04F2A46604F20C5002F0E3
:10250000F3FD304604F092FF04F29C7004F08EFF5D
:1025100004F68C1504F6940004F088FF284604F0B5
:1025200085FF2378092B15D8DFE803F03D3D3D28D2
:10253000282828281605384631460322002300F0B3
:10254000BDFE002340462946012200F0B7FE0223CB
:1025500084F84030BDE8F081002538467119012229
:10256000F835002300F0AAFEB5F5787F07F5CC77A3
:10257000F3D1042384F84030BDE8F081032B2FD041
:10258000062B2DD0052B14BF04220122042B94BF4F
:10259000002301233846314600F090FE012384F8E1
:1025A0004030BDE8F081A3B94FF00108002538465E
:1025B000314600230135012200F080FEEBB2984540
:1025C00007F5CC7706F1F806F1D884F84080BDE82D
:1025D000F081012B14BF4FF004084FF00208E5E72B
:1025E0000222D3E72DE9F04F00F14403044685B001
:1025F000184604F5EE7A17468846019302F074FDFA
:10260000504602F071FD04F55D7002F06DFD04F2BC
:10261000A46304F20C50029302F066FD029804F0E9
:1026200005FF04F29C7004F001FF04F68C1604F61A
:10263000940004F0FBFE3046019D04F0F7FE092FE4
:1026400000F2F980DFE807F0D3D3D3A9A9A9A9A99B
:102650003405B8F1080F00F0FA80002301227F272B
:1026600084F854200198029984F8473084F8553052
:1026700084F8563084F8573084F84870032200F00C
:102680001DFE00237F22314684F8E021504684F865
:10269000DF3184F8EC3184F8ED3184F8EE3184F8E0
:1026A000EF310122022600F009FE84F840605EE06E
:1026B00004F110062346242004F1540E0022B8F140
:1026C000080F4FF07F071CBF83F8450083F84600D2
:1026D00083F8472083F8487094F8447000F1020CA6
:1026E00083F8447094F84970311B5FFA8CF07144A0
:1026F0002C2883F8497006F5CC7601F8102C01F8E7
:102700000F2C01F80E2C01F80D2C03F5CC73D5D14C
:1027100004F50377012694F840304FF4CC71B6FBF2
:10272000F3F203FB1263DBB29E4238464FF0900295
:102730000F4404D001FB0341743106F05FFF013602
:10274000F6B2042EE7D1019FDDF808800026384656
:1027500008EB06010122F836002300F0AFFDB6F5C4
:10276000787F07F5CC77F2D1042684F84060002307
:1027700004E04FF4CC7505FB03454435012E94BFAE
:102780000026012685F89661013394F84060DBB29B
:102790009E42EED805B0BDE8F08F2378032B54D0CD
:1027A000062B52D0052B14BF04220122B8F1080FCA
:1027B00000F0D5804FF0000E042F4FF07F0C4FF04B
:1027C00001060198029994BF0023012384F847E091
:1027D00084F855E084F856E084F857E084F848C05F
:1027E00084F8546000F06AFD84F84060BFE73FBBA6
:1027F00001262346002004F1540E03950AE0AE4260
:1028000083F8472083F848C001F80E2003F5CC7305
:102810007A703BD9191B0130B8F1080F4FF0000254
:102820004FF07F0C01EB0E07C5B2E8D183F84520CD
:1028300083F846C0E3E794F84060002E97D1A9E7FB
:10284000012F14BF04260226D3E70222AEE7002799
:102850004FF07F08012284F854200198029984F8EF
:10286000457084F8477084F8557084F8567084F881
:1028700057703B4684F8468084F84880032200F075
:102880001DFD84F8DD7184F8DE81FAE6012E039DDA
:1028900051D057464FF0010894F840304FF4CC71B6
:1028A000B8FBF3F203FB1283DBB2984507F130006B
:1028B0004FF0900237D001FB034140318C465CF869
:1028C00004BF0B46DCF804A0DCF80890DCF80CC070
:1028D000C7F800B0C7F804A0C7F80890C7F80CC044
:1028E00053F814BF3431D3F804A0D3F80890D3F8C8
:1028F0000CC0C7F810B0C7F814A0C7F81890C7F8F4
:102900001CC0D3F810B0D3F814A0D3F81890D3F8A3
:102910001CC0C7F820B0C7F824A0C7F82890C7F893
:102920002CC006F06BFE08F101085FFA88F8B0458C
:1029300007F5CC77B0D1DDF80490DDF808800027EA
:102940004846414600230137012200F0B7FCFBB2A4
:102950009E4209F5CC7908F1F808F1D844E7002146
:102960007F2384F8451084F8463023E730B4455C73
:102970000346AA425A5404D061B101290ED002295B
:1029800001D030BC704782780A4930BC01FB02F2AA
:10299000C2627047294630BCFFF724BE4278064821
:1029A00001F1CC3100FB02F230BCA1FB0202D208E3
:1029B0009A627047063A6D000DBB020090F8203015
:1029C00070B50446DBB963780E490F4A01FB03F387
:1029D000A2FB0313DB08A3622046FFF77BFD04F193
:1029E000440600243519284600F024FC04F5CC7474
:1029F000284600F007FCB4F5CC6FF3D170BDFFF7AB
:102A0000C7F9E0E70DBB0200CDCCCCCC10B500215E
:102A100002220446FFF7AAFF83238622842184F83A
:102A20002B2584F8633084F8FB3184F89313204617
:102A3000FFF750FD94F820308C22627013B12046CD
:102A4000FFF7A6F920460021FFF764FA0023044AA5
:102A500084F8B03AC4F8A82AC4F8AC3A10BD00BF54
:102A6000189A000810B5D0F8AC1A90F8B02A0446AD
:102A700091423DD3D0F8A83A1978FF294FEAA11026
:102A80001AD0FE2929D011F03F011AD14FF4CC738E
:102A900003FB0040443000F0A1FBD4F8A83A002228
:102AA0000133C4F8A83AC4F8AC2A84F8B02A1978DB
:102AB000FF294FEAA110E4D10F4B3421C4F8A83A02
:102AC00000204FF4CC7303FB004001F11802642393
:102AD0000021443001F072FADFE70632D4F8AC1A74
:102AE000D2B20133914284F8B02AC4F8A83AC3D2D2
:102AF0000131C4F8AC1A10BD189A0008F8B590F866
:102B000020300446002B6BD04C490279C3788E5C90
:102B1000012E66D9426B22F07F4222F0FF0212B9E9
:102B20004FF6FF72828794F8362094F83550B2EB56
:102B3000560F63D0002D33D1414BD4F8A81A5A6AEE
:102B4000F827501C00F01F009F54586200295BD0EA
:102B50002046FFF787FF94F83550218F63794A1C90
:102B600092B2D1F1010103EB430038BF0021B2EB77
:102B7000C00F2287A4BF00222287202B84BF0123FD
:102B8000238794F8363084F83E100133DBB29E423E
:102B900084F8363097BF0022E378E37884F8362053
:102BA0000135EDB2AB4298BF002384F8355098BF91
:102BB00084F8353094F83A3093B1013BDBB284F8B5
:102BC0003A306BB994F8213053B16378272B2FD961
:102BD00094F8203023B12046BDE8F840FFF7D8B87C
:102BE000F8BD012B25D990F835505A1EB5EB620F70
:102BF000CCBF00226FF0000282879BE7B5EB530F3A
:102C000098D10022A28795E794F84030002BA4D0F9
:102C10004FF4CC7000FB0540443002F0EBF9013575
:102C200094F84030EDB2AB42F2D894F8355094E7C6
:102C3000F8BD282290F8355082877BE73CA3000836
:102C4000880500202DE9F04F8B46C17C0BF1010C6B
:102C500083B08C450646CDF804C091469A4635D0DF
:102C600096F84070002F36D000244FF0010805E0A0
:102C70009B450DD00134E4B2A74223D94FF4CC7563
:102C800005FB046595F8443005F14400102BEFD1A5
:102C9000F57CDDF804C05946AC454A465346E9D0B8
:102CA00001F030FB214600284A460C48534608BF35
:102CB0004FF00008013402F0ABFA96F84070E4B22D
:102CC000A742DBD8404603B0BDE8F08F0348FF21A0
:102CD00002F09EFAC4E74FF00108F3E70C1200205F
:102CE00038B50025044680F8D8502946DC30242227
:102CF00006F060FD84F8025184F8035184F8045111
:102D000084F8055184F8065184F8075184F8085175
:102D100084F8095184F80A5184F80B5184F80C5155
:102D200084F80D5184F80051294604F1D800431865
:102D30000331FF2227295A70F9D10025294684F84A
:102D4000445104F5A470242206F034FD84F86E5139
:102D500084F86F5184F8705184F8715184F872517D
:102D600084F8735184F8745184F8755184F876515D
:102D700084F8775184F8785184F8795184F86C514B
:102D8000294604F5A27043180331FF2227295A70FF
:102D9000F9D10025032002220123294684F87E016F
:102DA00084F87F2184F8825184F87A5184F87B5129
:102DB00084F87C5184F87D5184F8815184F80E5157
:102DC00084F8803104F58970242206F0F3FC84F83D
:102DD000385184F8395184F83A5184F83B5184F8D9
:102DE0003C5184F83D5184F83E5184F83F5184F8B9
:102DF000405184F8415184F8425184F8435184F899
:102E00003651294604F5877043180331FF222729DC
:102E10005A70F9D104F2831304F28711FF2203F8E8
:102E2000012B8B42FAD1002384F8D43084F8D530BA
:102E300084F8D63084F88E3184F88D3184F8D73018
:102E400038BD00BF10B490F8D43063B194B2002301
:102E500003F1300150F821100133CC8590F8D410E3
:102E6000DBB29942F4D890F88E317BB1A2F5C05212
:102E700092B2B2F5805F09D990F8913100EB43032B
:102E800093F83A2062F07F0283F83A2040795DF8A7
:102E9000044B003018BF0120704700BFF0B4017C24
:102EA000B1B990F8D4206AB15B029BB20A4602F134
:102EB000300150F8211001324B8690F8D410D2B274
:102EC0009142F4D84079F0BC003018BF012070471F
:102ED000012915D090F8D460002EF3D090F883111A
:102EE00091422DD00446002103E094F8835195428D
:102EF00031D00131C9B2B14204F10104F5D1E1E7A9
:102F000090F88261002EDDD090F87A1101F07F01F7
:102F1000914223D000F5BD773C46002104E02D7896
:102F200005F07F0595420ED00131251AC9B23D4406
:102F30006FF4BC7CB142654404F10104EFD1C1E7F8
:102F400090F882610021B142BCD2303150F821208A
:102F50005B025386B6E790F88261F4E70021F2E75E
:102F600090F8D4306BB1520292B2002303F13001D9
:102F700050F8211001334A8690F8D410DBB2994200
:102F8000F4D84079003018BF0120704738B590F868
:102F9000D4300024054680F8D6405BB104F13003FC
:102FA00055F8230004F04EF9013495F8D430E4B21A
:102FB000A342F3D86879003018BF012038BD00BFA4
:102FC00038B590F83320002381F00101012A04462E
:102FD00080F88D1180F8883180F8903180F8D730F2
:102FE00080F8D63037D0012280F88A3180F88B31D2
:102FF00080F88C21002584F88951A4F8945184F834
:103000000E51294604F58970242206F0D3FB04F5FD
:10301000877484F82A5084F82B5084F82C5084F854
:103020002D5084F82E5084F82F5084F8305084F8B6
:10303000315084F8325084F8335084F8345084F896
:10304000355084F82850294663180331FF22272978
:103050005A70F9D138BD90F8D81090F83220013963
:10306000013AFF2380F88A1180F88B2180F88C3197
:10307000C0E700BF90F88E3110B4BBB990F838109B
:10308000012280F8913180F88E2191B9002380F8D7
:103090008F3100F1B90400F1390380210022197049
:1030A0005A7002339C42F8D180F838205DF8044B06
:1030B000704790F88D31002BE8D080F88F215DF8B3
:1030C000044B704738B50321002502220123044632
:1030D00080F87E1180F87F2180F8803180F87A5165
:1030E00080F87B5180F87C5180F87D5180F88151C7
:1030F00080F84451294600F5A470242206F05AFBBA
:1031000084F86E5184F86F5184F8705184F87151CD
:1031100084F8725184F8735184F8745184F87551AD
:1031200084F8765184F8775184F8785184F879518D
:1031300084F86C51294604F5A27043180331FF222C
:1031400027295A70F9D10025294684F8D85004F16E
:10315000DC00242206F02EFB84F8025184F803518F
:1031600084F8045184F8055184F8065184F8075115
:1031700084F8085184F8095184F80A5184F80B51F5
:1031800084F80C5184F80D5184F80051294604F15B
:10319000D80043180331FF2227295A70F9D194F837
:1031A000D43000255BB105F1300354F8230004F05E
:1031B0003DF9013594F8D430EDB2AB42F3D804F2C6
:1031C000831304F28711FF2203F8012B8B42FAD1FB
:1031D000002384F8D73084F8D63038BD10B50446C3
:1031E000FFF770FF6079003018BF012010BD00BFED
:1031F00010B50446FFF766FF6079003018BF012064
:1032000010BD00BF38B50546FFF75CFF95F8D43018
:10321000002485F8D6405BB104F1300355F8230053
:1032200004F010F8013495F8D430E4B2A342F3D896
:1032300038BD00BF90F8D43010B4002B3AD0002233
:1032400000EB8203D3F8C010047D013281F83D40C9
:10325000D3F8C010847DD2B281F83E40D3F8C010BC
:10326000447D81F83F40D3F8C010C47E81F84040CF
:10327000047FD3F8C010003418BF012481F8424005
:10328000447F81F84140D3F8C010847F81F84340E7
:10329000D3F8C010C47F81F8684090F9174090F9C6
:1032A0001810D3F8C03001EBC411196190F8D43074
:1032B0009342C5D85DF8044B704700BFF8B5164679
:1032C00004461D460F46FFF7FDFE042E34BF32466E
:1032D000042284F8D42084F8D55082B1013AD0B2C7
:1032E000C0EB401007F1F803394603EBC00022465B
:1032F000C2F8C010F831814202F10402F8D1002D69
:1033000094F8D45014BF0223012305FB03F50320D6
:1033100000230221012284F87E0184F8825184F87E
:103320007A3184F87B3184F87C3184F87D3184F8FB
:10333000813184F87F1184F880212046BDE8F8406F
:10334000FFF778BF435C42549A4225D0332923D8F3
:10335000DFE801F023232323232222222222222218
:10336000222222222522222227272727272222271C
:103370002727272722222222222222222222222219
:10338000222222222222221A90F83330012B14BF4B
:103390000123FF2380F88C317047FFF793BEFFF7BE
:1033A00031BFFFF747BF00BF70B5837ECA01012B55
:1033B00033D0212B1BD0012B2CD990F919402B484D
:1033C000091B09B2F03180FB0140CD17284CC5EB39
:1033D000600000EB4000023BA1EB800154F8233079
:1033E000C9B233F81100104480B200B270BD1F4B57
:1033F000F03183FB0143CC17C4EB630303EB4303BE
:10340000D0F8D000A1EB8301C9B24056104480B27D
:1034100000B270BD90B200B270BD164DCEB26B78E6
:10342000B34220D0284631466E70FDF77FFE68809B
:103430000023EC1862790433FF2A03D002EB420226
:1034400092106271402BF4D12B78FF22591C05EBAE
:103450008305CBB26A710F2B064A88BF00232E71F9
:10346000E8801370C1E76888E2E700BFABAAAA2A28
:1034700084000020340500202DE9F04F437985B009
:10348000022B04460D46904600F0188194F810A0D7
:10349000BAF1000F40F08980637C94F844210293D4
:1034A000002A40F08E8004F2451394F86CB1039327
:1034B00004F5A276BBF1000F1BD00BEB4B012144AE
:1034C00091F845015B46A84200F0FA81DC4605E030
:1034D00090F84571AF4200F018819C4603EB43031E
:1034E000234493F8471101EB41000B462044002987
:1034F000EED10C2A00F0398102F1010CDA465FFAB4
:103500008CFC012303EB4300304440781946FF282C
:10351000DFB203F1010303D00D2BF3D101210F46DC
:103520004FEA410909EB0103234483F847A183F8DB
:10353000455183F8468184F86C71F2B194F86D318D
:1035400003EB4303234493F84531AB4298BF012377
:103550000AD93FE190F8290000EB4000204490F8A0
:1035600045018542C0F039815FFA83F8904506EB4A
:1035700003009A4603F10103ECD3A31883F86D719D
:1035800084F844C1BCF1000F33D0029B012B00F042
:103590008D81C0F0DE81022B2BD1224492F86D3157
:1035A00003EB43031E44013625E00AF1FF3ABAF16A
:1035B000030F00F29E81DFE81AF05200540161010E
:1035C0007201029B012B00F07881C0F0CE81022BAA
:1035D00040F0C381511ECBB2234493F86D3104F502
:1035E000A27603EB430333440133039394F86CB1A5
:1035F00060E704F24516039A317813788B425AD06B
:1036000094F8D430BCF1010F94BF4FF000084FF094
:103610000108002B4FD0002510E0B8F1000F1CD19D
:10362000434688F001000090384603F0D5FE01358E
:1036300094F8D430EDB2AB423DD9317805F1300386
:10364000204654F82370FFF7AFFEE37C0146727802
:10365000002BE2D1A37C0120E5E7A37CE1E794F80D
:103660008201002840F0A681FF2694F8D40086420B
:10367000C0F0CE802378102B18BF43F09000C94BC8
:1036800008BF9020D3F88420511C01F07F01C3F8BB
:103690008410D3F8841098544A1C02F07F02C3F8B7
:1036A0008420D3F884205D54511C01F07F0103F87D
:1036B0000280C3F8841005B0BDE8F08F90F8D530D3
:1036C000002B7FF4E3AE0378102B18BF43F090007B
:1036D000B44B08BF9020D3F88420511C01F07F0127
:1036E000C3F88410D3F8841098544A1C02F07F0267
:1036F000C3F88420D3F884205D54511C01F07F016D
:1037000003F80280C3F88410C0E60CEB4C0C90F870
:103710004701A4448CF84701002A00F0A18194F8E5
:103720006D01884218BF012005D1CFE099F828909B
:10373000894500F0CE80C7B28446BA4200F101004C
:1037400006EB0009F2D8511ECAB203EB430323442F
:103750000021FF200C2A83F8450183F8471183F8E4
:10376000461184F844217FF4C7AE3246002301217C
:10377000101B3044A0F59F773F7803330332A0F548
:10378000A07007B90178242BF2D1BBF1000F00F033
:103790006A810BEB4B02224492F845015B4688425A
:1037A00000F0ED805F4605E090F845C18C4500F0E3
:1037B000A4801F4603EB4303234493F8472102EB05
:1037C000420013462044002AEED1DA464FF00D0C99
:1037D0000C2296E64FF0000AD0461346E018013B53
:1037E00090F86C51DBB2984580F86D51F6D3A24445
:1037F0008AF86D71C4E6002707F1300354F82300FE
:1038000003F014FE2744FF2394F8D40087F8833193
:1038100088B194F88331AB42EDD0012303E091F8F5
:103820008221AA42E8D0DAB21F46824203F10103A4
:1038300004EB0301F3D306F130032946204654F884
:103840002390FFF7B1FD0127A37C0146424648467D
:10385000009703F0C1FD344484F8835105B0BDE8FE
:10386000F08F94F8876194F8D400864239BF731CB6
:10387000DBB20123002684F88731F8E64A4A4B4838
:1038800011684B4B00FB01F194F8D4000B44190E66
:10389000B1FBF0F600FB16111360CEB2E7E694F828
:1038A000D40000FB08F6C6F3C716E0E694F86D31C5
:1038B00003EB43031E4401369DE694F86D318EE61A
:1038C00091F847B1194684F86CB125E74FF0000C28
:1038D0006746511E61457FF737AF62462244013784
:1038E00092F86E01FFB2B94282F86D013A46F5DCFA
:1038F0002AE794F8D4000026B9E607EB470790F8CA
:103900004701E11981F84701DA4694F86D119142B7
:1039100018BF012100F0AB80771897F829C008463E
:103920009445CFB201F101012FD00C29F4D103EB62
:103930004303234400220B21FF2083F8472183F80F
:10394000462183F845010A4684F844114FF00C0CD7
:10395000D7E549440E4401364DE604F2451394F888
:103960006CB1039304F5A276A4E594F86CB104F568
:10397000A2760BEB4B033344013303939AE592F8A1
:1039800047A15A4684F86CA1BFE70B28CFD0221874
:103990000137FFB292F86E110A2F82F86D11384686
:1039A000F5DDC4E7B40500201C0300200D661900F6
:1039B0005FF36E3C94F87A3103F07F03AB4259D049
:1039C000012304F5BD7105E0CA5C013302F07F02FA
:1039D000AA4227D0DEB2B0421F46F5D804F27913CE
:1039E00004F27D17FF2601331A1B0A44A2F5BB72AD
:1039F0001278904207D904EB020C9CF97AC116EABE
:103A00002C0638BF1646BB42EDD1FF2E08BF00235F
:103A100007D1CA1812790133904288BF1646042B89
:103A2000F7D13746274465F07F0387F87A310320C2
:103A300004F5BB770B461A1B0A446FF4B97C624449
:103A40001278013B964206D04FFA80FCA44401381C
:103A50008CF87E21C0B2BB42EDD184F87E6104E6D1
:103A60004FF0FF3170E64FF00D0C0C2249E50027B6
:103A700038468CE700273E4604F5BD71D2E700BF0B
:103A80002DE9F041437982B0022B044600F0A78073
:103A9000A37E012B00F09280237C002B3AD194F876
:103AA0004451667C002D72D194F86C8104F2451764
:103AB000B8F1000F19D008EB4802224492F84501F2
:103AC0004346884206D17AE190F845C18C4500F022
:103AD0001B81984603EB4303234493F8472102EBF1
:103AE000420013462044002AEED1002D40F0CE8043
:103AF00094F8D4305BB105F1300354F8230003F09F
:103B000095FC013594F8D430EDB2AB42F3D802B055
:103B1000BDE8F081012B00F0278194F8D40090B12A
:103B200094F883318B4200F07A812346002504E02B
:103B300093F883218A4200F099800135EDB28542E5
:103B400003F10103F4D123780024102B18BF43F0B4
:103B50008005B54B08BF8025D3F88420501C00F0A9
:103B60007F00C3F88400D3F884009D54421C02F007
:103B70007F02C3F88420D3F884201954511C01F02B
:103B80007F019C54C3F8841002B0BDE8F081012E7F
:103B900000F00B81C0F03B81022E40F0338105F133
:103BA000FF385FFA88F3234493F86D3194F86C8101
:103BB00003EB4303E71807F2451779E79B4D002312
:103BC00002E0402B3FF468AFEA18107904338842D2
:103BD000F7D15079FF2804BFC0205071F1E790F869
:103BE000D530002B7FF454AF03780025102B18BF7D
:103BF00043F080068C4B08BF8026D3F88420501CED
:103C000000F07F00C3F88400D3F884009E54421C67
:103C100002F07F02C3F88420D3F884201954501C8A
:103C200000F07F009D54C3F8840031E700273D4633
:103C300004F5BD72274487F87A0104F5BB7C13466E
:103C40000326181B10446FF4B97738440078013B01
:103C5000854205D077B22744013E87F87E01F6B24F
:103C60006345EED184F87E5194F8D4008542BFF4C8
:103C70006AAF05F1300354F8230003F0D7FB2C445E
:103C8000FF2384F8833102B0BDE8F081012E00F0FB
:103C90008480C0F0AF80022E40F0A9806B1EDBB2A2
:103CA000234493F86D3103EB4303E61806F24516FF
:103CB0003B7831788B423FF42AAF94F8D430002B14
:103CC0003FF425AF002500E0317805F130032046B0
:103CD00054F82370FFF768FB94F813E0A37CDEF13F
:103CE000010E38BF4FF0000E014672783846CDF80D
:103CF00000E003F071FB013594F8D430EDB2AB4233
:103D0000E2D802B0BDE8F08108EB480890F847110E
:103D1000A04488F84711002D00F0838094F86D11BD
:103D2000914218BF012104D14FE098F86C81904571
:103D30004ED0C8B28C46854201F1010104EB010866
:103D4000F3D805F1FF3803EB430323445FFA88F807
:103D50000022FF2183F8451183F8472183F846218B
:103D6000454684F84481C0E694F882619EB194F897
:103D70007A0100F07F00884207D157E7D05C013319
:103D800000F07F0088423FF455AFDDB2AE4204F54B
:103D9000BD721F46F2D8FF2566E794F86D3103EB3C
:103DA0004303E61806F2451682E794F86D3194F85D
:103DB0006C8103EB4303E71807F2451778E692F8A6
:103DC0004711424684F86C11A5E74FF0000C60469D
:103DD00005F1FF38E045B6DDA44401309CF86E21C2
:103DE000C0B280458CF86D218446F5DCABE704F267
:103DF00045165DE794F86C3103EB4303E61806F2D1
:103E0000451655E794F86C8104F2451750E694F88E
:103E10006C8108EB4807274407F2451748E6002560
:103E200024E74FF0FF388EE7B4050020340500206A
:103E300090F8D6302DE9F0410646EBB10346002458
:103E400003E0242C03F1030310D093F8DC50033477
:103E50009542F6D193F8DD1061F07F000029F0D093
:103E6000242C83F8DD0003F10303EED17379012BD9
:103E70002DD00020BDE8F08190F80071C7B107EBAC
:103E80004700304490F8D9403B46944205D160E069
:103E900094F8D950954229D01F4603EB430333448D
:103EA00093F8DB0000EB4004034634440028EFD1D4
:103EB00096F838308BB196F88D3173B10B06D5D5A5
:103EC00011463046FFF7DCFD7379012BD1D196F80E
:103ED000D50080F00100BDE8F08196F83230002B6B
:103EE000ECD111463046FFF7CBFDEDE794F8DB50FF
:103EF00007EB4707F41984F8DB5096F8D880B8F13F
:103F0000000F3DD096F80141844218BF012404D12E
:103F100025E09CF800C1844523D0E5B22746A8459A
:103F200004F1010406EB040CF3D808F1FF3803EBAD
:103F3000430333440020FF2483F8D94083F8DB0097
:103F400083F8DA0096F8383086F8D880002BC4D091
:103F5000B1E790F8DB40384686F80041CDE700270E
:103F60003D4608F1FF38B845E1DD3744013597F8A3
:103F70000201EDB2A84587F801012F46F5DCD6E72E
:103F80004FF0FF38D3E700BF70B50646044600F196
:103F9000240502E00334AC420FD094F9DD30002B4D
:103FA000F8DA317894F8DC20102908BF0021304677
:103FB0000334FFF73DFFAC42EFD170BD2DE9F84F60
:103FC00090F8D7500446174699464FEAD118002D6D
:103FD00040F03B8194F80011D9B101EB4103234437
:103FE00093F8D9200846BA4200F016810E4605E043
:103FF00093F8D920BA4200F0A980064600EB4000B1
:10400000204490F8DB5005EB450328462344002D5F
:10401000EED1234613F8D85F8A460C2D00F0CC80F1
:1040200005F1010C5FFA8CFC012202EB42011944FC
:1040300049781046FF29D6B202F1010203D00D2AB9
:10404000F3D10120064600EB4000204480F8DBA0BD
:1040500080F8D97080F8DA9084F80061E5B194F8BE
:10406000012102EB4202224492F8D920BA4298BFC1
:10407000012009D92DE092F8292002EB42022244C6
:1040800092F8D920974227D3C1B2A94203EB00028C
:10409000824600F10100EED3254485F8016194F8D1
:1040A000383084F8D8C013B194F88D210ABB94F845
:1040B0003220F2B9204639464A46FFF7DDF994F836
:1040C0008E3103BB6379012B00F0CB800020BDE86B
:1040D000F88F4FF0000A51466319013D93F8002113
:1040E000EDB28D4283F80121F6D8A2448AF801612D
:1040F000D5E7B8F1000F00F0F78039464A46204670
:10410000FFF7BAF9DEE7B8F1000FDBD194F83830E9
:1041100094F8912104EB420191F83A0081F839704A
:1041200049EA000981F83A90013294F88F11D2B22D
:1041300084F8912121B99A4201D984F8382040238A
:104140009A4224BF002384F89131BBE706EB460670
:1041500093F8DB30264486F8DB308A4694F8D8B0F2
:10416000BBF1000F00F0C68094F80131AB4259D08A
:10417000012604F1D80303E09CF828C0AC4555D0D3
:10418000F2B231465A4506F1010603EB060CF3D3B1
:104190000BF1FF3B5FFA8BF500EB4000204400225F
:1041A000FF210C2D80F8D91080F8DB2080F8DA2070
:1041B00084F8D8507FF434AF184600224FF0010C39
:1041C000051B1D4415F8D26C033203300EB915F8E7
:1041D000D4CC242AF4D1BAF1000F19D00AEB4A0149
:1041E000214491F8D900524660456AD0554604E012
:1041F00091F8D96066453AD0154602EB4202224456
:1042000092F8DB0000EB4001024621440028EFD188
:104210000C254FF00D0C07E793F8DBA00D4684F852
:1042200000A19BE700210A4604F1D8030BF1FF3BF4
:104230008B45AFDD2144013291F80261D2B25A457B
:1042400081F801611146F5DBA4E790F8D650002310
:1042500080F8D630FFF798FE84F8D75084F8D6500F
:10426000B8E694F8D50080F00100BDE8F88F91F829
:10427000DB6005EB4505611981F8DB6094F80111FD
:10428000814218BF01213AD05E1896F829C00D4628
:104290008445CEB201F1010119D00C29F4D102EB11
:1042A00042022244FF2500200B2182F8D95082F8D7
:1042B000DB0082F8DA000D4684F8D8104FF00C0CC1
:1042C000B2E691F8DBA0104684F800A1D6E70B2DEA
:1042D000E5D02544013695F80211F6B20A2E85F88C
:1042E00001113546F5DDDAE794F88E21002A7FF4D6
:1042F0000FAFE7E64FF0FF3B04F1D8034AE7002693
:104300003546E6E7402AF8B516461F46054636D03C
:104310000FD97D2A30D026D97E2A28D07F2A03D1F2
:1043200001230374FEF76EFF6879003018BF012087
:10433000F8BD002AF8D0022A01D9042AF4D195F850
:10434000D430002BF0D0002404F1300155F82100C6
:104350003A46314603F06EF8013495F8D410E4B2D1
:10436000A142F1D8E0E77C2ADED10170DCE700232E
:104370000374FEF747FFD7E710230370D4E73F2B02
:1043800003D9012380F8D630CEE7002380F8D63059
:10439000FFF7FAFDC8E700BFF8B590F80EC1054673
:1043A000BCF1000F7BD000F5877695F837E195F8E2
:1043B00036710EEB4E0333445978C7B107EB470211
:1043C0002A4492F80F013B46884205D14BE090F811
:1043D0000F418C4214D01F4603EB43032B4493F848
:1043E000112102EB420013462844002AEFD128464F
:1043F000FFF746FB95F80EC1BCF1000FD5D1F8BD13
:1044000007EB470790F811012F4487F81101BCF121
:10441000000F30D0964518BF012404D12EE09EF83D
:1044200028E096452CD0E0B22746604504F101040F
:1044300006EB040EF3D30CF1FF3C03EB43032B44D8
:104440000022FF2083F80F0183F8112183F8102147
:10445000284685F80EC1FFF713FB95F80EC1BCF195
:10446000000FA2D1CBE792F811013A4685F8360148
:10447000BCF1000FCED14FF0FF3CDEE700273846FD
:104480000CF1FF3CBC45D8DD2F44013097F83821B2
:10449000C0B2844587F837210746F5DCCDE7F8BD83
:1044A0002DE9F04790F89031044603F11C0600EB2B
:1044B0004606717801360F0600F1888090F8D830F2
:1044C0000D46002B40F09A807278170600F1D080DC
:1044D0002046FFF761FF7278EDB2294602F07F02B5
:1044E0002046FEF7C9FF777894F8369107F07F07EA
:1044F000B9F1000F1BD009EB4902224492F80F11C9
:104500004B46A94200F041814E4605E091F80F016B
:10451000A84200F0D2801E4603EB4303234493F8E5
:10452000112102EB420113462144002AEED194F8F6
:104530000E2104F587760C2A00F0F48002F10108C0
:104540005FFA88F8012000EB4001314449780346C6
:10455000FF295FFA80FC00F1010003D00D28F2D1A1
:1045600001239C4603EB4303234483F8119183F812
:104570000F5183F8107184F836C1E2B194F83731E5
:1045800003EB4303234493F80F31AB4298BF01235D
:1045900009D978E091F8291001EB4101214491F803
:1045A0000F11A94271D8D8B2904206EB03011F4601
:1045B00003F10103EED3224482F837C194F831208D
:1045C00094F8903184F80E81A4F8922194F8382060
:1045D0000133DBB29A4284F890319CBF002384F807
:1045E00090311C3304EB43035A780133812A59D0AC
:1045F00093F90130002B55DBBDE8F08790F88E3140
:10460000002B7FF461AF90F896319BB990F8383069
:1046100083B190F8392010060DD5581EC0B204EBB6
:104620004000234604E093F83B200233150602D5F0
:104630008342F8D13C2294F8003103EB4303234436
:1046400093F8D9309A1A11448DB22BB27F2B04DD26
:104650000C3DADB22BB27F2BFADC002BBFF634AF92
:104660000C35ADB22B04FBD4727817067FF530AF52
:10467000EDB2204602F07F022946FEF7FDFE2046FD
:10468000FFF78AFE2FE700273846A318013A93F870
:104690003611D2B2824283F83711F6D8274487F810
:1046A00037C18BE76B4994F83020B4F892318A5CBB
:1046B0001344A4F89231BDE8F08706EB460691F862
:1046C0001111264486F8111194F80EA1BAF1000FC9
:1046D00000F0B78094F8371191425CD0012004F5C6
:1046E000877603E098F82880904559D0C1B2844677
:1046F000514500F1010006EB0008F3D30AF1FF3A3F
:104700005FFA8AF203EB430323440021FF200C2AC3
:1047100083F80F0183F8111183F8101184F80E212A
:104720007FF40CAF324600234FF0010C111B3144D3
:10473000A1F58470007803330332A1F5857108B9BF
:1047400091F800C0242BF1D1B9F1000F19D009EB79
:104750004902224492F80F114B4661455BD048460E
:1047600004E091F80F81E04529D0184603EB43039C
:10477000234493F8112102EB420113462144002AFD
:10478000EFD14FF00D080C22DCE692F811911A4699
:1047900084F8369198E74FF0000C614604F587766F
:1047A0000AF1FF3AE245ABDDA44401319CF838013F
:1047B000C9B28A458CF837018C46F5DCA0E791F840
:1047C00011C100EB4000211881F811C194F8371194
:1047D000914218BF012139D006EB010C9CF82980C9
:1047E000084690455FFA81FC01F1010119D00C29BE
:1047F000F2D103EB4303234400220B21FF2083F873
:10480000112183F8102183F80F010A4684F80E1154
:104810004FF00C0896E692F811911A4684F83691FA
:10482000D4E70B28E5D020440CF1010C90F8382196
:104830005FFA8CFCBCF10A0F80F837216046F2DD8C
:10484000D7E74FF0FF3A04F5877659E74FF0000CB1
:104850006046E8E748A300082DE9F04FCB4B90F8FD
:10486000341090F8352033F8111085B0044690F8D4
:104870008931002A40F0D48001229A401020009013
:10488000114294F8D89000F0C080B9F1000F00F008
:10489000BC80B9F1010F94F8321000F0E88094F870
:1048A0003300032800F0EC8094F88A2194F88B31CF
:1048B00052B24A4580F21C81002AC0F219815BB2D3
:1048C0008B4280F2F580002BC0F2F2802046FFF789
:1048D00063FD94F83330052B00F06281042B00F067
:1048E000EB8294F88A31234493F8013103EB4303BC
:1048F0002344D93394F88B21197802EB420201EB5F
:104900008201C9B25A78080602F07F0203D50C3939
:10491000C9B20B06FBD494F83681B8F1000F1BD056
:1049200008EB4800204490F80F5143468D4200F0B8
:104930009882474605E095F80F618E4200F0F180BD
:104940001F4603EB4303234493F8110100EB40059A
:10495000034625440028EED194F80E0104F587752E
:104960000C2800F0C08200F1010C5FFA8CFC0126DB
:1049700006EB46072F447F783346FF2F5FFA86FE0B
:1049800006F1010603D00D2EF2D101239E4603EB62
:104990004303234483F8118183F80F1183F8102116
:1049A00084F836E1E0B194F8373103EB4303234454
:1049B00093F80F318B4298BF012309D947E096F84D
:1049C000296006EB4606264496F80F61B14241D3B2
:1049D000DFB2874205EB0306984603F10103EED3ED
:1049E000204480F837E184F80EC12046FEF744FDEC
:1049F00094F88A3194F88C1194F83120194494F881
:104A0000893184F88A11A4F89221009A0133DBB22B
:104A10009A4298BF002384F8893105B0BDE8F08F31
:104A200090F83710009200985A18B2FBF0F100FB92
:104A3000112200F2FF700121400194F8365001FA72
:104A400002F280B25249284451F8201018E74FF082
:104A5000000847462318013893F83651C0B2874200
:104A600083F83751F6D3A04488F837E1BBE7012932
:104A70007FF415AF002384F88A3184F88B3125E761
:104A8000444A454D1068454B05FB00F00344180CA3
:104A9000C5B2001295FBF1F790FBF9F601FB175137
:104AA00009FB1600136084F88B1184F88A010DE766
:104AB00094F88C315AB2002ADABF01F1FF32D2B237
:104AC0000022022884F88B217FF400AF5B42DBB226
:104AD0005AB2002A84F88C311BDD012284F88A2125
:104AE000002352B24A4584F88B31DBB2FFF6E4AEC4
:104AF00094F88C21134452B2002AD8BF09F1FF3236
:104B0000DBB2D4BFD2B2002284F88B3184F88A2180
:104B1000D5E6A9F10202D2B24B1E84F88A21DBB29B
:104B2000DFE795F8116107EB4707E51985F8116193
:104B300094F80E91B9F1000F00F0528294F83751B9
:104B4000854200F09481012604F5877504E09CF805
:104B500028C0844500F09081F7B2B6464F4506F173
:104B6000010605EB060CF2D309F1FF3903EB430311
:104B7000234400265FFA89F0FF2783F80F7183F83A
:104B8000116183F8106184F80E01E9E6703F0108B5
:104B9000EC5B01081C0300200D6619005FF36E3CFE
:104BA00004F1D8034FF00008029304F58775CDF89F
:104BB0000C9094F8D81094F800910139C8EB0101D9
:104BC00011F0FF0109D00023013309EB4909DAB2E2
:104BD000A144914299F8DB90F6D8029B09EB490970
:104BE000994409F1010A9AF8013094F836B103F0BA
:104BF0007F03019399F80160BBF1000F1AD00BEB12
:104C00004B02224492F80F115B46B14200F0E08063
:104C10005F4604E091F80F01B04274D01F4603EBE9
:104C20004303234493F8112102EB4201134621442C
:104C3000002AEFD194F80E210C2A00F0988002F19E
:104C4000010E5FFA8EFE012101EB410028444078FD
:104C50000B46FF28CFB201F1010103D00D29F3D19A
:104C600001231F4603EB43030198234483F811B14A
:104C700083F80F6183F8100184F83671E2B194F87B
:104C8000373103EB4303234493F80F31B34298BF0A
:104C9000012309D927E091F8291001EB41012144B2
:104CA00091F80F118E4221D3D8B2824205EB030155
:104CB0009B4603F10103EED8224482F8377184F851
:104CC0000EE19AF8012099F8011002F07F022046C7
:104CD000FEF7D2FB08F1010803995FFA88F39942C5
:104CE0003FF667AF84E64FF0000B5846A318013A31
:104CF00093F83611D2B2824283F83711F6D8A34422
:104D00008BF83771DBE707EB470791F81111274460
:104D100087F8111194F80EC1BCF1000F00F0428128
:104D200094F83711914218BF012104D156E09EF842
:104D300028E0964554D0C8B20F46844501F10101E0
:104D400005EB010EF3D80CF1FF3C5FFA8CF203EB9C
:104D5000430323440021FF200C2A83F80F0183F82A
:104D6000111183F8101184F80E217FF468AF2A46E0
:104D700000230127111B2944A1F584700078033317
:104D80000332A1F5857100B90F78242BF2D1BBF164
:104D9000000F19D00BEB4B02224492F80F115B4627
:104DA000B94258D0DE4604E091F80F01B84227D04E
:104DB0009E4603EB4303234493F8112102EB420187
:104DC00013462144002AEFD14FF00D0E0C223AE792
:104DD00092F811B11A4684F836B19BE7002738469D
:104DE0000CF1FF3CBC45B0DD3A462244013092F85C
:104DF0003811C0B2604582F837110246F5DBA4E7EE
:104E00000EEB4E0E91F81111A6448EF8111194F884
:104E10003711914218BF012100F0DF806F1897F819
:104E200029E008469645CFB201F1010135D00C29A1
:104E3000F4D103EB43032344FF21002283F80F1135
:104E40000B2183F8112183F810214FF00C0E0A4634
:104E500084F80E11F7E692F811B11A4684F836B1CB
:104E6000D5E790F81181184684F8368160E64FF056
:104E7000000E774604F5877509F1FF39F1457FF794
:104E800075AE70462044013790F83861FFB24F4547
:104E900080F837613846F5DB68E60B2818BF024614
:104EA000C7D02244013792F83811FFB20A2F82F896
:104EB00037113A46F5DDBCE794F8D80094F88A310A
:104EC0000138C01A10F0FF0094F800313FF40EAD25
:104ED0000022013203EB4303D1B22344884293F80A
:104EE000DB30F6D802E5284600234FF0010E061B02
:104EF0002E44A6F584773F7803330330A6F58576F4
:104F00000FB996F800E0242BF1D1B8F1000F19D0B9
:104F100008EB4800204490F80F614346764544D0A2
:104F2000474604E096F80FC1F4450FD01F4603EB47
:104F30004303234493F8110100EB40060346264443
:104F40000028EFD14FF00D0C0C2010E596F811E180
:104F500007EB4707E61986F811E194F837618642B6
:104F600018BF012641D005EB060E9EF829C0374632
:104F700084455FFA86FE06F101061CD00C2EF2D1A4
:104F800003EB4303234400200B26FF2783F8110182
:104F900083F8100183F80F71304684F80E614FF0EA
:104FA0000C0CE4E44FF0FF3CCFE690F8118118467A
:104FB00084F83681D1E70B2F18BF3846E0D0204463
:104FC0000EF1010E90F838615FFA8EFEBEF10A0F05
:104FD00080F837617046F2DDD2E700273A4660E795
:104FE0004FF0FF3904F58775C0E54FF0000E7046AD
:104FF000E5E700BFF8B590F88831044653B990F85A
:1050000038301BB190F88D31002B5CD194F83230E0
:10501000002B54D1B4F892311BB994F80E21002A18
:1050200043D1013BA4F8923194F88831274A94F88F
:1050300030100133515CDBB2994284F888319CBF57
:10504000002384F88831A37D632B32D9134413F8ED
:10505000643CB4F8947194F8D420B7FBF3F003FBEC
:1050600010700004B0FBF3F0DAB10004002202F18A
:10507000300354F823300132596C1E6E5D6E0E44BD
:10508000AE1B0644DD6DC1EB000C06EB6C0605EBB8
:10509000E62518665966DD6594F8D430D2B293429D
:1050A000E5D80137A4F89471F8BD2046FFF774F9EC
:1050B000BAE7B4F894710137A4F89471F8BD2046AA
:1050C000FFF7CAFBA6E7FFF7EBF9A3E748A3000841
:1050D00010B50023044680F88D31FFF75DF92046B6
:1050E000BDE81040FDF7EEBF70B50024064680F81D
:1050F0008D41FFF751F93046FDF7E4FF96F8D430C3
:105100007BB106EB8405D5F8C00002F08FF9D5F825
:10511000C00002F097F8013496F8D430E4B2A3420C
:10512000EFD870BD00230246F0B402F8013B00F155
:105130008103FF2102F8011B9A42FAD100F201110A
:10514000FF2203F8012B8B42FAD1124C0027237E59
:10515000FDB223B1227A022A1BD103445D70617E25
:1051600081B1237A022B14BF01260426002300E01C
:10517000617E00EB431201331144DAB2964281F8AA
:105180008150F5D801372C2F04F11C04DFD1F0BC7D
:105190007047FEE79C9301082DE9F0410C46097A1F
:1051A000164601291D4617D012D302290ED11078B8
:1051B000164F4FF4CC7808FB0070A17A44301A46A1
:1051C000FEF7C0F8A189B1B9BDE8F081BDE8F08172
:1051D000A37AC554BDE8F0810C4F1A46A17A38462F
:1051E000FDF7C4FB97F8403032789A42ECD3013B8C
:1051F0003370BDE8F08133782A4608FB0370BDE8C0
:10520000F041C9B24430FEF79DB800BF58070020F6
:1052100010B5FF290ABF00F18104441C5109A25CAA
:1052200082B0FF2A8DF8071016D00F4CC2EBC202D5
:1052300004EB82018C7C0A7C0134A41AE4B203FBE7
:1052400004F38C7BC3F3C7131344032CDBB205D0E8
:105250000DF10702FFF7A0FF02B010BD03F0FE033F
:10526000262B98BF2723F3E79C9301080B7A012B89
:1052700012D00ED3022B0AD103784FF4CC7202FB6A
:1052800003F2897A064B40320A44D05C7047002012
:1052900070478B7AC05C70478A7A024BD05C70474B
:1052A0005C0700205807002038B50D461446FFF76C
:1052B000DDFFAB7B0246082B00F29680DFE803F0AF
:1052C000085E7505305056882800272A00F0928025
:1052D0005E49A1FB0253DB0803EB8300A2EB400213
:1052E000303213F0FF0362700DD0A1FB0301C90837
:1052F00001EB8101A3EB410303F13002D2B20023A1
:105300002270A37038BD202200232270A37038BD04
:105310006B69204653F82210BDE8384004F094BA77
:10532000102A00F08F8001324849D2B2A1FB02530B
:10533000DB0803EB8300A2EB40023032627003F023
:10534000FF02002BDFD0A1FB0201C90801EB8101A4
:10535000A2EB41023032D2B200232270A37038BDDA
:10536000002AB5D13A4B1868206038BD202AAFD941
:10537000384B1A889B782280A37038BD53B2002B1B
:10538000A6DA09333DDB5342304ADBB2A2FB0312FB
:10539000D20802EB8202A3EB420303F130010022A8
:1053A0002D236170A270237038BD01322749D2B21B
:1053B000A1FB0203DB0803EB8300A2EB40023032C7
:1053C000627003F0FF02002B9DD0A1FB0231BCE70D
:1053D000632A7FF67DAF204B643A204653F82210B3
:1053E000BDE8384004F030BA1C4B1A889B78228004
:1053F000A37038BD1A4B03CB1B7820602372616009
:1054000038BD52421148D1B2A0FB0123DB08DAB209
:10541000A0FB0250C00800EB800003EB8303A1EB6C
:105420004303A2EB400230323033D2B2DBB220254C
:105430002D2000212270227163706371A570E070CD
:10544000A17138BD074B1868206038BDCDCCCCCCDD
:10545000388E0108248E0108809801083C8E0108CE
:10546000288E0108348E010870B516460C46054694
:10547000FFF7FCFEA37B012B0ABF42B2024692B2A9
:10548000238A324412B219B28A4205DBB4F91230CF
:105490009A42B8BF13469BB2284621462A46DBB241
:1054A000BDE87040FFF778BE2DE9F047DFF82CE14A
:1054B000074688462025BEE80F0038607960BA604C
:1054C000FB60BEE80F003E4638617961BA61FB615E
:1054D0000EF154040EF2B469C7F8005405F110033C
:1054E000B3F5806F10D8234653F830ED7A19586819
:1054F0009968DB6847F805E050609160D360D7F8A1
:1055000000541035C7F8005405F12003B3F5806F3F
:105510001ED8234653F820CD7A19D3F804E09868B2
:10552000D96847F805C0C2F804E09060D160D3F8AC
:1055300010C0D3F814E09869D969C2F810C0C2F855
:1055400014E09061D161D7F800542035C7F80054B9
:1055500005F19003B3F5806F09D8781921469022A0
:1055600004F04CF8D7F800549035C7F8005404F50F
:10557000CC744C45B2D108F101085FFA88F808F5FF
:10558000003808F177084FEA882803F0C1FD40464B
:1055900003F0FEFD032DA9460CD94446C8EB070ACB
:1055A00020465AF80410043D03F014FE032D04F1C4
:1055B0000404F5D81FFA89F14B1E9BB241B10133A7
:1055C0001F44002116F8013B1944BE4289B2F9D1AB
:1055D00009EB0800BDE8F04703F02CBE5807002097
:1055E0002DE9F8438E4E04464FF0200E88460FCE2C
:1055F00020606160A260E3600FCE20617046E361CD
:1056000000F11003B3F5806F06F2B46725466161BF
:10561000A26106F15406C4F800E412D8334653F8E8
:1056200030CD2218D3F804E09968DB6844F800C054
:10563000C2F804E09160D360D4F800041030C4F8DC
:10564000000400F12003B3F5806F22D8334653F8ED
:10565000209D2218D3F804C0D3F808E0D96844F894
:105660000090C2F804C0C2F808E0D160D3F81090EE
:10567000D3F814C0D3F818E0D969C2F81090C2F872
:1056800014C0C2F818E0D161D4F800042030C4F886
:10569000000400F19003B3F5806F0BD906F5CC76CA
:1056A000BE42814615D0484600F11003B3F5806F25
:1056B000C7D8B3E731462044902203F09FFFD4F8C7
:1056C000000406F5CC769030BE42C4F80004814652
:1056D000E9D108F10101C9B201F5003177318E023B
:1056E000314620464A4603F089FF1FFA89F3591EC6
:1056F00039F8060089B243B101312144002315F87D
:10570000012B13448D429BB2F9D1984202D0002064
:10571000BDE8F8830023C4F800344148FCF754FC8A
:10572000D4F8005405F1200CBCF5806F17D804EBB9
:10573000050EDEF80000DEF80410DEF80820DEF8C2
:105740000C30374E65460FC6DEF81000DEF8141038
:10575000DEF81820DEF81C30C4F800C40FC605F1CE
:105760001002B2F5806F2F4B12D82544D5F800E017
:105770006E68A868E96843F830EC43F82C6C43F88D
:10578000280C43F8241CD4F800541035C4F80054F5
:1057900005F12002B2F5806F1FD82544D5F800E04E
:1057A0006E68A868E96843F820EC43F81C6C43F87D
:1057B000180C43F8141CD5F810E06E69A869E96963
:1057C00043F810EC43F80C6C43F8080C43F8041C45
:1057D000D4F800542035C4F8005405F19002B2F515
:1057E000806F0AD818469022611903F007FFD4F899
:1057F000002403469032C4F8002403F5CC73BB4266
:1058000007D0D4F8005405F11002B2F5806FBFD86C
:10581000ABE70348FDF7D2F80120BDE8F88300BFED
:1058200058070020CC0700202DE9F043294D002225
:105830000646C0F80024074683B005F578700023BB
:1058400004E00233162B144614D02246E9180C8BC0
:10585000911CB1F5806FADF80640F2D8BDF8061086
:105860000233B152D6F80044162B04F10204C6F8F4
:105870000044EAD1F835854201D02246DFE703F043
:1058800047FC154803F084FC032CA1460BD9124DAC
:10589000B0462846043C58F8041B03F09BFC032C3C
:1058A00005F10405F5D81FFA89F14B1E9BB241B1F1
:1058B00001331E44002117F8013B1944B74289B255
:1058C000F9D109F1006000F5EE3003B0BDE8F04316
:1058D00003F0B0BCFC0D002000DC0108F0B5344E34
:1058E00000220546C0F80024074683B0A6F578706C
:1058F000002304E00233162B144614D02246C118AC
:105900000C8B911CB1F5806FADF80640F2D8BDF854
:1059100006100233A952D5F80044162B04F10204F4
:10592000C5F80044EAD1F830B04201D02246DFE7A2
:1059300020492246284603F061FE04F10061A4B22A
:1059400001F5EE31631E08889BB27CB30133E91880
:10595000002317F8012B13448F429BB2F9D19842D0
:1059600002D0002003B0F0BD0021134CC5F8001494
:1059700004F11607234601E0D5F800148A1CB2F59D
:10598000806F4FF0010004D8695AC5F80024ADF8C3
:105990000610BDF806200233DA82BB426075EBD1F7
:1059A000F834A642DED0D5F80014E1E72346D6E766
:1059B000DC11002000DC0108FC0D00202DE9F04185
:1059C000394E044620270FCE20606160A260E3605C
:1059D0000FCEE3613B46A26103F11002B2F5806F86
:1059E00006F15405C4F800742061616106F2B466E2
:1059F00010D82A4652F830CDE11857689068D2681E
:105A000044F803C04F608860CA60D4F80034103393
:105A1000C4F8003403F12002B2F5806F1ED82A4684
:105A200052F8208DE118D2F804C09768D06844F885
:105A30000380C1F804C08F60C860D2F81080D2F82B
:105A400014C09769D069C1F81080C1F814C08F6183
:105A5000C861D4F800342033C4F8003403F1900254
:105A6000B2F5806F0BD905F5CC75B542194615D046
:105A70000B4603F11002B2F5806FCBD8B9E7294687
:105A8000E018902203F0BAFDD4F8003405F5CC7587
:105A90009033B542C4F800341946E9D12046BDE838
:105AA000F041FCF759B900BF58070020F0B50023BA
:105AB0000546C0F8003483B03D48FCF785FAD5F8B8
:105AC000004404F1200CBCF5806F0ED82F19386803
:105AD0007968BA68FB68364E64460FC638697969DA
:105AE000BA69FB69C5F800C40FC6324B04F1100255
:105AF000B2F5806F03F5CC6612D82C44D4F800C000
:105B00006768A068E16843F830CC43F82C7C43F820
:105B1000280C43F8241CD5F800441034C5F8004480
:105B200004F12002B2F5806F1FD82C44D4F800C0D5
:105B30006768A068E16843F820CC43F81C7C43F810
:105B4000180C43F8141CD4F810C06769A069E16907
:105B500043F810CC43F80C7C43F8080C43F8041CC1
:105B6000D5F800442034C5F8004404F19002B2F5A1
:105B7000806F0AD818469022291903F03FFDD5F806
:105B8000002403469032C5F8002403F5CC73B342D9
:105B900007D0D5F8004404F11002B2F5806FBFD8E9
:105BA000ABE7034803B0BDE8F040FCF707BF00BF18
:105BB00058070020CC07002090F88831044A03EBF6
:105BC000C30302EB83031B7E80F88831704700BF5C
:105BD0000001002090F888310D4803EBC30300EB6F
:105BE0008302D36910B44BB148681C7892F8201036
:105BF000204440B24CB2A04203DA19705DF8044B65
:105C0000704792F921108842B8BF0146C9B2F4E743
:105C10000001002038B590F98B31114D1B0103F1C3
:105C20000802A95804462A44A9B12B44D868C207DF
:105C30000DD5401022589B682044D358984794F9BA
:105C40008B311B011D442B7984F8883138BD9B684A
:105C500004EB6000F2E75268D107F3D5E5E700BF37
:105C60005099010890F98D310B2B03D0072380F850
:105C7000883170470522002380F8882180F88D3113
:105C8000704700BF022380F89431704790F88A3142
:105C9000496810B41944C9B2CBB25AB2002A80F88C
:105CA0008A310EDB0A4C0B4B247853F824305DF814
:105CB000044B9B5C2C2B04BF01F1FF3180F88A114F
:105CC0007047002380F88A315DF8044B704700BFAD
:105CD000580700200099010810B490F88C210A4C54
:105CE000C2EB421290F88D0104EBC203043303EBC4
:105CF0004002148B48680121201A80F310001083A1
:105D00005DF8044B59757047F80D002090F8883104
:105D100010B40F4C03EBC30304EB8302D3690124DB
:105D200080F894414BB148681C7892F820102044C8
:105D300040B24CB2A04203DA19705DF8044B7047D0
:105D400092F921108842B8BF0146C9B2F4E700BFFA
:105D500000010020034B0021012283F8851A83F8FB
:105D6000842A70475807002090F98D21034B00F5D5
:105D70008A7053F822100A4602F0FEBE8C9A01087F
:105D8000B0F99231134A10B482FB0342D917C1EB28
:105D9000620202EB4201A3EB81030F491BB201EB4C
:105DA000430411F81310637880F85A11202B02D1A4
:105DB0000A4B12B29B5C002400F5AD7180F85B3198
:105DC00080F85C410A4600F58A705DF8044B02F0E9
:105DD000D3BE00BFABAAAA2ACC990108C09901087A
:105DE00090F98B31034A1B01D15800F58A700A469D
:105DF00002F0C2BE50990108024900F58A700A46B5
:105E000002F0BABEE8990108024900F58A700A4614
:105E100002F0B2BEEC990108084A094B127800F56D
:105E20008A7053F8221090F97630064ACB5CC3EBA7
:105E3000C30302EB83014A6802F09EBE58070020AC
:105E4000009901089C93010838B50E4A0E4B127850
:105E500000F5AD7553F8221090F98A310B4ACB5CEE
:105E60000446C3EBC30102EB810109482A46FFF750
:105E70001BFA294604F58A702A46BDE8384002F02C
:105E80007BBE00BF58070020009901089C930108C1
:105E90000C120020094B00F5AD711A889B78A0F810
:105EA0005A218B7090F8902190F85B3100F58A7040
:105EB000134480F847300A4602F05EBEF0990108AC
:105EC00010B590F88E11044608290CD090F888314E
:105ED00080F88F11042B0B480DD0FFF781FB0023B6
:105EE00084F8883110BD90F88F3180F88E3100230E
:105EF00084F8883110BDFFF7D7FA002384F8883181
:105F000010BD00BF1013002010B590F98C3104466D
:105F1000042B06D0062380F88831002384F88D31C5
:105F200010BD002380F8883180F88C310148FFF7DC
:105F30007BFCF2E71013002010B5054B0446A3F6D6
:105F400084211846FBF730FB002384F8883110BD0C
:105F5000DC110020084A094B127890F98A0153F8A5
:105F60002230B1F904201B5C0549C3EBC30301EBEC
:105F700083010448FFF778BA580700200099010808
:105F80009C9301080C1200200148FBF72BBF00BFB7
:105F9000580700200148FFF711BD00BF1013002073
:105FA00090F98E31072B05DD0C4900F58A700A4601
:105FB00002F0E2BD0A4B00F5AD711A889B78A0F89B
:105FC0005A218B7090F88E2190F85B3100F58A7021
:105FD000134480F847300A4602F0CEBDF899010814
:105FE000F499010890F98C31032B05DD0C4900F57B
:105FF0008A700A4602F0C0BD0A4B00F5AD711A88DE
:106000009B78A0F85A218B7090F88C2190F85B3126
:1060100000F58A70134480F847300A4602F0ACBDA0
:10602000009A0108FC99010890F8943170B4052B8E
:106030004CD8DFE803F0442019030303244B00F598
:10604000AD711A889B78A0F85A218B7090F85B216B
:1060500090F8943100F58A701344033B80F8473080
:106060000A4670BC02F088BD1A4900F58A700A46DB
:1060700070BC02F081BD184B00F5AD711A889B7899
:10608000A0F85A218B7090F99521144BD41783FBFB
:106090000253C4EBA30390F85B5190F85A4103EB11
:1060A0008306A2EB46022A44234480F85B2180F851
:1060B0005A310A4600F58A7070BC02F05DBD08498D
:1060C00000F58A700A4670BC02F056BD70BC70477D
:1060D0000C9A0108009A0108089A0108676666662A
:1060E000049A010890F8912170B4034652BB90F8CD
:1060F000902116494FF4CC7000FB021292F89101E6
:10610000134A0130C0B2A2FB0012124C03F5AD716C
:106110002588A478A3F85A51D2088C7002EB820625
:1061200093F85B5193F85A41A0EB4600284422446F
:1061300083F85B0183F85A2103F58A700A4670BC24
:1061400002F01ABD70BCFFF71BBE00BF9C07002009
:10615000CDCCCCCC089A010890F8912110B422B390
:106160004A68B0F892311A4492B291B20BB2002B45
:106170003FDB7F2BCDBF7F22A0F89211D2B2A0F8D7
:10618000922190F890311E494FF4CC7000FB03131C
:1061900093F89211043329B193F8911103EB410361
:1061A00083F839205DF8044B704790F8903114481B
:1061B0004FF4CC7404FB03030433486893F8911143
:1061C00093F88F410144C9B2C8B244B941B281F3D6
:1061D0000601C9B283F891115DF8044B704740B2D3
:1061E00000280ADB93F838208242F3DC511EC9B242
:1061F000F0E70022A0F89221C3E71146EAE700BFCA
:106200009807002070B5184C054694F8233090F894
:10621000906193B1154B4FF4CC7202FB063696F8A1
:106220008F3113B994F820301BB10A2385F88831D7
:1062300070BD092385F8883170BD94F821302BB1E9
:1062400094F8203013B12046FBF7BEFE4FF4CC7318
:1062500003FB06404430FCF70DFF012395F89061E5
:1062600084F82330D6E700BF580700209C070020A1
:1062700090F8913183B11C4A90F890314FF4CC7171
:1062800001FB0323043393F88E21002180F8911140
:10629000B0F8921122B97047012380F8913170470C
:1062A00093F8912103EB420080F83910014690F8F1
:1062B0003A00013240F0640081F83A0093F88F11FF
:1062C000D2B283F8912139B193F838108A42E2D3DF
:1062D000002283F89121704793F83810914201D23F
:1062E00083F838204021F1E7980700202DE9F84392
:1062F0004B68B0F8927103EB07081FFA88F80FFAA1
:1063000088F3002BC0F293807F2BC9BF7F23A0F8B6
:1063100092819846A0F892313AB29A4276D0474C90
:106320005FFA88F894F8236094F84030002E14BF88
:106330004FF080094FF00009002513B922E092F8D0
:1063400023603E4A4FF4CC7101FB05212378443190
:10635000082B08BF91F80180084642467F2316B1FA
:1063600091F88E613EB10978102908BF002141EAF9
:106370000901FDF723FE013594F84030EDB2AB4240
:106380002E4ADCD894F820302C48002B40D094F8CA
:10639000233094F84020002BFFB214BF4FF0800848
:1063A0004FF00008002A3AD04FF000094D4601E0B6
:1063B00092F8233021494FF4CC7606FB051622785B
:1063C0004436082A08BF777830463A4613B196F823
:1063D0008E313BB13178102908BF002141EA080114
:1063E000FDF726FD0135EDB2144AB9F1000F06D1D3
:1063F00096F8D89019F1000918BF4FF0010994F8E8
:106400004030AB42D4D8B9F1000F08D0BDE8F883D2
:106410004378272BBBD90121FBF77CFDB7E76378D5
:10642000272B09D9BDE8F8430448FBF7CDBD00236D
:106430009846A0F892316FE7BDE8F883580700202E
:1064400090F8913110B40C46CBB990F890210E49D8
:106450004FF4CC7000FB02120432606892F8911184
:106460000144C9B248B2002804DB92F8383098429F
:10647000D8BF0B4682F891315DF8044B70475DF848
:10648000044BFFF733BF00BF980700202DE9F0470A
:1064900090F891510746634C90F89281002D51D0AD
:1064A00094F8233094F84020002B14BF4FF080095B
:1064B0004FF00009002A00F088804FF0000A55468E
:1064C00001E092F8233057494FF4CC7606FB0516CD
:1064D00022784436082A08BF96F8018030464246A2
:1064E00013B196F88E313BB13178102908BF0021E5
:1064F00041EA0901FDF79CFC0135EDB2494ABAF1C8
:10650000000F06D196F8D8A01AF1000A18BF4FF074
:10651000010A94F84030AB42D3D8BAF1000F54D0FE
:1065200097F890314FF4CC7202FB0344443494F852
:106530008E31002287F89121B7F89221002B4BD1A0
:10654000BDE8F08794F8236094F84030002E14BF23
:106550004FF080094FF0000983B994F8203031489A
:106560002BB94378272B02D90121FBF7D3FC012358
:1065700087F89131BDE8F08792F82360294A4FF4FB
:10658000CC7101FB052123784431082B08BF91F819
:106590000180084642467F2316B191F88E613EB1D4
:1065A0000978102908BF002141EA0901FDF706FD1D
:1065B000013594F84030EDB2AB421A4ADCD894F879
:1065C00020301848002BD2D1CBE76378272BA7D9EE
:1065D0001448FBF7F9FCA3E794F8913104EB43016D
:1065E00081F839200A4691F83A10013341F06401EC
:1065F00082F83A1094F88F21DBB284F8913142B1DD
:1066000094F8382093429BD3002384F89131BDE85D
:10661000F08794F838209A4201D284F8383040222A
:10662000F0E700BF580700202DE9F041044604F5CB
:106630008A7600F5AA7002F061FB304602F01AFA81
:10664000002504F2571002F005FCC4F8085104F5C7
:106650008670C4F8045102F04FF93C27184B0E2203
:10666000184984F88A51C4F8A051C4F89C51C4F860
:106670007C51A4F8927184F8882184F8892104F26D
:106680008B1804F28D1704F2951504F5C67C30467C
:1066900004F5C87604F5C774C3F86480C3F8F470D1
:1066A000C3F83C61C3F8F051C3F88840C3F8AC406C
:1066B0000A46C3F8D0C0BDE8F04102F05DBA00BFA1
:1066C00000010020EC990108F0B5044683B000F504
:1066D000AA7002F02DFB94F85431802B00F09280C8
:1066E00094F8802152B9002B77D1B84AD4F884119C
:1066F0001068411AB1F5167F80F0538194F8553136
:1067000094F8562103F00303022B00F08B8002F073
:106710000302022A00F0208104F2571002F0B2FBBB
:1067200094F85731802B00F09F8094F85931802BDA
:1067300000F0B28094F88831093BDBB2012B94F869
:10674000583140F2F080802B00F00B8194F87A21D0
:10675000BAB104F58A7002F0CDF901A99C48FBF7A3
:106760000BFE94F888310D2B00F0AC800E2B29D055
:106770000198C4F80D0104F5867002F0EBF803B03F
:10678000F0BD002B40F0F580904AD4F87C111068E1
:10679000411AB1F5167FDCD3D4F80811261D4F1C21
:1067A00006EBC10501204FF0050E07F01F0706F8A4
:1067B00031E06B606880C4F80871136884F87A016E
:1067C0002360C6E70023FF228DF804208DF80530F2
:1067D0008DF806308DF80730CAE77F2B8ED1D4F8BC
:1067E0000831201D5E1C00EBC301022706F01F06C6
:1067F000764D00F833704A804A60C4F808612B680F
:1068000023607BE7714B00221B6884F88021C4F869
:10681000843194F8553194F8562103F00303022B88
:106820007FF475AF93077FF477AF4FF0FF37D4F85D
:106830000831211D5D1C01EBC3024FF0010E6348BE
:1068400005F01F05002601F833E057605680C4F8B4
:106850000851036804F25710236002F013FB94F808
:106860005731802B7FF461AFD4F80831201D5E1CB6
:1068700000EBC3020021042706F01F06534D00F869
:10688000337051805160C4F808612B68236094F81C
:106890005931802B7FF44EAFD4F80831211D5D1C97
:1068A00001EBC3024FF0040E05F01F05022700267E
:1068B000464801F833E057805660C4F80851036831
:1068C000236037E7B4F8963101339BB203F5C07506
:1068D00003F5807003F18001C5F30805C0F30800DB
:1068E000C1F30801C3F308027F2DCCBF00256FF070
:1068F00000057F28CCBF00206FF000007F29CCBFAF
:1069000000216FF000017F2ACCBF00226FF000024F
:10691000A4F896318DF804508DF805008DF8061016
:106920008DF8072024E7802B7FF413AFD4F80831CB
:10693000211D5D1C01EBC3024FF0040E05F01F0585
:1069400001270026214801F833E057805660C4F83B
:10695000085103682360FCE6002B7FF4DDAE0127BD
:1069600065E71A4B00221B6884F87A21C4F87C3151
:10697000EFE67F2B7FF4EDAED4F80831201D5E1CCE
:1069800000EBC3014FF0040E06F01F0601270F4D68
:1069900000F833E04A604F80C4F808612B68236038
:1069A000D7E6D4F80811251D4E1C05EBC1000327BE
:1069B00006F01F0605F8317043804360C4F8086193
:1069C00013680122236084F8802197E6F0180020E4
:1069D000580700204B882DE9F041012B5FD190F83A
:1069E0009121002A5BD1344D95F82220002A56D1FE
:1069F00095F82040D4B195F8401091B1013905F2D5
:106A00006E23C9B24FF4CC7202FB013105F1D603FB
:106A1000012283F8442083F8452003F5CC738B4290
:106A2000F6D1012385F82230BDE8F08195F8236086
:106A300095F84020002E4FF00B0180F8913114BFE3
:106A40004FF080084FF0000880F8881190F892719C
:106A500012B926E092F82360174A4FF4CC7101FB7B
:106A600004212B784431082B08BF4F7808463A465A
:106A70007F2316B191F88E613EB10978102908BFC5
:106A8000002141EA0801FDF799FA013495F84030F8
:106A9000E4B2A342084ADDD892F820300BB1BDE839
:106AA000F0816B78272B05D9BDE8F0410248012120
:106AB000FBF730BABDE8F08158070020164A38B518
:106AC0001568D0F8A03140F2DB52EB1A934204462D
:106AD0001AD8D0F89C114EF66022013102FB01F267
