:020000040800F2
:1000000000020020F51000081D0100080D01000885
:100010001101000815010008190100080000000086
:1000200000000000000000000000000021010008A6
:100030002501000800000000290100082D0100082A
:100040003D1100083D1100083D1100083D11000858
:100050003D1100083D1100083D1100083D11000848
:100060003D1100083D1100083D1100083D11000838
:100070003D1100083D1100083D1100083D11000828
:100080003D1100083D1100083D1100083D11000818
:100090003D1100083D1100083D1100083D11000808
:1000A0003D110008ED0100083D1100083D11000858
:1000B0003D1100083D1100083D1100083D110008E8
:1000C0003D1100083D1100083D1100083D110008D8
:1000D0003D1100083D1100083D1100083D110008C8
:1000E0003D1100083D1100083D110008000000000E
:1000F0000000000000000000000000000000000000
:1001000000000000000000005FF808F1FEE700BFFB
:10011000FEE700BFFEE700BFFEE700BF704700BF7D
:10012000704700BF704700BF704700BF38B52A4C0A
:100130002A4D236828460133236000F02FFBAB785B
:100140007F2B02D1264B01221A70264B1B78032BE2
:100150000FD8DFE803F02D1D02122268224BC2F3F4
:1001600000225A70002A32D101211970FF219A70A1
:10017000D9701D4800F0A6FA38BD1B4B0121FF22A3
:100180001948597019709A70DA7000F09BFA38BDEE
:1001900020680121C0F3C11001FA00F0124B0022C7
:1001A0001870114859709A70DA7000F08BFA38BDE7
:1001B00021680D4BC1F3C0114A421020D2B2187011
:1001C000094859709A70DA7000F07CFA38BD102234
:1001D0001A700021FF22CAE7D4070020AC060020D5
:1001E000C8070020A8020020A402002038B5224839
:1001F000012100F06FFF00B938BD204A204B946800
:1002000093F89020C4F3C024A242D3F894202FD0B6
:10021000D3F8881083F890408A4227D2D3F88C1004
:100220008A4234BF0021012193F8982014481AB162
:10023000013A80F898200221D3F884200020551C30
:1002400005F07F059954C3F88450C3F894000A4818
:10025000012100F04BFF002C0CBF4FF400514FF474
:1002600060410848BDE8384000F084B90221DBE76E
:100270000132C3F89420EAE7002C0140000C014051
:10028000000200209C020020F8B50A4D07460E46E9
:1002900000F0BCFC286800F0F9FC56B12868002486
:1002A000395900F015FD2B680434181DA64228604A
:1002B000F6D8F8BDCC0700202DE9F007154A1649FD
:1002C000164F174C4FF00408FF262025DFF858C0C2
:1002D000144800234FF00C0A4FF0060982F898806A
:1002E0004E708D70C2F88430C2F888A0C2F88C902D
:1002F000C2F8803004603B7082F89030C2F89430CD
:10030000ACF80030A1F80E310B708B80BDE8F0071F
:10031000704700BF00020020B8060020A80200209D
:1003200000400008CC070020D007002010B50E4C7C
:1003300040F2DB512046002200F062FA0B4B002213
:100340000B481A6000F0CCF80A4800F033F90A486C
:1003500000F0F0F9094800F053F9FFF7ADFF20462F
:10036000BDE8104000F09CBAB4060020D40700207D
:100370009C020020B0060020AC060020A402002051
:100380002DE9F04F83B0FFF7D1FF4D484FF4807156
:1003900000F028FDA8B94B4FDFF840814A4C4B4D87
:1003A0004FF0000A5646D4F88420D4F88030DFF8A5
:1003B00018E1D31A5B060AD0BAF1000F0AD14448FB
:1003C000A6B100F087FA434800F0BEFAFEE7BAF1A2
:1003D000000F08D0022200233A702B702B78002BDC
:1003E000FCD0FFF769FF002EDAD0EAE7DEF88030B4
:1003F0001EF80310013303F07F03CEF8803000F0C5
:10040000DFFA02380328CED8DFE800F004303002EB
:100410000126C8E7B8F800C02F4BDFF8B4900CF005
:10042000030003EB00204FF0010B4FF4807209F141
:10043000070187F800B0CDF804C000F081FEDDF8B8
:1004400004C0204B0CEB0B0292B2A8F8002012F073
:1004500003020ED00022FF20202189F80020A9F8F5
:10046000042089F8010089F802109CE74FF0010A86
:1004700099E74FF0030E18484FF4806183F800E0CD
:100480008DE80C00FFF700FF009A019B4FF0FF0E74
:1004900020200421C4F8842089F80020C4F880209A
:1004A000A9F8042084F89020C4F8942083F800B0C0
:1004B00089F801E089F8020084F8981073E700BF1A
:1004C00000080140A802002000020020C807002008
:1004D000B806002000400008AC020020D007002031
:1004E000F0B5224E87B00746694630464FF4805239
:1004F000032410231E4DADF800208DF802408DF826
:10050000033000F015FC304669464FF420421823B2
:100510008DF80240ADF8002000248DF8033002264B
:1005200000F006FC4FF4827C4FF4006E4FF4007232
:100530000723284601A9ADF806C0ADF808E0ADF8DC
:100540000E20ADF81430ADF80440ADF80C40ADF815
:100550001040ADF81240ADF80A6000F0B1FC28463A
:10056000012100F0CDFC3C7107B0F0BD000C014052
:100570000038004038B50E4C0D4620464FF48051EF
:1005800000F036FC20464FF4805100F033FCA4F517
:1005900054442912204641F4105100F0BFFC2902B6
:1005A000204601F47F41BDE8384000F0B7BC00BFF1
:1005B000000C014070B582B0064601A94FF480538B
:1005C000012548240C48ADF804308DF806508DF80C
:1005D000074000F0ADFB4FF4006301A90748ADF8F8
:1005E00004308DF806508DF8074000F0A1FB002381
:1005F000337002B070BD00BF00080140000C014024
:10060000F0B52D4E89B001256946F02310272B48FF
:100610002B4CADF800308DF803708DF8025000F0CF
:1006200087FB694630464FF480638DF80370ADF860
:1006300000308DF8025000F07BFB03226946304603
:100640001823ADF80020002608278DF803308DF818
:10065000025000F06DFB3F232046ADF80830ADF8A6
:100660000470ADF80A60ADF806608DF80C6000F01B
:1006700011FD204601A900F053FC6023204604A987
:10068000ADF81030ADF81250ADF81660ADF8186046
:1006900000F06AFC2046394600F004FD204604A91B
:1006A00000F0AAFC2046394600F004FD2046294609
:1006B00000F0D8FC09B0F0BD000C0140000801407A
:1006C0000004004038B5194DC17804468908284611
:1006D00000F0FAFCA1782846890800F0F7FC62785F
:1006E00013484FF4806100F087FB227805F58235CE
:1006F000284602F00102102100F07EFB22782846F5
:1007000002F00202202100F077FB2278284602F056
:100710000402402100F070FB2278284602F0080213
:100720008021BDE8384000F067BB00BF00040040F6
:10073000000C014030B5042283B0FF2100F076FDAB
:100740000125482401A910231148ADF804308DF883
:1007500006508DF8074000F0EBFA01A94FF48073C2
:100760000C48ADF804308DF806508DF8074000F0C5
:10077000DFFA4FF4C04301A907488DF806508DF801
:100780000740ADF8043000F0D3FA03B030BD00BF2D
:10079000000C01400008014000100140F8B5102194
:1007A0000446C578134800F01DFB6D00EDB22843E8
:1007B000E0704FF480711048A77800F013FB7F00C1
:1007C0000E4DFFB23843A0704FF4005128462678F2
:1007D00000F008FB7600F6B26378304320704FF4E7
:1007E000804128465D0000F0FDFAEDB228436070BC
:1007F000F8BD00BF000C014000080140001001409E
:1008000030B5144685B00D4600F038F92CB14FF0E4
:1008100000604FF4804100F0EFF944F61D20012103
:1008200000F036FB44F20200012100F03DFB012004
:10083000014600F021FB0121174800F0E3FA4FF4D4
:10084000404000F00FFB00241448ADF80850ADF80C
:100850000440ADF80A40ADF806408DF80C4000F0B9
:1008600019FC01A90D4800F05BFB01210B4800F0C9
:10087000F9FB4FF4A06000F07DF9192201236846CE
:100880008DF801408DF802408DF800208DF803307E
:1008900000F07AF905B030BD00013000002C0140B5
:1008A00070B4084B084A0948F0265A60002580F8C1
:1008B0002360072401219D600A461C60044870BC27
:1008C00000F0DEBB10E000E03F19010000ED00E0A9
:1008D000002C0140164A174810B4174B4FF0FF3157
:1008E0000424C2F88010C2F88410C2F88011C2F843
:1008F000841104601968114A41F0010119601468FB
:100900000F491048214011601968002421F08471BA
:1009100021F480311960196821F48021196013686D
:1009200023F4FE03136004605DF8044B704700BFBE
:1009300000E100E010E000E000100240A0100240E2
:100940000000FFF84011024010B54468006800F054
:1009500091F8A04710BD00BF43780B41DB0713D5CA
:1009600001291DD022D3022911D1838801339BB2E2
:10097000B3F5FA7F838002D3B0F80E31EBB90722CA
:10098000202342708370704703230370704783787D
:100990002BB90122A0F80C31C3718371027070472A
:1009A00083784170013BDBB28370F1E783780222E8
:1009B000013BDBB283704270EAE7052303707047A6
:1009C000037870B50A4604469BB1012B0FD102296A
:1009D00020D0B0F80C5180796119CE790130C0B2C5
:1009E00032430828CA71A07108D05200CA71184653
:1009F00070BDFFF7B1FF2378184670BD0135ADB269
:100A00000022B5F5827FA4F80C51A27105D02C44C8
:100A1000E271ECE703230370E9E7154DE21D04F2F0
:100A200007104FF0FF3312F8011B5940C9B255F8B7
:100A30002110824281EA1323F5D194F8081194F829
:100A4000070194F80A21090441EA006194F80901B8
:100A50001143B4F80E21DB4341EA0021994214BF4F
:100A60000423022301322370A4F80E21BFE700BF44
:100A7000C012000880F30888704700BF3A4B10B4DA
:100A800019683A4A41F0010119605C6883B022405C
:100A90005A601A68002122F0847222F480321A60AF
:100AA0001A684FF41F0022F480221A605A6822F458
:100AB000FE025A609860009101911A6842F48032F7
:100AC0001A6003E0009BB3F5A06F0AD0264B1B68A9
:100AD00003F400330193009B01330093019B002B2F
:100AE000F0D0214B1B6813F4003318BF012301938E
:100AF000019B012B00D0FEE71D4A1B4B116841F002
:100B000010011160116821F003011160116841F0BA
:100B1000020111605A685A605A685A605A6842F471
:100B200080625A605A6822F47C125A605A6842F411
:100B3000E8125A601A6842F080721A600A4B1A680A
:100B40009201FBD55A6822F003025A605A6842F0BB
:100B500002025A60044B5B6803F00C03082BF9D1C6
:100B600003B05DF8044B7047001002400000FFF82E
:100B70000020024040F0BF60024B40F40030D860DB
:100B8000704700BF00ED00E0C37830B45BB9037874
:100B9000012103F01F02914030BC5B09144A20334D
:100BA00042F823107047134B4478DB680F22DB4375
:100BB000C3F30223C3F1040122FA03F38C408578C6
:100BC000017803EA0502224301F160431201D2B227
:100BD00003F5614383F800230378012103F01F022A
:100BE000914030BC024A5B0942F82310704700BFB5
:100BF00000E100E000ED00E021F0604121F07F0124
:100C0000014B08439860704700ED00E0024B034938
:100C1000034A59605A60704700200240230167452B
:100C2000AB89EFCD084BDA68D1070BD4DA685207ED
:100C300001D502207047DB6813F0100F0CBF0420B1
:100C400003207047012070470020024010B582B099
:100C50000446FFF7E7FF012812D1A4B1FF230022C9
:100C600001920193019B2BB1019B013B0193019BDD
:100C7000002BF9D1FFF7D6FF012804F1FF34ECD0A7
:100C80000CB102B010BD052002B010BD38B505464C
:100C900040F6FF70FFF7DAFF042800D038BD0B4C98
:100CA00040F6FF70236943F0020323616561236905
:100CB00043F040032361FFF7C9FF0528EED0226906
:100CC00041F6FD731340236138BD00BF0020024090
:100CD00070B5002382B005460F200C460193FFF744
:100CE000B5FF042801D002B070BD104EA3B2326926
:100CF0000F2042F0010232612B80FFF7A7FF04288A
:100D000008D00528EFD0326941F6FE7313403361F5
:100D100002B070BD02350195019B240C1C800F2090
:100D2000FFF794FF0528EED1DDE700BF0020024069
:100D3000F0B4CD78EB0648BF8B78098805F00F0634
:100D400048BF1E4311F0FF0F20D00768002302E0C8
:100D50000133082B19D001229A4002EA010494427F
:100D6000F6D19A004FF00F0C0CFA02FC06FA02F2D0
:100D700027EA0C07282D47EA020731D0482D03F156
:100D8000010308BF0461082BE5D10760FF2923D9BF
:100D90004768002302E00133082B1CD0012403F133
:100DA000080204FA02F202EA01049442F3D19A0022
:100DB0004FF00F0C0CFA02FC06FA02F227EA0C07BD
:100DC000282D47EA020709D0482D03F1010308BF87
:100DD0000461082BE2D14760F0BC70474461DAE758
:100DE0004461B5E7836819420CBF002001207047B9
:100DF00001617047416170470AB941617047016103
:100E0000704700BF30B4164A00F44014B4F5401FD8
:100E100085B253681CD0C20211D5C0F3034203242B
:100E200004FA02F223EA020343F0706319B1400DA1
:100E3000000185402B430A4A30BC53607047420D85
:100E4000120105FA02F223EA020343F07063EDE7B0
:100E5000546823F0706324F070645460E6E700BFC8
:100E600000000140034B5A6822F44042104358608E
:100E7000704700BF00100240044B5A6919B922EABA
:100E800000005861704710435861704700100240DD
:100E9000044B9A6919B922EA00009861704710431F
:100EA0009861704700100240044BDA6919B922EAD0
:100EB0000000D86170471043D861704700100240AD
:100EC000F0B40B884C888A881C43CB8814430A8969
:100ED0001C434B898F8922430588CE891A433A43A4
:100EE000324305F4415313439BB20380838B0A8A38
:100EF00023F400631B041B0C8383F0BC0282704745
:100F0000038829B923F040031B041B0C038070479E
:100F10009BB243F040030380704700BF818170475C
:100F2000038830B403F08F0303800588CA884B8898
:100F3000ADB215431D430B4B8C880A88ADB2984265
:100F400005808485028507D003F50063984203D0AD
:100F500030BC0123838270470B7A30BC03860123A7
:100F600083827047002C0140038CF0B423F480731B
:100F70001B041B0C0384028C0D8922F400728488EC
:100F80001204838B120C42EA05224F8823F073036C
:100F9000184D1B040E8842EA07221B0CA84292B28D
:100FA000A4B243EA06030AD005F50065A84206D0BC
:100FB000C98884808383F0BC81870284704722F4CF
:100FC0000062B1F80AC092B244F6FF768F8942EA15
:100FD0000C2C26404FF6FF358A88CC890CEA050593
:100FE00046EA071645EA022246EA041492B2A4B27F
:100FF000DEE700BF002C0140038CF0B423F48053E3
:101000001B041B0C0384028C848822F40052838B03
:101010000D89120423F4E643120C42EA05324F888C
:101020001B040E880E4D1B0C42EA073243EA0623CE
:10103000A84292B2A4B29BB20BD005F50065A842BB
:1010400007D0C98884808383F0BCA0F84010028454
:1010500070478D89C4F30D0444EA8514A4B2F0E707
:10106000002C0140038829B923F001039B059B0D47
:10107000038070479BB243F001030380704700BFB9
:1010800083899BB21AB923EA010181817047194310
:1010900081817047038923F007031B041B0C038124
:1010A000704700BF838B23F008031B041B0C1943FC
:1010B00081837047838B23F400631B041B0C43EA7A
:1010C00001218BB28383704781877047A0F840105D
:1010D000704700BF038A828911EA030092B203D0ED
:1010E00011420CBF00200120704700BFC94389B2E4
:1010F00001827047002100F004B80B4B5B5843504D
:1011000004310A480A4B42189A42FFF4F6AF094AE2
:1011100000F003B8002342F8043B074B9A42FFF467
:10112000F9AFFFF72DF97047D8160008000000202E
:101130000000002000020020D8070020FFF7FEBFBB
:10114000844641EA000313F0030349D1403A23D314
:101150000B6803604B6843608B688360CB68C36037
:101160000B6903614B6943618B698361CB69C3611F
:101170000B6A03624B6A43628B6A8362CB6AC36207
:101180000B6B03634B6B43638B6B8363CB6BC363EF
:1011900040304031403ADBD230320BD30B68036031
:1011A0004B6843608B688360CB68C360103010313C
:1011B000103AF3D20C3205D351F8043B40F8043B0B
:1011C000043AF9D2043208D0D2071CBF11F8013B0F
:1011D00000F8013B01D30B8803806046704700BFD5
:1011E000082A13D38B07B1D010F00303AED0C3F19C
:1011F0000403D21ADB071CBF11F8013B00F8013BC6
:10120000A4D331F8023B20F8023B9FE7043AD9D33C
:10121000013A11F8013B00F8013BF9D20B78037059
:101220004B7843708B78837060467047F0B48407C6
:1012300043D0541E002A3ED0CDB2034603E0621EC6
:10124000002C38D0144603F8015B9A07F7D1032C21
:101250002AD9CDB245EA05250F2C45EA054515D911
:10126000A4F110073F0903F1100606EB07161A4612
:10127000156055609560D5601032B242F8D104F027
:101280000F040137032C03EB07130DD91E4622462A
:10129000043A032A46F8045BFAD8221F22F003021C
:1012A0000432134404F003042CB1C9B21C4403F803
:1012B000011BA342FBD1F0BC704714460346C6E7AE
:1012C00000000000963007772C610EEEBA510999A4
:1012D00019C46D078FF46A7035A563E9A395649E00
:1012E0003288DB0EA4B8DC791EE9D5E088D9D29724
:1012F0002B4CB609BD7CB17E072DB8E7911DBF9080
:101300006410B71DF220B06A4871B9F3DE41BE84A3
:101310007DD4DA1AEBE4DD6D51B5D4F4C785D383FF
:1013200056986C13C0A86B647AF962FDECC9658AA3
:101330004F5C0114D96C0663633D0FFAF50D088DFF
:10134000C8206E3B5E10694CE44160D5727167A2A3
:10135000D1E4033C47D4044BFD850DD26BB50AA5FF
:10136000FAA8B5356C98B242D6C9BBDB40F9BCAC23
:10137000E36CD832755CDF45CF0DD6DC593DD1AB7F
:10138000AC30D9263A00DE518051D7C81661D0BFA3
:10139000B5F4B42123C4B3569995BACF0FA5BDB8FF
:1013A0009EB802280888055FB2D90CC624E90BB1A3
:1013B000877C6F2F114C6858AB1D61C13D2D66B6FF
:1013C0009041DC760671DB01BC20D2982A10D5EF63
:1013D0008985B1711FB5B606A5E4BF9F33D4B8E8BF
:1013E000A2C9077834F9000F8EA8099618980EE163
:1013F000BB0D6A7F2D3D6D08976C6491015C63E6BF
:10140000F4516B6B62616C1CD83065854E0062F2E2
:10141000ED95066C7BA5011BC1F4088257C40FF53E
:10142000C6D9B06550E9B712EAB8BE8B7C88B9FC62
:10143000DF1DDD62492DDA15F37CD38C654CD4FBBE
:101440005861B24DCE51B53A7400BCA3E230BBD462
:1014500041A5DF4AD795D83D6DC4D1A4FBF4D6D3BE
:101460006AE96943FCD96E34468867ADD0B860DA62
:10147000732D0444E51D03335F4C0AAAC97C0DDDBE
:101480003C710550AA41022710100BBE86200CC9E2
:1014900025B56857B3856F2009D466B99FE461CE3E
:1014A0000EF9DE5E98C9D9292298D0B0B4A8D7C762
:1014B000173DB359810DB42E3B5CBDB7AD6CBAC0BE
:1014C0002083B8EDB6B3BF9A0CE2B6039AD2B174DA
:1014D0003947D5EAAF77D29D1526DB048316DC7336
:1014E000120B63E3843B64943E6A6D0DA85A6A7ADA
:1014F0000BCF0EE49DFF099327AE000AB19E077D36
:1015000044930FF0D2A3088768F2011EFEC2066959
:101510005D5762F7CB67658071366C19E7066B6EB5
:10152000761BD4FEE02BD3895A7ADA10CC4ADD67D9
:101530006FDFB9F9F9EFBE8E43BEB717D58EB06035
:10154000E8A3D6D67E93D1A1C4C2D83852F2DF4FD9
:10155000F167BBD16757BCA6DD06B53F4B36B24835
:10156000DA2B0DD84C1B0AAFF64A0336607A0441D9
:10157000C3EF60DF55DF67A8EF8E6E3179BE694635
:101580008CB361CB1A8366BCA0D26F2536E2685259
:1015900095770CCC03470BBBB91602222F260555B5
:1015A000BE3BBAC5280BBDB2925AB42B046AB35CD9
:1015B000A7FFD7C231CFD0B58B9ED92C1DAEDE5B35
:1015C000B0C2649B26F263EC9CA36A750A936D0219
:1015D000A906099C3F360EEB856707721357000575
:1015E000824ABF95147AB8E2AE2BB17B381BB60C99
:1015F0009B8ED2920DBED5E5B7EFDC7C21DFDB0BF5
:10160000D4D2D38642E2D4F1F8B3DD686E83DA1F18
:10161000CD16BE815B26B9F6E177B06F7747B71874
:10162000E65A0888706A0FFFCA3B06665C0B011118
:10163000FF9E658F69AE62F8D3FF6B6145CF6C1674
:1016400078E20AA0EED20DD75483044EC2B3033918
:10165000612667A7F71660D04D476949DB776E3E74
:101660004A6AD1AEDC5AD6D9660BDF40F03BD83798
:1016700053AEBCA9C59EBBDE7FCFB247E9FFB530F4
:101680001CF2BDBD8AC2BACA3093B353A6A3B42418
:101690000536D0BA9306D7CD2957DE54BF67D92374
:1016A0002E7A66B3B84A61C4021B685D942B6F2A18
:1016B00037BE0BB4A18E0CC31BDF055A8DEF022D74
:1016C000F8B500BFF8BC08BC9E467047F8B500BF2F
:0816D000F8BC08BC9E467047FF
:0400000508000000EF
:00000001FF
