:020000040800F2
:1000000008040020E51C00081D0100080D0100087F
:100010001101000815010008190100080000000086
:1000200000000000000000000000000021010008A6
:100030002501000800000000290100082D0100082A
:10004000251D0008251D0008251D0008251D000888
:10005000251D0008251D0008251D0008251D000878
:10006000251D0008251D0008251D0008251D000868
:10007000251D0008251D0008251D0008251D000858
:10008000251D0008251D0008251D0008251D000848
:10009000251D0008251D0008251D0008251D000838
:1000A000251D00085D020008251D0008251D00080B
:1000B000251D0008251D0008251D0008251D000818
:1000C000251D0008251D0008251D0008251D000808
:1000D000251D0008251D0008251D0008251D0008F8
:1000E000251D0008251D0008251D00080000000032
:1000F0000000000000000000000000000000000000
:1001000000000000000000005FF808F1FEE700BFFB
:10011000FEE700BFFEE700BFFEE700BF704700BF7D
:10012000704700BF704700BF704700BF38B541F24D
:100130006064C2F20004236841F23815C2F200057F
:1001400001332846236000F059FC2B787F2B01BF38
:1001500041F25823C2F2000301221A7041F2201327
:10016000C2F200031B78032B15D8DFE803F05137E8
:10017000210241F2341141F22413FF22C2F20003A2
:10018000C2F20001402480200C7088704A701A70FE
:100190005A709A70DA7041F23410C2F2000000F026
:1001A000FBFB41F22410C2F2000000F079FB38BDE5
:1001B000216841F23413C2F200030020FF2211F043
:1001C00080011A705870987030D041F22413C2F236
:1001D00000031A705A709A70DA70DCE7216841F2F5
:1001E0003413C2F200030022FF201A709A70587074
:1001F000C1F3C11141F22413C2F2000301B301297A
:100200001A7004BF58709A701ED10020D870C2E7CF
:10021000216841F23413C2F2000380240020FF223F
:1002200011F480715C7098701A70CED141F2241371
:10023000C2F200030A46197059709970DA70AAE781
:10024000187059709970E0E702295A7008BF9870C9
:10025000DBD003299A70D8D1D8709CE74FF4305086
:1002600008B5C4F20100012101F02CFD00B908BD60
:100270004FF43050C4F20100012101F02FFD40F293
:100280000003C2F200031A8802BB40F20843C2F224
:100290000003D3F8880C41F22812D3F88C1CC2F268
:1002A00000020138401A1188C0F3090209090AB98D
:1002B00004221A70D3F88C2C501CC0F3090003EBF5
:1002C0004202C3F88C0CA2F8881408BD013A1A80C7
:1002D00008BD00BFF8B541F23C15C2F20005074663
:1002E0000E4601F01BFA286801F068FA56B128683A
:1002F0000024395901F084FA2B680434181DA642F1
:100300002860F6D8F8BD00BF10B541F24014C2F223
:100310000004204640F2DB51002200F08BFB41F24A
:10032000606341F22810C2F2000300220121C2F2F0
:1003300000001A6000F072F941F23810C2F20000B9
:1003400000F042FB41F22410C2F2000000F04EFA2D
:1003500041F23410C2F2000000F0BEFA2046BDE8BF
:10036000104000F0B9BB00BFF8B541F24415C2F22D
:10037000000528464FF47A7140F20844C2F20004A6
:1003800000F088FE0822134620464FF0005100F08E
:100390002DFCD4F8883C41F25C60C4F88C3CD4F865
:1003A000107D41F2201141F23C124FF480464FF093
:1003B000100C0023C2F20000C2F20001C2F20002DF
:1003C000C0F6000685F80CC1C4F8147DA4F8843486
:1003D000A3602370A36123612B70A5F80E31038005
:1003E0000B701660F8BD00BF2DE9F04F83B0FFF72A
:1003F0008BFFFFF7B9FF4FF44060C4F201004FF4E8
:10040000806101F087FA002840F0C28040F2084481
:1004100041F2201741F25C6641F25C2841F2582516
:10042000C2F20004C2F20007C2F20006C2F20008E3
:10043000C2F20005227840F20843042AC2F2000307
:1004400022D0D3F88C2CD3F8883CD31AC3F30903F9
:100450001F2B40F2E080D4F88C1CD4F8882C40F29A
:1004600008438A1AC2F20003C2F309021846002A9E
:1004700000F0D1801A78002A00F09980012A00F05B
:10048000C68000F0CBFCE6E701224FF00009D4F86B
:10049000140DD4F8101D40F20843411A490682F0A9
:1004A000010E89F0010CC2F2000363D041F2441046
:1004B0001CEA0E0FC2F200005CD0D3F8102D991880
:1004C000013202F07F0291F8901CC3F8102D00F069
:1004D0003BFE023803286ED801A353F820F000BF7A
:1004E000F90400088904000889040008F1040008E0
:1004F00000224FF00109CAE7B6F800904FF0010A58
:1005000041F2441B09F00300C2F2000BD1441FFA70
:1005100089F908EB00200BF101014FF4807287F894
:1005200000A001F000FC41F22013A6F8009019F0A1
:100530000309C2F2000341D04FF47C41D4F810CD3E
:100540000023CFF6FF714FF0100E03201A468BF8F0
:100550000030ABF80E31C4F87C34A4F884349946EA
:10056000C4F87814C4F87414C4F814CD8BF80CE1F2
:1005700020708CE742B1022200233A702B702B7856
:10058000002BFCD0FFF7F0FEB9F1000F3FF452AFA3
:1005900041F22810C2F2000000F014F900F0BAFA9B
:1005A0004FF48040C0F6000000F0F2FAFEE7184673
:1005B00000F0D2FB4FE70022914668E741F25C2051
:1005C0000322C2F200004FF480611A700193FFF71A
:1005D00081FED4F8881C019BC4F88C1CD4F810ED63
:1005E00010200221C4F814ED4A468BF80090ABF8B5
:1005F0000E91A4F88494C4F80890C4F81890C4F834
:10060000109083F800A08BF80C0121703FE718468A
:1006100000F0D0FB1FE7002237E700BF2DE9F047CD
:10062000804692B04FF4006000253F230124C4F2BD
:1006300001000F4601A9ADF804308DF806408DF891
:10064000075001F00DF90820C4F2020000F094FFF9
:1006500042F24C430820C4F201034FF4806C4FF087
:10066000200E4FF40052C4F20200062607A94FF0F4
:10067000800A4FF480790793CDF838C0CDF83CE07C
:100680001092CDF8208009950B9511950A96CDF81A
:1006900030A0CDF8349001F017F808202146C4F2BC
:1006A000020001F031F84FF41050C4F2010000F0E4
:1006B00085FE4FF41050C4F201004FF460224FF455
:1006C000006302A902958DF80C408DF80D408DF85D
:1006D00018600492059300F0A9FE4FF41050002F0B
:1006E0003AD022463346C4F20100042100F0F6FE5F
:1006F0004FF41050C4F20100012100F0BDFE4FF490
:100700001050C4F2010000F0CBFE4FF41050C4F2C0
:10071000010000F0CBFE0028F7D14FF41050C4F2D6
:10072000010000F0C7FE4FF41050C4F2010000F0C9
:10073000C7FE0028F7D14FF41050C4F20100012188
:1007400000F0A4FE4FF41050C4F20100012100F0AB
:10075000BBFE12B0BDE8F08739462246C4F2010064
:10076000072300F0BBFE4FF410502146C4F20100F5
:100770000222072300F0B2FE4FF41050C4F2010031
:1007800002210322072300F0A9FE4FF41050C4F207
:10079000010003210422072300F0A0FE05214FF4ED
:1007A00010500A46C4F20100072300F097FE4FF4F0
:1007B00010503246C4F201000421072300F08EFEDF
:1007C00096E700BF10B54FF41054C4F20104204660
:1007D000002100F079FE2046002100F057FE20465F
:1007E0000021BDE8104000F047BE00BFF0B54FF457
:1007F000406089B04FF400644FF47072C4F200049A
:10080000012769461823C4F20100ADF8002008252D
:1008100000268DF803308DF8027001F021F83F2397
:100820002046ADF80830ADF80450ADF80A60ADF8D8
:1008300006608DF80C6001F00FFA204601A901F066
:10084000B1F86023204604A9ADF81030ADF812705D
:10085000ADF81660ADF8186001F0C8F820462946DA
:1008600001F002FA204604A901F00CF920462946BD
:1008700001F002FA204604A901F04EF9204629466B
:1008800001F004FA204604A901F090F92046294617
:1008900001F004FA2046394601F0C6F909B0F0BD6E
:1008A00038B54FF40064C178C4F2000405468908E5
:1008B000204601F0FDF9A9782046890801F0FAF9EF
:1008C00069782046890801F0F7F9297820468908D7
:1008D000BDE8384001F0F2B9F0B54FF4006089B0DE
:1008E0000126694680231825C4F20100ADF80030C6
:1008F0008DF803508DF802604FF4806400F0B0FF73
:100900004FF44060C4F2000469460323C4F20100BE
:1009100008278DF80350ADF8003000258DF80260EF
:1009200000F09EFF3F232046ADF80830ADF804707C
:10093000ADF80A50ADF806508DF80C5001F08CF966
:10094000204601A901F02EF86023204604A9ADF845
:100950001030ADF81260ADF81650ADF8185001F037
:1009600091F82046394601F087F9204604A901F0A4
:10097000D3F82046394601F089F9204604A901F050
:1009800015F92046394601F089F92046314601F033
:100990004BF909B0F0BD00BF38B54FF48064417821
:1009A000C4F2000405468908204601F083F9A978BD
:1009B0002046890801F080F9297820468908BDE899
:1009C000384001F07BB900BF10B5FF2182B0022290
:1009D00001F0B2F94FF4406001224823C4F2010053
:1009E0004FF4406401A9ADF804408DF806208DF85D
:1009F000073000F035FF02B010BD00BF70B54FF4F6
:100A00004065C4F20105044606784FF4806128462B
:100A100000F080FF7600F6B26378304320704FF428
:100A2000006128465D0000F075FFEDB2284360705C
:100A300070BD00BF30B5144685B00D4600F0E2FB36
:100A40002CB14FF000604FF4804100F0ABFC44F655
:100A50000C20012100F07CFF44F20600012100F08F
:100A600085FF0120014600F065FF4FF4404000F093
:100A700057FF4FF430500024C4F20100ADF8085085
:100A8000ADF80440ADF80A40ADF806408DF80C40D2
:100A900001F0E2F84FF4305001A9C4F2010000F077
:100AA00081FF4FF430500121C4F2010001F0BCF885
:100AB0004FF4A06000F030FC1922012368468DF845
:100AC00001408DF802408DF800208DF8033000F0D1
:100AD0002DFC05B030BD00BFF0B44EF2100341F65E
:100AE0003F144FF46D42CEF20003C0F20104CEF287
:100AF0000002F0275C60002682F8237007254FF47F
:100B0000305001219E60C4F201001D600A46F0BC15
:100B100001F098B84FF461424EF2100010B4CEF2DA
:100B200000024FF0FF31CEF2000004244FF4805356
:100B3000C2F88010C4F20203C2F88410C2F8801117
:100B4000C2F88411046019684FF4855241F0010124
:100B50001960C4F2020210680021CFF6FF010140C3
:100B6000116018684FF48A5120F0847020F48030AE
:100B700018601868C4F2020120F480201860106820
:100B8000002320F4FE0010605DF8044B0B607047FA
:100B900010B54468006800F031FBA04710BD00BFED
:100BA00070B51C26044632460021383001F0C4F8E6
:100BB0004FF400753246002104F1540001F0BCF8F6
:100BC0002A46002104F1700001F0B6F82A4604F527
:100BD0001C70002101F0B0F8B4F880240023A4F8C0
:100BE00082242361A361A4F8703470BD70B441F60F
:100BF0008854C0F60004064654F822003446002209
:100C0000855E02320E2AE56104F10404F8D1002267
:100C10004FF40020C6F88C2C7060C6F8882CA6F81B
:100C20008034C6F8142D71613046C6F8102D70BCA2
:100C3000FFF7B6BF2DE9F007B0F88094B0F87084E4
:100C400009F1FF3708F5807C0024012F1FFA8CFC86
:100C500025460FDD0123C3EB0C02D2B200EB4202AA
:100C60000133B2F970609BB2B2F97022BB423544D5
:100C70001444F0DB002944D0C9EB0C0C1FFA8CFCA7
:100C80000CF1020200EB4803D2B23832B3F97070B3
:100C9000B3F970A230F9126085EAE579A9EBE5793C
:100CA00084EAE471A1EBE4712F44A244BF1B4944E0
:100CB000C6EB0A0686EAE679A9EBE6790CF10102B1
:100CC00008F1FF0387EAE77CACEBE77C01EB8101ED
:100CD000CC44D2B2DBB2890800EB420200EB430302
:100CE0008C45B2F87090B2F87082B3F87020B3F807
:100CF000703210D9B0F88234344601333D46A0F842
:100D00008234002DACBF02200020002CA8BF01308F
:100D1000BDE8F00770470FFA89F90FFA88F8A9447F
:100D2000A04412B21BB2C3EB0803C2EB090283EA70
:100D3000E376A6EBE37682EAE277A7EBE2773E443E
:100D40008E4281BFB0F882141C4601F1FF33154674
:100D500088BFA0F88234D4E710B416E0D0F8881C1D
:100D6000426800EB4103B3F88844836824B201333E
:100D70000131A4EB2224C1F309012244B3F5805FC1
:100D8000C0F8881C426083600BD2D0F88C2CD0F85D
:100D9000883CD31AC3F30903002BDFD15DF8044B61
:100DA0007047002301228360C36002705DF8044B2A
:100DB000704700BF70B41CE0D0F8884C416800EB6D
:100DC0004403B3F8883482681BB2A3EB212303FBEE
:100DD00003F6C56801320134C4F309040B4405EB82
:100DE0002615B2F5805FC0F8884C4360C56082600C
:100DF0000AD2D0F88C2CD0F8883CD31AC3F309035C
:100E0000002BD9D170BC70470023B5F5F03F83604B
:100E1000C360EED302230370F4E700BF2DE9F04175
:100E20000446D4F88C2CD4F8883CD31AC3F30903B5
:100E3000002B00F0FD80D4F814C02769D4F8881C7A
:100E40006744380E00F1400204EB410540F2040310
:100E5000B5F88854C2F20003D2B233F91280626846
:100E600033F910602BB2A3EB2223C8F1000803FB77
:100E700008F806FB03F601314FEA28251344C1F3B5
:100E80000901361200206565A8466360C4F8881C15
:100E9000A66305462346072202E0D3F854809E6BE2
:100EA000D969013A92B208FB015506FB01000433EF
:100EB000002AF2D1234606229E6ED96C013A92B2E4
:100EC000DE661965043B002AF6D12378002DACBFFD
:100ED0004FF001084FF0FF380028ACBF01224FF05F
:100EE000FF32022B1CBF08FB00F802FB1588A66925
:100EF00008BFC0EB050806EB4606B4F8702406EB05
:100F000008018E100CEBE10C001204EB42012D12D3
:100F100007EBC6072761A661C4F814C0A1F87000EA
:100F2000A1F87052B4F8821401320139D2B289B2F8
:100F3000A4F87024A4F8821449B9B4F88024032BCF
:100F4000A4F8822425D0052B13D0022B03D0032B29
:100F50007FF467AF28E02046FFF76CFE38B9B4F89D
:100F6000843401339BB2202BA4F8843462D02378DC
:100F7000EDE720460121FFF75DFED4F8143DE218AD
:100F8000013382F8900C03F07F02C4F8142D23780B
:100F9000DDE7D4F8143D04215A1C02F07F022344FB
:100FA00083F8901CC4F8142DB4F87064B4F880541D
:100FB00006F58076B6B26F00002D69D00022134688
:100FC0001146B21AD2B204EB42029D42B2F970C08D
:100FD00094BF01204FF0FF300CFB001103F101031F
:100FE000B2F970229BB294BF4FF0FF300120BB4298
:100FF00000FB02111A46E4DBD4F87C348B42B8BF04
:10100000C4F87C140029BCBF0023C4F87C34D4F895
:1010100074348B4207DDD4F87824934203DDD4F88E
:101020007C24934219D0C4F87834C4F87414F8E6D8
:10103000BDE8F0814FF47C43D4F8101DCFF6FF7368
:101040000322C4F87C04A4F88404C4F87834C4F8F7
:101050007434C4F8141D2270A6E7A6EB5502D2B270
:1010600004EB4202B2F970000028DCDAB2F9702217
:10107000002AD8DDB4F88424013D013292B2042A5A
:10108000A4F8842404BF05222270A4F88254CAE77D
:101090003946B1E700231022A0F8101180F80C2186
:1010A0000370A0F80E31A0F80A31704790F80C31A7
:1010B0000B41DB0706D504290AD8DFE801F0283CFC
:1010C00006321400032303707047022380F80C31AA
:1010D00090F80D3133B90122A0F806314370A0F821
:1010E000083102707047B0F80E31B0F810210133AA
:1010F0009BB29A42A0F80E3102D8B0F80A3103BB75
:101100001622102380F80C2180F80D31704790F8DA
:101110000D310822013BDBB280F80D3180F80C2143
:10112000D8E790F80D310122013BDBB280F80D3198
:1011300080F80C21CEE70C2380F80C3190F80D31AB
:10114000C8E7052303707047037870B50A46044664
:10115000ABB1012B11D1B0F80651B0F808016119FB
:101160004E78013080B2324304284A7018BF920092
:10117000A4F8080118BF4A7006D0184670BDFFF7E2
:1011800095FF2378184670BD0135ADB20022B5F544
:10119000827FA4F80651A4F808211CBF641962706C
:1011A000EBD141F6EC50C0F60000621C04F20115D0
:1011B0004FF0FF3312F8011B5940C9B250F821100B
:1011C000AA4281EA1323F5D194F8021194F801019F
:1011D00094F80421090441EA006194F803011143E1
:1011E000B4F80A21DB4341EA0021994214BF0423E9
:1011F000022301322370A4F80A21BEE780F3088895
:10120000704700BF4FF48053C4F2020319680022F4
:1012100041F0010119605968CFF6FF020A405A6097
:101220001A6882B022F0847222F480321A60186840
:10123000002220F48020186058684FF41F0120F429
:10124000FE0058609960009201921A6842F4803260
:101250001A6003E0009BB3F5A06F0DD04FF48053EC
:10126000C4F202031B6803F400330193009B0133B3
:101270000093019B002BEDD04FF48053C4F2020386
:101280001B6813F4003318BF01230193019B012B4A
:1012900000D0FEE74FF40052C4F2020211684FF48E
:1012A000805341F0100111601168C4F2020321F073
:1012B00003011160116841F0020111605A685A601F
:1012C0005A685A605A6842F480625A605A6822F436
:1012D0007C125A605A6842F4E8125A601A6842F066
:1012E00080721A604FF48053C4F202031A689201AC
:1012F000F8D55A6822F003025A605A6842F0020296
:101300005A604FF48053C4F202035B6803F00C038D
:10131000082BF6D102B0704740F0BF604FF46D4328
:1013200040F40030CEF20003D8607047C37830B488
:1013300073B90378012103F01F02914030BC5A09B0
:101340004FF461432032CEF2000343F8221070477D
:101350004FF46D43CEF20003DB684478DB43C3F304
:1013600002230F22C3F1040122FA03F38C40857893
:10137000017803EA0502224301F160431201D2B26F
:1013800003F5614383F800230278012102F01F0373
:10139000994030BC4FF461435209CEF2000343F848
:1013A0002210704721F0604121F07F014FF46D431E
:1013B0000843CEF200039860704700BF08B54FF4B1
:1013C0001053C4F20103984218D04FF42053C4F2D2
:1013D000010398421ED04FF47053C4F201039842A7
:1013E00000D008BD4FF40040012100F0CDFABDE867
:1013F00008404FF40040002100F0C6BA4FF40070DE
:10140000012100F0C1FABDE808404FF4007000214E
:1014100000F0BABA4FF48060012100F0B5FABDE8DF
:1014200008404FF48060002100F0AEBA436830B449
:1014300023F470240B680A7924F48074234343EA6C
:101440000223436085688C68CA684FF2FD73CFF64B
:10145000F17322432B404D79134343EA45038360E4
:101460000B7CC26A013BDBB222F4700242EA0353F6
:10147000C36230BC704700BF836819B923F0010311
:101480008360704743F0010383607047836819B934
:1014900023F480738360704743F4807383607047E4
:1014A000836843F008038360704700BF8068C0F31F
:1014B000C0007047836843F004038360704700BF37
:1014C0008068C0F380007047836819B923F4A003D3
:1014D0008360704743F4A00383607047092970B4A8
:1014E0001FD9A1F10A0404EB44040726A64003FA1D
:1014F00004F4C568062A25EA060343EA0403C36028
:101500001DD90C2A29D970BC0D3A02EB82021F2387
:10151000934001FA02F2C16A21EA03031A43C2624C
:10152000704701EB41040726A64003FA04F405695D
:10153000062A25EA060343EA04030361E1D870BCE6
:10154000013A02EB82021F23934001FA02F2416B3F
:1015500021EA03031A4342637047073A02EB82020F
:101560001F23934070BC01FA02F2016B21EA0303CE
:101570001A430263704700BF01680822C4F20202E6
:10158000002321F001019042016003604360836009
:10159000C3604FD01C23C4F20203984251D03023C1
:1015A000C4F20203984254D04423C4F20203984286
:1015B00057D05823C4F2020398425AD06C23C4F285
:1015C000020398425DD08023C4F20203984227D0E0
:1015D0004FF48163C4F20203984229D040F21C43C5
:1015E000C4F20203984254D04FF48663C4F202035B
:1015F000984257D040F24443C4F2020398425AD072
:101600004FF48B63C4F20203984201BF4FF480632E
:10161000C4F202035A6842F4702208BF5A6070474D
:101620000023C4F202035A6842F070625A607047A5
:101630004FF48063C4F202035A6842F00F025A600A
:1016400070470023C4F202035A6842F0F0025A6065
:1016500070470023C4F202035A6842F470625A6071
:1016600070470023C4F202035A6842F470425A6081
:1016700070470023C4F202035A6842F470225A6091
:1016800070470023C4F202035A6842F470025A60A1
:1016900070474FF48063C4F202035A6842F0F002CC
:1016A0005A6070474FF48063C4F202035A6842F4F0
:1016B00070625A6070474FF48063C4F202035A6844
:1016C00042F470425A6070478A68F0B40C6A0B6941
:1016D00014434A691C438B69CE69224307684D6AEB
:1016E00013438C6A1E43354327F4FF4CCB680F68C5
:1016F0004A682C432CF0700C44EA0C0404604360EC
:101700008760C260F0BC7047036819B923F0010319
:101710000360704743F00103036070474FF40053C8
:1017200040F2231148F6AB12C4F20203C4F267512F
:10173000CCF6EF5259605A60704700BF4FF4005327
:10174000C4F20203DA68D1070BD4DA68520701D574
:1017500002207047DB6813F0100F0CBF0420032039
:1017600070470120704700BF10B582B00446FFF7F4
:10177000E5FF421E53425341002C08BF0023C3B172
:10178000FF23002201920193019B2BB1019B013B9E
:101790000193019B002BF9D1FFF7D0FF013C0CBF57
:1017A00000230123012814BF002303F00103002BB1
:1017B000E6D1002C08BF052002B010BD38B50546A3
:1017C00040F6FF70FFF7D0FF042800D038BD4FF47B
:1017D0000054C4F20204236940F6FF7043F0020390
:1017E00023616561236943F040032361FFF7BCFF78
:1017F00005281FBF226941F6FD731340236138BDE0
:1018000070B5002382B005460F200C460193FFF708
:10181000ABFF042801D002B070BD4FF40056C4F2F3
:1018200002063269A3B242F0010232610F202B801E
:10183000FFF79AFF042808D00528ECD0326941F65A
:10184000FE731340336102B070BD02350195019BF8
:10185000240C1C800F20FFF787FF0528EED1DAE764
:10186000F0B4CD78EB0648BF8B78098805F00F06F9
:1018700048BF1E4311F0FF0F22D00768002302E08B
:101880000133082B1BD001229A4002EA0104944242
:10189000F6D19A004FF00F0C0CFA02FC06FA02F295
:1018A00027EA0C07282D47EA020708BF4461E7D062
:1018B000482D03F1010308BF0461082BE3D1076041
:1018C000FF2925D94768002302E00133082B1ED0E9
:1018D000012403F1080204FA02F202EA010494422C
:1018E000F3D19A004FF00F0C0CFA02FC06FA02F248
:1018F00027EA0C07282D47EA020708BF4461E4D015
:10190000482D03F1010308BF0461082BE0D14760B3
:10191000F0BC7047836819420CBF0020012070475B
:101920004FF48053C4F202035A6822F44042104339
:10193000586070474FF48053C4F202035A6919B9D2
:1019400022EA00005861704710435861704700BF99
:101950004FF48053C4F202039A6919B922EA0000D5
:101960009861704710439861704700BF4FF48053EF
:10197000C4F20203DA6919B922EA0000D86170479B
:101980001043D861704700BF4FF48053C4F2020384
:10199000DA6819B922EA0000D86070471043D860AD
:1019A000704700BF038870B403F08F03038006887C
:1019B000CA884B88B6B216438D880C881E434FF4F4
:1019C00050524FF43053C4F20103B6B2C4F20102D4
:1019D0000680984218BF90428585048508BF0B7A1F
:1019E00070BC08BF0386012383827047038C2DE9F6
:1019F000F00123F001031B041B0C0384028C0D89EE
:101A00008488B1F802C0038B4CEA050C22F0020274
:101A100023F073034FF450564FF4305512041B0457
:101A20000F88C4F20106C4F20105120C1FFA8CFCE7
:101A30001B0CA84218BFB0424CEA0202A4B243EA0F
:101A4000070317D14FF6F775B1F80AC0B1F80E8049
:101A50008E89154045EA0C0C4FF6FB728F8848EAD8
:101A6000060647F6FF450CEA0202B6B225403A43A5
:101A700046EA0504C98884800383BDE8F0018186B5
:101A800002847047038CF0B423F010031B041B0C7A
:101A90000384028C848822F02002038B0D891204B7
:101AA00023F4E643120C42EA0512B1F802C01B040B
:101AB0000F884FF450564FF430551B0CC4F20106FA
:101AC000C4F2010542EA0C1243EA0723A84218BFF8
:101AD000B04292B2A4B29BB217D14F894FF67F7633
:101AE000164047F2FF35B1F80CC046EA071625400C
:101AF0004FF6BF728F88CC89324045EA8C0542EAA6
:101B0000071245EA840492B2A4B2C9888480038390
:101B1000F0BC018702847047038CF0B423F4807317
:101B20001B041B0C0384028C0D8922F40072848830
:101B30001204838B120C42EA0522B1F802C023F092
:101B400073034FF450564FF430551B040F88C4F202
:101B50000106C4F2010542EA0C221B0CA84218BF80
:101B6000B04292B2A4B243EA070317D14F894FF2B1
:101B7000FF76164044F6FF75B1F80CC046EA07261A
:101B800025404FF6FF328F88CC89324045EA0C154C
:101B900042EA072245EA041492B2A4B2C9888480BA
:101BA0008383F0BC81870284704700BF038CF0B44C
:101BB00023F480531B041B0C0384028C0D8922F434
:101BC00000521204120C848842EA0532838B4FF4CF
:101BD00050564FF43055C4F20105C4F20106A84234
:101BE00018BFB04223F4E6430F8808BF8D89B1F8CF
:101BF00002C0A4B24FEA034308BFC4F30D044FEA86
:101C00001343C98808BF44EA851443EA072342EA1C
:101C10000C3208BFA4B292B29BB284808383F0BC22
:101C2000A0F8401002847047038829B923F001030B
:101C30009B059B0D038070479BB243F0010303801B
:101C4000704700BF83899BB21AB923EA01018181E1
:101C50007047194381817047038923F007031B04F0
:101C60001B0C0381704700BF038B23F008031B0488
:101C70001B0C194301837047038B23F400631B047F
:101C80001B0C43EA01218BB203837047838B23F043
:101C900008031B041B0C194381837047838B23F4B7
:101CA00000631B041B0C43EA01218BB28383704742
:101CB000818670470187704781877047A0F8401080
:101CC000704700BF038A828911420CBF00200120A7
:101CD00019420CBF002000F001007047C94389B2CF
:101CE00001827047002103E0094B5B5843500431E7
:101CF0000848094B42189A42F6D3084A02E00023EA
:101D000042F8043B064B9A42F9D3FEF76DFB70474D
:101D1000042200080000002008020020080400201F
:101D200064160020FEE7002310B5934203D0CC5C7C
:101D3000C4540133F9E710BD02440346934202D074
:101D400003F8011BFAE77047ECFF2800C9FF4000C9
:101D5000FF004000C9FF2800EBFFCDFF7B00FF0024
:101D60007B00CDFFEBFF0000BAFF1900B400FF00BD
:101D7000B4001900BAFF0000DDFF5500CD00FF00E0
:101D8000CD005500DDFF0000000000000000000055
:101D900000000000481D0008581D00080000000059
:101DA000681D000800000000781D00080000000009
:101DB0000000000000000000CC1D00080000000032
:101DC0000000000000000000DC1D00082D00950050
:101DD000E300FF00E30095002D000000000062001A
:101DE000B400EC00FF00EC00B40062000000000052
:101DF000963007772C610EEEBA51099919C46D0718
:101E00008FF46A7035A563E9A395649E3288DB0E72
:101E1000A4B8DC791EE9D5E088D9D2972B4CB60955
:101E2000BD7CB17E072DB8E7911DBF906410B71D32
:101E3000F220B06A4871B9F3DE41BE847DD4DA1A6B
:101E4000EBE4DD6D51B5D4F4C785D38356986C139C
:101E5000C0A86B647AF962FDECC9658A4F5C011415
:101E6000D96C0663633D0FFAF50D088DC8206E3BF3
:101E70005E10694CE44160D5727167A2D1E4033C05
:101E800047D4044BFD850DD26BB50AA5FAA8B5352C
:101E90006C98B242D6C9BBDB40F9BCACE36CD8321B
:101EA000755CDF45CF0DD6DC593DD1ABAC30D926C2
:101EB0003A00DE518051D7C81661D0BFB5F4B421C5
:101EC00023C4B3569995BACF0FA5BDB89EB80228C2
:101ED0000888055FB2D90CC624E90BB1877C6F2F47
:101EE000114C6858AB1D61C13D2D66B69041DC7642
:101EF0000671DB01BC20D2982A10D5EF8985B1711B
:101F00001FB5B606A5E4BF9F33D4B8E8A2C90778C9
:101F100034F9000F8EA8099618980EE1BB0D6A7F60
:101F20002D3D6D08976C6491015C63E6F4516B6B19
:101F300062616C1CD83065854E0062F2ED95066CCE
:101F40007BA5011BC1F4088257C40FF5C6D9B06543
:101F500050E9B712EAB8BE8B7C88B9FCDF1DDD62A0
:101F6000492DDA15F37CD38C654CD4FB5861B24D06
:101F7000CE51B53A7400BCA3E230BBD441A5DF4AD0
:101F8000D795D83D6DC4D1A4FBF4D6D36AE9694393
:101F9000FCD96E34468867ADD0B860DA732D04443E
:101FA000E51D03335F4C0AAAC97C0DDD3C71055069
:101FB000AA41022710100BBE86200CC925B5685710
:101FC000B3856F2009D466B99FE461CE0EF9DE5E59
:101FD00098C9D9292298D0B0B4A8D7C7173DB3590A
:101FE000810DB42E3B5CBDB7AD6CBAC02083B8ED9B
:101FF000B6B3BF9A0CE2B6039AD2B1743947D5EAA8
:10200000AF77D29D1526DB048316DC73120B63E3D6
:10201000843B64943E6A6D0DA85A6A7A0BCF0EE435
:102020009DFF099327AE000AB19E077D44930FF0F0
:10203000D2A3088768F2011EFEC206695D5762F7E7
:10204000CB67658071366C19E7066B6E761BD4FE24
:10205000E02BD3895A7ADA10CC4ADD676FDFB9F901
:10206000F9EFBE8E43BEB717D58EB060E8A3D6D6C3
:102070007E93D1A1C4C2D83852F2DF4FF167BBD1F1
:102080006757BCA6DD06B53F4B36B248DA2B0DD8F4
:102090004C1B0AAFF64A0336607A0441C3EF60DF97
:1020A00055DF67A8EF8E6E3179BE69468CB361CB80
:1020B0001A8366BCA0D26F2536E2685295770CCCA5
:1020C00003470BBBB91602222F260555BE3BBAC5E6
:1020D000280BBDB2925AB42B046AB35CA7FFD7C2D7
:1020E00031CFD0B58B9ED92C1DAEDE5BB0C2649BC8
:1020F00026F263EC9CA36A750A936D02A906099CFB
:102100003F360EEB8567077213570005824ABF956D
:10211000147AB8E2AE2BB17B381BB60C9B8ED292F0
:102120000DBED5E5B7EFDC7C21DFDB0BD4D2D38647
:1021300042E2D4F1F8B3DD686E83DA1FCD16BE81BA
:102140005B26B9F6E177B06F7747B718E65A08888B
:10215000706A0FFFCA3B06665C0B0111FF9E658F1C
:1021600069AE62F8D3FF6B6145CF6C1678E20AA0C6
:10217000EED20DD75483044EC2B30339612667A74C
:10218000F71660D04D476949DB776E3E4A6AD1AE9B
:10219000DC5AD6D9660BDF40F03BD83753AEBCA92A
:1021A000C59EBBDE7FCFB247E9FFB5301CF2BDBD97
:1021B0008AC2BACA3093B353A6A3B4240536D0BAA0
:1021C0009306D7CD2957DE54BF67D9232E7A66B33D
:1021D000B84A61C4021B685D942B6F2A37BE0BB4EA
:1021E000A18E0CC31BDF055A8DEF022DF8B500BF81
:1021F000F8BC08BC9E467047F8B500BFF8BC08BCE8
:042200009E4670473F
:10220400401F00000000320064009600C800FA007D
:102214002C015E018F01C001F101220252028202EF
:10222400B102E1020F033D036B039803C503F103FD
:102234001C04470471049B04C304EB04130539050F
:102244005F058405A805CB05ED050E062F064E0691
:102254006C068A06A606C206DC06F5060E072507E6
:102264003B0750076407760788079807A707B50751
:10227400C207CE07D807E107E907F007F607FA0710
:10228400FD07FF070008FF07FD07FA07F607F00739
:10229400E907E107D807CE07C207B507A7079807DC
:1022A40088077607640750073B0725070E07F506DE
:1022B400DC06C206A6068A066C064E062F060E0625
:1022C400ED05CB05A80584055F0539051305EB0469
:1022D400C3049B04710447041C04F103C50398035D
:1022E4006B033D030F03E102B10282025202220298
:1022F400F101C0018F015E012C01FA00C8009600B3
:10230400640032000000CEFF9CFF6AFF38FF06FF26
:10231400D4FEA2FE71FE40FE0FFEDEFDAEFD7EFD8C
:102324004FFD1FFDF1FCC3FC95FC68FC3BFC0FFC5E
:10233400E4FBB9FB8FFB65FB3DFB15FBEDFAC7FA2C
:10234400A1FA7CFA58FA35FA13FAF2F9D1F9B2F98A
:1023540094F976F95AF93EF924F90BF9F2F8DBF815
:10236400C5F8B0F89CF88AF878F868F859F84BF88A
:102374003EF832F828F81FF817F810F80AF806F8AB
:1023840003F801F800F801F803F806F80AF810F861
:1023940017F81FF828F832F83EF84BF859F868F89F
:1023A40078F88AF89CF8B0F8C5F8DBF8F2F80BF97D
:1023B40024F93EF95AF976F994F9B2F9D1F9F2F916
:1023C40013FA35FA58FA7CFAA1FAC7FAEDFA15FBB2
:1023D4003DFB65FB8FFBB9FBE4FB0FFC3BFC68FC9E
:1023E40095FCC3FCF1FC1FFD4FFD7EFDAEFDDEFD43
:1023F4000FFE40FE71FEA2FED4FE06FF38FF6AFF08
:082404009CFFCEFF0000000068
:0400000508000000EF
:00000001FF
