:020000040800F2
:100000000000022011330008B5070008B9070008F6
:10001000BD070008C1070008C50700080000000070
:10002000000000000000000000000000C9070008F8
:10003000CD07000800000000D1070008790800087B
:100040005D3300085D3300085D3300085D33000850
:100050005D3300085D3300085D3300085D33000840
:100060005D3300085D3300085D3300085D33000830
:100070005D3300085D330008511600085D33000849
:100080005D3300085D3300085D3300085D33000810
:100090005D3300085D3300085D3300085D33000800
:1000A0005D3300085D3300085D3300085D330008F0
:1000B0005D3300085D3300085D3300085D330008E0
:1000C0005D3300085D3300085D3300085D330008D0
:1000D0005D3300085D3300085D3300085D330008C0
:1000E0005D3300085D3300085D3300085D330008B0
:1000F0005D3300085D3300085D3300085D330008A0
:100100005D3300085D3300085D3300085D3300088F
:100110005D3300085D3300085D3300085D3300087F
:100120005D3300085D3300085D3300085D3300086F
:100130005D3300085D3300085D3300085D3300085F
:100140005D3300085D3300085D3300085D3300084F
:100150005D3300085D3300085D3300085D3300083F
:100160005D3300085D3300085D3300085D3300082F
:100170005D3300085D3300085D3300085D3300081F
:100180005D3300085D33000800000000000000003F
:10019000844641EA000313F003036DD1403A41D392
:1001A00051F8043B40F8043B51F8043B40F8043B51
:1001B00051F8043B40F8043B51F8043B40F8043B41
:1001C00051F8043B40F8043B51F8043B40F8043B31
:1001D00051F8043B40F8043B51F8043B40F8043B21
:1001E00051F8043B40F8043B51F8043B40F8043B11
:1001F00051F8043B40F8043B51F8043B40F8043B01
:1002000051F8043B40F8043B51F8043B40F8043BF0
:1002100051F8043B40F8043B51F8043B40F8043BE0
:10022000403ABDD2303211D351F8043B40F8043B80
:1002300051F8043B40F8043B51F8043B40F8043BC0
:1002400051F8043B40F8043B103AEDD20C3205D390
:1002500051F8043B40F8043B043AF9D2043208D088
:10026000D2071CBF11F8013B00F8013B01D30B88FA
:1002700003806046704700BF082A13D38B078DD0D8
:1002800010F003038AD0C3F10403D21ADB071CBFAA
:1002900011F8013B00F8013B80D331F8023B20F814
:1002A000023B7BE7043AD9D3013A11F8013B00F84D
:1002B000013BF9D20B7803704B7843708B788370D5
:1002C000604670472DE9F00F82B00191002A00F0DE
:1002D0002282A249B0F902300E68950006FB03F7AE
:1002E00004232C1FAB424FEA2738C4F3820708F3DC
:1002F0000F09A0F8029000F0DD80002F6AD0012FD6
:1003000058D0022F48D0032F38D0042F29D0052FE2
:1003100019D0062F09D00E68B0F906A006FB0AF323
:100320001C13082304F30F07C78000EB030B0C68B2
:10033000BBF902C004FB0CF84FEA2839043309F377
:100340000F06ABF8026000EB030A0F68BAF902402F
:1003500007FB04FB4FEA2B3C04330CF30F08AAF80D
:10036000028000EB03090F68B9F9026007FB06F48D
:100370002713043307F30F0AA9F802A000EB030BBD
:100380000C68BBF902C004FB0CF84FEA28390433AF
:1003900009F30F06ABF8026000EB030A0F68BAF925
:1003A000024007FB04FB4FEA2B3C04330CF30F081D
:1003B000AAF8028000EB03090F68B9F90260043360
:1003C00007FB06F4AB424FEA243707F30F0AA9F8FC
:1003D00002A06FD000EB030BD1F80080BBF90260E4
:1003E000D1F800C00F68D1F800A0D1F8009008FB48
:1003F00006F41E1D241304F30F04ABF8024000EBB7
:10040000060B03F10806BBF90240D1F80080064450
:100410000CFB04F4241304F30F04ABF80240B6F908
:1004200002B0D1F800C003F10C04044407FB0BF741
:100430004FEA273B0BF30F077780B4F902600F6890
:1004400003F1100B0AFB06FA83444FEA2A3606F33F
:100450000F066680BBF9026003F11404044409FB33
:1004600006F6361306F30F06ABF80260B4F90290F5
:1004700003F1180A08FB09F68244361306F30F0647
:100480006680BAF9026003F11C080CFB06F4804494
:10049000261306F30F04AAF80240B8F902C020336D
:1004A00007FB0CF7AB424FEA273606F30F04A8F818
:1004B00002408FD130F9045BDFF8A49030F902BC20
:1004C000D9F80470D9F80040D9F80830D9F80C10E0
:1004D000BBF1000FB8BFCBF1000B002DB8BF6D42D0
:1004E000C7EB0B0A2D1BBAF1000FD4BF0E461E46F8
:1004F000002DD4BF88469846013A06FB0AFC08FB4B
:1005000005FB07EBEC3604EBEB3502F0010A041DAA
:10051000571E002A74D0BAF1000F23D034F9048C8E
:1005200034F902CCB8F1000FB8BFC8F10008C5EB30
:10053000080BBCF1000FB8BFCCF1000CBBF1000FF1
:10054000D4BF8A469A46C6EB0C0C0AFB0BF8013F57
:10055000BCF1000FD4BF8A469A4646E00000002056
:10056000600F002034F904BC34F902CC34F9048B58
:10057000BBF1000FB8BFCBF1000BC5EB0B0BBCF10F
:10058000000FB8BFCCF1000CC6EB0C0ABBF1000F9A
:10059000D4BF8C469C460CFB0BFBBAF1000FD4BFBA
:1005A0008C469C460CFB0AFA34F902CC05EBEB3581
:1005B000B8F1000FB8BFC8F1000806EBEA36C5EB8A
:1005C0000808BCF1000FB8BFCCF1000CC6EB0C0C56
:1005D000B8F1000FD4BF8B469B46BCF1000FD4BFCF
:1005E0008A469A46023F0BFB08F80AFB0CFBB7F160
:1005F000FF3F05EBE83504F1040406EBEB36B1D11F
:100600006A4C019B2168C9F80460C9F8005002F0E7
:10061000010603F10409002900F081804F1E2760C4
:1006200050F8041C49F8041C09F104030430551E59
:10063000002A70D0002E67D022685C4E002A00F09D
:100640009380571E376050F8042C43F8042C013D6A
:100650006A1C00F1040003F1040355D15BE0544A25
:1006600030F902BCD2F8886CD2F88C7C06F1FF38E5
:100670004FEA2B19C7EB080C09F5006ACCF3090106
:100680001FFA8AFB09B904261670D2F88C1C4F1C7D
:1006900002EB4108C7F30906C2F88C6CA8F888B4CD
:1006A000226850F804CC43F804CC691E04330430AB
:1006B0003E4D002A55D13E4A30F9029CD2F8886C52
:1006C000D2F88C7C06F1FF3A4FEA2918C7EB0A0BE7
:1006D00008F5006CCBF309051FFA8CF90DB9042657
:1006E0001670D2F88C5C6F1C02EB450AC7F3090642
:1006F000C2F88C6CAAF8889450F8042C43F8042CA7
:10070000043004334D1E31B126682849002EA6D08E
:10071000771E0F60C4E702B0BDE8F00F70472449B0
:1007200030F9023CD1F888CCD1F88C5C0CF1FF3761
:10073000C5EB07084FEA231A0AF50065C8F3090359
:100740001FFA85FB0BB904270F70D1F88C3C5F1C96
:1007500001EB4308C7F3090CC1F88CCCA8F888B4A6
:100760005EE7571E2F60C7E7114A30F9029CD2F8A6
:10077000881CD2F88C6C4F1EC6EB070A4FEA291B67
:100780000BF50068CAF309011FFA88FC09B90426B1
:100790001670D2F88C1C01F1010902EB410AC9F371
:1007A0000907C2F88C7CAAF888C44CE70400002032
:1007B00040020020704700BFFEE700BFFEE700BF19
:1007C000FEE700BFFEE700BF704700BF704700BFF5
:1007D000704700BF244A254B1078012110B51970CD
:1007E000032808D8DFE800F0021D130B204A146824
:1007F000C4F3C01119701D4800F0D4FF10BDFF24D0
:1008000000225C709A70194800F0CCFF10BD184AA5
:10081000106810F0400222D00024FF225C709A7011
:10082000F1E714491248114A006812C98C42A8BF66
:100830002146C0F34010B1F5804F187007DA002050
:10084000891190700948517000F0ACFF10BD8C09FF
:10085000FF2306489470537000F0A4FF10BDFF21E1
:1008600059709A70CFE700BF580F00205C0F00202E
:1008700068520020600F0020114B10B51A68114C0F
:10088000511C2046196000F0A1FF607804280DD0AB
:100890000D4C204601F082F821787F2902D10B48C7
:1008A00001230370BDE81040FFF794BFB4F80AC0FD
:1008B000074C4FEA6C0E0EFB0EF31A142260E7E7AA
:1008C0006852002024520020704F00202052002047
:1008D000000000202DE9F0419E4C0646884601F0BC
:1008E00011FFF32001F01EFF2368B3F1006F00F049
:1008F000D280994A2068904200F0D68097492568B6
:100900008D4200F0DA80964F2368BB4200F0DE8013
:10091000944A2068904200F0E280934925688D4215
:1009200000F0E680914F2368BB4200F0EA80904AD5
:100930002068904200F0EE808E4925688D4200F0DC
:10094000F2808D4F2368BB4200F0F6808B4A20680E
:10095000904200F0FA808A4925688D4200F0968026
:10096000B8F1000F00F0908008F1FF3CCCF3820753
:1009700020680025002F7DD0316801F043FF2068FA
:1009800004252844A84520607ED9012F72D0022F6B
:100990002AD0032F21D0AF4218D0052F0FD0062F19
:1009A00006D0715901F02EFF2068284420600825E8
:1009B000715901F027FF2368181D04352060715913
:1009C00001F020FF2268101D04352060715901F0EC
:1009D00019FF2068043004352060715901F012FFBE
:1009E0002168081D04352060715901F00BFF27684C
:1009F000381D043520603DE0B15801F003FF05F1DA
:100A0000080C206856F80C100430206001F0FAFE43
:100A1000276805F10C023B1D1846B158236001F010
:100A2000F1FE216805F110070A1D1046F1592260F8
:100A300001F0E8FE206805F11401031D1846715805
:100A4000236001F0DFFE276805F1180C3A1D56F807
:100A50000C102260104601F0D5FE206805F11C0143
:100A6000031D18467158236001F0CCFE2768381D1D
:100A700020352060715901F0C5FE23682A1D191D1B
:100A8000904508462160B7D8BDE8F0810221582082
:100A900001F07CFE64E70020022101F077FE2E4A7F
:100AA000206890427FF42AAF0221082001F06EFEF8
:100AB0002A4925688D427FF426AF1020022101F0DB
:100AC00065FE274F2368BB427FF422AF1820022126
:100AD00001F05CFE234A206890427FF41EAF0221A1
:100AE000202001F053FE204925688D427FF41AAF83
:100AF0002820022101F04AFE1C4F2368BB427FF4EC
:100B000016AF3020022101F041FE194A20689042C0
:100B10007FF412AF0221382001F038FE1549256814
:100B20008D427FF40EAF4020022101F02FFE124FC4
:100B30002368BB427FF40AAF4820022101F026FE61
:100B40000E4A206890427FF406AF0221502001F047
:100B50001DFE00E7744F00200040000800800008E0
:100B600000C000080000010800000208000004089E
:100B7000000006080000080800000A0800000C0831
:100B800000000E0830B583B001A8002100F014FF6A
:100B90001048114D00F080FD104B114800244421F5
:100BA00002229960DA601C605C6000F0D9FE224687
:100BB000234628464BF6803100F0AAFC0949284616
:100BC00000F0D2FC01A800F0FFFE074800F04EFE46
:100BD00003B030BD5C0F0020784F0020600F002074
:100BE000704F0020C502000824520020F8B5164DB1
:100BF000164C174E284644F6206101F0FFF90822F2
:100C0000134620464FF0005100F01AFFD4F8883CFC
:100C1000C4F88C3C0F48104AD4F8107D0F49C4F832
:100C2000147D4FF0100C002385F80CC1A4F8843417
:100C3000A3602370A36123612B70A5F80E3133806C
:100C400003701160F8BD00BF0C510020400200206D
:100C500060520020580F0020744F002000800008D0
:100C60002DE9F04F83B0FFF7C1FFFFF78BFF6A4814
:100C7000022101F033FFD0B9684C694F2278DFF8C8
:100C8000C081684D654B042A2FD14FF0010A002620
:100C9000D4F8140DD4F8103DDFF880E1C21A5306E1
:100CA00011D0BAF1000F11D15F48002E3BD05F4840
:100CB00000F0A2FC5E4800F087FD01F0A1FA5D485B
:100CC00001F0D6FAFEE7BAF1000F08D002210020A9
:100CD000397028702B78002BFCD0FFF787FF002E8F
:100CE000E5D122784D4B042ACFD0D3F88C0CD3F821
:100CF000881C461AC6F309021F2A40F28A80D4F8DB
:100D00008C1CD4F8886C454BC6EB0109C9F3090269
:100D10001846002A7DD01978002972D0012974D094
:100D200000F0B8FFEBE7DEF8101D4A1C0EEB010BDC
:100D300002F07F039BF8901CCEF8103D01F0BEF945
:100D4000A0F1020CBCF1030FA2D8DFE80CF00435CF
:100D5000350201269CE7B8F80090DFF8CCB03648A1
:100D600009F03F0E0BF1010101234FF4807200EBFB
:100D70000E203B70FFF70CFA09F101018AB2A8F8C6
:100D8000002012F03F021AD000232C49D4F810CDD5
:100D90008BF8003010220320ABF80E31C4F87C34FD
:100DA000A4F884348BF80C21C4F814CD2070C4F856
:100DB0007814C4F874146BE74FF0010A68E7184B15
:100DC0001D48032119704FF480410192FFF782FD05
:100DD000D4F8882CC4F88C2CD4F8103D019A8BF8E8
:100DE00000204FF010090220ABF80E21A4F8842453
:100DF000A260A2612261C4F8143D8BF80C912070AE
:100E000046E7184600F0E4FE79E7184600F00EFFCA
:100E100075E74FF0000A3AE7000802404002002060
:100E2000580F0020205200200C510020784F002045
:100E30002452002000800008700F002000FCFFFFFB
:100E4000605200202DE9F0412A4CDFF8AC8082B0DE
:100E50000620012101F0E2FF02274FF44063012543
:100E600000262046694600938DF804708DF80550E1
:100E70008DF806508DF8076001F0E4FC20460A2149
:100E8000042201F03BFE20460B21042201F036FE35
:100E90004FF470422046694600928DF804708DF838
:100EA00005708DF806608DF80760402701F0CAFCD8
:100EB00069464046009701F0C5FC20460C210522FA
:100EC00001F01CFE20460D21052201F017FE2046F0
:100ED0000F21052201F012FE20460E21052201F00D
:100EE0000DFE40460621052201F008FE284602B00C
:100EF000BDE8F0810004024000080240F0B5154C46
:100F000085B001214FF4800001F096FF204601F0EA
:100F10000DFE04A9104B41F8103D4FF480624FF4D0
:100F2000804C2046694600274BF6FF763325ADF806
:100F30000A20ADF80CC0ADF80470ADF80660ADF84D
:100F4000085001F029FE2046012101F09FFE0120FA
:100F500005B0F0BD00580040A0860100F0B50020AB
:100F600085B00C4616461F4601F052FF002001F0E6
:100F7000FFFE4BF680318C420CD04AF6444084424E
:100F800060D0B4F5FA4F63D0344B9C4254D000206B
:100F900005B0F0BD4FF48170032101F0DFFE0120A8
:100FA00001F0E6FE3B2001F07FFF4FF4805510BBBF
:100FB0003B2001F079FFF0B93B2001F075FFD0B97B
:100FC0003B2001F071FFB0B93B2001F06DFF90B9FB
:100FD0003B2001F069FF70B93B2001F065FF50B97B
:100FE0003B2001F061FF30B93B2001F05DFF10B9FB
:100FF000083DDDD1CBE701214FF4804001F01CFF1B
:10100000174801F06BFF4FF4007C0022694614483A
:10101000ADF80C20ADF800C0ADF806C00294ADF8F4
:101020000260ADF8047001F08FFF69460D4802F0D0
:1010300013F8012005B0F0BD40F28910042101F041
:101040008DFEACE740F20F10062101F087FEA6E707
:101050004FF4D570042101F081FEA0E70077010074
:10106000003800400034004070B573480E464FF41D
:101070000031154601F054FE4FF4961498B34FF426
:1010800000316D4801F04CFE4FF4003158B36A480E
:1010900001F046FE4FF4003128B3674801F040FEEE
:1010A0004FF40031F8B1644801F03AFE4FF40031DA
:1010B000C8B1614801F034FE4FF4003198B15E4888
:1010C00001F02EFE4FF4003168B15B4801F028FEBC
:1010D0004FF4003138B1584801F022FE18B1083CF5
:1010E000CDD1002070BD5448012101F0DFFD5248F0
:1010F000524901F007FE4FF4805450BB4F494E480F
:1011000001F000FE4D4920BB4B4801F0FBFD4B496F
:10111000F8B9494801F0F6FD4849D0B9464801F010
:10112000F1FD4649A8B9444801F0ECFD434980B9B6
:10113000414801F0E7FD414958B93F4801F0E2FD5F
:101140003E4930B93C4801F0DDFD10B9083CD5D12D
:10115000C7E739483421002201F0C8FD3648384934
:1011600001F0D0FD4FF4805450BB3549324801F0B6
:10117000C9FD334920BB304801F0C4FD3049F8B9FE
:101180002D4801F0BFFD2E49D0B92B4801F0BAFD22
:101190002B49A8B9284801F0B5FD294980B926484E
:1011A00001F0B0FD264958B9234801F0ABFD2449B0
:1011B00030B9214801F0A6FD10B9083CD5D190E71F
:1011C000C5F3002141EA4600C1B21B4801F098FD79
:1011D00019481C4901F096FD4FF48054002833D182
:1011E0001849154801F08EFD164968BB124801F0F8
:1011F00089FD144940BB104801F084FD114918BB1A
:101200000D4801F07FFD0F49F0B90B4801F07AFD60
:101210000C49C8B9084801F075FD0A49A0B906484B
:1012200001F070FD074978B9034801F06BFD58B92A
:10123000083CD5D155E700BF00580040010003002D
:101240008200070080000700E9B2364801F058FD2F
:101250003448354901F056FD4FF4805650BB3249B1
:10126000304801F04FFD304920BB2E4801F04AFDC7
:101270002D49F8B92B4801F045FD2B49D0B9294833
:1012800001F040FD2849A8B9264801F03BFD264958
:1012900080B9244801F036FD234958B9214801F0AE
:1012A00031FD214930B91F4801F02CFD10B9083E2D
:1012B000D5D116E71B481D4901F032FD4FF49614B5
:1012C00050BB1A49174801F02BFD184920BB15489F
:1012D00001F026FD1549F8B9124801F021FD134926
:1012E000D0B9104801F01CFD1049A8B90D4801F013
:1012F00017FD0E4980B90B4801F012FD0B4958B992
:10130000084801F00DFD094930B9064801F008FD13
:1013100010B9083CD5D1E4E60248012101F0D6FC21
:10132000012070BD0058004080000700040000103C
:101330002DE9E841884617460F2100221E46054642
:10134000FFF792FE002840D0284600211722FFF721
:101350008BFE002839D0284601211722FFF784FE92
:1013600098B3284602210022FFF77EFE68B3284684
:1013700003210022FFF778FE38B328460421122209
:10138000FFF772FE08B3284605210022FFF76CFE26
:10139000D8B1284606216222FFF766FEC7B1B7F131
:1013A00020035A425A412EB1032E25D0052E08BFE4
:1013B00042F00C02D8B94AF6444188450CBF60227D
:1013C000002238B90020BDE8E8810020002FE6D1D6
:1013D0000222E8E728460821FFF746FE0028F1D060
:1013E000284609210022BDE8E841FFF73DBE284616
:1013F0000721FFF739FEDEE742F00802DAE700BF17
:101400002DE9F04F3B4F3C4E044683B001214FF491
:10141000001001F003FD3846002101F047F938467D
:1014200001F070F8354BE36100254FF480634FF60F
:10143000FE724FF4006B4FF4005A4FF480794FF472
:10144000003840212363A2626162A5612562E562E2
:101450006564A564E5642565C4F834B0C4F838A0B3
:10146000C4F83C90C4F84080384604F11801009359
:10147000019201F0DFF82946304601F017F93046B5
:1014800001F040F81E4F0199009AE5654FF0C060E9
:1014900025666166A566E266C4F870B0C4F874A0FB
:1014A000C4F87890C4F87C80C4F88050C4F88450A4
:1014B000C4F88850C4F88C506065A76504F15401E5
:1014C000304601F0B7F830460E4E182101224FF495
:1014D000804401F0F5F80C4834600221012201F04B
:1014E000E5FD01210A46094801F0E0FD012003B0B5
:1014F000BDE8F08F70600240586002400C38004038
:101500000C34004000E100E00038004000340040AE
:101510002DE9F0410026134D4661044688461746E2
:101520001E462860FFF78EFC10B90020BDE8F08150
:101530002046FFF7E3FC0028F7D0204641463A4614
:101540003346FFF70BFD0028EFD041463A463346BD
:101550002046FFF7EDFE0028E7D02046BDE8F04129
:10156000FFF74EBF6452002070B501220E460921DC
:101570000446FFF779FD054640B31B486661828B40
:1015800000235205E36023616360A36024D51748FC
:10159000818B4B051CD5402204F1900004F5887620
:1015A000A2626266206204F118011148E66501F04A
:1015B00041F804F154010F4801F03CF80C480121B6
:1015C00001F074F80B48012101F070F8284670BD55
:1015D000012101F031FDDEE7012101F02DFD03487D
:1015E000818B4B05D7D4F3E700380040003400402E
:1015F000706002405860024008B50548002101F0C3
:1016000055F804480021BDE8084001F04FB800BF7C
:10161000706002405860024010B54469034654B1FE
:1016200001F1440201F1240C00EB820003EB8C0178
:101630001022A04710BD426801F144002431541C1F
:1016400003EB800203EB81005C601A61D86010BD7F
:1016500008B50F4B1A6812F0C05F0FD10C4B1A6817
:1016600012F0A05F00D108BD0A484FF0A051996068
:1016700000680021BDE80840FFF7CEBF05484FF0E5
:10168000C051996000681021FFF7C6FFE6E700BF70
:101690000060024064520020F0B504208BB00121AC
:1016A00001F0BCFB0120014601F0B8FB01203A4FDC
:1016B0003A4E0146002401F0CDFB01258023694606
:1016C000374800938DF804508DF806408DF805409A
:1016D0008DF8074001F0B6F84FF0020C6946384625
:1016E0004FF410628DF804C000928DF806408DF81A
:1016F00005408DF8074001F0A5F838462A46082134
:1017000001F0FCF92A4638460B2101F0F7F902A84E
:1017100001F028FDFF2702A930460397ADF80840E5
:10172000ADF81040ADF80A408DF8124001F0CAFC47
:1017300005A801F0BBFD6027304605A9ADF818509B
:101740000794ADF82040ADF8147001F035FD304637
:10175000082101F0B5FD05A801F0A8FD05A9304656
:10176000ADF81470ADF816500794ADF8204001F0B4
:1017700065FD3046082101F0ADFD3046294601F0F7
:10178000FBFC3046294601F0B1FD3046294601F008
:1017900003FD0BB0F0BD00BF00000240000001409F
:1017A00000080240027810B580210446044801F088
:1017B0009FF9044B62785A63A078186410BD00BF8B
:1017C000000802400000014000F0E4BD38B590F888
:1017D00038300446002B37D00578204804EB45010B
:1017E000C36C4B806A1CD1B21A2988BF0021657076
:1017F0001B4D21706D5C1B484FF4F07101F074F9C2
:1018000005F0010218484FF4004101F071F905F0AC
:10181000020215484FF4804101F06AF905F0040214
:1018200011484FF4005101F063F9E810202202FA48
:1018300000F399B20B4801F059F994F8381081F08F
:10184000010584F8385038BD044800F055FE94F87E
:10185000381081F0010584F8385038BD002101406E
:101860000800002000040240000802402DE9F04773
:1018700001218CB00646DFF8E080DFF8E0A0354FAC
:10188000062001F0CBFA4FF400700121002401F092
:10189000E1FA01250323404669468DF804304FF4F0
:1018A000F07900958DF8074000F0CCFF694650466E
:1018B0008DF804508DF806408DF805408DF80740EE
:1018C000CDF8009000F0BEFF5046494601F00CF9FB
:1018D0004FF4604A694640468DF804508DF8064042
:1018E0008DF805408DF80740CDF800A000F0AAFF64
:1018F0004046514601F0FAF84FF4403102A80391F6
:1019000002940494059400F081FD38464FF400627F
:1019100006A90A9206948DF81C408DF81D40099482
:1019200008948DF82C5000F043FD2A4607233846D2
:101930000A2100F08DFD3846294600F07FFD1A206F
:101940003070747086F838403046FFF73FFF0CB0B7
:10195000BDE8F08700210140000802400004024079
:1019600010B5012182B00446042001F057FA02218B
:1019700000230122009108488DF8043069468DF853
:1019800006308DF805308DF8072000F05BFFFF2052
:10199000207002B010BD00BF0008024038B50578C5
:1019A00004466A0002210348D5B201F097F82843A3
:1019B000207038BD0008024001B970474FF0006048
:1019C0004FF4004100F0DCBC074B0848084A10B453
:1019D000F0245A60002180F82340072299605DF8C6
:1019E000044B1A60704700BF10E000E000ED00E01B
:1019F0003F90020070B51C26044632460021383064
:101A000001F0AEFC4FF400753246002104F15400A1
:101A100001F0A6FC2A46002104F1700001F0A0FCB0
:101A20002A4604F51C70002101F09AFC0020B4F84D
:101A30008034A4F882342061A061A4F8700470BDE1
:101A40002DE9F007174C54F82260B6F90050B6F9AA
:101A500002A0B6F90490B6F90680B6F90A70B6F994
:101A600008C0B6F90C60C56100244FF40025C0F829
:101A70008C4CC0F820A0C0F8884CC0F82490C0F866
:101A8000144DC0F82880076346634560C0F8104DC8
:101A9000C0F82CC0A0F880344161BDE8F007FFF722
:101AA000A9BF00BF343400082DE9F007B0F88094D6
:101AB000B0F8708409F1FF3708F580720024012F17
:101AC0001FFA82FC254610DD0123C3EB0C065FFAEA
:101AD00086FA00EB4A020133B2F97060B2F970A2E3
:101AE0009BB2BB4235445444EFDB002949D0C9EBDB
:101AF0000C011FFA81F909F1020700EB48065FFAB1
:101B000087FC0CF13802B6F97070B6F970A230F9A2
:101B100012C009F1010684EAE471A1EBE47185EADF
:101B2000E579A9EBE5792F44A24408F1FF08CCEB55
:101B300007074944CCEB0A0AF2B25FFA88F38AEA53
:101B4000EA7CACEBEA7C87EAE778A8EBE77801EB84
:101B5000810900EB420600EB43034FEA9901C444BC
:101B60008C45B6F87090B6F87022B3F87060B3F890
:101B7000703210D9B0F88264721C54463D46A0F809
:101B80008224002DACBF02200020002CA8BF013011
:101B9000BDE8F007704705FA89F704FA82FA36B211
:101BA0001AB2C6EB0708C2EB0A0C88EAE879A9EB7F
:101BB000E8798CEAEC73A3EBEC734B448B42E0D9ED
:101BC000B0F88244611E45466446A0F88214D8E706
:101BD00010B417E0D0F8881C4268836800EB410C11
:101BE0000133BCF8884483600FFA84FC0131ACEB0C
:101BF0002224C1F309012244B3F5805FC0F8881C98
:101C000042600BD2D0F88C2CD0F8883CD11AC1F3AA
:101C10000904002CDED15DF8044B7047002401223A
:101C20008460C46002705DF8044B704770B41CE0BF
:101C3000D0F8885C061D00EB450C96E81600BCF851
:101C400088341EB2A6EB212C013201350CFB0CF3BB
:101C5000C5F30905614404EB2314B2F5805FC0F8B5
:101C6000885C4160C46082600AD2D0F88C2CD0F8C5
:101C7000883CD11AC1F30904002CD9D170BC70473B
:101C80000021B4F5F03F8160C160EED302260670FA
:101C9000F4E700BF2DE9F04F804683B00BE0BCF1C4
:101CA000050F00F05F81BCF1020F00F04A81BCF12A
:101CB000030F00F0FD80D8F88C2CD8F8883CD01A9F
:101CC000C0F30901002900F05F81D8F81440D8F86A
:101CD0001010D8F8886C019421444FEA116B0BF175
:101CE000400208EB4604C44BD8F83C700097D0B2D1
:101CF000B4F8887433F9102033F91BB0D8F80430E5
:101D0000D8F820A0D8F85850D8F81C90D8F824C09B
:101D100038B2A0EB23270BFB07F05442031207FB5A
:101D200004F20098C8F83830121205FB0AF409FBD7
:101D3000024B00FB0AF4D8F85C00C8F8542009FBF9
:101D4000034A00FB0CB9D8F82840D8F8600000FB23
:101D5000049BD8F84040D8F82C00D8F8689004FBD1
:101D60000CACD8F8644004FB00BBD8F82800D8F8C5
:101D7000444004FB00CAD8F80400D8F830C001364B
:101D8000C6F309040744D8F82C60D8F84800C8F80E
:101D9000047000FB06AAD8F83470D8F86C60C8F854
:101DA000884C0CFB09BBD8F86440C8F8684006FBB7
:101DB00007B6D8F84CB0C8F86C90D8F85090C8F86E
:101DC0004C000BFB0CA409FB074A002E98F800C03E
:101DD000D8F84400C8F85820ACBF01224FF0FF32B9
:101DE000BAF1000FC8F850B0C8F84800ACBF4FF0C7
:101DF000010B4FF0FF3BD8F81800C8F83C30BCF19D
:101E0000020FD8F86030D8F85C70B8F87094C8F851
:101E1000643014BF02FB0AF2CAEB060200EB400377
:101E200018BF0BFB1622D8F84040C8F86070C8F8FD
:101E30005C501A44009D019FC8F84440C8F84050C7
:101E400008EB4904951001EBC5014FEA2A2336122D
:101E500007EBE202C8F81010C8F81850C8F81420B0
:101E6000A4F87030A4F87062B8F882A409F10100F7
:101E70000AF1FF35C4B2A9B2A8F87044A8F88214D8
:101E800000297FF414AFB8F880B4A8F882B4BCF18C
:101E9000030F7FF404AFD8F8144D08EB040A04F1E3
:101EA000010B0BF07F0304268AF8906CC8F8143DF0
:101EB000B8F87074B8F8805407F580711FFA81F98A
:101EC0004FEA450C002D00F09480002003460646A2
:101ED000C0EB0902D0B208EB400A9D42BAF970404B
:101EE000BAF9707203F1010B94BF01214FF0FF3179
:101EF0001FFA8BF394BF4FF0FF32012204FB0166FF
:101F0000634502FB07661846E2DBD8F87C44D8F844
:101F10007474B442B8BFC8F87C64002EBCBF0024FF
:101F2000C8F87C44B74207DDD8F878148F4203DD47
:101F3000D8F87C349F423DD0C8F87874C8F87464EF
:101F4000B9E64046FFF7B0FD48B9B8F884E40EF1B1
:101F5000010C1FFA8CF3202BA8F8843417D098F8C2
:101F600000C0A4E601214046FFF79EFDD8F8141DED
:101F700008EB01024D1C82F8900C05F07F0098F8E8
:101F800000C0C8F8140D92E603B0BDE8F08FA3F5C9
:101F90008467D8F8106DC8F87C044FF00309A8F8DE
:101FA0008404C8F8146D88F80090C8F87874C8F8EC
:101FB00074747DE7A9EB55095FFA89FC08EB4C0ABC
:101FC000BAF97020002AB7DABAF970020028B3DD36
:101FD000B8F884B40BF10104A1B20429A8F8841460
:101FE00005F1FF3504BF052188F80010A8F88254D8
:101FF000A2E7664689E700BF2400002000231022E4
:10200000A0F8101180F80C210370A0F80E31A0F890
:102010000A31704790F80C3143FA01F2D30706D524
:1020200004290AD8DFE801F029400634140003230C
:1020300003707047022380F80C3190F80D3133B9EA
:102040000122A0F806314370A0F8083102707047F1
:10205000B0F80E11B0F810C14B1C9AB29445A0F81C
:102060000E2102D8B0F80A1121BB4FF0160C102334
:1020700080F80CC180F80D31704790F80DC10CF15B
:10208000FF32D3B2082180F80D3180F80C11D6E769
:1020900090F80D1101F1FF3C5FFA8CF3012280F8FA
:1020A0000D3180F80C21CAE70C2180F80C1190F852
:1020B0000D31C4E705220270704700BF2DE9F84FCB
:1020C000037804460A46A3B1012B0FD1B0F806519C
:1020D000B0F808016119471C4E78B8B232430428A1
:1020E0004A70A4F808010AD094004C701846BDE864
:1020F000F88FFFF78FFF23781846BDE8F88F05F1BA
:1021000001081FFA88F90025B9F5827FA4F8069125
:10211000A4F8085102D04C446570E7E7374A631CC5
:1021200004F201154FF0FF309A4693F802901AF826
:10213000011B93F803809AF800A093F804C05F791C
:102140009E7980EA010B5FFA8BF1083352F821B0D7
:1021500013F8011C8BEA102080EA0A0A5FFA8AFB56
:10216000AB4252F82BA08AEA102080EA09095FFAF4
:1021700089FB52F82BA08AEA102080EA08085FFA4F
:1021800088F952F829B08BEA102A8AEA0C00C0B20A
:1021900052F820C08CEA1A2888EA0707F8B252F8E9
:1021A000207087EA182989EA0606F0B252F82070F2
:1021B00087EA192686EA0101C8B252F8207087EA38
:1021C0001620B1D194F8025194F801B194F8043179
:1021D00094F80361B4F80A21290441EA0B6747EA3D
:1021E00003056FEA000A45EA0620504514BF0423A0
:1021F0000223561C2370A4F80A6177E7983400087C
:10220000F0B41549154E164B164A174C174D4FF0A2
:10221000FF300427C1F88000C1F88400C1F88001B4
:10222000C1F884013760196841F001061E6010682A
:10223000044014601F6827F0847C2CF480311960FE
:102240001E6826F4802018601468002324F4FE071A
:1022500017602B60F0BC704700E100E010E000E088
:1022600000380240203A02400000FFF8403C0240A3
:1022700008B54368026882F30888984708BD00BF24
:10228000394A3A4BD2F88810394841F47001C2F803
:1022900088101968002241F0010119609A601968DC
:1022A00021F0847C2CF4803119605860186882B069
:1022B00020F480211960DA60009201921A6842F4D9
:1022C0008030186003E0009AB2F5A06F0AD0274B67
:1022D000196801F4003201920098431C009301999F
:1022E0000029F0D02148036813F4003118BF012100
:1022F0000191019A012A05D01B4B4FF000629A60B0
:1023000002B07047194B1B4A186C1B4940F08050B3
:102310001864106840F4804010609A689A60986869
:1023200040F400429A60986840F4A0529A60596064
:10233000196841F0807018600C4B1A689201FBD547
:102340000E4840F2056101609A6822F0030098602F
:10235000996841F002029A60044B986800F00C0101
:102360000829F9D1C8E700BF00ED00E000380240BD
:10237000103000240070004008544007003C024028
:1023800021F0604121F07F02014B104398607047BB
:1023900000ED00E008B54FF48070012100F076FDFB
:1023A0004FF480700021BDE8084000F06FBD00BF11
:1023B0004268D1F80CC0144B2DE9F00122F04072B4
:1023C0000C6891F804808E680F694D7922F4807250
:1023D000144344EA0822426084684CEA070704EA8E
:1023E000030847EA060343EA080646EA450585600E
:1023F000097DC26A4C1EE7B222F4700343EA075615
:10240000C662BDE8F0017047FDF7FFC070B490E808
:102410004200084A8568C468074B5068314341EA66
:10242000050646EA040500EA030445EA0400506094
:1024300070BC704700230140E030FCFF836819B98D
:1024400023F001018160704743F001028260704710
:10245000092970B421D9A1F10A0505EB450C07241F
:10246000C56804FA0CF603FA0CFC25EA060343EAF5
:102470000C04062AC4601FD90C2A2DD90D3A02EB90
:102480008205C46A1F2606FA05FCA94024EA0C034B
:1024900041EA0302C26270BC704701EB41040726A7
:1024A000056906FA04FC03FA04F425EA0C0343EA7E
:1024B0000406062A0661DFD8561E06EB860C446B1E
:1024C0001F2303FA0CF524EA050201FA0CF141EA94
:1024D0000206466370BC7047D51F05EB8506046B8A
:1024E0004FF01F0C0CFA06F3B14024EA030241EA54
:1024F0000205056370BC7047836843F080418160CA
:10250000704700BF10B4374A0468002324F0010468
:10251000212190420460036043608360C3600361D3
:1025200041614DD0304CA04235D03049884239D03D
:102530002F4B98423DD02F4CA04247D02E49884285
:1025400048D02E4B98421DD02D4CA0421ED02D4B72
:10255000984243D02C4CA0421DD02C49884221D017
:102560002B4B984225D02B4CA0422FD02A49884291
:1025700030D02A4B984205D0294CA04206D05DF8B5
:10258000044B7047274943F8941CF8E74FF03D523D
:1025900044F8AC2CF3E74FF4746144F8201C5DF868
:1025A000044B70474FF4741241F8382C5DF8044B1B
:1025B00070474FF0746443F8504C5DF8044B70471B
:1025C000194B5DF8044B3D2098607047174844F85C
:1025D000640CD4E7164B41F87C3CD0E73D2043F82F
:1025E000080CCCE7106002402860024040600240C6
:1025F000586002407060024088600240A060024063
:10260000B860024010640240286402404064024006
:10261000586402407064024088640240A064024032
:10262000B864024000003D20006002403D000020F0
:10263000400F00200B68CA68D0F800C02DE9F007F1
:102640004F698E69CD690C6AD1F83490D1F8388021
:102650001A4342EA070A4AEA060747EA050646EA33
:1026600004054C6A8B6A104E4F6845EA040242EA40
:10267000030A4AEA090242EA08020CEA060942EAA7
:1026800009060B6BCC6A0D6989680660426943EAEA
:10269000040822F0070348EA0304446145608760A8
:1026A000C160BDE8F00770473F801CF0036819B9AE
:1026B00023F001010160704743F00102026070479E
:1026C0000B060DD54369B2B143F080038029436105
:1026D00010D0026801F01E0C4CEA02010160704744
:1026E000802907D0002AF4D1036801F01E0123EAF3
:1026F00001020260704723F0800280294261F3D119
:10270000704700BF044B1A69002A03DA03490448E2
:1027100059605860704700BF003C02402301674584
:10272000AB89EFCD014BD860704700BF003C024041
:102730000B4BDA68D1030AD4D868C20601D505204C
:102740007047D96811F0EF0F03D0062070470120C1
:102750007047DB6813F0020F0CBF0820072070479A
:10276000003C024000B583B008238DF80730FFF726
:10277000DFFF8DF807009DF807000128F7D09DF8CE
:102780000710C8B203B05DF804FB00BF70B5054682
:1027900061B3012930D0022914BF4FF440764FF4C1
:1027A0000076FFF7DFFF082825D1154C236923F4B5
:1027B00040702061216946EA01022261266926F003
:1027C000F8032361206940F002010D43256122696D
:1027D00042F480362661FFF7C5FF236923F002012A
:1027E0002161256925F0F802226170BD0E46FFF7D0
:1027F000B9FF0828D9D070BD4FF48076F7E700BF45
:10280000003C024070B505460E46FFF7ABFF0828B6
:1028100000D070BD0A4C236923F440702061216907
:1028200041F400722261236943F0010020612E60AF
:10283000FFF798FF256925F00106266170BD00BFEE
:10284000003C024000222DE9F00713460C6823E00B
:102850000133012707FA03FC0CEA040AE24502F1FE
:10286000020200F0A18001275E1C07FA06FA0AEABC
:102870000407574502F1020C6ED001279E1C07FA8F
:1028800006F909EA04074F4502F1040C33D003337B
:10289000102B02F106025CD0012505FA03F707EAC6
:1028A0000406BE42D4D14FF00308D0F800C091F81E
:1028B00004A008FA02F96FEA090505EA0C08C0F855
:1028C0000080D0F800900AF1FF370AFA02FCFFB24C
:1028D0004CEA090A012FC0F800A040F28B80C668BC
:1028E00091F807903540C560C76809FA02F646EAD4
:1028F0000705C560ACE74FF00308D0F8009008FA70
:102900000CFA6FEA0A0505EA090A91F80480C0F892
:1029100000A0D0F8009008FA0CFA08F1FF384AEA53
:1029200009095FFA88FABAF1010FC0F8009040F285
:10293000B580C66891F807A03540C560C7680AFA37
:102940000CF6033346EA0705102BC56002F10602B8
:10295000A2D1BDE8F00770474FF00308D0F800900F
:1029600008FA0CF5ED4305EA090A91F80480C0F86D
:1029700000A0D0F8009008FA0CFA08F1FF384AEAF3
:1029800009095FFA88FABAF1010FC0F8009065D919
:10299000C66891F807A03540C560C7680AFA0CF60A
:1029A00046EA0705C56068E70326D0F800900F796E
:1029B00006FA02F86FEA080505EA090CC0F800C03B
:1029C000D0F8009007F1FF3807FA02F65FFA88F7AF
:1029D00046EA090C012FC0F800C025D9C66891F855
:1029E00007903540C560C76809FA02F646EA070550
:1029F000C56038E7876891F8058091F806902F4008
:102A00008760876808FA02FC4CEA07078760476816
:102A100027EA06064660476809FA03FA1FFA8AF8A9
:102A200048EA070646605AE7866891F8059091F8EB
:102A300006C005EA06078760866809FA02F73E4382
:102A40008660476827EA0A06466047680CFA03FA78
:102A50001FFA8AF848EA07064660BFE7D0F808A0E0
:102A600091F8068091F8059005EA0A0AC0F808A0D6
:102A7000D0F808A009FA0CF949EA0A0AC0F808A037
:102A8000D0F8049029EA07074760476808FA06F675
:102A90001FFA86F848EA0707476079E7D0F808A0E8
:102AA00091F8068091F8059005EA0A0AC0F808A096
:102AB000D0F808A009FA0CF949EA0A0AC0F808A0F7
:102AC000D0F8049029EA07074760476808FA06F635
:102AD0001FFA86F848EA070747602AE703691942A0
:102AE0000CBF00200120704701837047418370476D
:102AF0000AB9418370470183704700BFCB0800EBE0
:102B0000830001F0070110B44FEA810C046A0F231F
:102B100003FA0CF124EA01030362046A02FA0CF2DC
:102B200042EA040101625DF8044B704708B5174B97
:102B3000984212D0164988421BD0164A904200D0C3
:102B400008BD4FF40000012100F092F94FF400009D
:102B50000021BDE8084000F08BB94FF400100121BE
:102B600000F086F94FF400100021BDE8084000F0A5
:102B70007FB94FF48000012100F07AF94FF4800012
:102B80000021BDE8084000F073B900BF00540040C8
:102B900000580040005C0040F0B5044685B068462F
:102BA000A6880D4600F0EAF8029935482A68DFF851
:102BB000D8C026F03F07A0FB0130800C3B041E0C60
:102BC00087B247EA0603A380268826F001031E0485
:102BD000330C6245238029D85300B1FBF3FC1FFA64
:102BE0008CF2032A07F1010198BF04222184A283F9
:102BF0002788A888B5F80AE02E89AD89BAB242F0D4
:102C000001032380218821F4816727F002024FEA23
:102C1000024C4FEA1C434EEA000E2E4343EA0E00DC
:102C200085B2B1B22580218105B0F0BDEF884BF6A9
:102C3000FF76B7421CD002EB820E0EEB8E02B1FB88
:102C4000F2F18BB243F4804CCCF30B020AB94CF096
:102C5000010C4FF496710B4B01FB00F083FB002736
:102C60004FEA971E0EF101064CF400422684BEE79F
:102C700002EB4207B1FBF7F61FFA86FCE4E700BF60
:102C800083DE1B43D34D6210A0860100038839B94F
:102C900023F001010A044FEA124CA0F800C070476B
:102CA0009BB243F001010180704700BF038839B92E
:102CB00023F480710A044FEA124CA0F800C0704758
:102CC0009BB243F480710180704700BF038839B91B
:102CD00023F400710A044FEA124CA0F800C07047B8
:102CE0009BB243F400710180704700BF1AB901F034
:102CF000FE010182704741F001010182704700BF6F
:102D000001827047828A038B90B240EA034221F02D
:102D10007F4C0CEA0203C91A48424841704700BF81
:102D200082B000230A0F0093019301900092009853
:102D300021F07F4158B1019800F114030193019AE9
:102D4000106801420CBF0020012002B07047019BB7
:102D500003F11802090C0192F1E700BF0907034BC8
:102D600041EA8010C3F88400704700BF0038024079
:102D7000014B1860704700BF68004742204A9368C3
:102D800003F00C01042910B41DD008291ED01D4BDE
:102D900003601B491C4A8C68C4F3031C12F80C40E6
:102DA000E34043608C68C4F3822C12F80C4023FA91
:102DB00004F484608968C1F34234125D5DF8044B09
:102DC000D340C3607047114B0360E2E75468516819
:102DD000526863024CBF0D4B0A4BC2F38814084A79
:102DE00001F03F0CB3FBFCF1536801FB04FCC3F39F
:102DF0000144611C4A00BCFBF2F30360C9E700BF59
:102E0000003802400024F4002802002000127A005A
:102E1000014B1860704700BF5C014742054B1A6BBD
:102E200019B922EA00001863704740EA02011963E9
:102E3000704700BF00380240054B1A6C19B922EAEE
:102E400000001864704740EA02011964704700BF2F
:102E500000380240054B5A6C19B922EA0000586448
:102E6000704740EA02015964704700BF00380240D1
:102E7000054B1A6A19B922EA00001862704740EA45
:102E800002011962704700BF00380240054B5A6AC0
:102E900019B922EA00005862704740EA02015962FB
:102EA000704700BF003802404309012B0BD00A498C
:102EB000022B0CBF096F496F00F01F0021FA00F3CD
:102EC00003F001007047044A116800F01F0021FA66
:102ED00000F303F0010070470038024008B5174BBB
:102EE000984212D0164988421BD0164A904200D010
:102EF00008BD4FF400400121FFF7BAFF4FF4004036
:102F00000021BDE80840FFF7B3BF4FF48050012116
:102F1000FFF7BCFF4FF480500021BDE80840FFF7E9
:102F2000B5BF4FF480400121FFF7A2FF4FF480406E
:102F30000021BDE80840FFF79BBF00BF0030014003
:102F400000380040003C0040838B8A682DE9F00384
:102F500023F47B6424F00F052E040223370C8783AF
:102F60000384848B9A421FFA84FC5BD02F4E8C889A
:102F7000B568002C0CBF4FF001084FF002082D027D
:102F80004BD42A4FDFF8AC90D7F88450D7F8846040
:102F90007F68CB8807F03F07C5F38815B9FBF7F9C1
:102FA000B3F5007F05FB09F7C6F30276B7FBF6F52C
:102FB0001ABF4FEA4818B5FBF8F52D0A05EB850650
:102FC0007700B7FBF2F2551D194FAEB2A7FB0668AA
:102FD0004FEAD8094FEA5905AA1E96B2FD2E09F00C
:102FE000010294BF45EA022202220F88B1F8028052
:102FF000B1F80C904CEA070141F4006545EA080677
:1030000046EA090742EA030CBAB214431FFA8CF3EA
:1030100003848483BDE8F0037047B76827F4000396
:10302000B360AEE78C88CB88DFE700BF0038024092
:10303000CDCCCCCC00127A00838B39B923F48061DB
:103040000A044FEA124CA0F81CC070479BB243F42C
:1030500080618183704700BF838B30B423F47B642D
:1030600024F00F054FEA054C4FEA1C4302228383EC
:103070000284B0F81CC04D880A888C8889891FFAA0
:103080008CF31D4345F4006C22F400724CEA0404F6
:1030900095B22143002D8BB214BF4FF0000C4FF4BA
:1030A000807C43EA0C02828330BC704783881FFA1D
:1030B00083FC1AB92CEA01018180704741EA0C02B5
:1030C00082807047244A0388904270B49BB212D029
:1030D00002F58064A0420ED0B0F1804F0BD0A4F571
:1030E0008035A84207D005F58066B04203D006F5CA
:1030F000806C604503D14A8823F070031343174C5A
:10310000A0421FD004F58065A8421BD00E890C8810
:1031100023F4407C05F56C421FFA8CF34D681E4386
:1031200090420680C562048506D00D4A904203D0C5
:103130000125858270BC7047897A018601258582C8
:1031400070BC704703800E884968C16201250685FE
:10315000858270BC704700BF000001400010004035
:103160000004014000234FF0FF32426003800381DE
:1031700043808372704700BF038839B923F0800110
:103180000A044FEA124CA0F800C070479BB243F00B
:1031900080010180704700BF038839B923F0010125
:1031A0000A044FEA124CA0F800C070479BB243F0EB
:1031B00001010180704700BFF0B4048C8F89B1F821
:1031C00002C00E881C4D24F0010213041C0C048460
:1031D000028C8488038B22F0020223F073034CEAF2
:1031E000070C1B0412041FFA8CF7120C4FEA134C45
:1031F000A84247EA0202A4B24CEA06030AD005F547
:103200008066B04206D0896884800383F0BC416345
:10321000028470470D8AB1F80EC04F8A8E8822F062
:10322000080242EA0C0C2F4324F440742CF00402F0
:10323000BDB232432C43E6E700000140F0B4048CF9
:10324000B1F80CC04F880E88174D24F48052130437
:103250001C0C0484028C8488838B22F40052120498
:1032600023F4E643120C1B0442EA0C3C1B0C4CEA10
:10327000073743EA0626A842BAB2A4B21FFA86FC70
:103280000BD005F58065A84207D089688480A0F836
:103290001CC0F0BC0164028470470B8A24F4804493
:1032A00044EA8317BCB2F0E700000140002303802A
:1032B0004380838083608381C3810382438270471C
:1032C000038B23F008024FEA024C4FEA1C431943D8
:1032D00001837047838B23F400624FEA024C4FEA6C
:1032E0001C4343EA01218AB282837047B0F844301C
:1032F00021B9C3F30E01A0F8441070476FEA4342AE
:103300006FEA524C1FFA8CF3A0F84430704700BFAC
:10331000002100F004B80C4B5B58435004310B48BB
:103320000B4B42189A42FFF4F6AF0A4A00F003B87A
:10333000002342F8043B084B9A42FFF4F9AFFEF732
:103340009FFFFDF78DFC7047B0380008000000209B
:10335000400200204002002070520020FFF7FEBF14
:10336000F0B4840743D0541E002A3ED0CDB20346A9
:1033700003E0621E002C38D0144603F8015B9A0764
:10338000F7D1032C2AD9CDB245EA05250F2C45EA01
:10339000054515D9A4F110073F0903F1100606EB06
:1033A00007161A46156055609560D5601032B24216
:1033B000F8D104F00F040137032C03EB07130DD9E8
:1033C0001E462246043A032A46F8045BFAD8221F16
:1033D00022F003020432134404F003042CB1C9B2F6
:1033E0001C4403F8011BA342FBD1F0BC70471446F8
:1033F0000346C6E7ECFF2800C9FF4000FF0040007D
:10340000C9FF2800EBFFCDFF7B00FF007B00CDFF55
:10341000EBFF0000BAFF1900B400FF00B400190070
:10342000BAFF0000DDFF5500CD00FF00CD005500C4
:10343000DDFF0000000000000000000000000000B0
:10344000F4330008043400080000000014340008BD
:10345000000000002434000800000000000000000C
:1034600000000000783400080000000000000000A8
:1034700000000000883400082D009500E300FF00E4
:10348000E30095002D00000000006200B400EC0095
:10349000FF00EC00B40062000000000096300777E7
:1034A0002C610EEEBA51099919C46D078FF46A7038
:1034B00035A563E9A395649E3288DB0EA4B8DC7958
:1034C0001EE9D5E088D9D2972B4CB609BD7CB17ED8
:1034D000072DB8E7911DBF906410B71DF220B06AA8
:1034E0004871B9F3DE41BE847DD4DA1AEBE4DD6DB8
:1034F00051B5D4F4C785D38356986C13C0A86B64B8
:103500007AF962FDECC9658A4F5C0114D96C0663D7
:10351000633D0FFAF50D088DC8206E3B5E10694CB7
:10352000E44160D5727167A2D1E4033C47D4044BF7
:10353000FD850DD26BB50AA5FAA8B5356C98B242D7
:10354000D6C9BBDB40F9BCACE36CD832755CDF4557
:10355000CF0DD6DC593DD1ABAC30D9263A00DE5187
:103560008051D7C81661D0BFB5F4B42123C4B35677
:103570009995BACF0FA5BDB89EB802280888055FF7
:10358000B2D90CC624E90BB1877C6F2F114C685857
:10359000AB1D61C13D2D66B69041DC760671DB0145
:1035A000BC20D2982A10D5EF8985B1711FB5B60617
:1035B000A5E4BF9F33D4B8E8A2C9077834F9000F57
:1035C0008EA8099618980EE1BB0D6A7F2D3D6D08F7
:1035D000976C6491015C63E6F4516B6B62616C1CE7
:1035E000D83065854E0062F2ED95066C7BA5011B17
:1035F000C1F4088257C40FF5C6D9B06550E9B712B7
:10360000EAB8BE8B7C88B9FCDF1DDD62492DDA1576
:10361000F37CD38C654CD4FB5861B24DCE51B53A96
:103620007400BCA3E230BBD441A5DF4AD795D83D96
:103630006DC4D1A4FBF4D6D36AE96943FCD96E34D6
:10364000468867ADD0B860DA732D0444E51D0333B6
:103650005F4C0AAAC97C0DDD3C710550AA410227C6
:1036600010100BBE86200CC925B56857B3856F2096
:1036700009D466B99FE461CE0EF9DE5E98C9D929F6
:103680002298D0B0B4A8D7C7173DB359810DB42E36
:103690003B5CBDB7AD6CBAC02083B8EDB6B3BF9A82
:1036A0000CE2B6039AD2B1743947D5EAAF77D29D0E
:1036B0001526DB048316DC73120B63E3843B6494EE
:1036C0003E6A6D0DA85A6A7A0BCF0EE49DFF0993EE
:1036D00027AE000AB19E077D44930FF0D2A308875E
:1036E00068F2011EFEC206695D5762F7CB6765800E
:1036F00071366C19E7066B6E761BD4FEE02BD3890E
:103700005A7ADA10CC4ADD676FDFB9F9F9EFBE8E6D
:1037100043BEB717D58EB060E8A3D6D67E93D1A1AD
:10372000C4C2D83852F2DF4FF167BBD16757BCA68D
:10373000DD06B53F4B36B248DA2B0DD84C1B0AAF2D
:10374000F64A0336607A0441C3EF60DF55DF67A8AD
:10375000EF8E6E3179BE69468CB361CB1A8366BC3D
:10376000A0D26F2536E2685295770CCC03470BBB8D
:10377000B91602222F260555BE3BBAC5280BBDB28D
:10378000925AB42B046AB35CA7FFD7C231CFD0B52D
:103790008B9ED92C1DAEDE5BB0C2649B26F263EC1F
:1037A0009CA36A750A936D02A906099C3F360EEB2D
:1037B0008567077213570005824ABF95147AB8E2ED
:1037C000AE2BB17B381BB60C9B8ED2920DBED5E5CD
:1037D000B7EFDC7C21DFDB0BD4D2D38642E2D4F11D
:1037E000F8B3DD686E83DA1FCD16BE815B26B9F6AD
:1037F000E177B06F7747B718E65A0888706A0FFF0D
:10380000CA3B06665C0B0111FF9E658F69AE62F8CC
:10381000D3FF6B6145CF6C1678E20AA0EED20DD7CC
:103820005483044EC2B30339612667A7F71660D0EC
:103830004D476949DB776E3E4A6AD1AEDC5AD6D92C
:10384000660BDF40F03BD83753AEBCA9C59EBBDE4C
:103850007FCFB247E9FFB5301CF2BDBD8AC2BACAFC
:103860003093B353A6A3B4240536D0BA9306D7CD6C
:103870002957DE54BF67D9232E7A66B3B84A61C48C
:10388000021B685D942B6F2A37BE0BB4A18E0CC34C
:103890001BDF055A8DEF022DF8B500BFF8BC08BC40
:1038A0009E467047F8B500BFF8BC08BC9E467047FE
:1038B00000100000401F00001C1E05011D1F020714
:1038C0000B1614080609171A1915131811040A0003
:1038D000101B12000000320064009600C800FA00BD
:1038E0002C015E018F01C001F1012202520282020D
:1038F000B102E1020F033D036B039803C503F1031B
:103900001C04470471049B04C304EB04130539052C
:103910005F058405A805CB05ED050E062F064E06AE
:103920006C068A06A606C206DC06F5060E07250703
:103930003B0750076407760788079807A707B5076E
:10394000C207CE07D807E107E907F007F607FA072D
:10395000FD07FF070008FF07FD07FA07F607F00756
:10396000E907E107D807CE07C207B507A7079807F9
:1039700088077607640750073B0725070E07F506FB
:10398000DC06C206A6068A066C064E062F060E0642
:10399000ED05CB05A80584055F0539051305EB0486
:1039A000C3049B04710447041C04F103C50398037A
:1039B0006B033D030F03E102B102820252022202B5
:1039C000F101C0018F015E012C01FA00C8009600D0
:1039D000640032000000CEFF9CFF6AFF38FF06FF44
:1039E000D4FEA2FE71FE40FE0FFEDEFDAEFD7EFDAA
:1039F0004FFD1FFDF1FCC3FC95FC68FC3BFC0FFC7C
:103A0000E4FBB9FB8FFB65FB3DFB15FBEDFAC7FA49
:103A1000A1FA7CFA58FA35FA13FAF2F9D1F9B2F9A7
:103A200094F976F95AF93EF924F90BF9F2F8DBF832
:103A3000C5F8B0F89CF88AF878F868F859F84BF8A7
:103A40003EF832F828F81FF817F810F80AF806F8C8
:103A500003F801F800F801F803F806F80AF810F87E
:103A600017F81FF828F832F83EF84BF859F868F8BC
:103A700078F88AF89CF8B0F8C5F8DBF8F2F80BF99A
:103A800024F93EF95AF976F994F9B2F9D1F9F2F933
:103A900013FA35FA58FA7CFAA1FAC7FAEDFA15FBCF
:103AA0003DFB65FB8FFBB9FBE4FB0FFC3BFC68FCBB
:103AB00095FCC3FCF1FC1FFD4FFD7EFDAEFDDEFD60
:103AC0000FFE40FE71FEA2FED4FE06FF38FF6AFF25
:103AD0009CFFCEFF00000000000000000102030474
:103AE00001020304060708090000000000000000AE
:0400000508003311AB
:00000001FF
