:020000040800F2
:1040000014080020999A00081D4100080D4100087D
:104010001141000815410008194100080000000086
:104020000000000000000000000000002141000826
:104030002541000800000000294100082D4100082A
:10404000E19A0008E19A0008E19A0008E19A000864
:10405000E19A0008E19A0008E19A0008E19A000854
:10406000E19A0008E19A0008E19A0008E19A000844
:10407000E19A0008E19A0008E19A0008E19A000834
:10408000E19A0008E19A0008E19A0008E19A000824
:10409000E19A0008E19A0008E19A0008E19A000814
:1040A000E19A000839410008E19A0008E19A000805
:1040B000E19A0008E19A0008E19A0008E19A0008F4
:1040C000E19A0008E19A0008E19A0008E19A0008E4
:1040D000E19A0008E19A0008E19A0008E19A0008D4
:1040E000E19A0008E19A0008E19A00080000000047
:1040F00000000000000000000000000000000000C0
:1041000000000000000000005FF808F1FEE700BFBB
:10411000FEE700BFFEE700BFFEE700BF704700BF3D
:10412000704700BF704700BF704700BF014801F0F3
:104130008FB800BF20080020F8B56448012105F0C1
:104140009BFC00B9F8BD6148012105F0A1FC604B62
:104150001A79CAB15F4A604B1178D3F878250909FA
:10416000D3F87C45002A00F09880E00771D55B4BBE
:104170006410E558E018AA589047594B18805448E5
:10418000BDE8F84003F014BC554A564E1788B6F8FF
:1041900000E0554DCEF5FF41544CC7F5FF427F314D
:1041A0007F3228461980A4F854715A80A4F852E14D
:1041B00003F058FC2B78DF0742D4C10758D4DA0645
:1041C00038D4C30650D494F8212094F82030002A23
:1041D00094F856210CBF00211021D707287041EA1E
:1041E000030322D4DD073CD4D10619D4DA0635D432
:1041F000394A1843374F556DC1B284F8563139707A
:10420000906D002D38D0C70720D5401013581044AA
:104210005D59A84730802E48BDE8F84003F0C8BB80
:10422000DA06E5D443F04003E2E7D907DCD443F0F3
:104230000403D9E7C706C6D440F04000C0B2C2E7C5
:10424000C207BCD440F00400C0B2B8E702EB600083
:10425000DFE703F2245303EB64008DE743F0200310
:10426000C6E743F00203BFE740F02000C0B2AAE770
:1042700040F00200C0B2A2E7C307C6D45069431C95
:1042800003F00F035361936B115402EB43010133AD
:1042900003F00F03088B9363BCE7E5073FF567AFB7
:1042A000D3F83805421C02F00F02C3F83825D3F8C2
:1042B0005C251C1803EB4200013202F00F02B0F83B
:1042C0003C0584F82415C3F85C2556E7002C014012
:1042D000180800201408002094090020B80E0020BF
:1042E0008A09002088090020900900202008002069
:1042F00070B5114D012240F2ED21284603F0C8FCB3
:104300000E4B00260E4C0F481E6003F085FB0E4836
:1043100003F004FB3146204600F0C2FC04F22450B6
:10432000012100F0BDFC094802F054FA2846BDE81E
:10433000704003F0FDBC00BF8C090020DC1300209E
:10434000940900209009002018080020200800206F
:1043500008B5FFF7CDFF244C04F22455234803F0A1
:10436000DFF9224803F002FAE36D1F4A7BB3A26B28
:10437000E16B013A521A02F00F02072A1A4805D9D6
:10438000026ED10719D400EB62009847D4F880354B
:10439000154A23B3D4F85C25D4F86015013A521AB3
:1043A00002F00F02072A1049D8D9D1F88405C207B4
:1043B00008D405EB60009847D0E75210115810441C
:1043C000CB58E2E740102A582844D358F3E7126E3E
:1043D000D007CCD4D4F88035034A002BDAD1D2F8F8
:1043E0008425D107BAD5D5E79409002020080020FC
:1043F000012A2DE9F00137D0B1F80480B1F800C0EE
:104400004F88CE880023022101224FEA6808032446
:1044100047F6FF75A0F87080A0F87CC0A0F87E7009
:10442000A0F88060A0F8A440A0F8A61080F88C1036
:10443000A0F86C30A0F87230A0F8AA30A0F8A8302C
:10444000A0F86E5080F88D2080F88E20B0F994305E
:10445000A34206DD0023A0F89430C0F89C30A0F8F9
:104460009830BDE8F00170470E884D880023022483
:1044700047F6FF71A0F87C60A0F87E5080F88C2091
:1044800080F88D20A0F8A440A0F8A630A0F86C30E9
:10449000A0F87030A0F8AA30A0F8A830A0F86E10EC
:1044A000D4E700BF012A30B430D0CB884C88C3F5A4
:1044B0007F43FF3303FB03F504FB04F48A882D0CD0
:1044C000098802FB02F203FB05F3240CA1F500416D
:1044D00004FB04F409B2C1EBC101920C9B0C09125C
:1044E00002EB4202240E0125C3F5FF4301F578617A
:1044F00002F50072C0F8B84180F8B051C0F8D01190
:10450000A0F8B431C0F8D42130BC70474B8809887A
:10451000C3F57F43FF3303FB03F4491001F500515A
:10452000240C01FB01F103FB04F3890C01EB4101B5
:104530009B0C4FF47865232401F50071C3F5FF430C
:10454000C0F8D051C0F8B841C0F8D41180F8B021FB
:10455000A0F8B43130BC7047704700BF012A0FD0BB
:104560000B88A0F82C334B885B10A0F82E338B8877
:104570005B10A0F83033CB885B13A0F83233704760
:104580000023A0F82C330B885B10A0F82E330B8887
:104590005B1003F50063A0F830334B885B13A0F881
:1045A00032337047084B10B440F6FF7128240022C4
:1045B000C0F88444C0F88C34C0F88814C0F8902443
:1045C0005DF8044B704700BF00C0FF3FD0F8942453
:1045D0008907D0F89034D0F8841456BF1346D0F829
:1045E0008C24D0F89824C1EB030348BFC0F898246A
:1045F0009A18C0F8943412D41049C0F898248A420A
:1046000018DDD0F888241B135B4202FB03F2C0F8CC
:104610009814C0F8942447F6FF7000B27047D0F8A1
:1046200088241B135B4202FB03F30022C0F894347E
:10463000C0F89824C2F3CF3000B270470080FF3F2B
:10464000012A70B4264A0C884B8826D02512961C65
:10465000C3F57F4332F8152036F81550FF33AD1AF5
:10466000E4B203FB03F304FB05F4CD881B0D89883A
:10467000A5F5004502EB2422C3F57F632DB22D0181
:1046800092B20F338903C0F89054C0F88424C0F864
:104690008834C0F88C1470BC70472112951CC3F587
:1046A0007F4332F8112035F81110FF33891A03FBCC
:1046B00003F3E4B204FB01F41B0D02EB2422094DC9
:1046C000C3F57F630F3392B20021C0F88C54C0F859
:1046D0008834C0F88424C0F8901470BC704700BFC0
:1046E000C053010800C0FF3F10B400F29E4200F228
:1046F000A644002322F8023B9442FAD1042280F817
:104700009D3480F8A63480F89C245DF8044B7047F3
:104710008A0790F89D3406D5013390F8A624DBB2C1
:1047200080F89D3492B990F89C24022A04D9890615
:1047300044BF012180F8A6149A429CBF002380F850
:104740009D3400EB4300B0F99E047047002380F8CD
:10475000A63480F89D34E6E70B88012A4FEA9302DD
:1047600010B4A2F5C044A0F8A8441FD01C044ABF4E
:104770005A1002F5C04202F5804292B2A0F8AA2473
:104780004B885DF8044BA0F8AC34CB888A8803EBE7
:104790004301C3EB4133D2101B0C02F5807203F5C9
:1047A0000053C0F8B424C0F8B03470471C044ABFAA
:1047B0005A1002F5C04202F5804292B2A0F8AA2433
:1047C00049884FF4885244F6FF73A0F8AC14C0F83F
:1047D000B424C0F8B0345DF8044B7047014601F1D1
:1047E000180200F5956004F08FB800BF00F59560E1
:1047F00004F062B8014601F1180200F5876004F088
:10480000AFBA00BF00F5876004F092BA014601F12B
:10481000180200F54B7004F087BB00BF00F54B7029
:1048200004F06EBB012A0B4649D00A88B2F5804FCE
:1048300032D9B2F5004F9ABF1111C1F500610021C4
:10484000A0F8061302EBC202920902F54062A0F83A
:1048500008235A88921002EB4202C2F38D02A0F89C
:104860000A239A885110921002F5005201F58041F6
:10487000A0F80E23A0F80C13DB881A0411D4C3F59A
:10488000FF437F3303FB03F30022C3F38F33A0F80E
:104890001023A0F8123370474FF48061A0F806137C
:1048A000D0E7A3F5004303FB03F3C3F34D4303EB4E
:1048B0008303A0F810330023A0F81233704700F5EB
:1048C000417009885A8803F091BA00BF014601F18E
:1048D000180200F5417003F00FBB00BF00F54170F6
:1048E00003F07CBA00F5267012F0CAB800F5267005
:1048F00003F040BC00F5EE7012F0A2B800F5EE70C7
:1049000003F05ABC00F5BA7012F0A2B800F5BA7004
:1049100003F028BA012A10B590F8C03004462FD011
:10492000C3B90B8847F6FF72A0F8B03088884B886F
:10493000A0F50040A4F8B400C98803EB8303A1F5F7
:10494000004109041B14C4F8B81084F8B230C4F84C
:10495000BC2010BD8A884B88A2F500420888A4F8C4
:10496000B420CA8803EB8303A2F50042411012046D
:104970001B14C4F8BC10C4F8B82084F8B23010BDC1
:1049800093B10B884A8803EB83031B14A2F5004202
:1049900080F8B230A0F8B420002247F6FF73C4F8C4
:1049A000B820C4F8BC3010BD0B8820F8B03F49884F
:1049B00003F0CEFDF0E700BF014601F11802B03070
:1049C00003F0D8BDB03003F0A3BD00BF6C3003F0DE
:1049D000D3BE00BF6C3003F0A9BE00BF012A0B8814
:1049E00016D0A3F50043A0F89E344B880422A3F50B
:1049F0000043A0F8A0348B88A3F50043A0F8A234AC
:104A0000CB8880F89C24A3F50043A0F8A434704719
:104A1000A3F50043A0F89E344B880222A3F500437F
:104A200080F89C24A0F8A034704700BF012A0DD064
:104A30000B88A0F83A344B88A0F838348B885B1088
:104A4000A0F83C34CB88A0F83E3470474FF6FF7393
:104A5000A0F83A340B880022A0F838344B88A0F82C
:104A60003E245B10A0F83C34704700BF012A70B4AC
:104A700053D00B8890F86C22A3F500431BB2C3EB14
:104A8000C303C3F30F2303F5D05503F5005403F517
:104A90004853A0F82E52A0F84E429BB2002A3AD1B9
:104AA000B0F86E525D1B18BF0125A0F86E328C88DD
:104AB0004B886408B4F5E04F38BF04F500744FEA42
:104AC000A303C3F5AB4234BFA4B24FF4E444703245
:104AD000A0F8944203F5AB43C0F88C22CA88703327
:104AE000C0F890325309941303F5E24203F5CF4323
:104AF000012104F6FC744832043380F86C52C0F88B
:104B00001C42A0F83022A0F8503280F82C1280F815
:104B10004C1270BC70470125C7E790F86C324FF417
:104B2000D0554FF40054A0F82E52A0F84E422BB9A5
:104B3000B0F96E22B2F5485218BF01224FF4485521
:104B400047F2485446F68433A0F83042A0F86E523B
:104B5000A0F850324D880B886D08B5F5E04F4FEA4C
:104B6000A30338BF05F50075C3F5AB4103F5AB43AF
:104B70004FF0010440F6FE7634BFADB24FF4E44589
:104B80007031703380F82C4280F84C42C0F81C62BF
:104B9000A0F8945280F86C22C0F88C12C0F89032C1
:104BA00070BC7047F8B5044690F8C0300F4684F8E2
:104BB00041100239484248416BB960B1C4F84C31E8
:104BC000C4F8483104F5A47104F1C803002243F885
:104BD000042B9942FAD1314E04F14C0506EB4716ED
:104BE00084F8C0000FCE0FC596E80F00022F85E8AD
:104BF0000F002FD0206DC2073AD540102258E36C29
:104C00002044D358984794F841301A1FD2B2012A51
:104C100020D894F84020002A35D0B4F84200B4F8E7
:104C200044504FF6E75188420AD98D4230D9052BBE
:104C300012D020460521FFF7B5FF94F840200BE085
:104C40004FF6F431884223D8042B05D020460421A6
:104C5000FFF7A8FF94F84020A06EC3070CD54010C2
:104C60002158636E2044CB5804F142019847F8BDA7
:104C700004EB6000E36CC5E704EB6000636E04F1D5
:104C800042019847F8BDB4F84400B4F84650C8E76C
:104C90004FF6F4318D42DFD8D6E700BF449C0008C0
:104CA0002DE9F84300234361044603610F46C363C3
:104CB00008258363E36B0022591C01F00F0104EB0C
:104CC00043031A83E1636369013D591C01F00F013D
:104CD000ADB2E2546161002DECD1BC4E07E0EB585F
:104CE00004EB600020359847B5F5C07F0ED07319EE
:104CF0005868B64BC107F2D54010EB582258203502
:104D00002044D3589847B5F5C07FF0D104F5BA7068
:104D100003F028F87A1ED2F1000804F5EE7058EB83
:104D2000020803F049FA04F5417003F057F804F55E
:104D3000267084F8048303F01DFAA548282140F664
:104D4000FF720023C4F88414C4F88824C4F8903493
:104D5000C4F88C0404F1B00003F0DAFB04F16C0039
:104D600003F0E4FC04F54B7004F0CAF804F5876026
:104D700003F0DEFF04F29E4204F2A641002322F873
:104D8000023B91421D46F9D1042204F14C098F4F98
:104D900084F89D3484F8A63484F89C2404F5956046
:104DA0004E4603F089FD0FCF84F8E08484F840502C
:104DB00084F8415084F8C0500FC697E80F0086E889
:104DC0000F00206DC30720D4E36C04EB600098470C
:104DD00094F841301A1FD2B2012A94F840201ED90B
:104DE00004F14205A06EC30715D540102158636E2B
:104DF0002044CB58294698474A344FF4004325F8BD
:104E0000023BAC42F9D1BDE8F88340102258E36C74
:104E10002044D358DBE704EB6000636EEAE7002A26
:104E200041D0B4F842104FF6E7508142B4F84450F4
:104E300041D9854274D9052BD2D0664E00274FF058
:104E4000050E4D4684F8C0700FCE84F841E00FC5C2
:104E500096E80F0085E80F00236DDF0700F1B080B2
:104E6000E26C04EB6300904794F841301A1FD2B211
:104E7000012A44D894F84020002A40F0BD80B4F8BC
:104E80004400B4F846104FF6E755A84240F2A68019
:104E9000A94240F28E80052B00F08F80204605212C
:104EA000FFF780FE2BE0B4F844104FF6E750814244
:104EB000B4F84650BDD84FF6F430814230D8042BB8
:104EC0008ED0454E4FF0040E00274D460FCE84F88D
:104ED00041E084F8C0700FC596E80F0085E80F0028
:104EE000236DDE0721D55B10E158E26CE0188A588B
:104EF000904794F841301A1FD2B2012A1DD994F874
:104F0000402004F14205A36ED90712D55B10E65884
:104F1000616EE01876582946B04794F8402061E762
:104F20004FF6F4318D42CAD95AE704EB6300E26CC4
:104F3000DEE704EB6300666EEDE794F84020002A9C
:104F400055D1B4F84400B4F846104FF6E755A842DE
:104F500044D9A9422DD9052B2FD01E4D0527002657
:104F60000FCD84F8417084F8C060A9E80F0095E87F
:104F70000F0089E80F00236DDD0742D4E26C04EBDB
:104F80006300904794F841301A1FD2B2012A94F876
:104F9000402040D9A36ED80739D55B10E558616E23
:104FA000E0186E5804F142052946B04794F84020B5
:104FB000A9E74FF6F430814214D904F14205A2E783
:104FC0005B10E158E26CE0188A584CE7449C0008FA
:104FD00000C0FF3FE49C0008C49C00084FF6F43575
:104FE000A842E6D8042BE8D0204D0427B7E7B4F850
:104FF0004200B4F84410A8E7B4F84200B4F84410F2
:1050000041E75B10E158E26CE0188A58B9E704EB1D
:105010006300666EC6E7A2B9B4F84400B4F846105F
:105020004FF6E755A84211D84FF6F435A84218D8E4
:10503000042BAFD020460421FFF7B4FD94F84020A4
:10504000A8E7B4F84200B4F84410E9E7A94208D947
:10505000052B9FD020460521FFF7A4FD94F84020A2
:1050600098E74FF6F430814294D8E1E7C49C0008F9
:10507000F8B590F8413004461A1FD2B2012A90F8D0
:10508000402012D9A06EC30708D540102158636E86
:105090002044CB5804F142019847F8BD04EB60006E
:1050A000636E04F142019847F8BD7AB1B0F842103E
:1050B000B0F844504FF6E75081420FD9854230D9BD
:1050C000052BDFD01C4E4FF0050E10E0B0F8441059
:1050D000B0F846504FF6E7508142EFD84FF6F43023
:1050E00081421ED8042BCDD0144E4FF0040E002761
:1050F00004F14C050FCE84F841E084F8C0700FC570
:1051000096E80F0085E80F00206DC2070ED4E36C0F
:1051100004EB600098472046FFF7AAFF94F8402070
:10512000B0E74FF6F4318D42ACD8DBE7401022589F
:10513000E36C2044D358EDE7E49C0008C49C0008CD
:105140002DE9F047064696F8411190F8400196F88F
:105150004231082286F8441186F8430186F8453129
:1051600006F5AC711AB106F5A37004F0BBFCB6F8F5
:105170005091304C4FEA09192F4B4C449C4206F297
:10518000431534D90023A6F8503104F0E5F92B4C2F
:10519000204604F021FA2A4B04F580649C42F7D1A2
:1051A000284FDFF8A880254CB946C4EB050A2046F5
:1051B0005AF80410043404F031FA4C45F7D106F2E1
:1051C0004F12002115F8013B1944954289B2F9D1DB
:1051D000384604F053FA4046B6F8501104F04EFA3F
:1051E000B6F850310133A6F85031BDE8F08704F02D
:1051F000B3F9154B24F47F704B4423F47F7320F0F4
:10520000030023F0030309F10064834204F5E03452
:1052100007D004F10C0904F0DFF94F4604F10E0841
:10522000C3E7DFF82880074FC8444F4404F10C0956
:10523000BBE700BF10C00108FFFF010800C0010864
:10524000000002080CC00108FFBF01080EC00108E1
:105250002DE9F04FDFF8908300F59A77D8F8003009
:105260000446013383B03846C8F8003002F0DEFC53
:10527000DFF878932646002517F801EBBEF1800F82
:1052800037D0BEF1000F53D133691BB1EAB2012A06
:1052900040F2DB800135042D06F10406ECD194F8D0
:1052A0004031D8F80020022BC2F3C212CE4900F0E0
:1052B000C380032B5FD1012A02D0D01E424242415B
:1052C000D8F8001084F83121C90540F1F38094F832
:1052D0004221032A5AD8032B00F0EC8094F8413184
:1052E000194603F00303012202FA03F384F8303174
:1052F00051E0D4F82C3104F12801581C01EBC30211
:105300004FF0000E4FF0040C00F01F0001F833C006
:105310005580C2F804E0C4F82C01D8F80030D8F861
:1053200000206362326117F801ECBEF1000FABD0D0
:10533000BEF17F0FAED13369002BABD0D8F800108F
:10534000D4F82C2101F1010E04F1280002F1010A28
:10535000C3EB0E0E00EBC2010AF01F034FF0040C6A
:1053600000F832C0C1F804E04D80C4F82C31D8F800
:10537000003063628EE70A6803F00101D20584F809
:105380003111A8D594F84121032AA4D9102394F807
:10539000411184F830312346002201A80139C9B2F5
:1053A00006294FF0010524D805FA01F111F00B0F81
:1053B0002AD111F0440F1CD0B3F952110029B8BF03
:1053C0004942091281540233D2B199F84120874BE6
:1053D0000B2A21D09DF804209DF8053084F8322155
:1053E00084F8333104F5987002F0B4FB03B0BDE8E3
:1053F000F08FB3F952110233C9118154002AE4D15C
:1054000094F842110122C9E7B3F85211A1F5004105
:10541000C1F307218154D6E793F8DC1993F8B82437
:105420004A4084F8302193F8E12493F8053A524237
:105430005B42D2B2DBB2D1E7551E09686A426A41CB
:10544000CE0584F831219DD448E7D8F8000066499C
:10545000C31AB3F5167F7FF71DAFC2F10102D2B2B6
:10546000224492F8342172B994F85731C4F814E008
:105470000133DBB2032BC4F810E084F857311ED09F
:1054800017F801EC54E7D4F82C2104F1280C02F1B0
:10549000010A0CEBC2004FF0040B0AF01F0A0CF8D3
:1054A00032B043604580C4F82CA10B686362C6F833
:1054B00010E0E5E794F8423194F8411111E7DFF884
:1054C0002CB1DFF834A10BF14C0CBAE80F00ACE8BA
:1054D0000F009AE80F00D9F850A084F857E189F836
:1054E000C0E01AF0010F4FF00B0E8CE80F0089F8A6
:1054F00041E05FD04FEA6A0050F80B20DBF84C30F7
:105500005844D358984799F84110384B0A1FD2B2E3
:10551000012A93F8402040F2A680D9F86810334B56
:10552000C8075CD5491051F803C0D3F864E0C81827
:105530005CF80E302E49DFF8B4B09847DFF8B8C0F9
:105540000BF5AE6EBCE80F00AEE80F009CE80F0054
:10555000D9F874C54FF00B0A8EE80F001CF0010F4C
:105560004FF0000389F865A589F8E43527D10BF2DF
:10557000245ADBF870350AEB6C00984799F86515EA
:105580001A4B0A1FD2B2012A93F8642536D9D9F8EA
:105590008C351649D8071DD55B10D1F888155AF8F7
:1055A00003E00AEB03005EF801C01249E04717F878
:1055B00001ECBDE60BEB6A00DBF84C30A2E74FEAEA
:1055C0006C000BF2245A5AF80020DBF87035504476
:1055D000D358D2E7D1F888C50AEB6300E5E703EBBF
:1055E00061005B6EA6E700BFDC1300209409002079
:1055F000D6090020FA0E0020A49D0008002A66D1DA
:10560000B3F86805B3F86AE54FF6E753984268D9EE
:105610009E4540F2A9800529B9D0DFF87CC1DFF8AA
:105620007CB10CF5AE6EBBE80F00AEE80F009BE856
:105630000F00D9F874B58EE80F001BF0010F4FF082
:1056400000034FF0050289F8652589F8E4356AD131
:10565000DCF870350AEB6B0098474E48FFF708FD01
:1056600099F8642593E7BABBB3F84400B3F846E071
:105670004FF6E75398425FD99E457BD905293FF401
:105680004CAFDFF814A1DFF814C10AF14C0EBCE8EE
:105690000F00AEE80F009CE80F00D9F850C04FF0A3
:1056A000050B8EE80F001CF0010F4FF0000389F886
:1056B00041B089F8C03063D1DAF84C300AEB6C00A5
:1056C00098473548FFF7D4FC99F8402025E7B3F810
:1056D0006605B3F868E597E7B3F84200B3F844E02D
:1056E000C6E74FF6F43398423ED804293FF44FAF53
:1056F000DFF8A4C0DFF8A8B00CF5AE6EBBE80F0071
:10570000AEE80F009BE80F00D9F874B58EE80F00E3
:105710001BF0010F4FF000034FF0040289F86525DC
:1057200089F8E43594D04FEA6B005AF80020DCF891
:1057300070355044D3588FE74FF6F433984219D858
:1057400004293FF4EAAEDFF850A0DFF854C00AF1B4
:105750004C0EBCE80F00AEE80F009CE80F004FF0C5
:10576000040BD9F850C09CE74FF6F4339E453FF642
:105770000EAFBAE74FF6F4339E453FF6CEAEDFE705
:105780004FEA6C0050F80A20DAF84C305044D358F5
:1057900096E700BFB80E002094090020E49C0008A2
:1057A000C49C00082DE9F04190F840510646012DB7
:1057B00000F0EB81002D00F02B818F4C002594F838
:1057C000413084F840501A1FD2B2012A34D92A46F7
:1057D000A06E894BC5072BD54010C558596E18448B
:1057E0006B588649984794F8653500251A1FD2B240
:1057F000012A84F86455804E40F286802A4606F2DB
:105800002455D4F88C057C4BC10709D54010295884
:10581000D3F888352844CB5879499847BDE8F081BA
:10582000D3F8883505EB600075499847BDE8F081ED
:1058300003EB60005B6ED4E7B4F844204FF6E75109
:105840008A42B4F8460020D9884222D9052BBED01E
:105850006C4F04F14C060FCF0FC697E80F00276D71
:105860004FF0050E86E80F00F80784F8C05084F862
:1058700041E000F14683E36C04EB670098475E4823
:10588000FFF7F6FB94F84020A2E74FF6F4318A4286
:1058900003D94FF6F432904234D8042B32D0564F0D
:1058A000594E07F14C050FCE0FC596E80F00266D37
:1058B0004FF0040C4FF0000E85E80F00F10784F85C
:1058C00041C084F8C0E000F11F82FB6C07EB66006A
:1058D000984794F84110484B0A1FD2B2012A93F816
:1058E000402040F2CC82A06E434BC60740F12D828F
:1058F0004010C558596E18446B584049984794F861
:10590000402065E7002263E7B6F868254FF6E751C7
:105910008A42B6F86A0528D988422AD9052B3FF46D
:105920006DAFDFF8E0E006F5AE67BEE80F000FC729
:105930009EE80F00D6F874E54FF0050C1EF0010F3D
:1059400086F8E45587E80F0086F865C540F00182C7
:1059500006F22455D6F8703505EB6E0098472B48B3
:10596000FFF786FB94F864254BE74FF6F4318A4243
:1059700004D94FF6F432904200F28B81042B38D0D8
:105980001D4F214E07F5AE650FCE0FC596E80F00EF
:10599000D4F874654FF0040C4FF0000E85E80F004A
:1059A000F10784F865C584F8E4E500F1B38107F2F6
:1059B0002455D7F8703505EB6600984794F86515BF
:1059C0000D4B0A1FD2B2012A93F8642540F22282BD
:1059D000D4F88C05084BC60740F1B2814010295815
:1059E000D3F888352844CB580549984794F864255E
:1059F00007E7064D002204E794090020D60900209D
:105A0000FA0E0020E49C0008C49C0008B80E002098
:105A1000C5483146A0F14204082204F063F8082288
:105A2000314604F2665004F05DF894F8413084F891
:105A300040501A1FD2B2012A63D92A46A06EBB4B2E
:105A4000C5075AD54010C558596E18446B58B64909
:105A5000984794F8653500251A1FD2B2012A84F8B8
:105A60006455B24E3FF6CAAEB6F868254FF6E75118
:105A70008A42B6F86A0500F204814FF6F4318A4290
:105A800000F20281042BB4D0A84FA94E07F5AE65F1
:105A90000FCE0FC596E80F00D4F874654FF0040CD4
:105AA0004FF0000E85E80F00F10784F865C584F813
:105AB000E4E500F15E8107F22455D7F8703505EB77
:105AC0006600984794F86515984B0A1FD2B2012AD0
:105AD00093F8642540F25582D4F88C359349DE075B
:105AE00040F10A825B10D1F88815EE58E818765814
:105AF0009049B04794F8642583E603EB60005B6E41
:105B0000A5E7B4F844204FF6E7518A42B4F84600BE
:105B100000F295804FF6F4318A4200F2BD80042BEA
:105B200000F0BF80814F824E07F14C050FCE0FC5AC
:105B300096E80F00266D4FF0040C4FF0000E85E83C
:105B40000F00F10784F841C084F8C0E000F10B8138
:105B5000FB6C07EB6600984794F84110734B0A1FE3
:105B6000D2B2012A93F8402040F2D981A16E6F4B46
:105B7000CE0740F1BD814910CE585D6EC8187359EB
:105B80006949984794F8402058E73146042266480E
:105B900003F0A8FF311D0836761A721003D05200A8
:105BA000644803F09FFF614C012294F8413084F86F
:105BB0004020191FC9B2914279D9A06E5B4BC10731
:105BC00071D54010C558596E18446B5856499847BE
:105BD00094F865350122191FC9B2914284F86425F1
:105BE000524E3FF60CAEB6F866154FF6E7508142BE
:105BF000B6F8685540F2C680854240F28881052B90
:105C00003FF4FDAD4C4F06F5AE650FCF0FC597E8DD
:105C10000F00D6F874754FF0050C4FF0000E85E8B4
:105C20000F00FB0786F865C586F8E4E500F1D88229
:105C300006F2245505EB6700D6F870358EE68842EB
:105C40002AD9052B3FF4F9AE3B4F04F14C060FCF98
:105C50000FC697E80F00276D4FF0050E86E80F007E
:105C6000F80784F8C05084F841E000F1C281E36C89
:105C700004EB670098472D48FFF7FAF994F84020A5
:105C8000DCE688423FF64AAE4FF6F43290427FF6A9
:105C9000F9AE0022294DB4E54FF6F43290427FF67A
:105CA0003EAF0022CAE603EB60005B6E8EE7B4F8FD
:105CB00042104FF6E7508142B4F8445040F28880D9
:105CC000854240F20E81052B3FF477AF1A4E04F166
:105CD0004C050FCE0FC596E80F00266D4FF0050E50
:105CE000002785E80F00F50784F841E084F8C070CC
:105CF00000F17882E36C04EB660098470B48FFF7ED
:105D0000B7F994F8402058E77610F259FB6CF01977
:105D1000D358DDE5761007F22455D7F87035AA5927
:105D2000A819D35849E600BFD609002094090020DD
:105D3000C49C0008FA0E0020E49C0008B80E002065
:105D4000D3F8883505EB60004EE603EB60005B6E30
:105D5000D3E54FEA6E0006F224552A58D6F870357E
:105D60002844D358FAE57010C259FB6C3844D35814
:105D7000F1E6701007F224552A58D7F870352844F8
:105D8000D3589EE64FF6F432914200F2C080042BC5
:105D900000F02C81CD4FCE4E07F5AE650FCE0FC56E
:105DA00096E80F00D4F874654FF0040C4FF0000E25
:105DB00085E80F00F50784F865C584F8E4E500F18F
:105DC000E68107F2245505EB6600D7F87035C5E586
:105DD0004FF6F432914200F28480042B00F086806A
:105DE000BA4FBB4E07F14C050FCE0FC596E80F001A
:105DF000266D4FF0040C4FF0000E85E80F00F00701
:105E000084F841C084F8C0E000F1CB8107EB660064
:105E1000FB6C72E7002A40F01C81B3F86805B3F808
:105E20006A654FF6E753984240F2E9809E4240F29D
:105E3000418105293FF4CCADDFF890E2A54F0EF586
:105E4000AE660FCF0FC697E80F00D4F874754FF009
:105E500005084FF0000C86E80F00FA0784F8658506
:105E600084F8E4C500F1D181DEF87035781028445B
:105E700098479948FFF7FCF894F86425A8E5002AAC
:105E800040F01381B3F84400B3F846504FF6E7539F
:105E9000984240F2E3809D4240F2128105293FF48E
:105EA00022AD8A4F8B4E07F14C050FCE0FC596E8F9
:105EB0000F00266D4FF0050C4FF0000E85E80F0027
:105EC000F20784F841C084F8C0E000F1A481FB6CC3
:105ED0007010204498477D48FFF7CAF894F8402096
:105EE00001E54FF6F43295427FF677AF012264E682
:105EF00003EB61005B6E43E6D1F8886505EB630058
:105F0000F6E578100259E36C2044D358B6E44FF616
:105F1000F43295427FF63BAF01226F4D71E4002AC7
:105F200040F00281B3F84400B3F846504FF6E7530F
:105F3000984240F2D3809D4240F23F8105293FF4D0
:105F400015AE624F634E07F14C050FCE0FC596E8B4
:105F50000F00266D4FF0050C4FF0000E85E80F0086
:105F6000F20784F841C084F8C0E000F15F81FB6C67
:105F70007010204498475548FFF77AF894F840206D
:105F8000F4E5002A40F0FE80B3F86805B3F86A65CE
:105F90004FF6E753984240F2CC809E4240F2078190
:105FA00005293FF499ADDFF824E14A4F0EF5AE66BE
:105FB0000FCF0FC697E80F00D4F874754FF005089F
:105FC0004FF0000C86E80F00FA0784F8658584F826
:105FD000E4C500F12581DEF8703578102844984733
:105FE0003D48FFF745F894F8642575E53A4D0122E0
:105FF00007E478100259E36C2044D3583AE64FF690
:10600000F433984256D804293FF4E2ACDFF8BCE000
:106010002F4F0EF5AE660FCF0FC697E80F00D4F8DE
:1060200074754FF004084FF0000C86E80F00FB0772
:1060300084F8658584F8E4C500F1C580DEF8703524
:1060400005EB670098472448FFF712F894F8642599
:10605000BEE4B3F86605B3F86865E2E64FF6F433DC
:1060600098422DD804293FF43EAC184F184E07F142
:106070004C050FCE0FC596E80F00266D4FF0040CAF
:106080004FF0000E85E80F00F30784F841C084F854
:10609000C0E000F19F80FB6C07EB660098470B485F
:1060A000FEF7E6FF94F840201DE4B3F84200B3F891
:1060B0004450EBE64FF6F4339E423FF689ACA2E73C
:1060C0004FF6F4339D423FF60EACCBE79409002027
:1060D000C49C0008E49C0008B80E00204FF6F4337E
:1060E00098426AD804293FF441AD534F534E07F10B
:1060F0004C050FCE0FC596E80F00266D4FF0040C2F
:106100004FF0000E85E80F00F30784F841C084F8D3
:10611000C0E06DD4FB6C07EB660098474648FEF77D
:10612000A7FF94F8402021E5B3F84200B3F84450AB
:10613000FCE64FF6F433984239D804293FF4CCAC4E
:10614000DFF8F4E03D4F0EF5AE660FCF0FC697E8CF
:106150000F00D4F874754FF004084FF0000C86E877
:106160000F00FB0784F8658584F8E4C546D4DEF8A3
:10617000703505EB670098473148FEF779FF94F8D2
:106180006425A9E4B3F86605B3F8686500E7701004
:1061900007F224552A58D7F870352844D358FFF70A
:1061A000DDBB7010C259FB6C3844D358A5E54FF6DF
:1061B000F4339E423FF690ACBFE74FF6F4339D4276
:1061C0003FF6D4AC8EE778102A58DEF870352844B4
:1061D000D35837E77010C259FB6C3844D3585DE789
:1061E0007810B8E570100259E36C2044D35884E568
:1061F0007010C259FB6C3844D3588EE778102A5877
:10620000DEF870352844D358B5E77810DEF87025ED
:106210002B589B582BE670103A58FB6CD35858E615
:106220007810DEF870252B589B58D7E670103A5836
:10623000FB6CD3589DE600BF94090020C49C000865
:10624000B80E002090F840312DE9F047012B15469B
:1062500040F2D480BD4B40F2245404FB0134BC4ACC
:1062600001EB4503D75C94F8C030B7F1020E01444E
:10627000DEF1000081F8415150EB0E0084F84170CE
:106280006BB960B1C4F84C31C4F8483104F5A4715D
:1062900004F1C803002243F8042B9942FAD1AD4E11
:1062A00004F14C0806EB4716454684F8C0000FCEB3
:1062B0000FC596E80F00022F85E80F003CD0206D37
:1062C000C70749D540102258E36C2044D35898475B
:1062D00094F841301A1FD2B2012A2DD894F84020E8
:1062E000002A44D0B4F842004FF6E7518842B4F88F
:1062F000445044D98D427AD9052B7CD0964D002646
:10630000052784F8C0600FCD84F84170A8E80F001D
:1063100095E80F0088E80F00236DDE0700F120826A
:10632000E26C04EB630090472046FEF7A1FE04F107
:10633000420594F8402003E094F8402004F142051F
:10634000A06EC3070CD540102158636E2044CB5873
:1063500029469847BDE8F08704EB6000E36CB6E798
:1063600004EB6000636E29469847BDE8F087B4F8F7
:1063700044004FF6E7518842B4F84650BAD84FF679
:10638000F431884233D8042B35D0744E4FF0040ECC
:10639000002745460FCE84F841E084F8C0700FC551
:1063A00096E80F0085E80F00236DDD0740F161815D
:1063B0005B10E158E26CE0188A58904794F841303D
:1063C0001A1FD2B2012A94F8402040F29F81A36E96
:1063D000D90740F18B815B10E558616EE0186E586B
:1063E00004F142052946B04794F84020A8E74FF64B
:1063F000F4318D42C7D904F14205A1E7544E534C04
:1064000016F812C080F8422180F8412194F8C0307B
:10641000BCF10202D2F1000984F841C059EB020933
:106420001BB9B9F1000F40F01681DFF82881DFF8C1
:106430001CA108EB4C1E0AF14C07BEE80F000FC769
:106440009EE80F00BCF1020F84F8C09087E80F00AF
:106450000FD0DAF85000C3075ED4DAF84C300AEBFC
:106460006000984794F8413038491A1FD2B2012A87
:106470007AD994F84020A06E344BC7075DD5401000
:10648000C758596E18447B58354906EB450598475F
:106490006F7894F8E435BE1ED6F1000C84F865756B
:1064A0005CEB060C29491BB9BCF1000F40F0C5801C
:1064B000DFF898E008EB47160EF5AE650FCE0FC576
:1064C00096E80F00022F84F8E4C585E80F0000F07D
:1064D000DE80DEF87405C50726D40EF22455DEF8FA
:1064E000703505EB6000984794F8653517491A1F19
:1064F000D2B2012A70D994F86425D4F88C05134BD4
:10650000C1071ED540102958D3F888352844CB58E8
:1065100014499847BDE8F087401050F80A20DAF88F
:106520004C305044D3589CE740100EF224552A5862
:10653000DEF870352844D358D5E703EB60005B6E76
:10654000A2E7D3F8883505EB6000E1E79409002065
:106550005C690108449C0008E49C0008C49C000895
:10656000D6090020FA0E002091F84020002A00F001
:106570008980B1F84200B1F844704FF6E751884283
:1065800040F288808F4240F2BB80052B3FF473AF0E
:10659000DFF830C2DFF830E20CF14C07BEE80F0044
:1065A0000FC79EE80F00D4F850E04FF0050A4FF0F7
:1065B00000091EF0010F87E80F0084F841A084F85D
:1065C000C09040F0D380DCF84C300CEB6E00984764
:1065D0007C48FEF74DFD4CE791F86425002A4CD02D
:1065E000B1F86605B1F868654FF6E751884268D999
:1065F0008E427FD9052B80D0DFF8C8E1724F0EF5AF
:10660000AE660FCF0FC697E80F00D4F874754FF041
:1066100005084FF0000C86E80F00F80784F8658540
:1066200084F8E4C500F1AB80DEF8703505EB670057
:1066300098476648FEF71CFD5DE7C1F87036C1F863
:106640006C3601F2EC5301F26C61002243F8042B2A
:106650008B42FAD12CE7C4F84C31C4F8483104F528
:10666000A47104F1C803002243F8042B8B42FAD131
:10667000DBE604EB6300E26C9FE6B1F86805B1F875
:106680006A65B1E7B1F84400B1F8467075E70EF2FB
:10669000245530E74FF6F431884231D8042B3FF4CB
:1066A000EAAEDFF820C1DFF828E10CF14C07BEE8C4
:1066B0000F000FC79EE80F004FF0040AD4F850E017
:1066C00075E74FF6F431884214D8042B3FF415AF28
:1066D000DFF8F0E03E4F0EF5AE660FCF0FC697E83D
:1066E0000F004FF00408D4F8747592E704EB6300D0
:1066F000666E75E64FF6F4318E423FF6FEAEE4E785
:106700004FF6F4318F423FF6B6AEC7E7002A47D1C5
:10671000B4F84400B4F846504FF6E751884235D9F2
:106720008D4242D9052B3FF452AE274D0527002656
:106730000FCD84F8417084F8C060A8E80F0095E898
:106740000F0088E80F00236DD80734D4E26C04EB07
:10675000630090472046FEF78BFC94F8402036E615
:106760005B10E158E26CE0188A58DCE54FEA6E00F5
:1067700050F80C20DCF84C306044D35827E77810F0
:106780002A58DEF870352844D35851E74FF6F431D3
:1067900088420AD8042B3FF41AAE0D4D0427C6E7F1
:1067A000B4F84200B4F84450B6E74FF6F4318D42E5
:1067B0003FF60DAEEEE75B10E158E26CE0188A5848
:1067C000C7E700BF94090020E49C0008B80E002031
:1067D000C49C00082DE9F84F074600F5987001F0B9
:1067E00057F907F59A7001F0EDF907F59C7001F083
:1067F0000BF8D04A3B46116807F1080801311160D7
:10680000002223F8022B9845FAD107F110094346DC
:10681000002223F8022B9945FAD107F2611B5B464F
:1068200007F2651A002203F8012B5345FAD1C24D35
:1068300087F8562107F2431640F2FF3E07F24F1445
:106840002B4607CB3346B26030607160002213F8EC
:10685000011B0A44A34292B2F9D1AB89E989934260
:1068600033D0B64B103D9D420EF1FF3EE8D10023E0
:10687000A7F8503187F8403187F8413187F8423125
:1068800087F84E31AE484FF4005102F06DFF40B929
:1068900097F84E31384683F0010387F84E31FEF702
:1068A0004FFC3846FEF77EFF3846002197F841211D
:1068B000FFF7C8FC3846012197F84221FFF7C2FCD8
:1068C000002387F85731BDE8F88F7145C9D197F893
:1068D000451197F8433197F844010EF1010E082253
:1068E00087F84211A7F850E187F8403187F8410155
:1068F00007F5A371002A53D1023BDBB2012BC1D8AB
:106900004FF4807328F8023BC145F9D100230BF8FE
:10691000013BD345FAD18B4C994604F22455B84635
:1069200098F8583104EB090A1B02AAF8423094F88F
:106930004110844B0A1FD2B2012A93F840207AD921
:10694000A16E804BC8073CD5491051F803E05E6E3C
:10695000C8185EF806307C49984798F85C21794B56
:106960001202AAF8662594F865150A1FD2B2012A08
:1069700093F8642529D9D4F88C357249D8071BD5EA
:106980005B10D1F88815EE58E818765809F102091D
:106990006E49B047B9F1080F08F10108C0D171E79D
:1069A00007F5AC7003F09EF897F84031023BDBB27C
:1069B000012B3FF667AFA3E7D1F8886505EB6300CD
:1069C000E4E703EB61005B6EC5E7002A40F0C68098
:1069D000B3F86805B3F86A354FF6E756B04262D9A6
:1069E000B34240F208810529C5D0DFF858C1DFF86D
:1069F00064E10CF5AE66BEE80F000FC69EE80F001E
:106A0000D4F874E54FF0050B4FF0000A1EF0010FAB
:106A100086E80F0084F865B584F8E4A540F00A81A3
:106A2000DCF8703505EB6E0098474948FEF720FB0F
:106A300094F864259FE7002A40F0D880B3F844001A
:106A4000B3F846304FF6E756B04240F28C80B3427E
:106A500040F2D78005293FF473AFDFF8E8C0DFF8D4
:106A6000F4E00CF14C06BEE80F000FC69EE80F00E4
:106A7000D4F850E04FF0050B86E80F001EF0010F30
:106A80004FF0000384F841B084F8C03040F0C98072
:106A9000DCF84C300CEB6E0098472A48FEF7E8FA19
:106AA00094F840204CE74FF6F436B04200F2A38051
:106AB00004293FF460AFDFF88CC0DFF89CE00CF5F0
:106AC000AE66BEE80F000FC69EE80F00D4F874E56E
:106AD0004FF0040B4FF0000A1EF0010F86E80F0084
:106AE00084F865B584F8E4A500F096804FEA6E005E
:106AF0002A58DCF870352844D358984794F865151F
:106B0000104B0A1FD2B2012A93F8642540F29F80ED
:106B1000D4F88C350B49DE0740F194805B10D1F836
:106B20008815EE58E81876580849B04794F8642557
:106B300021E700BFDC130020F0FF0108F0BF0108CF
:106B40000010014094090020D6090020FA0E002010
:106B5000B80E0020E49C0008C49C0008B3F8660549
:106B6000B3F8683538E74FF6F436B04249D804290F
:106B70003FF4E6AEDFF858C2DFF860E20CF14C06F5
:106B8000BEE80F000FC69EE80F00D4F850E04FF0AB
:106B9000040B86E80F001EF0010F4FF0000384F88D
:106BA00041B084F8C03032D04FEA6E0050F80C206B
:106BB000DCF84C306044D358984794F84110844B2B
:106BC0000A1FD2B2012A93F8402079D9A16E804BD6
:106BD000CE0771D5491051F803E05E6EC8185EF813
:106BE00006307C49984794F84020A9E6B3F8420063
:106BF000B3F8443026E74FF6F43083423FF6BBAE9D
:106C000056E74FF6F43083423FF69AAEAFE70CEB0F
:106C10006E00DCF84C30CFE7DCF8703505EB6E0029
:106C20006BE74FEA6E0050F80C20DCF84C30604403
:106C3000D35831E74FEA6E002A58DCF87035284403
:106C4000D358F1E6D1F8886505EB63006CE7002ABC
:106C500040F08E80B3F86805B3F86A354FF6E75612
:106C6000B04269D9B3426BD905293FF451AFDFF87F
:106C700060C1DFF86CE10CF5AE66BEE80F000FC630
:106C80009EE80F00D4F874E54FF0050B4FF0000AB2
:106C90001EF0010F86E80F0084F865B584F8E4A5BE
:106CA00042D1DCF8703505EB6E0098474A48FEF794
:106CB000DFF994F864252BE703EB61005B6E90E746
:106CC000002A7FD1B3F84400B3F846304FF6E756B8
:106CD000B0425BD9B3425DD905293FF477AFDFF805
:106CE000F0C0DFF8FCE00CF14C06BEE80F000FC668
:106CF0009EE80F00D4F850E04FF0050B86E80F0037
:106D00001EF0010F4FF0000384F841B084F8C0304A
:106D100033D1DCF84C300CEB6E0098472C48FEF772
:106D2000A7F994F8402051E74FEA6E002A58DCF8A2
:106D300070352844D358B8E74FF6F436B04204D93A
:106D40004FF6F43083423FF6E3AE04293FF4E0AE61
:106D5000DFF87CC0DFF884E00CF5AE66BEE80F001B
:106D60000FC69EE80F004FF0040BD4F874E58DE7D2
:106D7000B3F86605B3F8683570E74FEA6E0050F86F
:106D80000C20DCF84C306044D358C6E74FF6F4369C
:106D9000B04204D94FF6F43083423FF617AF0429CE
:106DA0003FF414AFDFF828C0DFF830E00CF14C06F8
:106DB000BEE80F000FC69EE80F004FF0040BD4F89A
:106DC00050E09BE7B3F84200B3F844307EE700BFE1
:106DD00094090020D6090020B80E0020C49C0008A9
:106DE000E49C00084B882DE9F0470446032B06D8A5
:106DF000DFE803F0290C0702002380F82130BDE80A
:106E0000F087002380F82030BDE8F08790F840310B
:106E10004968032B0CBF90F8422190F84121B1F54D
:106E2000167F3ADC032A02F1010202F0030288BF56
:106E30000432991E2046C9B2FFF704FA2046BDE885
:106E4000F047FEF77DB94B68B3F5167F29DC90F863
:106E50004031012B40F2EC8003F00103C3F1030346
:106E600080F8403100F1100100F108034FF4807206
:106E700023F8022B9942F9D104F2611304F265114F
:106E8000002203F8012B8B42FAD12046FEF78AFC40
:106E90002046BDE8F047FEF753B9043202F007027E
:106EA000C7E790F84231DFF8608390F84011D14D88
:106EB00018F813C00231BCF1020795F8C02001F0A8
:106EC0000301D7F1000980F8401180F8413185F8BD
:106ED00041C059EB07097AB9B9F1000F0CD0C5F8D8
:106EE0004C21C5F8482105F1C80305F5A47100221D
:106EF00043F8042B8B42FAD1BF4FDFF8F8A207EB1F
:106F00004C1E0AF14C06BEE80F000FC69EE80F00AB
:106F1000BCF1020F85F8C09086E80F0011D0DAF8B6
:106F20005000C60700F18980DAF84C300AEB6000A7
:106F3000984795F84130AF491A1FD2B2012A40F262
:106F4000CC8095F84020A86EAA4BC10740F18680FE
:106F50004010C658596E18447358A849984794F879
:106F6000412195F8E43508EB420898F801E0A14981
:106F7000BEF1020CDCF1000885F865E558EB0C0861
:106F80007BB9B8F1000F0CD0C1F87036C1F86C367F
:106F900001F2EC5301F26C61002243F8042B8B42A6
:106FA000FAD1DFF850C207EB4E170CF5AE660FCFE3
:106FB0000FC697E80F00BEF1020F85F8E48586E85A
:106FC0000F0000F0BE80DCF87405C6073DD40CF25B
:106FD0002456DCF8703506EB6000984795F8653567
:106FE00084491A1FD2B2012A41D995F86425D5F8EF
:106FF0008C05804BC10735D540103158D3F8883502
:107000003044CB587E49984704F1080304F110013D
:107010004FF4807223F8022B9942F9D104F26113E4
:1070200004F26511002203F8012B8B42FAD12CE700
:10703000C3F1010380F8403127E7401050F80A20DF
:10704000DAF84C305044D35872E740100CF2245612
:107050003258DCF870353044D358BEE703EB60009B
:107060005B6E7AE7D3F8883506EB6000CAE791F8E3
:107070006425002A40F09B80B1F86805B1F86A7574
:107080004FF6E75188427BD98F4240F29B80052B17
:10709000ADD0DFF860C1DFF874E10CF5AE67BEE893
:1070A0000F000FC79EE80F00D5F874E54FF00509F3
:1070B0004FF000081EF0010F87E80F0085F8659576
:1070C00085F8E48540F08D80DCF8703506EB6E00C5
:1070D00098474C48FDF7CCFF87E791F84020002AFD
:1070E00049D1B1F84400B1F846604FF6E751884203
:1070F0002AD98E4260D9052B3FF425AFDFF8F4C0C2
:10710000DFF808E10CF14C06BEE80F000FC69EE860
:107110000F00D5F850E04FF0050A4FF000091EF0BF
:10712000010F86E80F0085F841A085F8C0904FD187
:10713000DCF84C300CEB6E0098472E48FDF798FFBA
:10714000FFE60CF2245650E74FF6F431884233D86C
:10715000042B3FF4F8AEDFF89CC0DFF8B4E00CF18C
:107160004C06BEE80F000FC69EE80F004FF0040A61
:10717000D5F850E0D1E7B1F84200B1F84460B4E787
:107180004FF6F43188421DD8042B3FF430AFDFF8BE
:1071900064C0DFF87CE00CF5AE67BEE80F000FC7F7
:1071A0009EE80F004FF00409D5F874E580E7B1F8C8
:1071B0006605B1F8687563E74FF6F4318E423FF625
:1071C000C2AEC5E74FF6F4318F423FF610AFDBE7B2
:1071D0004FEA6E0050F80C20DCF84C306044D35875
:1071E000AAE74FEA6E003258DCF870353044D358C5
:1071F0006EE700BF94090020449C0008D6090020D7
:10720000FA0E0020B80E00205C690108E49C00081A
:10721000C49C00082DE9F84390F8403106460C461E
:10722000032B7DD8DFE803F0AA7E02024888023BE8
:10723000C1B201EB8307FFB2374497F85881626807
:10724000BA4DA8EB22281FFA88F81FFA88FC40F2F2
:1072500024591CF4004F09FB035596F84E311CBF0E
:10726000C8F1000C1FFA8CFC43B1304490F8613136
:1072700023B90FFA8CFCBCF1020F51DC95F84130B8
:1072800005EB4101181FC0B20128A1F8422095F872
:10729000402031D8002A00F04081B5F84210B5F8FE
:1072A00044E04FF6E750814240F2C481864540F207
:1072B000EE81052B20D0DFF884C24FF005094FF096
:1072C000000805F14C0EBCE80F0085F8419085F8E8
:1072D000C080AEE80F009CE80F008EE80F002B6D19
:1072E000DA0700F1E381EA6C05EB6300904728467A
:1072F000FDF7BEFE95F84020A86EC30777D5401075
:1073000029586B6E2844CB5805F1420198476368B1
:1073100001221B1287F8583163881E4486F86121C8
:10732000BDE8F8834B88814D012B40F29B8095F896
:107330006515023B081F6268DBB2C0B205EB430370
:107340000128A3F8662595F8642540F2368105F2F8
:107350002457D5F88C05754BC1073FD540103958D7
:10736000D3F888353844CB587149984762886368A8
:1073700016441B1286F85831BDE8F8836B4D8878A7
:1073800095F841304A68191FC9B205EB4000012940
:10739000A0F8422095F840202DD9A86E634BC7076E
:1073A00021D54010C758596E18447B5861499847F9
:1073B00095F86535A078191F6268C9B25B4F05EB77
:1073C00040000129A0F8662597F8642563D9D5F80F
:1073D0008C0507F22457C107544BBFD4D3F8883526
:1073E00007EB6000C0E703EB60005B6EDEE705EBD8
:1073F00060006B6E88E7002A00F08580B5F84200D7
:10740000B5F844704FF6E751884240F2FC808F4255
:1074100040F22181052BC0D0DFF810C1DFF81CE15C
:107420000CF14C07BEE80F000FC79EE80F00D5F81F
:1074300050E04FF005094FF000081EF0010F87E8FB
:107440000F0085F8419085F8C08040F02681DCF877
:107450004C300CEB6E0098473448FDF709FE95F868
:1074600040209AE74A6895F8411005EB4303081F4E
:10747000C0B20128A3F8422095F8402060D9A86E38
:107480002A4BC5074ED54010C558596E18446B5845
:10749000284998476AE7DAB3B7F86605B7F8687518
:1074A0004FF6E751884240F298808F4240F2CE80FA
:1074B000052B00F08080DFF874C0DFF880E00CF569
:1074C000AE67BEE80F000FC79EE80F00D5F874E561
:1074D0004FF005094FF000081EF0010F87E80F007C
:1074E00085F8659585F8E48540F0C7800CF224574F
:1074F000DCF8703507EB6E0098470F48FDF7B8FDD4
:1075000095F8642525E7B5F84400B5F8467079E7A5
:10751000B7F86805B7F86A75C2E7B5F84410B5F86A
:1075200046E0BEE603EB60005B6EB1E79409002025
:10753000FA0E0020D6090020B80E0020E49C0008B6
:10754000002A40F0D080B5F84430B5F846704FF6C8
:10755000E750834240F2B080874240F2C98005295B
:107560008DD0DFF8ACC1DFF8B0E10CF14C07BEE81C
:107570000F000FC79EE80F00D5F850E04FF0050947
:107580004FF000081EF0010F87E80F0085F84190CA
:1075900085F8C08040F0B280DCF84C300CEB6E0017
:1075A00098475B48FDF764FD95F8402067E74FF684
:1075B000F4339F4259D9574FCBE6002A58D1B5F83A
:1075C0006805B5F86A754FF6E753984249D99F4266
:1075D000EDD905297FF46FAFEDE74FF6F43188421E
:1075E00034D8042BE7D0DFF828C1DFF830E10CF500
:1075F000AE67BEE80F000FC79EE80F004FF004090A
:10760000D5F874E566E74FF6F431884223D8042BA9
:107610003FF4C3AEDFF8F8C0DFF800E10CF14C072F
:10762000BEE80F000FC79EE80F004FF00409D5F821
:1076300050E000E74FF6F430814228D8042B3FF4A5
:107640005BAEDFF8D8C04FF0040938E64FF6F431EE
:107650008F42C6D9AFE74FF6F4318F423FF69DAE69
:10766000D5E74FF6F4339842A1D80429BBD1A2E75D
:10767000B5F86605B5F86875A5E74FEA6E000CF237
:1076800024573A58DCF870353844D35834E74FF66D
:10769000F4318E453FF630AED0E74FEA6E0050F839
:1076A0000C20DCF84C306044D358D4E65B10E95829
:1076B000EA6CE8188A5819E64FF6F430834217D876
:1076C00004293FF4DCAEDFF848C0DFF850E00CF1ED
:1076D0004C07BEE80F000FC79EE80F004FF00409EB
:1076E000D5F850E04CE7B5F84230B5F844702EE7D5
:1076F0004FF6F4339F423FF6C2AEE1E74FEA6E0029
:1077000050F80C20DCF84C306044D35848E700BFF8
:1077100094090020B80E0020E49C0008C49C0008D6
:107720002DE9F041804682B000F59B7704460026A3
:107730002288238937F8025F99188D42C3EB020231
:1077400002DA954200DD4BB940466946ADF8026069
:107750000195FFF75FFD4023258023810136042E2C
:1077600004F10204E4D102B0BDE8F08130B5D0F8F4
:107770002C21D0F8283183B0D31ADA06044618BF7A
:107780006D4608D12AE022B3D4F82C21D4F8283150
:10779000D31ADB0622D0D4F8283104EBC3022832F6
:1077A00092E8030085E803009DF80020013303F010
:1077B0001F03042AC4F82831E5D1019BCBB9BDF8D9
:1077C0000230022B1AD0032BDED1012384F82130A2
:1077D000DAE720466946FFF71DFDD5E7094B626AE7
:1077E00019688A1AB2F57A7F01D91B68636203B0FF
:1077F00030BD20466946FFF7F5FAC5E7012384F856
:107800002030C1E7DC1300202DE9F04393B00124C0
:1078100000250F2301A907463C48ADF804308DF838
:1078200006408DF80750DFF8F09001F043FF38482C
:1078300001F0E8FD04264FF4807C4FF4806E202296
:107840004FF40053324807A94FF08008CDF834C0F8
:10785000CDF838E00F921093089709950B95119584
:10786000CDF81C900A96CDF8308001F04BFE2146F1
:10787000274801F067FE274801F0EAFC4FF4602238
:107880004FF40063234802A90492059302958DF8F2
:107890000C408DF80D408DF8186001F00FFD224668
:1078A0001C480321072301F05FFD02210A46194805
:1078B000072301F059FD214616480322072301F052
:1078C00053FD294632461348072301F04DFD114868
:1078D000214601F017FD0F4801F028FD0D4801F089
:1078E0002BFD0028FAD10B4801F02AFD094801F0D0
:1078F0002DFD0028FAD10748012101F00DFD0548B2
:10790000012101F027FD13B0BDE8F083000801401C
:1079100008000240002401404C240140F0B5224EF2
:1079200087B00746694630464FF48052032410233F
:107930001E4DADF800208DF802408DF8033001F0A7
:10794000B9FE304669464FF4204218238DF80240B4
:10795000ADF8002000248DF80330022601F0AAFEC5
:107960004FF4827C4FF4006E4FF4007207232846D8
:1079700001A9ADF806C0ADF808E0ADF80E20ADF8ED
:107980001430ADF80440ADF80C40ADF81040ADF83F
:107990001240ADF80A6001F065FF2846012101F0B0
:1079A00081FF3C7107B0F0BD000C01400038004081
:1079B00010B54FF480510446154801F0DFFE14481D
:1079C0004FF4805101F0DCFE237983B12188114806
:1079D000091241F4105101F073FF21880D4809028A
:1079E00001F47F4101F06CFF0023237110BD618819
:1079F0000848091241F4805101F062FF618805488E
:107A0000090201F47F4101F05BFF0123237110BDE6
:107A1000000C01400038004070B582B0064601A954
:107A20004FF48053012548240C48ADF804308DF8FC
:107A300006508DF8074001F03DFE4FF4006301A9A8
:107A40000748ADF804308DF806508DF8074001F076
:107A500031FE0023337002B070BD00BF000801404A
:107A6000000C014010B5084801F084FE80F4006469
:107A7000064801F07FFE10F4805FC4F3C0240CBF01
:107A800010200020204310BD000C014000080140E0
:107A9000F0B52D4E89B001256946F02310272B48FB
:107AA0002B4CADF800308DF803708DF8025001F0CA
:107AB00001FE694630464FF480638DF80370ADF8DF
:107AC00000308DF8025001F0F5FD03226946304682
:107AD0001823ADF80020002608278DF803308DF814
:107AE000025001F0E7FD3F232046ADF80830ADF825
:107AF0000470ADF80A60ADF806608DF80C6001F016
:107B00009BFF204601A901F0DDFE6023204604A969
:107B1000ADF81030ADF81250ADF81660ADF8186041
:107B200001F0F4FE2046394601F08EFF204604A9FC
:107B300001F034FF2046394601F08EFF20462946E9
:107B400001F062FF09B0F0BD000C014000080140E7
:107B50000004004038B5194DC1780446890828460C
:107B600001F084FFA1782846890801F081FF62783E
:107B700013484FF4806101F005FE227805F5823547
:107B8000284602F00102102101F0FCFD227828466F
:107B900002F00202202101F0F5FD2278284602F0D1
:107BA0000402402101F0EEFD2278284602F008028E
:107BB0008021BDE8384001F0E5BD00BF0004004071
:107BC000000C014030B5042283B0FF2101F0F0FF2A
:107BD0000125482401A910231148ADF804308DF87F
:107BE00006508DF8074001F065FD01A94FF4807340
:107BF0000C48ADF804308DF806508DF8074001F0C0
:107C000059FD4FF4C04301A907488DF806508DF87F
:107C10000740ADF8043001F04DFD03B030BD00BFAA
:107C2000000C01400008014000100140F8B510218F
:107C30000446C578134801F097FD6D00EDB2284366
:107C4000E0704FF480711048A77801F08DFD7F003F
:107C50000E4DFFB23843A0704FF4005128462678ED
:107C600001F082FD7600F6B26378304320704FF465
:107C7000804128465D0001F077FDEDB22843607039
:107C8000F8BD00BF000C0140000801400010014099
:107C900030B5144685B00D4601F012FA2CB14FF004
:107CA00000604FF4804101F0C9FA44F61D20012123
:107CB00001F0B4FD44F20200012101F0BBFD0120FE
:107CC000014601F09FFD0121174801F061FD4FF4CD
:107CD000404001F08DFD00241448ADF80850ADF887
:107CE0000440ADF80A40ADF806408DF80C4001F0B4
:107CF000A3FE01A90D4801F0E5FD01210B4801F0AB
:107D000083FE4FF4A06001F057FA19220123684660
:107D10008DF801408DF802408DF800208DF8033079
:107D200001F054FA05B030BD00013000002C0140D4
:107D300070B4084B084A0948F0265A60002580F8BC
:107D40002360072401219D600A461C60044870BC22
:107D500001F068BE10E000E03F19010000ED00E016
:107D6000002C01402DE9F047002540F6FD76044641
:107D700005608560C5604561C56105628562056312
:107D8000456346608661C6623C3000F06FFA40F69B
:107D90000C5A01234FF030094FF440684FF0C00CEB
:107DA0004FF4786747F281704FF44851FF22256005
:107DB000E6626566C4F804A0C4F81490C4F818809C
:107DC000C4F828C0E765A4F840002166626484F81E
:107DD000583084F83C30BDE8F08700BF00224FF0F7
:107DE000FF33426102828361C36170472DE9F0076E
:107DF0008B1307783E4D3F4C1B01002F0CBF2F46C5
:107E0000274603F1100903F1080803F1180C890053
:107E1000B944B844BC4483B01F4489B20023FE5A1D
:107E200038F8035039F803403CF803A0A41BC5EB15
:107E30000A0A01FB04F401FB0AFA06EB244405EBF1
:107E40002A45A4B2ADB22D1B02FB05F504EB254477
:107E50002DF803400233082BE1D1BDF80030B3F513
:107E6000804F2CD84FF480624280BDF80420BDF8CA
:107E7000021003EBC3039D09541089109210BDF842
:107E8000063002F5005201EB410105F54065C1F3F2
:107E90008D0104F5804442811A048580C1800481EB
:107EA00016D4C3F5FF437F3303FB03F30022C3F370
:107EB0008F338281C38103B0BDE8F0077047B3F50B
:107EC000004F9ABF1A11C2F5006200224280CCE72F
:107ED000A3F5004303FB03F3C3F34D4303EB830319
:107EE00083810023C38103B0BDE8F007704700BF62
:107EF000BC6901086C6901082DE9F04F0789064645
:107F0000924C4589381200F101082B1254F82000D8
:107F100054F8288003F1010CC8EB000854F8233012
:107F2000FFB254F82C4089B007FB08F907931C1BDB
:107F3000EDB2736A05FB04FC0693B389A0EB192923
:107F400007980493F389A0EB1C2CCDF80C9077696B
:107F5000D6F81880F569346A05938A469346CDF8B9
:107F60001CC04FF00709C6E0F788DDF81C80C7EB9E
:107F70008737774C3F140025764B9C4298BF4FF0D3
:107F8000FF3419F0030F38D1734B4FEA1862A3F195
:107F9000020C3CF8121033F81200220E33F81230A3
:107FA0003CF81220401AC8F30F2E0EFB00F09B1A6B
:107FB000C4F30F2E0EFB03F301EB104102EB13424F
:107FC00089B2F08892B2C1F57F41FF31C2F57F439B
:107FD000B6F802C000FB01F2FF33B6F910E00CFB6B
:107FE00003F3B08800EBAE1000EB124202EBD3318A
:107FF00009B230460EF034FD069006985749074402
:10800000BA0D31F81230881C30F912C01AB2C2EB26
:108010000C02C7F38F1C0CFB02FC03EB2C4C049BE3
:108020001FFA8CFCCBB14E494E4B08680FFA8CFC02
:10803000CDF804C003FB00FC4B4B049863444FEAAB
:10804000234CC0F57F420CFB00F0DDF804C0FF328A
:1080500002FB0C020B604FEA124C039AAD1861D27E
:10806000290E49008A1CC5F30F2340480FFA8CFCE7
:10807000415A825A521A03FB02F201EB12439BB29D
:10808000C3F57F43FF330CFB03F305991B0C09B3C6
:108090001BB2190401F10041DFF8D4C0880D3CF88F
:1080A00010200CF1020C3CF9100089090FFA82FC37
:1080B000CCEB000089B201FB00F002EB20420598F6
:1080C00012B202FB00F2C0F57F4C0CF1FF0C0CFB6E
:1080D00003231B0CDBF8242009F1FF39511C5FFA44
:1080E00089F901F00F01B9F1FF0F33822BF812303B
:1080F000CBF824101FD0DAF810305A1C1AF80330CD
:1081000002F00F029B07CAF810203FF52DAF079A27
:1081100004F1441418EB020804F5884428BF4FF01A
:10812000FF3829E74FF6FF734FF400724FF4FF71E9
:108130004FF0FF3599E7069B7761C6F81880F56127
:108140003462736209B0BDE8F08F00BFAC3B010838
:108150004444440043444400B6470108BC4B010872
:10816000100600200D6619005FF36E3CB44701084D
:10817000C859010838B50446012500F077F84FF4D6
:10818000525245F6C0536280A38004F1200025704E
:10819000257700F06BF800234FF45C50022140F685
:1081A000FD7284F82050608484F83C106264A384DB
:1081B0002364A364E36438BD2DE9F8433022044608
:1081C000002340F6FD714FF4C0664FF440654FF454
:1081D000966021642360A360E360E361236223630C
:1081E0006363E3636364A3646261A2626660A56122
:1081F000E06204F1500000F039F804F1700000F082
:1082000035F804F1900000F031F84FF4FA690123D9
:1082100045F2F0524FF4844847F2485C46F6843702
:1082200040F6FE764FF4D0554FF400504FF44851CD
:10823000A4F89490A4F8B880A4F854C0A4F874707A
:108240002664A4F85250A4F87200A4F8921084F89E
:10825000AC3084F8503084F8703084F89030C4F832
:10826000B020C4F8B420BDE8F88300BF002310B4E8
:1082700001224FF484544FF4804144808180436153
:1082800083618360027002775DF8044B704700BF22
:10829000D0F8A020F0B42D4C930D34F81310023414
:1082A00034F913400BB2E41AC2F38F1303FB04F446
:1082B000B0F9043001EB244189B2002B8CB224DDEB
:1082C000C3EB4310C3EBC020C01324B200F5006021
:1082D00000FB04F01E4E00F10040850D36F815201D
:1082E000023636F9156015B2751BC0F38F1000FB0E
:1082F00005F002EB204212B2141B03FB04F3F0BCA6
:1083000001EBE33188B200B2704712F1804254BFF2
:1083100052006FEA42020F4F960D37F8165002379F
:1083200037F9166028B2301AC2F38F1202FB00F23E
:1083300005EB22452DB224B22C1B5B4203FB04F358
:10834000F0BC01EBE33188B200B27047BC4B0108CE
:10835000C49D0008B03F01088388B0F8B82030B44D
:10836000934233D0A3F5004292B2012A31D94FF0A3
:108370000061C2F5803591FBF2F491FBF5F1C0F894
:10838000B440C0F8B0101204C0F8AC20A0F8B83067
:10839000D0F8A030934210D2D0F8B4201B0B02FBCF
:1083A00003F330BCD80B002BB6BFC0F5FF40A0F5DF
:1083B00000407F3080B200B270479B1AD0F8B010F6
:1083C0001B0B01FB03F303F10043EAE7D0F8AC20F9
:1083D000DEE74FF000644FF40061C0F8B440C0F82D
:1083E000B010D0E7B0F90420D0F8A43002F5004274
:1083F00012045B009A4204D3D1438B428CBFDB430F
:108400001346D0F8A00048F2010147F6FF728342FC
:1084100094BF0846104600B2704700BFB0F9043060
:10842000D0F8A02003F50043C3EB03131B14023361
:108430009BB24FF6FF70002A03F1FF3190FBF1F180
:10844000ACBF50006FEA4200000C03FB00F089B2A1
:10845000000C00FB01F0A0F5004000B2704700BF27
:10846000D0F8A020D0F8A410F0B48A42D0F8BC50C4
:10847000D0F8C0302AD31C462B46E41A550C05FB15
:1084800004F5B0F90410ED13002905EB03002BDB14
:108490001B4E170EB51C35F817C036F81750C2F32F
:1084A0000F22C5EB0C0602FB06F205EB1245C5F3E5
:1084B0004E0505FB04F403EBE4331B1A01FB03F147
:1084C000F0BC00EBE13080B200B270470D4D0E4EB3
:1084D0002C680E4906FB04F421440C14C0F8BC308F
:1084E0002960C0F8C040C8E701F5FF417F3101FBBA
:1084F00005F1F0BC03EBE13398B200B2704700BF66
:1085000050630108100600200D6619005FF36E3CF1
:108510000E4910B4002347F6FF72022403808380C3
:1085200083600374C0F89C30C0F898308470416157
:10853000A0F8B820C26000F118039830002243F878
:10854000042B9842FAD15DF8044B704700DC05001B
:10855000090A074BC1EBC101091210B403EB8104F6
:1085600033F821206388827083805DF8044B704764
:108570000C6A01082DE9F04F037C85B0044689465A
:10858000904683B90288664B1112481C53F82000AC
:1085900053F82130D2B2C11A491002FB01F203EBA9
:1085A000E213C4F8A430DFF87CA14FF0080B24E0FC
:1085B000D4F8A010D4F8A420A3780A440AEBC3018D
:1085C0004868C4F8A020C107564A43D452F8333053
:1085D00004EB60009847E268D8F8243002FB00F012
:1085E000591C0BF1FF3BC21301F00F011BF0FF0BF5
:1085F00028F81320C8F8241039D06769D9F810304A
:108600000137676119F80320013303F00F03900766
:10861000C9F81030CCD5237C2BB3434B9F4220D8D4
:10862000B7F5F06F26D2D4F8A830002103EB43024F
:108630001744BF089F426FD04FF0FF32B2FBF7F2F2
:10864000C4F8A870C4F8A4200023636169B9D4F801
:10865000A010B1E7401052F8333022582044D358CC
:10866000B8E700236361D4F8A420A168A4E705B0AB
:10867000BDE8F08FD4F898200023019304EB820327
:1086800002929F6102F1400C02F120064FF0000EB1
:1086900001200397C7B263460025191A03F01F0291
:1086A00001F01F0104EB810104EB820292698969E8
:1086B000013B511A0029B8BF4942B1EB121F3CBF20
:1086C0000135EDB2B342E8D1AE4500F101009CBFE7
:1086D0000197AE460828DDD1029A019B511C01F09A
:1086E0001F01039FCA1AD4F89C3002F01F02FB1A24
:1086F00004EB82029269002BB8BF5B42B3EB171FF9
:10870000D4F8A83038BF17469F42C4F89810C4F870
:108710009C204FF001018FD1D4F8A42094E700BF32
:10872000C4550108BC050020FFDB0500F0B40023A0
:10873000032502244FF480474FF4005647F6FF719B
:1087400001228780468205870585448780F820407E
:108750000380C3800382C3878387036343634385A6
:10876000838580F840304180818280F8212080F824
:108770002220F0BC704700BF01F002032DE9F00396
:1087800003F0FF05002B45D0078FB0F92830BB421E
:1087900003D090F84030002B7DD004880023468F12
:1087A0001A464485038503639C461D464FF0020824
:1087B0004FF00109002E3ED19F4240D003F1080145
:1087C00030F811603A49361251F82660034493F8A4
:1087D0002010384B023153F8211030F9197031F85C
:1087E0000C3031F808C021B2C3EB0C0C02FB0CF2C8
:1087F00003EB1243791AC3F34E0303FB01F304EBBB
:10880000E334A4B2354446630563848520B2BDE8F1
:10881000F00370474C07468F13D596B1B7B2848DDD
:108820003BB20785078F2A46056303F10109AC4671
:1088300044854FF002089E42BED1C907BCD5002630
:10884000C4E7056B436B9D4216D2058DC78F2BB2D3
:1088500001350133ADB230F813402BB20022BB42D8
:1088600044850585026318D094461546078F03F1A9
:1088700001094FF002089DE74FEA156CB0F9283066
:108880004FEA4C0C0CF1020803F10109078F448DEB
:10889000C5F30F228EE7848D80E7858F078F2BB27B
:1088A000058503F10109944615464FF0020881E75A
:1088B000AC3B01089805002070B5002504460585ED
:1088C00085613C30FFF7D2FC01264FF470524FF423
:1088D0007A53E287A4F8403084F8585084F83C601A
:1088E00004F15C00FFF7C2FC4FF40C514FF4FA5254
:1088F000022384F85C6025636563A4F85E10A4F825
:10890000602084F8783070BD2DE9F04F044690F86F
:10891000380087B00D461646002800F0E4816388D1
:108920000593DFF84093C549D9F80020C44B01FBFB
:1089300002F162690B4419149142C9F8003040F306
:10894000CD81891A02EB6132626104F13C0704F1C6
:108950005C0C02230197CDF808C00393D9F80010EE
:108960004FF004082B695A1CEB5C02F00F022A61DD
:108970009A0722D5B14FB24A07FB01F1A7880A44F2
:10898000110C8F420ED9C1F38701002800F04A81F3
:10899000AC4FA7FB01C7FF0807EB8707A1EB470117
:1089A000C9B22174002800F03881A74F94F810E074
:1089B000114657F82E201204A261DB0740F11E81F8
:1089C000228D13B2C3F5FF437F3302EBA31323853C
:1089D00008F1FF3818F0FF08C4D1C9F800100028CA
:1089E00000F04481217C984B0131A26953F8211099
:1089F000130C8B4280F06B81944803EB430103EB33
:108A00008101C71803EB810197F801E0C9B2C35C8B
:108A100001F135078EEA07004B40C0B2C11A1FFAB8
:108A200082F808FB01F84FEA282808EB0328A8F58C
:108A3000E04383F4AB63059F83F00203A8F500488D
:108A40003A440121C3EB0803D4F82CE0A26104935B
:108A500084F83910D9F80030784A794902FB03F3D9
:108A6000E76919447A4B606A7A4A4FEA214C3B44E1
:108A7000C9F8001078490244D4F80CA0980D31F8D8
:108A800010104FEAEA1BCBF5FF4B00917349CEEB78
:108A90000C070BF17F0B0EEBA71731F810004FEA14
:108AA000925E0239DC4531F81EE0E7626262E36102
:108AB000A26880F2C180009900B20FFA81FCCCEB71
:108AC0000000C3F38F1303FB00F30FFA8EFE01EBDC
:108AD000234304990EFB02FE1BB201FB02F003FBD1
:108AE00007F34FEAAE4E08EBE0380EEB2333C8EB4A
:108AF00003000AFB00F008EBE030594F6169236A7C
:108B000007FB01F11F4407EBA121DFF84CC18F0DDA
:108B10003CF817300CF1020C3CF917E01FB2C7EB20
:108B20000E07C1F38F1E0EFB07F703EB274343F33A
:108B30004E0300FB03F3DB1303FB02F200EBE23016
:108B400010F5004F216271DDB0F5004FC0F2E080FA
:108B50004FF680714FF4906240F27E43DFF808E1F7
:108B600002983EF803303EF902701AB2BF1A01FBB8
:108B700007F7226B03EB27473FB2B91849100DF0F6
:108B800077FF014601980DF073FF716A626B03462F
:108B90000244481C521000F00F0026F811207062A9
:108BA000726A3946501C00F00F0026F812307062CD
:108BB000636302980DF05CFF014601980DF058FFC9
:108BC000726A636B511C03445B1001F00F0126F8BD
:108BD00012307162726ADDF80CC0511C0CF1FF3367
:108BE00001F00F0113F0FF0326F8120003937162E6
:108BF0002763606313D094F83800AFE6238D43F306
:108C000089129B1A9AB293B21FB23F2F03DC13B1A1
:108C1000013A2285DCE62385DAE61146CDE607B087
:108C2000BDE8F08F01F003012174BBE680214FF411
:108C3000607340F2823291E700205EE70D66190012
:108C40005FF36E3CCDCCCCCCE4050020CCA7000873
:108C50007D3F350E0C49532ABC4B0108BE4B010821
:108C6000F2D24D0210060020C49D0008A269D4F87B
:108C70002CE0059B02EB8E221A442A4F900D37F808
:108C8000103007F1020C3CF9108018B2C0EB080854
:108C9000C2F38F1000FB08F8B4F9281003EB284842
:108CA0000FFA88F808FB01F84FEA284808F58053C6
:108CB00083F4AB63002983F00203D4BF00210121B8
:108CC000C3EB0803A26184F839100493C2E6164886
:108CD00084F83980D4F82CE00490BBE6511AA2EB5A
:108CE0006132626131E62288104B11124F1C53F839
:108CF000277053F82130D2B2F91A491002FB01F261
:108D0000217C03EBE2139B0101FB0331059108E693
:108D1000430303F100439A0D01329B09520099B2BB
:108D2000931E1BE7BC4B0108A6EAFFFFC4550108D0
:108D300047F6FF734FF6FF71002241800380838066
:108D4000C28000F10C0300F14C014FF6FF7223F8D2
:108D5000022B9942F9D1002303814381704700BF60
:108D60002DE9F007082391464FF000080A69013BFE
:108D70008C5C013204F0020454EA080402F00F0291
:108D80000CBF4FF000084FF0010813F0FF030A6119
:108D9000ECD1DFF868A1564CDAF80010554A04FB14
:108DA00001F144880A44B4EB124FCAF80020C0F025
:108DB0009080B8F1000F02D0038901330381DAF803
:108DC000002000F10C0300F14C0C03E023F8027CBE
:108DD000634516D033F8021B4FF6FF74A1422CD026
:108DE000434E444D4F1E0029F0D106FB02F201888C
:108DF0001544B1EB154F48D8634523F8024C2A4679
:108E0000E8D14389CAF80020002B64D0013B9BB213
:108E1000062B438169D800200823D9F82420013B80
:108E2000511C01F00F0113F0FF0329F81200C9F8DB
:108E30002410F2D1BDE8F0077047B8F1000FC7D099
:108E40002B4D2C4C05FB02F2C6881444221406FB61
:108E500002F68588284A05EB264635448D42B8BF80
:108E6000294621EAE1710D12961C32F8152036F8D8
:108E70001550C9B2AD1A01FB05F102EB212123F80F
:108E8000021C22464FF00008A2E706FB05F6194A2D
:108E9000C5883244111405FB01F58188068901EB70
:108EA00025452944A142B8BF0C46134924EAE4747D
:108EB0000136068125128E1C31F8151036F8155032
:108EC000E4B26D1A04FB05F401EB242123F8021C23
:108ED0007EE7984673E70389002B9CD0013B0C2268
:108EE000038142814FF4A04096E74FF4A04093E7FE
:108EF0000D6619005FF36E3CA839010810060020CA
:108F00000023038043808380C38000F5867100F1D5
:108F10000C0300221A805A809A80DA800833994222
:108F2000F7D10281428170472DE9F0034FF0080C20
:108F300000250B690CF1FF3CCC5C013304F002040A
:108F40002C4303F00F030CBF002501251CF0FF0C80
:108F50000B61EED1034600F58077598A002943D092
:108F60001C8ADE89A64202D9012988BFDC819E893C
:108F7000002E7AD1DE892EB1013E0CF1010CDE818A
:108F80005FFA8CFC002C73D0198A013919820833DE
:108F9000BB42E2D10389FBB163451DD20623013BED
:108FA000A0F808C04381BCF1000F06D04389002B14
:108FB00014BF4FF0000C4FF4A04C0823516A013B42
:108FC000481C00F00F0013F0FF0322F811C050629C
:108FD000F4D1BDE8F00370474389A0F808C0002B26
:108FE000E1D0013B4381DEE7002DD0D0C588334C72
:108FF00001355D820588A61C4FEA252934F81980C1
:1090000036F81990EDB2C8EB090905FB09F508EB34
:109010002525ADB29D81B0F80280002D08BF0CF16E
:10902000010C4FEA282934F8195036F819905FFAE4
:1090300088F8C5EB090908FB09F805EB2825DD814F
:10904000B0F804800D464FEA282934F8191036F894
:1090500019405FFA88F8641A08FB04F8013901EB3B
:1090600028215FFA8CFC198291E7013E9E818EE7F0
:1090700001395982B0F8028010494FEA28298E1C24
:1090800031F8194036F819905FFA88F8C4EB0909ED
:1090900008FB09F804EB2824DC8184884FEA2428A3
:1090A00031F8181036F81860E4B2761A04FB06F4AA
:1090B000013901EB2421198269E700BFA8390108B1
:1090C0003A4B10B419683A4A41F0010119605C68E2
:1090D00083B022405A601A68002122F0847222F480
:1090E00080321A601A684FF41F0022F480221A603E
:1090F0005A6822F4FE025A609860009101911A6841
:1091000042F480321A6003E0009BB3F5A06F0AD0EE
:10911000264B1B6803F400330193009B013300933B
:10912000019B002BF0D0214B1B6813F4003318BFB8
:1091300001230193019B012B00D0FEE71D4A1B4B2D
:10914000116841F010011160116821F003011160F4
:10915000116841F0020111605A685A605A685A60F9
:109160005A6842F480625A605A6822F47C125A604B
:109170005A6842F4E8125A601A6842F080721A6023
:109180000A4B1A689201FBD55A6822F003025A6012
:109190005A6842F002025A60044B5B6803F00C0309
:1091A000082BF9D103B05DF8044B70470010024062
:1091B0000000FFF80020024040F0BF60024B40F486
:1091C0000030D860704700BF00ED00E0C37830B4D5
:1091D0005BB90378012103F01F02914030BC5B09A9
:1091E000144A203342F823107047134B4478DB684D
:1091F0000F22DB43C3F30223C3F1040122FA03F37A
:109200008C408578017803EA0502224301F160432E
:109210001201D2B203F5614383F8002303780121E0
:1092200003F01F02914030BC024A5B0942F8231050
:10923000704700BF00E100E000ED00E021F0604178
:1092400021F07F01014B08439860704700ED00E07A
:1092500008B5174B984212D0164B98421BD0164BAC
:10926000984200D008BD4FF40040012100F0EEFA12
:10927000BDE808404FF40040002100F0E7BA4FF489
:109280000070012100F0E2FABDE808404FF40070E0
:10929000002100F0DBBA4FF48060012100F0D6FA23
:1092A000BDE808404FF48060002100F0CFBA00BF55
:1092B0000024014000280140003C014043680A6846
:1092C00023F4702330B423F480730C79134343EAFE
:1092D0000423436085688C68CA68094B22432B408D
:1092E0004D79134343EA450383600B7CC26A013B1B
:1092F000DBB222F4700242EA0353C36230BC70470F
:10930000FDF7F1FF836819B923F00103836070470B
:1093100043F0010383607047836819B923F48073B5
:109320008360704743F4807383607047836843F0C1
:1093300008038360704700BF8068C0F3C0007047B7
:10934000836843F004038360704700BF8068C0F304
:1093500080007047836819B923F4A00383607047C5
:1093600043F4A00383607047092970B41FD9A1F1A9
:109370000A0404EB44040726A64003FA04F4C56873
:10938000062A25EA060343EA0403C3601DD90C2A12
:1093900029D970BC0D3A02EB82021F23934001FAD7
:1093A00002F2C16A21EA03031A43C262704701EB69
:1093B00041040726A64003FA04F40569062A25EAB3
:1093C000060343EA04030361E1D870BC013A02EBEF
:1093D00082021F23934001FA02F2416B21EA030348
:1093E0001A4342637047073A02EB82021F239340FD
:1093F00070BC01FA02F2016B21EA03031A43026313
:10940000704700BF0168324A002321F001019042F9
:109410000160036043608360C36044D02D4B984279
:1094200025D02D4B984230D02C4B984234D02C4B29
:10943000984223D02B4B98423BD02B4B98420FD0D5
:109440002A4B98423CD02A4B984210D0294B984244
:109450001BD0294B98421FD0284B98420ED0704702
:1094600053F87C2C42F0706243F87C2C704753F820
:10947000182C42F0F00243F8182C704753F8542C83
:1094800042F4702243F8542C704753F82C2C42F4C9
:10949000706243F82C2C704753F8402C42F4704211
:1094A00043F8402C7047164B5A6842F00F025A603E
:1094B000704753F8682C42F4700243F8682C7047E8
:1094C00053F8042C42F00F0243F8042C704700BFFD
:1094D000080002401C0002403000024044000240EC
:1094E000580002406C000240800002400804024024
:1094F0001C0402403004024044040240580402406C
:10950000000002408A68F0B40C6A0B6914434A698F
:109510001C438B69CE69224307684D6A13438C6AEA
:109520001E43354327F4FF43CE680F684A682C4337
:1095300023F070032343036046608760C260F0BC81
:10954000704700BF036819B923F001030360704737
:1095500043F0010303607047024B0349034A59601B
:109560005A6070470020024023016745AB89EFCD68
:10957000084BDA68D1070BD4DA68520701D502200C
:109580007047DB6813F0100F0CBF042003207047F6
:10959000012070470020024010B582B00446FFF75A
:1095A000E7FF012812D1A4B1FF2300220192019309
:1095B000019B2BB1019B013B0193019B002BF9D136
:1095C000FFF7D6FF012804F1FF34ECD00CB102B054
:1095D00010BD052002B010BD38B5054640F6FF703D
:1095E000FFF7DAFF042800D038BD0B4C40F6FF70BF
:1095F000236943F0020323616561236943F040035B
:109600002361FFF7C9FF0528EED0226941F6FD73FB
:109610001340236138BD00BF0020024070B5002315
:1096200082B005460F200C460193FFF7B5FF0428D2
:1096300001D002B070BD104EA3B232690F2042F0CB
:10964000010232612B80FFF7A7FF042808D005280C
:10965000EFD0326941F6FE731340336102B070BD42
:1096600002350195019B240C1C800F20FFF794FF0D
:109670000528EED1DDE700BF0020024070B50446AA
:109680000F200D46FFF788FF042800D070BD084E5C
:109690000F20336943F0010333612580FFF77CFF1E
:1096A0000528F3D0326941F6FE731340336170BD73
:1096B00000200240F0B4CD78EB0648BF8B780988D3
:1096C00005F00F0648BF1E4311F0FF0F20D00768BA
:1096D000002302E00133082B19D001229A4002EA4C
:1096E00001049442F6D19A004FF00F0C0CFA02FCE0
:1096F00006FA02F227EA0C07282D47EA020731D0C2
:10970000482D03F1010308BF0461082BE5D1076070
:10971000FF2923D94768002302E00133082B1CD01E
:10972000012403F1080204FA02F202EA010494425D
:10973000F3D19A004FF00F0C0CFA02FC06FA02F279
:1097400027EA0C07282D47EA020709D0482D03F124
:10975000010308BF0461082BE2D14760F0BC7047E9
:109760004461DAE74461B5E7836819420CBF002021
:1097700001207047806880B2704700BF0161704768
:10978000416170470AB9416170470161704700BF8C
:1097900030B4164A00F44014B4F5401F85B2536843
:1097A0001CD0C20211D5C0F30342032404FA02F212
:1097B00023EA020343F0706319B1400D00018540B4
:1097C0002B430A4A30BC53607047420D120105FA20
:1097D00002F223EA020343F07063EDE7546823F0DA
:1097E000706324F070645460E6E700BF000001403D
:1097F000034B5A6822F4404210435860704700BF40
:1098000000100240044B5A6919B922EA000058615D
:10981000704710435861704700100240044B9A692A
:1098200019B922EA000098617047104398617047A7
:1098300000100240044BDA6919B922EA0000D8612D
:1098400070471043D861704700100240044BDA683B
:1098500019B922EA0000D86070471043D8607047F9
:1098600000100240F0B40B884C888A881C43CB88D7
:1098700014430A891C434B898F8922430588CE896A
:109880001A433A43324305F4415313439BB20380D6
:10989000838B0A8A23F400631B041B0C8383F0BCB4
:1098A00002827047038829B923F040031B041B0C74
:1098B000038070479BB243F040030380704700BFB2
:1098C00081817047038830B403F08F0303800588DB
:1098D000CA884B88ADB215431D430B4B8C880A8850
:1098E000ADB2984205808485028507D003F50063F8
:1098F000984203D030BC0123838270470B7A30BC7E
:109900000386012383827047002C0140038CF0B44E
:1099100023F480731B041B0C0384028C0D8922F436
:10992000007284881204838B120C42EA05224F884D
:1099300023F07303184D1B040E8842EA07221B0C08
:10994000A84292B2A4B243EA06030AD005F5006524
:10995000A84206D0C98884808383F0BC81870284B2
:10996000704722F40062B1F80AC092B244F6FF7662
:109970008F8942EA0C2C26404FF6FF358A88CC8925
:109980000CEA050546EA071645EA022246EA0414EF
:1099900092B2A4B2DEE700BF002C0140038CF0B409
:1099A00023F480531B041B0C0384028C848822F450
:1099B0000052838B0D89120423F4E643120C42EA11
:1099C00005324F881B040E880E4D1B0C42EA0732ED
:1099D00043EA0623A84292B2A4B29BB20BD005F58B
:1099E0000065A84207D0C98884808383F0BCA0F8B2
:1099F0004010028470478D89C4F30D0444EA851435
:109A0000A4B2F0E7002C0140038829B923F0010338
:109A10009B059B0D038070479BB243F001030380BD
:109A2000704700BF83899BB21AB923EA0101818183
:109A30007047194381817047038923F007031B0492
:109A40001B0C0381704700BF838B23F008031B04AA
:109A50001B0C194381837047838B23F400631B0421
:109A60001B0C43EA01218BB28383704781877047C7
:109A7000A0F84010704700BF038A828911EA0300F2
:109A800092B203D011420CBF00200120704700BFEA
:109A9000C94389B201827047002100F004B80B4B22
:109AA0005B58435004310A480A4B42189A42FFF46B
:109AB000F6AF094A00F003B8002342F8043B074B15
:109AC0009A42FFF4F9AFFAF743FC7047906A010835
:109AD000000000201406002014080020E0130020DD
