:100000000C94C50F0C94ED0F0C94ED0F0C94ED0FA8
:100010000C94ED0F0C94ED0F0C94ED0F0C94ED0F70
:100020000C94ED0F0C94ED0F0C94ED0F0C94ED0F60
:100030000C94ED0F0C94EF0F0C94ED0F0C94ED0F4E
:100040000C94ED0F0C94ED0F0C94ED0F0C94ED0F40
:100050000C94ED0F0C94ED0F0C94ED0F0C94ED0F30
:100060000C94ED0F0C94ED0F0C94ED0F0C94ED0F20
:100070000C94ED0F0C94ED0F0C94ED0F0C94ED0F10
:100080000C94ED0F0C94ED0F0C94ED0F0C94ED0F00
:100090000C94ED0F0C94ED0F0C94ED0F0C94ED0FF0
:1000A0000C94ED0F0C94ED0F0C94ED0F0C94ED0FE0
:1000B0000C94ED0F0C94ED0F0C9418100C94BC13D1
:1000C0000C94ED0F0C94ED0F0C94ED0F0C94ED0FC0
:1000D0000C94ED0F0C94ED0F0C94ED0F0C94ED0FB0
:1000E0000C94ED0F0C94ED0F0C94ED0F0C94ED0FA0
:1000F0000C94ED0F0C94ED0F0C94ED0F0C94ED0F90
:100100000C94ED0F0C94ED0F0C94ED0F0C94ED0F7F
:100110000C94ED0F0C94ED0F0C94ED0F0C94ED0F6F
:100120000C94ED0F0C94ED0F0C94ED0F0C94ED0F5F
:100130000C94ED0F0C94A8130C94ED0F0C94ED0F90
:100140000C94ED0F0C94ED0F0C94ED0F0C94ED0F3F
:100150000C94ED0F0C94ED0F0C94ED0F0C94ED0F2F
:100160000C94ED0F0C94ED0F0C94ED0F0C94ED0F1F
:100170000C94ED0F0C94ED0F63110000631100005F
:1001800010120000C5110000C51100000F11000081
:100190000403030202010301010201030203020539
:1001A0000405070509080A0A0C0D0D101110141496
:1001B000151618191B1A1E1D1F212023242425275C
:1001C00028282A2B2B2C2D2F2F3031313433343645
:1001D0003638373A3A3B3C3D3F3E40424244434743
:1001E00046474A494C4B4E4F4F5052535455565622
:1001F00059595B5A5C5E5E5F5F6262636366656706
:1002000067696A6A6B6D6D6E7070727273757577FF
:1002100077797A7A7D7C7F7E8182828385868787E3
:100220008A8A8A8D8D8E8F909193929595959897C5
:10023000999A9B9B9D9D9FA09FA2A3A2A5A6A6A7BE
:10024000A8AAABABADAEAFAFB2B2B3B4B6B7B8B8A5
:10025000BABCBBBEBEBFC1C1C3C3C4C6C6C7C8CA81
:10026000CACACDCCCECFCFD0D2D2D3D4D5D6D7D781
:10027000DAD9DCDBDEDEDFE0E3E2E4E5E7E8E9EA69
:10028000EBEDEEEFF1F0F4F4F4F6F7F8F9F9FAFC2F
:10029000FBFDFCFEFDFEFDFFFEFDFFFDFDFCFDFC8C
:1002A000FBFAFAF8F9F6F6F5F4F2F2F0F0EDEDEB10
:1002B000EBE9E7E7E5E4E4E0E2DEDFDDDCDBDAD82A
:1002C000D9D6D7D4D5D2D3D1D0D0CECECDCCCACB1F
:1002D000C9C8C7C7C5C5C2C4C0C1C0BDBEBCBBBA02
:1002E000B9B8B6B6B4B4B1B2B0AFADADACAAAAA805
:1002F000A8A6A5A5A3A2A2A09F9F9E9C9C9A9A99FE
:100300009897969495939291918E8F8C8D8B8A89E4
:10031000878885858383827F807E7D7C7A7B7878E1
:10032000767576727371716E706C6D6C6A696967DF
:10033000686564656361625F605E5D5C5B5A5A57C5
:10034000585556535352514F4E4E4C4B4A484946BE
:100350004545444142403F3F3C3C3C393A383737C1
:100360003534343331322F302E2D2C2C2B292829A3
:10037000262525232321201F1E1D1B1A191817159A
:1003800013141110100E0C0C0B09090806060505B4
:10039000030908050503030201020103030506071B
:1003A000090B0C0E0E111112141215151517161833
:1003B000181A1B1C1C1F202022242325272628282E
:1003C000292A2B2B2D2D2F2F313233353536383826
:1003D000393A3C3B3D3D3F3F40424144454546491B
:1003E000484A4B4B4E4D4E50505153525356555810
:1003F000575A5A5B5C5E5E605F6262636366646705
:100400006868696B6C6C6E6F6F72727274757577F9
:1004100077787A797B7D7C7E8080818383858586F1
:100420008888898A8B8B8D8E8E90909293939695E7
:100430009898989B9A9D9B9F9DA0A0A1A2A3A4A6DB
:10044000A6A7A9AAAAACACAEAEB0B0B0B3B2B4B4D1
:10045000B7B5B9B8BABBBCBEBEBFC0C2C1C3C4C4C5
:10046000C6C6C7C8C9CACBCDCDCFCFD2D2D2D5D4BC
:10047000D6D6D7D9D8D9DBDBDDDDDFE0E1E2E4E5B4
:10048000E5E8E7E9E9EAEBEBECEDEDEEEFF1F1F4AD
:10049000F5F6F9F8FCFCFCFFFDFEFEFDFCFBFAF8AE
:1004A000F5F6F3F2F1EEEFEDEDECEBEAEBE8EAE76F
:1004B000E7E6E5E4E1E2E0DFDDDCDCDADAD8D9D654
:1004C000D7D5D6D3D3D2D1D0CECECDCACBC9C8C73B
:1004D000C6C5C5C4C2C2C2BFC0BEBEBBBCB9BAB726
:1004E000B6B7B4B3B3B2B1B1AEAFADADACAAA9AA11
:1004F000A7A6A5A5A2A3A1A09F9E9E9D9B9B9A99FE
:1005000098989595949293908F8F8E8C8C8B8A89E6
:100510008887878584848381807F7E7E7B7B7B78D0
:10052000797776767573737271706F6D6E6A6C68B9
:100530006A666766646463626160605D5F5B5C5AA3
:100540005A5757565554535152504F4E4F4C4C4A90
:100550004B4848474643444340413F3E3E3C3D3A7A
:100560003A3A38383635343431322F2E2E2D2B2B63
:10057000292A2827282525252222221E1F1E1B1A4C
:100580001B1719161715141514121311100F0E0C32
:100590000A0A0D0803030004070708070301020302
:1005A000090D101313141413151715151312121423
:1005B000161C202123242323252426232322212320
:1005C000272A2E313333333334333433333131321A
:1005D000363A3D4042434342424443424240414214
:1005E00046474E4F5152535153525153514F51520E
:1005F00054575D5E6161626261616261605F61600A
:1006000064676B6E707270717171707070706E7102
:1006100073767A7D80818081807F807F807F7E80FD
:100620008286888E8E9190908E908F8E8F8E8F8FF7
:100630009195989C9EA19F9F9E9F9E9E9E9D9F9EF2
:10064000A1A3A8ACADAFB0AEAEADAEADADAEADAEEC
:10065000B0B3B7BABDC0BEBEBDBCBDBDBCBDBEBCE7
:10066000C0C2C6C9CECDCFCECBCDCACDCCCDCCCDE0
:10067000CED1D6D9DBDFDEDCDCDBDADBDDDBDDDBDC
:10068000DFE0E3E9ECEDEEEDEAE9EAEBEBEBEDECD4
:10069000EDEEF3F7FCFEFEFCF9F8F7F9FCFFFDFCCC
:1006A000F7F3EFECEDEBEDEAECE8EBE9EEECEFEB7A
:1006B000E9E3E1DDDDDCDCDCDBDBDADCDCDFDDDD5E
:1006C000D8D6D1CFCCCDCCCCCDCBCBCDCDCFCECC45
:1006D000CBC5C3BEBEBDBDBDBCBDBCBDBFBEBEBE29
:1006E000BBB6B3B1ADADAEADAEADAEADAEB0AFAE0F
:1006F000ABA7A5A09F9D9F9D9F9D9F9E9FA0A09EF5
:100700009C999491908E8E8F8F8E908E918F918FD9
:100710008C8A8582807F7E807F8080807F828080BF
:100720007D7B7573716F6F707071707171717170A5
:100730006F6A6764615F606161616161626261618A
:10074000605A595352515050535153525153525170
:10075000504D484542414042434244424342434255
:10076000413C3A363232313233343335323334313C
:10077000322F292723222123242524252324232320
:10078000221F1C1713121213151616151413141307
:1007900013110C06020304030205030205020304FD
:1007A000040106101512131312141213121412144A
:1007B0001212152024222124222223222223222342
:1007C0002222242F3432313233303431323232313A
:1007D000342F353F4341424142414240434142412F
:1007E00042404350525150534F5251515152505127
:1007F000524F545E626061616060626060625F621D
:10080000615E646D72707070716F71707070707114
:10081000706F737C837E80807F80817E817F80800B
:10082000807E828D918F8F908E90908E908F908E03
:10083000918D929DA09E9F9F9F9EA09E9FA09E9EF9
:10084000A19CA2ACAFAFAEAFAEAEAFAEAEB0ADAEF0
:10085000B0ADB0BCC0BDBEBEBEBEBEBEBDC0BCBFE6
:10086000BEBDC0CBD0CCCECDCECECDCDCECFCBCFDE
:10087000CECCCFDCDEDDDCDEDDDDDEDCDDDEDCDED5
:10088000DDDCDFEBEEECECEDEDEDECEDEDECEDECCD
:10089000EEEBEFF9FFFBFCFDFCFCFCFDFBFDFDFBC3
:1008A000FCFEFAEEECEDEDECEDEDECEEEBEDEEEB4F
:1008B000EDEEEAE0DBDEDEDBDFDCDDDEDDDCDEDD37
:1008C000DDDEDBCFCDCECECCCFCDCDCECECDCECD21
:1008D000CDD0CAC1BCBFBEBDBFBEBDBFBEBDBFBE09
:1008E000BDBFBCB1ADAFAEAFAEAEAFAEAFAEAFAEF3
:1008F000ADB1ACA19E9EA09EA09E9F9F9F9EA09EDC
:100900009FA09D918E908F8F908F8F908F8F8F90C3
:100910008F908D837E7F817F817F7F808080807FAD
:100920007F827D736E71716F7071707070716F7195
:1009300070716E635F61616061616061606161607F
:1009400061615F5350515250525052505251515167
:1009500050534F443F434141424241414241434051
:100960004242403430333231333231323331323239
:100970003233302421232321242123232123232222
:1009800021251F161114121313121412131313120C
:1009900013141105010708060704070608060505D4
:1009A000080707011B14151516151615161516142C
:1009B0001617151229242324262525232525252429
:1009C0002427242138333333353532343434343327
:1009D0003435343047434143444441444245424224
:1009E0004345433F56525152535351515452525220
:1009F0005154534E6660606262626061626360601F
:100A00006263625D756F70717170716F7271707019
:100A10007171726B857F7F7F817F807F81807F7F17
:100A20008081807C938E8E8F8F908E8F8F8F8F8F13
:100A30008E918E8CA29E9C9F9E9F9E9CA09E9E9E11
:100A40009E9F9E9BB1ADACADAEAEADACAEAEADAD0E
:100A5000ADAEAFA8C2BBBBBCBFBCBBBDBDBDBCBB0C
:100A6000BDBEBEB7D0CCC9CDCCCCCACCCDCBCCCB07
:100A7000CBCECCC7DFDBD9DBDCDADBDBDBDBDBDA05
:100A8000DADEDAD7EEEAE9E9ECE9EAEAEBEAE9EA02
:100A9000EAECEAE5FEFAF7F9F9FBF9F9F8F9FBFAFD
:100AA000F8F7FAFEE6E9ECEAEAEAE9EBEAEAEAEB69
:100AB000E9EAE9EED7DBDCDCDAD9DDDADCD9DCDB4C
:100AC000DBDADADFC7CDCDCBCBCCCCCCCBCCCBCD2E
:100AD000CBCBCBD0B8BDBFBBBCBCBEBDBBBCBDBE11
:100AE000BCBBBCC1A9ADB0ACADADAFADACADAEAFF4
:100AF000ACACADB29A9E9F9F9D9E9F9E9E9D9F9FD8
:100B00009E9C9EA38A90908F8E8F8F908E8E908FBA
:100B1000908C90927C80827F7F7F81807F8080809C
:100B20007F807E856B72727070707270717070727F
:100B300070706F765C626362606162626161616362
:100B4000616060674D535353515253535152525346
:100B5000525251563F434642424245434341444527
:100B6000424143482E36343532333633343334350C
:100B700034323338212526242523272423262426EE
:100B80002423242A111518141615161515161517D1
:100B90001415151A010202020201020200030101EA
:100BA00002020201030F0F0F10101010101210128A
:100BB00011121212131F201F211F21212021222078
:100BC0002222222122302F2F2F3030312F3131316C
:100BD00031313231333E403F403F4041404041415E
:100BE00042404340434F4E504F4F50505050515051
:100BF00051515152515F5F5E605F60605F61606143
:100C000061606262616E6F6F6F6F706F7070707134
:100C100070707271717E7F7E7F7F7F807F817F8029
:100C200081818180828F8D8F8F8F8F8F90908F9019
:100C300091909191919D9F9E9E9F9F9F9FA09FA10C
:100C40009FA1A0A1A1AEAEAEAEB0AEAFAFB0B0AFFF
:100C5000B0B1B0B0B1BEBEBDBFBEBFBEBFBFC0BFF2
:100C6000C0C0C0C0C1CDCECECECFCECFCED0D0CEE4
:100C7000D1D0CFD2CFDEDEDDDEDEDFDDE0DEDFDFD6
:100C8000DFE0E0DFE1EDEDEDEEEEEEEFEFEEF0EFC9
:100C9000EFF1F0F0F0FEFEFDFDFFFEFDFFFDFFFDBC
:100CA000FFFDFEFDFDF2EFF1EFF0F0EEF0EEEFEE06
:100CB000EEEEEDEEECE1DFE1DEE0E0DEDEE0DEDEFA
:100CC000DEDDDFDDDED0D0D1CFD0D0D0CECFD0CDE5
:100CD000CFCFCDCDCFBFC2BFC0C0C0BFBFBEC0BED3
:100CE000BFBDBFBDBEB1B0B1AFB1B0AFB0AFAFAFC0
:100CF000AEAFAFADAEA1A1A19FA1A09FA09FA09EAE
:100D00009F9E9E9F9D9290919091908F918E918E9B
:100D10008F8F8F8E8E81828081818080807F807F87
:100D20007F7F7E7F7E7270727071707070706F7076
:100D30006F706E6E7060636062606160615F615F62
:100D40005F605E5F5F5250535051505150514F5051
:100D50004F4F504F4E42424241414140423F41403D
:100D60003F413E403E333132313230313130302F2D
:100D7000312F302E30222123212220222121202018
:100D800021201F201F131311121112111011101105
:100D90000F100F100E0201020201020103010203F3
:100DA00002030204030403050406040607050807FA
:100DB0000808090A0A0A0B0C0C0D0E0E0F0F11126F
:100DC000111215131615171819191A1B1D1D1E1FA0
:100DD0002022212424262628282A2B2C2E2E2F328E
:100DE0003134343736383A3B3D3C40404143444649
:100DF00047484A4C4C4D515052545656585A5B5CD9
:100E00005F5F6163646568686A6D6C6F707274744B
:100E100077787A7A7D7F7F8282848787898B8C8EB0
:100E20008E9291959597989A9B9D9FA0A1A3A4A619
:100E3000A8A8ABACACAFB1B1B2B5B6B7B8BBBABD90
:100E4000BFBEC1C2C4C4C5C9C7CACBCDCDCED0D127
:100E5000D3D3D4D6D7D8D9DADBDCDEDEDFE1E1E2EA
:100E6000E4E4E5E6E7E8E8EAEBEBECECEFEDF0F0E4
:100E7000F0F1F2F3F3F3F5F5F6F6F6F7F8F8F9F921
:100E8000F9FAFAFBFAFCFCFBFDFCFCFEFCFEFDFEA5
:100E9000FDFEFEFEFDFFFEFEFDFFFDFFFCFFFDFD76
:100EA000FDFDFCFDFCFCFCFBFBFAFAFBF9F8FAF794
:100EB000F8F8F5F7F6F4F5F4F3F2F2F2F0EFF0EEFD
:100EC000EEEDECEAECE9E8E9E6E7E4E5E3E3E1E0AE
:100ED000DFDFDDDDDADBD9D7D8D5D4D4D3D0D0CF9E
:100EE000CDCCCCC9C8C8C5C5C4C1C1BFBFBCBBBAC5
:100EF000B9B6B7B4B2B2B1AEADABACA7A9A5A4A414
:100F0000A19F9F9E9A9B9798959492918E8F8C8A81
:100F10008A8687858281807E7D7B7A7777757471FA
:100F200070706C6C6A696766646261605E5D5A5B72
:100F3000575756535251504E4C4B4B4748454444DB
:100F400040413F3D3D3A3A393636353332312F2F25
:100F50002E2B2B2B272926252523222120201D1E41
:100F60001C1C191A19171716151414131111111026
:100F70000E0F0D0E0B0D0A0B0A09090907080706CB
:100F80000705050505040305030302040202020226
:100F90000202020003010102010103020203040331
:100FA0000604070708080A0B0C0D0D101111121585
:100FB000151618181B1B1C1E1E2120232225252652
:100FC00028282A292C2C2E2D2F3031323234353539
:100FD0003638383A393C3C3E3E3F40424244454533
:100FE00047484A494C4C4D4F505052545355575610
:100FF000595A595C5C5D5F5F6062616464656667F5
:1010000068696A6A6D6C6E6F7071717375747677EA
:1010100079797A7B7D7D7F808083828585868789CB
:10102000898B8B8D8E8E8F929193939596969799AF
:101030009A9A9B9D9CA09EA0A2A2A3A4A6A5A8A8A4
:10104000AAA9ADABAFAEB0B1B2B3B4B5B7B7BAB889
:10105000BCBBBEBDC0C0C0C4C2C4C6C6C7C8CAC966
:10106000CBCCCDCECED0D0D2D2D3D5D5D5D9D7D961
:10107000DBDBDCDDDFE0E0E3E2E5E5E6E9E9EAEB46
:10108000EDEEF0EFF2F2F5F3F7F6F8F8FAF9FCFB13
:10109000FCFDFCFEFEFDFEFEFEFEFEFDFDFDFBFC7E
:1010A000FBFBF8F9F8F6F6F5F4F2F2F0EFEEEDEB03
:1010B000EBE8E9E7E4E6E2E2E1E0DEDDDDDCD9DA17
:1010C000D8D7D6D5D5D3D2D2D0D0CFCDCECBCBCA10
:1010D000C9C8C8C6C5C4C3C3C1C0BFBFBCBCBBBAF6
:1010E000B9B7B6B6B4B3B3B0B0AEAFACABABA9A9F9
:1010F000A6A7A5A5A2A3A1A0A09D9E9D9B9A9999F4
:101100009896969495919390908E8E8D8B8B8989DD
:1011100087868683848280807F7E7C7B7B787A76DC
:101120007675747372716F706D6D6C6B696A6866D9
:101130006765646362625F615D5E5C5B5B595857C3
:101140005755535451524F4E4E4D4A4B49484745BF
:101150004642444041403E3D3C3C393A39373636C0
:101160003434323330302F2E2D2D2A2B2A272826A7
:101170002624232221201E1E1D1B1A1819151614A1
:1011800012130F100D0E0C0A0A09080607050504B4
:101190000304010302010202020102020404040723
:1011A00006080A0B0B0D0E0F10111113141515164E
:1011B0001818191B1B1D1D1F20212123242427263D
:1011C00027292A2A2C2C2D2F30303233333536362E
:1011D00038393A3A3C3C3F3D40414143434546461D
:1011E00048494A4A4C4D4E4E50505253535555570C
:1011F00058585A5B5B5D5E5F6060626265636766FC
:1012000068686A6B6B6D6E6E7170727275747676EB
:1012100078797A7A7B7E7D7F7F81828384848786DA
:10122000878A898B8C8C8E8F8F91929294959696CB
:1012300099989A9B9C9C9E9FA0A0A2A3A3A5A6A6BA
:10124000A9A8AAABABAEADB0AFB0B3B2B4B5B6B6A9
:10125000B8B8BABCBBBCBFBFBFC2C1C3C4C5C5C898
:10126000C7C8CBCACCCCCED0CFD1D2D2D5D5D6D789
:10127000D7D9DADBDBDDDEDEE1DFE3E3E3E6E6E779
:10128000E8E9EAEAEDECEEEFEFF0F2F3F3F6F5F869
:10129000F8F9FBFCFCFDFDFFFDFEFEFDFCFCFBF98F
:1012A000F9F7F6F5F4F3F2F0EFF0ECEEECEBE9EA37
:1012B000E8E7E7E4E5E3E1E1E1DEDDDEDBDBDAD927
:1012C000D7D8D6D4D5D3D2D1CFD0CECCCCCBCAC917
:1012D000C7C7C6C5C4C2C3C1BFC0BDBEBBBCB9B908
:1012E000B7B8B5B5B4B2B3B0B0AFAEADACABA9AAF8
:1012F000A7A8A5A4A5A2A2A1A09E9E9D9C9B999AE9
:101300009797979395939191908E8F8C8B8C8989D9
:1013100088878586838382817F7F7E7D7B7B7A78C9
:101320007976757673737270716E6E6D6C6A6A69B8
:101330006767656663626360605E5F5C5C5B5A58AA
:101340005857555554525250504F4D4E4B4A4B489A
:1013500048474644444242413F3E3F3C3B3B3A398A
:1013600037373635343231322F2E2E2D2B2B29287C
:1013700028272624252221221F1F1E1C1B1B1A176B
:1013800018171514141312110F100D0D0C0B09085A
:101390000706050403020202020201030404060711
:1013A00008090A0A0C0D0D0F10111212131615164A
:1013B0001918191B1C1D1D1E20212123242327263B
:1013C0002729292B2B2D2D2F2F303232343435372E
:1013D0003739383C3A3D3D3E3F4141434245454621
:1013E0004848484B4C4B4D4F4F5051525354565513
:1013F00058575A595C5C5C5F5F5F62616463656704
:101400006668696A6B6B6E6D6F70717272747576F7
:101410007679787A7A7C7D7E7E80818183848486E9
:10142000878789898B8B8D8E8E90909292949496DB
:101430009698989A9A9B9D9D9F9FA0A2A2A4A4A5CE
:10144000A7A7A8A9ABABACAEAEAFB0B2B2B3B4B5C0
:10145000B7B6B9B9BBBABCBEBEBEC1C1C2C3C4C6B1
:10146000C5C7C8CAC9CBCCCDCFCED0D1D2D3D3D6A5
:10147000D6D6D8D9DADBDCDCDFDEE0E0E3E2E4E597
:10148000E6E6E8E8EBEAECECEEEFF0F0F1F3F4F589
:10149000F5F7F8F7FAFBFCFDFCFFFEFDFCFBF9F9A4
:1014A000F8F7F5F5F5F2F2F1F0EEEFECEDEAEAEA35
:1014B000E7E7E6E5E4E3E2E1E0DFDEDDDCDCD9D925
:1014C000D9D6D7D5D3D4D3D0D0D0CDCECCCBCBC911
:1014D000C7C8C7C4C5C3C2C2C0BFBEBEBCBBBBB900
:1014E000B8B8B6B5B5B3B3B1B0B0AEAEACABABAAED
:1014F000A8A7A7A5A5A3A3A2A09F9F9E9C9C9A9ADC
:10150000999797959692949190918E8E8C8C8B8AC8
:1015100088888785868383828080807D7C7D7A7BB6
:101520007878777675737471726F6F6E6E6B6B6AA5
:10153000696868656564646161615E5F5D5B5C5A92
:101540005A57575755545352524F504E4E4B4C4A80
:10155000494947464545434242403F3F3D3C3C3A6E
:101560003A383737353533323230302E2E2D2A2C5B
:10157000292828262625232321211F1F1E1C1C1B4A
:10158000191918161614151211120F0F0E0C0C0B38
:101590000A080906060503030202020204040607FC
:1015A00007080A0B0B0C0E0E0F111211141416164D
:1015B00017181A191C1C1E1D201F22222324252641
:1015C0002728292A2B2C2C2F2F2F31323334353535
:1015D0003738383A3B3C3C3E3E4041414344434728
:1015E0004647494A494D4B4E4F4E5152525354561D
:1015F000555859585B5B5C5D5E605F626164636611
:1016000066666969696C6B6D6E6F70717173747504
:10161000767678787B7A7B7E7C807F8181838385F8
:1016200085878789898A8C8C8E8E8F9191929494EC
:1016300095969799999A9B9C9D9F9EA1A1A1A4A4E0
:10164000A5A5A8A8A8AAACABADAEAFAFB2B1B3B3D5
:10165000B6B5B6B9B8BABABCBDBDBFC0C0C1C3C4C7
:10166000C4C5C7C8C7CBC9CCCCCECECFD1D1D2D3BD
:10167000D5D5D6D7D8DAD9DCDCDDDEDFE0E1E2E4AF
:10168000E3E5E6E7E8E9E9ECEBEDEFEDF1F0F3F2A5
:10169000F3F6F5F6F9F8FAFAFCFCFFFDFCFBFBF9B2
:1016A000F8F7F7F5F5F2F3F2F0EFEFEDECECEBE92C
:1016B000E8E8E6E6E5E3E3E1E1DFDFDEDCDCDBD919
:1016C000DAD6D8D5D5D4D3D1D1D0CFCECCCDCACB04
:1016D000C8C8C7C6C5C4C3C2C1C0BFBEBDBCBCB9F3
:1016E000BAB8B7B6B5B5B3B2B1B0B0AEADADABAADE
:1016F000A9A9A8A5A6A5A3A2A2A0A09E9E9C9C9ACB
:101700009A9898979595939490928F8F8D8E8B8BB6
:10171000898A8787858684828281807F7E7D7B7CA3
:101720007A797778767573747271716E6F6C6D6B90
:101730006A6A676866666463626161605D5E5C5C7C
:101740005A5A585757565453535151504E4E4C4C69
:101750004A4A494846454643434240403F3E3D3B56
:101760003B3B3837383634353232322F2F2F2C2C42
:101770002C292A2728262524232320211F1E1E1B2F
:101780001C1B181917171416121311110F0F0D0C1B
:101790000C0B080A070606050303010204050606EA
:1017A000070A080C0A0E0C0F100F1213121515164B
:1017B00018171A191C1C1D1E1E2120232224252641
:1017C000262829292B2C2C2E2F2E32313233353638
:1017D000353839383B3B3C3D3E3F4140434244462F
:1017E00045474849494C4B4C4F4E50505253535427
:1017F000565757585A5A5B5D5D5E5F61616164651B
:1018000064666768696A6B6C6D6D706F7171737413
:101810007575777779797B7B7D7D7E808082828309
:101820008485878689898A8B8C8D8E8F9090939200
:101830009495969698999A9A9B9D9E9EA0A0A2A1F7
:10184000A5A4A5A6A8A7AAABAAADACAFAFB0B1B2EC
:10185000B3B3B6B6B6B8B9BABBBBBDBEBEC0C1C1E4
:10186000C2C4C5C5C7C7C8CAC9CDCBCECECFD1D0DB
:10187000D3D3D4D5D5D8D8D9DADADDDCDEDFDFE2D0
:10188000E1E2E5E4E5E7E8E8EAEAEBEDEEEDF0F1C8
:10189000F0F3F3F5F4F6F8F8F9FAFBFDFEFAFBFACB
:1018A000F9F7F7F6F4F5F2F1F2EFF0EDEDECEBEA23
:1018B000E9E8E6E7E5E5E2E2E1E1DFDEDDDDDADB0E
:1018C000DAD7D8D7D4D6D2D3D2D0CFCFCECCCBCCF8
:1018D000C9C8C8C7C6C4C4C3C2C0C1BEBEBDBBBCE4
:1018E000BAB8B9B7B5B6B4B3B2B1B0AFAFADACABCF
:1018F000ABA9A8A7A7A5A5A3A2A2A19EA09D9C9CB9
:101900009B999997989496939392918F908D8D8CA3
:101910008A8B898886878583848281817E7E7E7C8E
:101920007B7B787978757675737271726E6F6E6C79
:101930006C6A6A686867666464626360605F5D5E63
:101940005B5B5B5858575655545352524F504E4D4F
:101950004C4B4B49484845474344424240403E3E39
:101960003C3B3C39383837353534333131302E2F24
:101970002C2C2B2A292826272524232221201F1E10
:101980001E1C1B1A191917161614131311110F0EFA
:101990000E0D0B0A0B0709060506030202020503DA
:1019A00006050808080B0A0C0D0D0F101112121471
:1019B000151716171A1A1B1C1C1F1E212022232460
:1019C0002426272828292C2A2E2D2E303032323357
:1019D00035363637393A393D3B3E3F3F4042434248
:1019E00045454747484A494C4C4E4D4F515053533B
:1019F0005455555858595A5B5C5D5D60606162632F
:101A000063666666686A696B6C6C6F6E6F72717321
:101A10007474767678787B797D7B7F7E7F81828215
:101A20008386848788888A8A8B8D8D8F8F91909307
:101A30009493969697989A9A9A9D9D9F9EA0A2A1FC
:101A4000A4A4A4A7A7A8A9AAACABADAEB0AFB1B2ED
:101A5000B3B4B5B6B6B8B9BABBBBBDBDC0BFC0C2E2
:101A6000C3C4C4C5C8C7C8CBCACBCDCECFCFD0D3D3
:101A7000D1D5D4D5D7D7D9D9DADCDCDDDFDEE1E1C9
:101A8000E2E4E3E6E5E8E8EAE9ECECEDEEF0F0F2BA
:101A9000F1F4F5F5F5F9F7F9FAFBFBFDFDFEFDFABA
:101AA000FCF9F9F8F7F6F6F3F3F3F0F1EEEFEDEBFE
:101AB000ECE9EAE7E7E6E5E4E2E3E0E0E0DDDDDCEF
:101AC000DBDAD9D9D6D7D5D4D3D3D1D0CFCFCDCCDB
:101AD000CCC9CAC9C6C7C5C4C4C2C1C0C0BEBDBCCA
:101AE000BCBABAB7B9B5B6B5B3B2B2B1AFAFADADB6
:101AF000ABABA9AAA6A8A5A4A4A3A1A1A09E9E9CA5
:101B00009C9B999998969695949292918F908D8D91
:101B10008C8B8A898788858683838380807F7E7D7E
:101B20007C7B7A797876777574727371706F6E6E6C
:101B30006B6C6A69686767656464626160605E5D5A
:101B40005D5A5B5A5856585455535351504F4F4D48
:101B50004D4B4B49494746464544424141403F3D34
:101B60003C3D3A393A3638353533333230302E2E23
:101B70002D2C2A2A2828282524252321221F201E0F
:101B80001C1D1A1B191816171513141111100F0DFF
:101B90000E0B0B0A080907060504040301000000E8
:101BA0000000000000000000000000000000000035
:101BB0000000000000000000000000000000000025
:101BC0000000000000000000000000000000000015
:101BD0000000000000000000000000000000000005
:101BE00000000000000000000000000000000000F5
:101BF00000000000000000000000000000000000E5
:101C000000000000000000000000000000000000D4
:101C100000000000000000000000000000000000C4
:101C200000000000000000000000000000000000B4
:101C300000000000000000000000000000000000A4
:101C40000000000000000000000000000000000094
:101C50000000000000000000000000000000000084
:101C60000000000000000000000000000000000074
:101C70000000000000000000000000000000000064
:101C80000000000000000000000000000000000054
:101C90000000000000000000000000000000001D27
:101CA000AB8180E266C8558E4961403D398633D8A4
:101CB0002EF22AA627D1245E223820541EA51C23EA
:101CC0001BC8198E1870176C167D15A114D6131A1F
:101CD000136B12C9113111A3101E10A10F2B0FBCD1
:101CE0000E540EF10D930D3A0DE50C950C480CFFBA
:101CF0000BB90B760B370BF90ABF0A870A510A1D7D
:101D00000AEB09BB098D09610936090D09E508BE11
:101D10000899087508520830080F08F007D107B372
:101D20000796077A075E0744072A071107F806E1B6
:101D300006C906B3069D06870673065E064A063781
:101D40000624061106FF05EE05DD05CC05BB05AB37
:101D5000059B058C057D056E055F05510543053620
:101D60000528051B050F050205F604EA04DE04D26A
:101D700004C704BB04B004A6049B04900486047C3E
:101D800004720469045F0456044C0443043A0431A9
:101D900004290420041804100407040004CE465249
:101DA00047D6475B48E1486949F1497A4A044B8F75
:101DB0004B1C4CA94C374DC64D564EE84E7A4F0E33
:101DC00050A2503851CE516652FF5299533454D0DC
:101DD000546E550C56AC564C57EE5792583659DB4C
:101DE00059825A2A5BD35B7D5C295DD65D845E3364
:101DF0005FE45F96604961FD61B3626A632364DCFE
:101E000064986554661267D16792685469176ADCF2
:101E10006AA26B6A6C336DFD6DC96E976F66703721
:101E2000710972DC72B173887460753A761577F255
:101E300077D078B179927A767B5B7C417D2A7E146B
:101E40007F0080ED80DC81CD82C083B484AA85A22E
:101E5000869C8798889589948A958B988C9D8DE42B
:101E6000EE2CED77EBC6E917E86CE6C3E41EE37CE5
:101E7000E1DCDF40DEA7DC10DB7DD9ECD75FD6D418
:101E8000D44CD3C7D144D0C5CE48CDCECB57CAE26F
:101E9000C870C701C694C42AC3C3C15EC0FBBE9C40
:101EA000BD3EBCE4BA8CB936B8E3B692B543B4F7DC
:101EB000B2AEB166B022AFDFAD9FAC61AB25AAEC8C
:101EC000A8B5A780A64DA51DA4EFA2C2A199A07197
:101ED0009F4B9E289D069CE79ACA99AE9895977E3F
:101EE00096699556944493359228911D90138F0CC2
:101EF0008E068D028C008B008A028906880B871360
:101F0000861C8527843383428252816480777F8C4C
:101F10007EA37DBC7CD67BF27A107A2F79507872C2
:101F2000770000000300000200060000000000002F
:101F3000000000000006003C00E20000000300007A
:101F40000280030000000000000000000000060006
:101F50003C00E200000004000002800300060000D4
:101F60000000000000000006003C00E20000000548
:101F700000000280030006000C00000000000000CA
:101F800006003C00E2000000871911241FBECFEFBD
:101F9000DFE2DEBFCDBF10E2A0E0B0E2E2E3FEE3AD
:101FA00002C005900D92A633B107D9F713E2A6E35C
:101FB000B0E201C01D92A637B107E1F71FE1CAE800
:101FC000DFE104C02297FE010E94131FC838D10729
:101FD000C9F70E94CD180C948C1E0C9400001F921F
:101FE0000F920FB60F9211242F933F934F935F934D
:101FF0006F937F938F939F93AF93BF93EF93FF93D1
:10200000E0913820F0913920309709F00995FF913F
:10201000EF91BF91AF919F918F917F916F915F9160
:102020004F913F912F910F900FBE0F901F901895D9
:102030001F920F920FB60F9211242F933F934F933D
:102040005F936F937F938F939F93AF93BF93EF9320
:10205000FF93E0913620F0913720309709F00995F1
:10206000FF91EF91BF91AF919F918F917F916F9170
:102070005F914F913F912F910F900FBE0F901F9046
:102080001895FC01662F660FE71FF11DE70FF11D84
:1020900085911590619DF0016095689FE00DF11D9F
:1020A00011248F2F08951F93CF93DF93DC01129695
:1020B0004D915C9113979A013A5361E08D919C91F7
:1020C000119702970CF060E080E090E0162F180F57
:1020D000019637FF02C03A5FF9CFC90196958795FF
:1020E000969587959695879596958795222F229513
:1020F000207F880F991FFC01E356F24EC591D491C1
:102100008156924EFC01659174916C1B7D0B992751
:10211000629F812D729F800D911D11248C0F9D1F38
:1021200020E0115020F0969587952795FACF352F0E
:10213000440F331F3C3008F43CE015963C93159750
:1021400019968D939C931A971B962C93DF91CF91A0
:102150001F91089520914620E22FF0E0EE0FFF1F1F
:10216000E85BFF4D8083918381E0820F8F778093BE
:1021700046200895CF93C1E1C15029F080E098E056
:102180000E94AA10F9CFCF910895A4E0B0E0EBEC43
:10219000F0E10C94CC1E8C01FC018481882319F0A1
:1021A000C8010E9453108091472090914620815091
:1021B000891B8F77803178F1F8018481811104C007
:1021C000C8010E94BA10EFCFF801608171817727B2
:1021D000660F771F660F771F68587E4F44E050E008
:1021E000CE0101960E948F1E2B813C81E981FA81EC
:1021F000C9019595879520FF0AC0D801A80FB91F7E
:102200000D90BC91A02DAE0FBF1FED91FC91800FE2
:10221000911F0995C8CF2496E4E00C94E51EA0E038
:10222000B0E0E5E1F1E10C94C51EEC01EA89F0E0D3
:10223000EE0FFF1FE356F44EE590F490C984DA8464
:102240009B840E811F81B884B1E1AB2EAA9409F45E
:1022500032C0C801492D9601B40E821F931F8C0114
:10226000288939892E0D3F1D288B398B2E153F0566
:1022700018F0E114F104A9F426E93DE0F901282F52
:10228000280FE91FF11DE90FF11D85911590219D82
:10229000F0012095289FE00DF11D1124CF018C87BE
:1022A0009D878C859D8574E0969587957A95E1F755
:1022B0000E94AA10CBCF0E831F83B886CDB7DEB79E
:1022C000EBE00C94DE1EA0E0B0E0E9E6F1E10C9456
:1022D000BF1EEC012D812C50222F2295322F307FF2
:1022E000732E632E60942F7088819981019711F469
:1022F000E8E001C0E0E0F0E0DF01A20FB11DAA0FAD
:10230000BB1FA050B04EAD90BC9081E0820F8830D2
:1023100008F087E0E80FF11DEE0FFF1FE050F04ED0
:10232000C080D180E984FA843B840E811F81588467
:1023300041E1442E4A9409F1432D9701540E021FA6
:10234000131FB801C5010E944110282F362D239F6D
:1023500040011124B801C6010E944110482F272DC9
:10236000429FC0011124880D991D24E09695879500
:102370002A95E1F70E94AA10DDCF0E831F835886AD
:10238000CDB7DEB7E1E10C94D81EA0E0B0E0EBECF5
:10239000F1E10C94C31EEC010E851F85CC84DD8415
:1023A000A984BA847B84EE80FF809884A1E18A2E80
:1023B0008A9451F1472D9501940EE21EF31EEA1402
:1023C000FB04F0F4C8019695879528813981243063
:1023D000310511F0282F07C09C013327E5E0359522
:1023E0002795EA95E1F720278C0120FF05C01064AE
:1023F000C12C73E0D72E04C0CC24CA946CE0D62E36
:10240000C6010E94AA10D4CFEE82FF8298860E8762
:102410001F87CC86DD86CDB7DEB7EDE00C94DC1EE1
:10242000A0E0B0E0E6E1F2E10C94C31EEC010E8501
:102430001F85AC84BD84C984DA847B84EE80FF80F0
:10244000988461E1862E8A9431F1472D9601940E8D
:10245000E21EF31EEC14FD04D0F4C8019695879596
:10246000017011271195019511090027147B082788
:10247000192798013F70C901880F991F820F931F78
:1024800096958795969587955C012EEFB21AC501B2
:102490000E94AA10D8CFEE82FF8298860E871F87EF
:1024A000AC86BD86CDB7DEB7EDE00C94DC1E909116
:1024B0000522992359F0982F907F903939F48F7025
:1024C00080934F230E94FC19109205220895809159
:1024D0004220813089F160F08230C9F58091C309D2
:1024E0008F70809345201092C309109242202FC014
:1024F0008091C30980934420E0914320F0E0EE0FE7
:10250000FF1FE65CFF4D8091442090914520808321
:10251000918388E0809365068093660680914320CE
:1025200091E0980F93709093432096E09093C309A5
:1025300091E0909342200895809143208295880FE6
:10254000880F807C8093C30982E0809342208FEFC4
:102550000895A82FB0E099E1899FF0011124E55179
:10256000FD4D45895689660F771F660F771F660FE9
:10257000771F660F771F8827469F912D570390017D
:10258000749F900D211D381F5603380B900D211D8F
:10259000381F112483899489280F391F37FF02C0FF
:1025A00020E030E08181882319F0205C3F4F2078C3
:1025B0002F3F9FE3390714F02FEF3FE3882309F102
:1025C000CD01880F991FDC01AD51BD4D4D915C913E
:1025D000DB01A41BB50BAD01B7FF03C051954195BD
:1025E0005109DC01A552BD4D4032510518F42D9121
:1025F0003C9107C02D933C93DC01AD51BD4D6D93D3
:102600007C9382818823F1F044814423D9F0842F84
:10261000992787FD90955381A52FB0E08A179B07D6
:102620008CF4513079F04F3F11F4129702C0DC0165
:102630001197AA0FBB1FAE0FBF1F15968D919C91CE
:10264000169702C080E090E0820F931F0895CF9309
:10265000DF93EFE0F2E210828EE1DF011496ED01EC
:1026600019928A95E9F78AE0DF019496ED011992B3
:102670008A95E9F712A280E090E0DF01A80FB91F68
:102680002FEF11962C93039681329105B1F7BE96E8
:10269000D2E2E73CFD07F9F610920E2286E092E2C4
:1026A0000E941F1D84E080930E221092052210923A
:1026B000D7221092D8221092D9221092DA2248E022
:1026C00050E06FEF7FEF8FEC92E20E94981EDF9157
:1026D000CF910895282F30E0220F331FF901E153E5
:1026E000FD4D408151814F3F8FEF5807B1F0CB0135
:1026F0009E51840F951FF901E953FD4D20813181D1
:10270000820F931F811520E4920714F08FEF9FE34F
:1027100097FF04C080E090E00895CB0108952091D8
:102720007423309175232430310549F4909172233C
:10273000891305C080915823909159230895E82F5B
:10274000F0E0EE0FFF1FE65AFC4D80819181089565
:102750001F920F920FB60F9211248F93EF93FF9356
:1027600088E0E0E4F8E08187FF91EF918F910F908E
:102770000FBE0F901F9018951F920F920FB60F92D9
:1027800011242F933F934F935F936F937F938F9376
:102790009F93AF93BF93CF93DF93EF93FF932091DA
:1027A0004720E22FF0E0EE0FFF1FE85BFF4D808136
:1027B00091812F5F2F772093472020E420934506B7
:1027C0002093460690639093B0088093B0080E94CF
:1027D00067128F3F09F44AC1282F30E0220F331FC0
:1027E000F901E65CFF4D6081718140917423509145
:1027F0007523425051094230510558F4909172238B
:10280000891307C0FA01EE0FFF1FE659FC4D6083E4
:102810007183F901E65AFC4D60837183813009F4BC
:1028200063C01CF4882341F021C1823009F49CC0AC
:10283000833009F4D9C01AC1C091EB22D0E080E006
:102840000E948F13BC0180E00E94A912BC0180E0AD
:102850000E946A1381152CE0920754F42091F5210F
:102860003091F62125303105A1F025E030E00DC092
:10287000813034E393076CF02091F5213091F621FB
:102880002430310531F024E030E02093F5213093FD
:10289000F621AE01BC018FEE91E20E94011A8091F7
:1028A000F1219091F221809336099093370920917C
:1028B000F52120930009969587959C0136952795DB
:1028C0002093F7213093F82180937609909377092C
:1028D0008091F5219091F621059711F484E001C0D3
:1028E00081E08093400929C1C0910423D0E081E0B8
:1028F0000E948F13BC0181E00E94A912BC0181E0FB
:102900000E946A1381152CE0920754F42091ED2166
:102910003091EE2125303105A1F025E030E00DC0E9
:10292000813034E393076CF02091ED213091EE215A
:102930002430310531F024E030E02093ED21309354
:10294000EE21AE01BC0187EE91E20E94011A809156
:10295000E9219091EA2180937608909377088091FD
:10296000ED2180934008E9C0C0911D23D0E082E0B2
:102970000E948F13BC0182E00E94A912BC0182E078
:102980000E946A1381152CE0920754F42091E521EE
:102990003091E62125303105A1F025E030E00DC071
:1029A000813034E393076CF02091E5213091E621EA
:1029B0002430310531F024E030E02093E5213093DC
:1029C000E621AE01BC018FED91E20E94011A8091D7
:1029D000E1219091E221809336089093370880910D
:1029E000E52180930008A9C0C0913623D0E083E0A0
:1029F0000E948F13BC0183E00E94A912BC0183E0F6
:102A00000E946A138093CE219093CF21C093CC2152
:102A1000D093CD2183E00E948F139C01C90196952C
:102A20008795969587959695879596958795282F5E
:102A30008B3F20F4863020F0382F03C03AEF01C0DE
:102A400036E03093F4212B3F20F4263018F486E052
:102A500001C08AEF8093EC212B3F20F4263018F43C
:102A600026E001C02AEF2093E42167C020910806E8
:102A70002F70209520FD7DC08091D722811179C0D3
:102A80008091ED22811175C030E080E090E080936C
:102A9000780990937909332329F08091EF2190915F
:102AA000F02102C080E090E08093380990933909CA
:102AB00021FD65C08091D822811161C080910623DB
:102AC00081115DC080E090E0809378089093790850
:102AD00022FD5AC08091D922811156C080911F23B6
:102AE000811152C080E090E08093380890933908BB
:102AF00023FD07C08091DA22811103C08091382321
:102B000001C081E08093D0218091A10887FF15C08A
:102B10009091A00880914921209148218150821BE9
:102B20008F7759F080914821E82FF0E0E65BFE4D69
:102B300090838F5F8F77809348218091CA219091F5
:102B4000CB2101968093CA219093CB21FF91EF91E5
:102B5000DF91CF91BF91AF919F918F917F916F91B5
:102B60005F914F913F912F910F900FBE0F901F904B
:102B700018958091F7219091F82131E088CF8091CC
:102B8000E7219091E821A0CF8091DF219091E02171
:102B9000ABCFCF93DF9378948091A200876080932E
:102BA000A2008BE48093520088E0809350008091D3
:102BB000510083FFFCCF84EC80935500809150003E
:102BC0008061809350008091510084FFFCCF88ED9C
:102BD00084BF94E09093400084BF10924100C1E014
:102BE000C0938206D8E1D09390068FE080930206CE
:102BF0008093B000D093100681E593E20E949D1A65
:102C00008091280683FB882780F98C270E94DC1995
:102C10008FE38093A6081092A70880E18093A40810
:102C20000E94271360E26093410620E82093550636
:102C3000209341062093570630E4309342063093A8
:102C4000410620935606309345061092B60810921E
:102C5000B70880EC8093B508D093B408309345064C
:102C6000309346068FE18093B0088FEF8093B008D1
:102C700080914109807F85608093410984E090E0E4
:102C80008093FD219093FE2150E1509361062093A3
:102C90007406409141094061409341094091010906
:102CA000407F4560409301098093F5219093F62180
:102CB000C0936106209370064091010940614093E2
:102CC000010940914108407F45604093410880934D
:102CD000ED219093EE2150934106209354064091AC
:102CE000410840614093410840910108407F4560A0
:102CF000409301088093E5219093E621C09341061B
:102D0000209350068091010880618093010880E043
:102D10009EE18093CE219093CF211092CC211092EE
:102D2000CD21C093D02181E090E08093DA2190936F
:102D3000DB21209361062093770660936106209340
:102D40007506309362065093610620937406509383
:102D5000650688E08093610620937306809365067C
:102D600081E58093C0091092422010924320C093C5
:102D7000000A89E992E08093360A9093370A80919D
:102D8000010A807F8093010A8091060A8C7F82600D
:102D90008093060ADF91CF9108950F931F93CF93ED
:102DA000DF93FC0172A140E0772309F470C0272F64
:102DB00030E0E901CC0FDD1FDE01A20FB31FAE0F23
:102DC000BF1F11965C91C9010196561751F0DC01A5
:102DD000AA0FBB1FA80FB91FAE0FBF1F472F7C91B3
:102DE000E3CF4423A1F0DC01AA0FBB1FA80FB91F3A
:102DF000AE0FBF1F6C9150E04F5F5F4FDA01AA0F1B
:102E0000BB1FA40FB51FAE0FBF1F6C9309C0DC0121
:102E1000AA0FBB1FA80FB91FAE0FBF1F4C9142A333
:102E2000008140E050E0142F4017E0F44F5F5F4F07
:102E3000DF01A40FB51F92966C916713F4CF612F39
:102E400070E0402F50E0415051096417750754F469
:102E5000DF01A60FB71F94964C91949793964C93CD
:102E60001F5FEDCFDC01AA0FBB1FA80FB91FAE0F6C
:102E7000BF1F1C92DE01A20FB31FAE0FBF1F8FEF4B
:102E800011968C93119712961C9201500083DF913A
:102E9000CF911F910F9108950F931F93CF93DF93BD
:102EA00090914F232091502321112EC0891B8F70A8
:102EB000082F10E03EE2839FE0011124C15FDD4D49
:102EC000CE010E94CD1628812223A9F0D801AA0F95
:102ED000BB1FA153BD4D8AA190E0FC01EE0FFF1F67
:102EE000E80FF91FEC0FFD1F818130E8839FC001BF
:102EF00011248D939C93F801E952FD4D81E021113D
:102F000001C080E080830BC086E092E20E94A11D98
:102F10008F3F29F0E82FF0E0E952FD4D1082DF915C
:102F2000CF911F910F910895A0E0B0E0EAE9F7E199
:102F30000C94C71EE62EC42E90914F23F82EF91A3A
:102F40002F2D2F70F22E411103C0822F0E944C179B
:102F50008091502381116DC00F2D10E08EE2F89EFC
:102F6000E0011124C15FDD4D6E2DCE010E94CD1612
:102F700088818A3091F420E030E0FE01E20FF31FF7
:102F80008681811101C0B4802D5F3F4F2E31310504
:102F9000A1F76B2DCE010E94CD1680E090E021E0DC
:102FA000FE01E80FF91F34813F3F29F02F5F0396A0
:102FB0002B30B1F701C0D22E2D2D30E0C901019682
:102FC000FC01EE0FFF1FE80FF91FEC0FFD1F8AA198
:102FD0008083B901660F771FFB01E20FF31FEC0F2F
:102FE000FD1FE182C282DAA2A88180E090E0B82FC2
:102FF0008A17E0F5AC01FE01E80FF91F83A190E00C
:10300000FC01EE0FFF1FE80FF91FEC0FFD1FE18120
:10301000CA010196EE1658F78A2FFE01B81730F450
:10302000E80FF11D92A193A38150F7CFE40FF51F94
:1030300020C06E2D86E092E20E945A1DF82EE82FE5
:10304000F0E0EE0FFF1FE153FD4D20E8E29EC001CE
:10305000112480839183EF2DF0E0E952FD4D81E052
:103060008083CDB7DEB7E9E00C94E01EFE01EA0FE5
:10307000F11DD3A2AF5FA883D801AA0FBB1FA15334
:10308000BD4DFB01E20FF31FEC0FFD1F818120E816
:10309000829FC00111248D939C93DDCF0F931F93CA
:1030A000CF93DF93EC01862F062F007F162F1F7022
:1030B000003FA9F02091502390914F2321110AC085
:1030C000212F30E0291B31092F703327243031059F
:1030D00034F002C0191719F00E94571259C00E940B
:1030E0005712003941F44A816981812F442351F0FC
:1030F0000E9494174DC0013940F4003809F048C0CF
:103100006981812F0E944C1743C0003B81F4898163
:103110008937F1F580914F23181B1F70E12FF0E0E4
:10312000EE0FFF1FE953FD4D1082118231C0003EAA
:1031300079F580914F239A81298130E040E8949F6E
:10314000200D311D1124305275E0359527957A9563
:10315000E1F790915023992389F02093C72230936F
:10316000C8222093C9223093CA222093CB223093C5
:10317000CC222093CD223093CE220AC0181B1F7080
:10318000E12FF0E0EE0FFF1FE953FD4D2083318367
:10319000DF91CF911F910F9108950E94C9158CEC7A
:1031A00091E20E94C5108091482190914921891B8C
:1031B0008F7709F466C080914921E82FF0E0E65B43
:1031C000FE4D60818F5F8F7780934921683F28F0A3
:1031D0008FEF91E20E944E18E6CF67FF2FC010924A
:1031E000032281E080930422862F807F803A61F061
:1031F00028F4803849F08039C9F406C0803E21F0B7
:10320000803F31F0803B91F482E08093042213C030
:10321000862F8F709FEF980F923020F482E080937A
:10322000042204C0843010F010920422673F19F485
:103230001092FF210DC06093FF210AC0E09103228C
:1032400081E08E0F80930322F0E0E150FE4D618318
:103250009091032280910422981708F4A4CF6091E2
:10326000FF218FEF91E20E944E181092032280916D
:10327000FF21813F08F497CF109204221092FF2182
:1032800092CF8091CA219091CB21C09790F18091EB
:10329000CA219091CB21C0978093CA219093CB21D2
:1032A000609108066F706095A091732380E090E0B4
:1032B00071E0272F2623A1F0272F2A2389F4FC0170
:1032C000E551FD4D44814F3F59F04F5F44835527F1
:1032D00047FD5095238130E0421753070CF01482CC
:1032E000770F49968436910521F7609373230E94E6
:1032F000001C8091880680FF04C0809106098360CD
:1033000003C0809106098C7F8093060948CF1092F4
:10331000FF2110920322109204220895AF92BF92CF
:10332000CF92DF92EF92FF920F93CF93DF937C01C6
:103330006B01EA015901BC01C6010E940F1EC601C2
:103340008C0F9D1F0E94D31DF70197012C0F3D1F6D
:1033500090E0E217F30719F04191940FFACF891327
:1033600002C0002329F0AE01B501C7010E948F1EE3
:10337000DF91CF910F91FF90EF90DF90CF90BF90B2
:10338000AF900895CF93FC019C012A593F4FC0E0B4
:10339000E217F30719F04191C40FFACF46E650E067
:1033A000BC0180E090E00E94401E6C2F86E690E019
:1033B0000E94F01DCF9108950F93882381F001E0C2
:1033C00021E23FE146E650E060E070E08BEE92E201
:1033D0000E948E198BEE92E20E94C2190BC000E08F
:1033E00021E23FE146E650E060E070E08BEE92E2E1
:1033F0000E948E190F9108958BEE92E20E94C219DD
:1034000008950F931F93CF93DC0116968D919C9195
:103410001797059719F480E09AEF02C080E09CE0CE
:10342000681B790B77FF02C07A5FFCCFC0E06115A3
:1034300086E078071CF07650CF5FF9CFCB019695E8
:1034400087959695879596958795969587956F70AC
:1034500020E1629FB0011124880F991FFC01E15AFD
:10346000F14E259134918F59914EFC0185919491A3
:103470008901081B190B9927069F812D169F800D26
:10348000911D1124281B390B02C036952795CA952A
:10349000E2F712962D933C9313974530510521F492
:1034A00015964C91159704C0FA01E05EFF4D4081DE
:1034B0009927249F812D349F800D911D11248D9378
:1034C0009C93CF911F910F910895AC01660F771FC8
:1034D000660F771F660F771F660F771F2227469F9D
:1034E000312D5703C001749F300D811D921F56036B
:1034F000920B300D811D921F11240895CF93DF93FD
:10350000EC018D899E890E94651A2B893C89280FC0
:10351000391F37FF02C020E030E08981882319F08D
:10352000205C3F4F20782F3F8FE3380714F02FEFB8
:103530003FE3C901DF91CF91089580EF80930106A9
:103540008FE080932206E2E4F6E092E0908398E038
:1035500090838093B00088E1E0E2F6E0808BE0E4C5
:10356000F6E0818B838B1092742310927523109256
:103570007023109271231092722346E050E06FEF97
:1035800070E082E593E20E94981E80E1EAE5F3E2B2
:10359000DF011D928A95E9F708958430B8F42091EF
:1035A0007423309175232130310539F4109274233E
:1035B000109275230E94FC19089521E030E02093B9
:1035C000742330937523809372230895853011F40A
:1035D0000E9427130895A0E0B0E0E1EFFAE10C9417
:1035E000C61E843008F0F1C02091742330917523F9
:1035F0002230310509F46BC044F42115310509F47A
:103600004FC02130310551F0F6C02330310509F4A7
:1036100065C02430310509F4B3C0EDC08230D9F063
:103620008330D9F1E0917223813059F089E1E89F2C
:10363000F0011124E551FD4D818191E089278183BD
:10364000DAC099E1E99FF0011124E551FD4D928125
:1036500098279283D0C084E090E080937423909365
:1036600075238091722390E0FC01EE0FFF1FE65A54
:10367000FC4D20813181209358233093592329E137
:10368000289FF001299FF00D1124E551FD4D81E0A7
:1036900083839FEF94838283AEC082E090E019C061
:1036A000282F30E099E1899FF0011124E551FD4D6B
:1036B00080818F5F863008F080E099E1929FF00171
:1036C000939FF00D1124E551FD4D808394C083E05C
:1036D00090E080937423909375238DC0C0917223E2
:1036E000D0E0FE01EE0FFF1FEE59FC4DC080D180EF
:1036F00000916C2310916D23E0906A23F0906B236E
:103700000E151F0541F198012E193F09442737FD79
:103710004095542F60E070E080EC90E00E949F1E86
:1037200089E18C9F50018D9FB00C1124F501E5516A
:10373000FD4D5F01258B368BB701600F711F7595AD
:103740006795C9010E94651A20E03EE1281B390BEC
:10375000F501238B348B89E18C9F80018D9F100DA7
:10376000112405511D4DB601F801858996890E94E5
:10377000651A919581959109F801878B908F1EC0EC
:10378000E091722399E1E99FF0011124E551FD4D8B
:1037900043812FEF240F922F9370891771F090E0DF
:1037A00030E02F5F3F4F237033278217930719F5BF
:1037B000483018F44F5F43831EC014820E94FC19E6
:1037C000109274231092752316C0843051F485E052
:1037D00090E0809374239093752381E08093052279
:1037E0000AC0809150238F5F8170809350230E9484
:1037F000FC190E942713CDB7DEB7EAE00C94DF1E58
:10380000A0E0B0E0E6E0FCE10C94C91E209170233A
:10381000309171232F5F3F4F20937023309371239A
:1038200080916E2390916F23019680936E239093E5
:103830006F2380917423909175238230910509F450
:103840004AC02CF4009759F0019761F006C084300B
:10385000910571F15CF10597C9F020E03DC0209120
:1038600073233AC0E091722389E1E89FF0011124AB
:10387000E551FD4D818192819111826027FF03C046
:10388000282F246029C0282F286026C0220F232F2C
:10389000221F330B319521702195809105228111D2
:1038A0001BC0109274231092752316C02FE014C011
:1038B000E091722329E1E29FF0011124E551FD4DD1
:1038C000838190E001978370992721E001C0220F46
:1038D0008A95EAF701C023E0309104062F70E22FA9
:1038E000F0E0EA5DFF4D8081E0E18E9FC001112490
:1038F0003F70382B30930406E0912806EF70F0E01B
:10390000EA5DFF4D9081E2E5F3E28081880F292F87
:103910002170822B8193969523E2E635F207A9F771
:10392000909148069695917080915623880F892B27
:10393000809356239091480693FB992790F98091A4
:103940005723880F892B80935723C2E5D3E2F12CAC
:103950008E0188818E3F29F410926E2310926F237E
:103960000CC081110AC020916E2330916F2328353D
:10397000324019F48F2D0E94CD1A2196F8018081D2
:10398000813051F420916E2330916F2328353240DD
:1039900018F48F2D0E94EB1AF39426E0F212D8CF80
:1039A00080917423909175230497F1F5E09172232F
:1039B0008E2F90E029E1E29FF0011124E551FD4DA9
:1039C00043819C01220F331F413049F4F901E65A2B
:1039D000FC4D408151814093582350935923F90164
:1039E000E65AFC4D60817181E0905823F090592394
:1039F00029E1289FE001299FD00D1124C551DD4DFB
:103A0000DB8081E08D1580F4CE010E947E1A8C014E
:103A1000B701CE010E947E1ACD0DD11DCD0DD11D55
:103A2000081B190B09831A83CDB7DEB7E7E00C94A6
:103A3000E21EFC0110821182128213820895CF933C
:103A4000DF93EC010E94191D83E08C8382E08D835B
:103A500081E08E831F82DF91CF910895FC017085F4
:103A6000A82FFC018E2F8A1B871748F441914F77AE
:103A700050E0262F30E042175307A1F701C08FEF27
:103A8000089520E030E043E0FC01E20FF31F57818E
:103A9000561739F0FC01E40FF11D47FDFA955483E8
:103AA0004150215031092C3F5FEF350769F7FC0188
:103AB00064830895FF920F931F93CF93DF93EC01DC
:103AC000F62E08850023B9F10E942E1D182F8F3F76
:103AD00031F520E030E0FE01E20FF31F8481801712
:103AE00030F4FE01E80FF11D908197FF182F2F5F32
:103AF0003F4F2430310579F7812F1F3F81F420E0BB
:103B000030E0FE01E20FF31F1481101708F0182FA8
:103B10002F5F3F4F2430310511F0812FF2CFFE018E
:103B2000E10FF11D8F2D80688083612FCE010E94EF
:103B3000411D812F01C08FEFCDB7DEB7E5E00C94BA
:103B4000E41E1F93CF93DF93EC010E942E1D182FCC
:103B50008F3F51F0FE01E80FF11D80818F77808348
:103B6000612FCE010E94411D812FDF91CF911F91C6
:103B70000895EBECF1E021E030E088ED90E084BFC7
:103B8000208308958091CF0187FDFCCF08950E9486
:103B9000C21D8091CF0181FF05C086E38093CA01D9
:103BA0000E94B91D0895A2E0B0E0E9EDFDE10C949A
:103BB000CC1E89839A830E94C21D00EC11E089818A
:103BC000F80180839A819F719183128286E08287B7
:103BD0000E94B91DF80184812296E4E00C94E51E50
:103BE000A3E0B0E0E6EFFDE10C94CE1E69838A838A
:103BF0009B830E94C71DE0ECF1E023E322878A81CA
:103C000080839B819F71918312826981648385E3A4
:103C100082870E94B91D2396E2E00C94E71EA2E081
:103C2000B0E0E5E1FEE10C94C61E5C017A01109261
:103C3000C20169837A830E94C21D6981062F7A813D
:103C4000172F6501CE0CDF1CAC14BD04A1F0A092AF
:103C5000C0018B2D8F718093C10186E08093CA01D2
:103C60000E94B91D8091C401F80181938F01FFEF7B
:103C7000AF1ABF0AE9CFC7012296EAE00C94DF1E13
:103C8000A3E0B0E0E6E4FEE10C94C61E6A01282F32
:103C90002F718C01021B110929836A837B830E9487
:103CA000C71D0E94C21D83E38093CA011092C10107
:103CB0001092C2016A81E62E7B81F72E560129817E
:103CC000A114B10421F12093C001F70181917F017A
:103CD0008093C401F1E0AF1AB108A114B10419F046
:103CE0002F5F203269F70093C001812F8F7180937D
:103CF000C10185E38093CA010E94B91D005E1F4F78
:103D00000E94C21D83E38093CA0120E0D9CFC6017F
:103D10002396EAE00C94DF1EF8940C94171FFB0125
:103D2000DC0102C005900D9241505040D8F7089533
:103D3000DC0101C06D9341505040E0F70895052E1D
:103D400097FB1EF400940E94B61E57FD07D00E94F8
:103D5000EF1E07FC03D04EF40C94B61E5095409510
:103D6000309521953F4F4F4F5F4F08959095809527
:103D7000709561957F4F8F4F9F4F08952F923F927F
:103D80004F925F926F927F928F929F92AF92BF926B
:103D9000CF92DF92EF92FF920F931F93CF93DF9317
:103DA000CDB7DEB7CA1BDB0BCDBFDEBF09942A88B7
:103DB000398848885F846E847D848C849B84AA843F
:103DC000B984C884DF80EE80FD800C811B81AA81CC
:103DD000B981CE0FD11DCDBFDEBFED010895A1E2A7
:103DE0001A2EAA1BBB1BFD010DC0AA1FBB1FEE1F75
:103DF000FF1FA217B307E407F50720F0A21BB30BC0
:103E0000E40BF50B661F771F881F991F1A9469F73B
:103E100060957095809590959B01AC01BD01CF0197
:103E20000895EE0FFF1F0590F491E02D0994F8948A
:023E3000FFCFC2
:103E32009C199B179A1599139811970F960D960D29
:103E4200950B94099307920591039001960D960D97
:103E5200805540200D0A0008040C020A060E0109D2
:063E6200050D030B070F24
:00000001FF
