:020000040800F2
:10400000FC04002089CD00083D4C00082D4C000820
:10401000314C0008354C0008394C00080000000005
:10402000000000000000000000000000414C0008FB
:10403000454C000800000000494C00084D4C0008A9
:10404000C9CD0008C9CD0008C9CD0008C9CD0008F8
:10405000C9CD0008C9CD0008C9CD0008C9CD0008E8
:10406000C9CD0008C9CD0008C9CD0008C9CD0008D8
:10407000C9CD0008C9CD0008C9CD0008C9CD0008C8
:10408000C9CD0008C9CD0008C9CD0008C9CD0008B8
:10409000C9CD0008C9CD0008C9CD0008C9CD0008A8
:1040A000C9CD0008594C0008C9CD0008C9CD000889
:1040B000C9CD0008C9CD0008C9CD0008C9CD000888
:1040C000C9CD0008C9CD0008C9CD0008C9CD000878
:1040D000C9CD0008C9CD0008C9CD0008C9CD000868
:1040E000C9CD0008C9CD0008C9CD000800000000F6
:1040F00000000000000000000000000000000000C0
:1041000000000000000000005FF808F12DE9F00F4A
:1041100082B09DF82860036B0468751E4FEA9349CE
:104120004FEA9448EDB2002E00F0BA8046680232A1
:10413000370A01978AE0B0F90C7004EB0747FF1AC1
:1041400000F1B380B74228BF374606EB5707DB19AB
:1041500013D33F0AB3FBF7FC41F23457BC450CD8EC
:104160008769013707F0010707F1040A876100EB4F
:10417000CA0740F83AC0C7F80490A64213D9019F75
:10418000B4FBF7FC41F23457BC450CD887690137C2
:1041900007F0010707F1040900EBC90A876140F83D
:1041A00039C0CAF804804FEA94484FEA9349D0F8DE
:1041B00024C008EB0907A7F58047BCF1000F18D011
:1041C000D0F820B048F2484AC0F6010A3AF91BA0DC
:1041D0000BF5807B0AFB0CFC41F2345AD34507EB0C
:1041E000EC3788BF4FF0000CC0F820B088BFC0F893
:1041F00024C0D0F82CC0BCF1000F18D0D0F828B0E3
:1042000048F2484AC0F6010A3AF91BA00BF5807B38
:104210000AFB0CFC41F2345AD34507EBEC3788BF5C
:104220004FF0000CC0F828B088BFC0F82CC022F8AE
:10423000027C478A0FFA87FCBCF5505F3CDC013DED
:10424000EDB2FF2D02F102022AD00468344404606A
:1042500011F8017B17B1002423460460B0F91270F5
:10426000B7F5605FFFF667AF4FF0000A4FF6FF7CCF
:1042700048F24427240EC0F6010737F9147032F9CA
:10428000024C7F100CFB07FC0AFB04CA013DEDB297
:104290004FEA2A4AFF2D22F802AC02F10202D4D1E1
:1042A000036302B0BDE8F00F7047FF43B74228BF79
:1042B0003746A6EB57074AE7BCF5605FD4DABF0183
:1042C0004FF6C07C07EA0C0CCCF57F4A0AF1FF0AD6
:1042D000CEE700BF2DE9F00F82B09DF828305C1EBC
:1042E000E4B2002B00F08E8046680232370A036881
:1042F0003344036011F8015B0DB100230360B0F992
:104300001250B5F5605F80F281809E4200F2998084
:10431000056B002D00F09180013D0563002D40F0FC
:10432000B280456B41F23458B5FBF7FCC4454FEA07
:1043300093450195B0F8389015D88569DDF804806B
:1043400005F1010A0FFA89FB0AF0010AC3440AF1D8
:104350000408CBF1000B00EBC809C0F818A040F826
:1043600038C0C9F804B0DDF804C0ACF50055D0F889
:1043700024C0BCF1000F18D0D0F8209048F2484873
:10438000C0F6010838F919A009F580780AFB0CFC81
:1043900041F23459C84505EBEC3588BF4FF0000CAD
:1043A000C0F8208088BFC0F824C0D0F82CC0BCF171
:1043B000000F18D0D0F8289048F24848C0F60108FD
:1043C00038F919A009F580780AFB0CFC41F2345940
:1043D000C84505EBEC3588BF4FF0000CC0F82880CD
:1043E00088BFC0F82CC022F8025C458A0FFA85FC11
:1043F000BCF5505F7EDC013CE4B2FF2C02F102020E
:104400007FF475AF02B0BDE8F00F70474FF00008C1
:104410004FF6FF7C48F244251B0EC0F6010535F926
:10442000135032F9023C6D100CFB05FC08FB03C86D
:104430004FEA284822F8028CDDE79D0CA5F50055CF
:1044400095E7B0F90C50B0F81080B3FBF7FC41F2DF
:104450003459CC4543630563A0F838803FF659AF23
:1044600085690FFA88F8013505F0010505F10409A1
:1044700008F5804800EBC90A8561056B40F839C032
:10448000CAF8048045E7B3F1804F2AD903F1404CC4
:10449000BCFBF7FC41F234589D0CC4450195B0F8C3
:1044A000389015D885690FFA89FBDDF8048005F18D
:1044B000010909F00109C34409F10408CBF1000B1B
:1044C00000EBC80AC0F8189040F838C0CAF804B029
:1044D000DDF804804FF0000CA8F50055C0F830C09E
:1044E00045E74FF46045B0F938C0CFF6FF75CCEB27
:1044F00005053CE7BCF5605F88DAAD014FF6C07C8E
:1045000005EA0C0CCCF57F4808F1FF0882E700BFF4
:104510002DE9F00FB0F90CC09DF82040BCF5FD4F1F
:10452000CABF4FF4FD45CCF5004C858104F1FF3541
:10453000D4BF4FEA0C4C4FF0C07CEDB2002C00F021
:10454000C3804468023A77E0B0F912600768B6F5B4
:10455000605F80F28980067F002E00F09580BC4568
:1045600000F2AF80260ACCEB0708B8FBF6F841F260
:104570003456B0450ED8866947F6FF7A013606F004
:10458000010606F1040900EBC90B866140F8398089
:10459000CBF804A0002606774CF20106CFF6FF7692
:1045A000D0F82480B8F1000F18D0D0F820A048F23D
:1045B0004849C0F6010939F91AB00AF580790BFBB0
:1045C00008F841F2345AD14506EBE83688BF4FF07F
:1045D0000008C0F8209088BFC0F82480D0F82C8054
:1045E000B8F1000F18D0D0F828A048F24849C0F61A
:1045F000010939F91AB00AF580790BFB08F841F284
:10460000345AD14506EBE83688BF4FF00008C0F8B1
:10461000289088BFC0F82C80B6B25680B0F81280BF
:104620000FFA88F9B9F5505F51DC013DEDB27642E1
:10463000FF2D22F8026F47D006682644066033B18A
:10464000A6422CBF002401241C704468013311F8D9
:10465000016B002E3FF478AFB0F912600027B6F579
:10466000605F0760FFF677AF00264FF6FF7948F2EC
:1046700044283F0EC0F6010838F917707F1009FB77
:104680000766360C5680D0E7BC4285D94FEA14281D
:10469000B7FBF8F841F23456B04510D8866948F2B5
:1046A0000109013606F0010606F1040ACFF6FF798A
:1046B00000EBCA0B866140F83A80CBF804900126E3
:1046C000067743F6FF766BE7BDE8F00F7047B9F564
:1046D000605FC9DA4FEA88184FF6C07908EA09091D
:1046E000C9F57F4836B208F1FF0806FB08F6BEE7B9
:1046F0002DE9F0019DF8145047686C1E7F08E4B264
:104700000368FDB111F8015B013C002D18BF0023C7
:10471000DD19EB191E0C2D0C46F3C03845F3C03CD7
:1047200088EA46068CEA4505A6F50046A5F500454B
:1047300046F34E0645F34E05E4B23544FF2C22F80D
:10474000025BDFD10360BDE8F00170472DE9F003A3
:1047500090E808109DF81840651EEDB274B348F259
:104760004427C0F6010716E007EB0804C3F30F2641
:1047700008F10208248837F908900FFA84F8C8EB8A
:10478000090806FB08F6013DEDB204EB2644FF2DB7
:1047900022F8024B12D0634411F8019B4FEA1368D0
:1047A0004FEA4808002648F24424B9F1000FDBD054
:1047B000C0F601044FF002083346DBE70360BDE8B2
:1047C000F00370472DE9F00F84B003908589B0F9AC
:1047D0000E00039E9DF8304001907368DDF8048060
:1047E000DDF80CB02FB2601E47F6FF764FEA530A91
:1047F000C8EB0707C0B2DBF8003096FBF4F6002CDC
:1048000070D006FB07F64BF2B8090296C0F6010914
:10481000344611F8015BDDF804C0002D18BF0023F9
:1048200053441D0C0CEBE43645F3C037C6EB0616BB
:1048300087EA450746F31016A7F5004706F5006618
:1048400036B23FB206FB07F753444FEA134848F32A
:10485000C03BC7F3CF3787F400478BEA4808DFF83F
:1048600094B04FEA272C39F81C503BF91CC0A8F52E
:104870000048CDF800C0DDF800B00FFA85FCCCEBA5
:104880000B0C0FFA88F8FFB207FB0CF708FB06F6D3
:1048900005EB2725C6F3CF3686F4004645F34E05D3
:1048A00015804FEA262CDFF84C8039F81C7038F957
:1048B0001CB00FFA87FCCCEB0B0CF6B206FB0CF627
:1048C000013807EB262747F34E07C0B2DDF808B0E2
:1048D0003D44FF285C4422F8025B9AD1DDF80CC00D
:1048E000BCF80C500398C581036004B0BDE8F00F1C
:1048F000704700BFBAB001082DE9F00F84B00390F3
:104900008589B0F90E00039E9DF8304001907368D0
:10491000DDF804B0DDF80CC02FB2601E47F6FF765C
:104920004FEA5309CBEB0707C0B2DCF8003096FB27
:10493000F4F6002C00F0898006FB07F648F24428C4
:104940004BF2C46C0296C0F60108C0F6010C344666
:1049500011F8015B019F002D18BF00234B4407EBAA
:10496000E436DFF8FCB01F0E38F817503BF917A0FB
:104970002FB2C7EB0A07C3F30F2A0AFB07FAC6EBED
:10498000061646F3101605EB2A4A06F5006636B2FF
:104990000FFA8AFA06FB0AFACAF3CF3A8AF4004AF7
:1049A0004FEA2A25DFF8BCB03CF815703BF91550EA
:1049B0000FFA87FB5FFA8AFACBEB05050AFB05F5D0
:1049C00007EB25254B4445F34E05DFF894B01580E1
:1049D0004FEA136A38F81A703BF91AA00138CDF87B
:1049E00000A0DDF800B00FFA87FACAEB0B0AC3F398
:1049F0000F2B0BFB0AFA07EB2A473FB207FB06F720
:104A0000C7F3CF3787F40047DFF858B04FEA272ABB
:104A10003CF81A603BF91AA0FFB2CDF800A0DDF80F
:104A200000B00FFA86FACAEB0B0A07FB0AF706EB8F
:104A3000272646F34E063544C0B2029EFF28344472
:104A400022F8025B84D1039FBD89DDF80CB0ABF87E
:104A50000E50CBF8003004B0BDE8F00F704700BF37
:104A600046820108C6B60108B0F90C302DE9F00FF6
:104A7000C3F5FF43B0F912407F3304EB63039C019D
:104A80009B1282B0A4B20E2B00949DF8285059D8E6
:104A900040F2B024C2F2000403F1030618BF04334D
:104AA00054F826C00CBFD4F8448054F823806C1E00
:104AB000E4B2002D42D04368D0F8009001932CE07E
:104AC000AF1CC6F30F23B1463CF805603CF907B0B4
:104AD00038F805500FFA86FA38F90770CAEB0B0A56
:104AE0000FFA85FB03FB0AFACBEB070703FB07F77B
:104AF00006EB2A4A1FFA8AFA05EB27450FFA8AF6CF
:104B00002DB2009BAD1B03FB05F5013CE4B20AEBA3
:104B1000254AFF2C22F802AB10D0019E00274E44FC
:104B2000066011F8019B350E3B466D00B9F1000F90
:104B3000C6D007601D4602279946C5E702B0BDE80A
:104B4000F00F704740F2B023C2F20003D3F844C024
:104B5000E046ACE744F2FF539942A8BF1946B1F5CD
:104B6000804310B44FF0000004D513F5C06300F18A
:104B70000100FAD4191147F6B4124C1CC0F6010218
:104B800052F8244052F8212003F00F03A11A03FB2E
:104B900001F302EB231222FA00F05DF8044B704798
:104BA0002DE9F04F067D044640F20005407DC2F23B
:104BB000000505EBC60783B0B04255F836B08A460B
:104BC000914698467F689DF8305009D0242204F120
:104BD0001800002108F002F9227D0023627523608D
:104BE000B4F9126020463146FFF7B4FFB6F58C4F9A
:104BF000C8BF4FF48C436060C8BF638203DC002EE3
:104C0000BCBF00236382FB0745BF7F10E35904EB61
:104C1000670053F80B6054BF5E46E019009551469B
:104C20004A464346B04703B0BDE8F08FFEE700BFF9
:104C3000FEE700BFFEE700BFFEE700BF704700BF12
:104C4000704700BF704700BF704700BF44F6D800F0
:104C5000C2F2000006F072BE4FF43053C4F20103FA
:104C60001A8A2DE9F001D20702D4BDE8F00170479D
:104C70004FF6FE7244F698111A82C2F2000144F611
:104C800020600B68C2F20000046803EB430240F2AC
:104C9000005304EBC202C2F2000333F812204FF4B7
:104CA000605582F400424FF44063C4F201034FF4B4
:104CB0008056170AC4F200051E615E61AF8100BF15
:104CC00000BF00BF00BF00BF00BF00BF00BF00BFEC
:104CD00000BF00BF00BF00BF00BF00BF00BF4FF458
:104CE0006053120295B2C4F200034FF400629D813A
:104CF000C4F20102966844F69413C2F2000386F0EF
:104D000010061A78C6F30016B4463746002A6BD14F
:104D100044F6CC120968C2F20002157801EB410892
:104D200004EBC8082F43013440F2C05144F69815F3
:104D3000172CC2F20001C2F2000501F808C088BFBA
:104D400029681E7082BF00230131036044F6A4135A
:104D500088BF01F00301C2F2000388BF2960D9783F
:104D600098BF04600129177073D041D302290BD179
:104D70004FF44051C4F201018C89002004F00F046B
:104D800024021C808881D870598844F6A413B1F598
:104D9000807FC2F200037FF468AF9D88DC881889A9
:104DA00044F6D8015B89C2F20001A1F8AA50A1F82B
:104DB000AC40A1F8AE00A1F8B030002F37D140F2DE
:104DC000FC43C2F20003198800293FF44EAF0139B9
:104DD00089B2198000297FF448AF44F6A013C2F2CB
:104DE000000301221A7040E74FF0000C67468FE77E
:104DF0004FF44050C4F20100848999781D884E1CFC
:104E000025434FF44064ADB203EB4108C4F2010402
:104E1000012106F003064FF0060C1D80A8F804508F
:104E200021616161A0F80CC09E70D970ACE744F6B6
:104E30003863C2F200035B79012113B1994001315B
:104E400089B240F2FC43C2F20003002019801070C6
:104E5000BAE79C784FF44051C4F20101A40102204A
:104E60008D898C81D8708FE744F69C10F8B50122AB
:104E700040F2ED21C2F2000007F0C2FA44F63860B9
:104E8000C2F2000006F026FC44F6D800C2F2000090
:104E9000002506F039FD44F69C6344F6A410C2F2E6
:104EA00000032946C2F200001D6007F06FF844F6C7
:104EB0009410C2F2000007F0DFF940F2206444F6DB
:104EC0002C60C2F20004C2F2000007F0CFF82946BD
:104ED000A567E567C4F88050C4F88450C4F88850CA
:104EE000C4F88C50C4F89050C4F89450C4F898504A
:104EF0002566C4F8B450C4F8B850C4F8BC50C4F81F
:104F0000C050C4F8C450C4F8C850C4F8CC50C4F859
:104F1000D050C4F8D450C4F89C5004F59A70D022F4
:104F200007F05CFF4FF48456012340F6FD724FF406
:104F3000804144F62460C4F80452C4F80C52C4F80A
:104F40001052C4F81852C4F82052C4F82452C4F8BD
:104F50002C52C4F83452C4F83852C4F84052C4F841
:104F60004852C4F84C52C4F86852C4F86C52C4F8A1
:104F70005C52C4F88852C4F88C52C4F87C52C4F80D
:104F8000A852C4F8AC52C4F80822C4F81C22C4F8D1
:104F90003022C4F84422A4F85662A4F87662A4F839
:104FA0009662A4F85812A4F8781284F8543284F85F
:104FB000703284F8743284F89032C2F20000A4F89F
:104FC0009812C4F89C52C4F8145184F8943284F8AE
:104FD000B03284F8303184F82F3107F063F99E4CF9
:104FE0009E4D04F1C006A4F13003002223F8022BE9
:104FF0009C42FAD1A5F11803002203F8012BAB4221
:10500000FAD1A4F13202002303F6AA2022F8023FCB
:105010004FF6F07183B28B42F6D13034B44205F1D1
:105020001805E0D144F6D013C2F2000300214FF27C
:10503000F07299601961C1F6FF7244F6981544F652
:10504000901044F6206416684FF6FF7CC2F200050B
:105050000227C2F20000C2F20004814AA3F814C081
:10506000598399832F60216001606FF07F031902DB
:105070000133802B42F8041FF9D146F20D63C0F2D0
:10508000190303FB06F34FF25F32C3F66E421A4474
:10509000C2F30313083B99B201FB01F14FF6FF7015
:1050A00010EA230338BF012301FB03F602F00F03CC
:1050B0009B00C03344F6182436B2170A1D46C2F2CC
:1050C0000004581B06FB00F054F82320591C02EB87
:1050D000800244F823208BB2FF2BF2D9C7F30313CD
:1050E000083B9AB202FB02F24FF6FF7111EA23036A
:1050F00038BF012302FB03F007F00F0380B23E0A22
:105100009900B3B100B200FB01F244F61823C2F2D9
:10511000000301391D1D89B2C0EB807005EB8105CC
:10512000920080001968114443F8041BAB4202440A
:10513000F8D106F00300C0F180039BB27F309842A3
:105140004FEA960606DB00215A1C44F8231093B25E
:105150008342F8DD06F0030303FB03F3D4F80022D7
:10516000B60802EB0322C4F800220227F50806F075
:10517000070105F00705043D04EB81112DB28031D4
:10518000B6094FF6E0736FF01F02002AB6BF58420F
:10519000184680B200B2C0F1200005FB00F00A689A
:1051A00001339BB202EB40101AB2212A41F8040BE2
:1051B000EBD1013FBFB2002FD8D144F61822C2F282
:1051C000000202F2044052F8043B48F20101CFF61B
:1051D000FF718B42B8BF0B4604DB47F6FF718B4271
:1051E000A8BF0B46824242F8043CECD1D4F8FC2321
:1051F0004FF2EC73C4F80024C1F6FF731A6846F24C
:105200000D63C0F2190303FB02F34FF25F32C3F6E2
:105210006E421A44C2F30666C2F30645C2F3062480
:1052200044F6B01302F07F02C2F20003403640356C
:10523000403402F1400144F69C1000225E609D6003
:10524000DC6019611A605A619A61C2F20000BDE81F
:10525000F84007F023B900BF30050020D805002032
:10526000144A00202DE9F04F44F63864C2F20004DD
:10527000A27B4CF6346302EB4202C0F600039D1899
:10528000995C68784DF25C62C0F6000244F6D01377
:10529000C2F2000352F8200052F8211012685E6B2F
:1052A00058601960DA6053F82620586C00211044C9
:1052B000824287B05864D982198312D9721CD2B243
:1052C000588F042A1CBFC0EB0040010C03EB4200C6
:1052D000868A5A63002053F82220998719875E87AF
:1052E0005864002A00F00282596C4EF69802C0F60B
:1052F0000002080E961C36F8106032F81020C1F338
:105300000F21B01A01FB00F0598F02EB104292B24C
:1053100001FB02F1C2F57F46188FFF3606FB00162F
:10532000360C9E8794F803B044F6D8021BF00108AF
:1053300018BF95F80280C2F2000218BF08FB06F8F9
:1053400092F8951018BFC8F34F28022900F0808208
:10535000A57944F63860C2F20000002D40F0B88014
:1053600040F22061C2F2000101F5854E9EF83450F2
:10537000007844F6A41785421CBF012581F83051FE
:105380008EF83400C2F200074FF00009B888B7F871
:1053900006C008EBC00080B210F4004F47F6FF755E
:1053A00094F8098018BF28464FEACC0C0880A1F871
:1053B00002C03889B8F1000F00F0C18044F63465AE
:1053C000C2F20005B5F800A00AF1040E704500F322
:1053D000B580AAF1040E7045C0F2B080E57944F6BC
:1053E000386015F0FB0FC2F2000000F07781012D4C
:1053F00000F06482032D1FBFAAF2666A0AEBCA0A94
:105400004FEA6A0E0EF5F05E08BF4FF40A5EB8F17F
:10541000010F04BF0EF1200E2EF03F0E06D0B8F1A2
:10542000020F04BF0EF1400E2EF07F0EB9F1000FF7
:105430000AD1E0697F89032D1EBFC0EB0700C0EBD6
:10544000001040F3D309CE4444F62467C2F20007AB
:105450003878002840F04081B7F802807868A8F5D5
:105460000048C0EB082800EB28207860001444F6C0
:105470001C6794F80480C2F200077044D7F800E07B
:10548000B8F1000F0ED0CEEB000E0EF13F0EBEF1C4
:105490007E0F07D944F6CC1EC2F2000E4FF0010871
:1054A0008EF8008094F80BE03860BEF1000F40F0F9
:1054B0002181B0F5004F44DBA07A002800F024825F
:1054C0008B484FF0FC0EA0F5FF774FF4007C51E0C5
:1054D00044F6A41744F63061C2F20007C2F200019C
:1054E000B7F80AC0C069D1F800E0C0EB0C000EF1BB
:1054F000020C604540F3D48108602C2101FB00F0D0
:105500002178A94601EBE0212929DCBF21EAE171DC
:10551000C8B240F22061C2F2000101F5854E9EF84A
:1055200034C0C8BF2A2084451CBF4FF0010C81F84D
:1055300030C18EF8340082F8B70027E72880824611
:105540004CE70028C0F2E381A77ADFB1B0F5804FC5
:10555000B6DA80001FFA80FE4FEA2E2C4CF2F0776C
:105560004FEA4C0CC0F6010707EB0C000EF0FC0EE6
:105570000CF1020C008837F80C703F1A0EFB07FE86
:1055800000EB2E2080B294F808C04FF46E4EACF1C0
:10559000020CCFF6FF7E44F6A0170CEB4C0C042D4A
:1055A0000CBF75460025C2F2000705EB4C2597F8A5
:1055B0000080284440F220650881C2F20005B8F15D
:1055C000000F16D092F8B380B3F83CC0B3F814E0E3
:1055D0000021012008F1010882F8B380A3F838C047
:1055E000A3F83AE085F8300182F8B60059635964AF
:1055F000397044F69015C2F2000528682A6840F216
:10560000C05140F2005300EB4000C2F2000102EB37
:105610004202C2F20003BBF1010F01EBC00703EB32
:10562000021800F0458140F220603946C2F20000C5
:105630004246182305F030FFE17867784CF6506356
:1056400094F80CC0A078C0F600034CF66062C0F677
:10565000000211F0020F2C464FF6FF7133F817705D
:105660004FF0000332F8100008BF0E466546424670
:105670001946A446B3FBF0F400FB14340133C4B95B
:10568000118844F61824394081F400484FEA28294B
:10569000C2F2000409F1010A5FFA88F84DB154F82A
:1056A000291054F82A40641A08FB04F801EB282159
:1056B00089B20CB204FB06F4182B4FEA244422F8FA
:1056C000024BD7D1DCF80030013303F00303CCF8F0
:1056D000003007B0BDE8F08F0020C8E6D0F818E031
:1056E00040690EFB0AFE00EB2E3E90E69E8F19E607
:1056F000EEC9010844F6B01EC2F2000E40F2F82ACC
:10570000DEF80070C2F2000A43F23338CDF808A088
:10571000C0F23338B844029F48F244293F684FEA48
:10572000186AC0F60109019739F81A70ACF5804C77
:10573000009709F1020746F20D69C0F21909CDF888
:10574000109037F91A90DDF810A0019F0FFA8CFC29
:105750000AFB07F70597009F2CEAEC7C0FFA87FA03
:10576000CAEB090AC8F30F29CDF80C90039F4FF23A
:105770005F3907FB0AFA059FC3F66E49B944049FD7
:105780001FFA8CFC07FB09F70397009F4FEA1949A2
:1057900007EB2A4A0FFA8AFA2AEAEA7ACDF814A025
:1057A000DDF80CA0CDF80CC0DDF814C04FF25F3767
:1057B000ACF5355CC3F66E475744CDF814C047F6D8
:1057C000FF7ADDF808C0BAEB274FCEF80080CCF89E
:1057D00000701FFA89F87BD0DEF814C0039F0FFA1F
:1057E00088F80FFA87FADEF8087007FB0AFADEF885
:1057F0001870CDF808A0C7EB0C0CDDF814A0DEF88B
:10580000047007FB0AF9DEF8187007EB2C4CDEF881
:105810000C704FEAAC2A07FB08F8DEF81070CEF8DF
:1058200018C007FB0AFA029FCDF80CA04FEAA72A7E
:105830000AEBA93909EB6828DDF80C9008EB292759
:1058400017F5004FD8BF6FF07F0722DC384430E6F1
:1058500092F8981011297FF47BAD94F8621000291A
:105860003FF476AD40F22061C2F2000101F5854EB1
:105870009EF8340044F6A4172B281CBF012081F8A1
:1058800030012B208EF83400C2F2000794F8069005
:105890007CE5B7F5004FB4BF3F127F27384408E6D8
:1058A000AEF1020C6045A8BF7046BFF626AE23E6F7
:1058B00038460021182207F091FAB4E68069AAF26E
:1058C000666A00FB0AFE4FEA2E3E0EF5F05E9EE58C
:1058D000DDF810A019F0010F0AFB07FC4FF25F374B
:1058E000C3F66E476744DDF808C0CCF800704FEA95
:1058F000274CDEF8147018BF0CF1010C07EB0C27D5
:10590000CEF81470BC4669E747F6FF703BE6A07A14
:1059100000283FF438AE4CF2F077C0F60107384665
:105920004FF0000E4FF0020C24E600BF38B5FFF731
:105930009BFA44F6901544F69814C2F20005C2F2A0
:1059400000042A6823689A4205D0FFF78BFC2A6876
:1059500023689A42F9D144F6D800C2F2000006F05A
:105960008FFAEEE72DE9F00FB0F90C5044684FEADA
:10597000A5194FEA940882B0C9F5007903F1FF3AFE
:10598000934600911FFA89F9C0F804805FFA8AFAF9
:105990000268448C90F82070002B34D04FEA8803C2
:1059A0000193009B002513F8011B00931A4B00295B
:1059B00018BF0022114603F1100CA14598BFC47B0B
:1059C00041449EBF0F0E87EA4407A74353F8046F74
:1059D00095BF07EB54040134E7B2A4B298BF012489
:1059E000634506FB0755E8D12D120AF1FF3AA5F5EC
:1059F000DC455FFA8AFA019B303DBAF1FF0F2BF8C4
:105A0000025B1A44CDD180F820704484026002B059
:105A1000BDE8F00F704700BF50D200082DE9F00F2D
:105A2000B0F90EC0017F4FEAAC1C88B00CF1C80C75
:105A300002921FFA8CFC868900293BD040F2F8259F
:105A4000C2F20005296846F20D62C0F2190202FB9B
:105A500001F14FF25F32C3F66E420A44170C013770
:105A600007F007074DF278314FF0A00807EB470920
:105A7000C0F6000100242A60A0F8448001EB49012F
:105A800004774FEA0C3802460D78013408FB05F51F
:105A90001562CD78E4B2032C956301F1010102F1A6
:105AA0000402F1D140F6FF72052F8CBF1746002784
:105AB000A0F84670B0F84450002D00F0A080B0F877
:105AC0004610013DA0F84450049103F1FF3B5FFAFA
:105AD0008BFBCDF818B0002B00F08D8090E8080803
:105AE00040F2F8225B444DF6646C4EF28C0447F6AB
:105AF0003C46C2F200020793C0F6010CC0F6000457
:105B0000C0F60106059213680394079A0699E246C7
:105B1000019626E0B8444444150E24B2C5F1FF05B1
:105B200005FB04F5A5F50045ADB24FEA252C4FEA7B
:105B30004C0CEDB20CF10207019E013936F80C4015
:105B400036F907C027B2C7EB0C0705FB07F5029F24
:105B5000C9B204EB252427F8024BFF295A440297C7
:105B600042D046F20D64C0F2190404FB03FC056A3E
:105B7000C46A466A2F19056B4FF25F333544846A55
:105B8000466BC7624FEA1768C3F66E43876B3444AF
:105B9000634408F0F008049E4FEA156948EA0708D4
:105BA0004FEA234CC76B09F0F00906FB0C2C3AF8BE
:105BB000188049EA070705634FEA1469056C09F084
:105BC000F00949EA0509039D3AF81770DC4544637A
:105BD00035F819409ED20025C562056345634FF430
:105BE00081774FF4807CA7E70699079C059D0BFB06
:105BF000014202602B6008B0BDE8F00F704746F329
:105C000003314C1C4DF28C02C0F60002C6F30B06A9
:105C100004EB440401EB410102EB440402EB4101BB
:105C2000C6F5805702469A46237891F8008006FB15
:105C300003F307FB08330CFB03F3136294F80380B0
:105C400091F8039006FB08F807FB098801354FEA35
:105C50002833032D936304F1010401F1010102F1E2
:105C60000402E1D100225346A0F8462004922CE71A
:105C70002DE9F00F4468017F8CB064000690079313
:105C8000446000293DD0837E069D0133DBB2022BA8
:105C900084BF06980023837603EB8303DE0020365F
:105CA00000233544B4F5000FAB60234640F33B813D
:105CB000012100E001465B10B3F5000F01F1010086
:105CC000F8DC4FF480630B41A960581E069FDDF895
:105CD00018C0B7F90E10670001EB4101491001F53A
:105CE000005101FB03F14CF80630090CEC612F6206
:105CF0000023E8606961DCF804006B608CF81C30FC
:105D000000E020460699069D8B7EB1F90C1003EB4E
:105D1000830305EBC3031D6C854294BFDD63D86329
:105D2000B1F5804FA2BFCB10A3EB431303F50039AD
:105D30004FEA9433C3F580539BB218B2B8BF4FF605
:105D4000FF79FF28D8BF4FF48073B1F5804FBEBFF5
:105D50001BB2C1F580414B430699BCBFC3F38F33DF
:105D60000993B1F84410079BA4BF00200990089143
:105D7000002B00F0DD80069C40F2F821069DC2F267
:105D8000000104F5CD540432063405F5D0750B68D6
:105D90000B91039204940A95CA460027069D0A991E
:105DA00001976A6B002A49D046F20D60C0F21900D3
:105DB00000FB03F04FF25F33013AC3F66E436A63B0
:105DC00003441C1431F9120004EB44042044019CE8
:105DD0008010044421F812000194049F01F602018E
:105DE000B94205F12805DCD1DDF804C048F2010212
:105DF000CFF6FF729445BCBF019248F2010208DB66
:105E0000BCF5004FA9BF47F6FF701FFA8CF2019056
:105E100002460899019C08B2079D039F2044401048
:105E2000A91E27F8040C27F8022C11F0FF0107F136
:105E30000407039707916BD00892AEE7AA6BAF6A8D
:105E4000E86B07F1160C00EB020929FA0CFCD5F8F7
:105E50002C800CF1020C6A6A0CEA080C944502973B
:105E6000C5F8389052D0CDF81490A946099D46F255
:105E70000D60C0F2190000FB03F04FF25F33C3F670
:105E80006E4303449CB2501C00EA0800A24531F85E
:105E9000107001EB420631F812B011D30FFA8BFBF0
:105EA0003FB21BEB070743BF7F427F107F427F104B
:105EB0002DB12CB2C4F5004404FB07F7FF13378063
:105EC00022B90C88D9F8202021F81240844501D04D
:105ED0000246CCE74D46DDF81490029A686229FA32
:105EE00002F94FEA995031F8102001EB4000B0F967
:105EF000024010B2201AC9F38F1909FB00F9019C66
:105F000002EB294212B21444019466E76046E4E7CA
:105F1000DDF82CC0CCF800300698A0F844200CB076
:105F2000BDE8F00F704740F2FF304FF48063CDE6DC
:105F30000A46F1E72DE9F00F478AC4893EB206F11F
:105F4000400C25B286B065450391049200F3B08001
:105F5000403EB542A8BF3C46C0F2AA8021B201EB48
:105F60008101C1F3503101EBC1014DF2EC02490056
:105F7000C0F60002B0F90C60545C760004FB06F633
:105F80000A4402EB16425178947845684FF6B40201
:105F9000C0F600026D0801EBC11104EBC4145F1ED2
:105FA000029511441444FDB2002B00F08380B6B278
:105FB00003680596019065E006F10108C3F35702F6
:105FC000029811F808B014F808900344DDF8048032
:105FD000580E11F806C0471CA65DC8F8003011F82D
:105FE00007A014F807800F5CCCEB0B0B205CC6EB12
:105FF0000909C7EB0A0A02FB0BFB02FB09F9C3F311
:106000005702C0EB080802FB0AFA08FB02F84FEA45
:106010000C2C3F02ACF5004CA7F5004736020002FD
:106020000CEB2B4BA0F5004007EB2A4AA6F50046E7
:106030001FFA8BFB1FFA8AFA00EB284806EB294966
:106040000FFA8BFC0FFA8AF705980FFA89F90FFA05
:1060500088F8CCEB0909C7EB080800FB09F900FB3D
:1060600008F80BEB294B0AEB284A049A013D4BF345
:106070004E0B4AF34E0AEDB2DA4422F802ABFF2D82
:10608000049217D00298019A0344DDF80C80136043
:1060900018F8017B0020CDF80C8002465E0E002F20
:1060A0008AD0019B4FF0010818600646034687E737
:1060B000448253E706B0BDE8F00F70472DE9F00FBA
:1060C000B0F90EC0B0F90C50CCEB0C1CC5EB0515AB
:1060D0004FEA2C1C2D1196B0CCF3C426C5F3C4276F
:1060E0004FEA4C1C6D010C9001364BF6D0344FF644
:1060F000B4001FFA8CFCADB20F911092CDF810C015
:1061000006EB07110D95C0F60104C0F60000002251
:106110004D1EADB2665D12AF06EBC616655C064459
:10612000BE503E46164405EBC515083205441031F5
:10613000102A89B27560EBD1DDF83080591ED8F88D
:106140000420C9B252080E920991002B00F0008180
:10615000DDF834901299C9F57F43139A149C159D6C
:10616000FF33D8F800000591069207940895119323
:10617000D7E0460E751CC0F35703059CDDF8188068
:10618000A45D18F80680059F0E99DDF81C90014467
:106190000A94CDF82C807C5DDDF81880089F03916F
:1061A0004A0E17F806C019F8061019F805B018F8C5
:1061B0000580039E7D5D0C9FC1EB0B0B3E600A9F2B
:1061C00003FB0BFBE41B03FB04F4501C19F800A0B9
:1061D000CDF80880019419F80280039C0902DDF8CB
:1061E0002090A1F50041C8EB0A0A01EB2B4BC4F348
:1061F000570119F80260CCEB050519F800900AFB6D
:1062000001FA03FB05F5C6EB09094FEA0828A8F5D2
:10621000004809FB01F94FEA0C2C0B9C08EB2A4AB9
:10622000ACF5004CDDF808800CEB254C3602059DE2
:10623000C4EB0807A6F5004615F8028006EB2949CD
:1062400003FB07F7069E2B5CB25C305CC8EB0303D4
:1062500001FB03F3801A00FB01F04FEA08280A99BA
:10626000A8F500480E0208EB2348019B1FFA8AFAA2
:10627000A6F500461FFA8BFB250206EB2346049C7D
:106280000FFA8AF30FFA89F9C3EB0909A5F500455E
:106290000FFA8BF30FFA8CFC120204FB09F9A2F53A
:1062A0000042C3EB0C0CB6B205EB27471FFA88F887
:1062B00035B202EB204004FB0CFC3FB20FFA88F42D
:1062C0007F1B00B2049D001B0AEB294A05FB00F06E
:1062D000DDF834900BEB2C4B05FB07F70FFA8AFA2D
:1062E0000FFA8BFB09FB0AFA09FB0BFB08EB2048B2
:1062F000119806EB27460FFA88F8099936B200FB89
:1063000008AA00FB06BB4B1EDBB209934FEA6A4AA0
:10631000109A0AEB6B4B22F802BBFF2B109217D09E
:1063200003980E9E0C9FDDF83C803044386018F8CE
:10633000013BCDF83C80002B3FF41BAFDDF83090E3
:1063400000221346C9F8002016461046012514E71E
:1063500016B0BDE8F00F70472DE9F00F416994B019
:106360000B90B0F90C0001EB410101EB40000B9CDC
:1063700080104CF69465C0F60005B4F91010C0F317
:10638000852CDDF82C9015F80C7049124FF6B404EA
:106390006E5CC0F60004D9F8041007EBC717274459
:1063A000029106EBC61603970B9F11900892B9F95C
:1063B0000E003219029EAC4411994FF400453F681B
:1063C000760895FBF3F5B0F5005FC9F81410069652
:1063D0009CF801104FEAC0090C95109780F2DB8001
:1063E000591EC9B20A91002B00F0CB801FFA89F91F
:1063F0000A98C9F57F416B00FF319BB20490039866
:1064000005910993CDF81C9039460023069C0C4455
:10641000650E6F1C039412F8079010F80780039F15
:10642000565D10F805C07D0825F07F47C6EB0909C9
:106430004C0E07FB09F904F1010ACCEB080808FB34
:1064400007F810F80AB012F80A70360212F804A021
:106450004908045DA6F50046CAEB070706EB294983
:1064600021F07F46C4EB0B0B06FB07F74FEA0C2C21
:106470000BFB06F6ACF5004CDDF830B01FFA89F9DD
:106480000CEB284C4FEA0A2A05F07E452D0E0FFA38
:106490008CF89B4401F07E410FFA89FCAAF5004A72
:1064A0002402A4F500440AEB274ACCEB080C0F0E9B
:1064B00010F80580515D1FFA8BF50CFB05FC1FFAE7
:1064C0008AFA04EB26460FFA8AFBD45D36B2C75D22
:1064D00009024FEA0828CBEB060681F4004106FBCF
:1064E00003F6A8F5004824023F0284F4004409EBB7
:1064F0002C490FFA88F80FFA81FCA7F50047CCEB7E
:1065000008083FB20FFA84FCCCEB070705FB08F53F
:10651000DDF81CC003FB07F70AEB264A0FFA89F9DE
:106520000CFB09F90FFA8AFA0CFB0AFA01EB254574
:1065300005992DB204EB274401FB059924B201FB18
:1065400004A4049D4FEA2949691E09EB2444C9B2F9
:10655000DDF820900491641029F8024B099E049CF8
:106560000399069F3344FF2C3944CDF820909BB209
:106570007FF44CAF109A7B000A9D1A4405FB03225E
:10658000109211990B9C109D4B102382256014B022
:10659000BDE8F00F7047119E01EBC115B101254414
:1065A00089B2B0F5804F0495079180F2E180591EC1
:1065B000C9B21391002BE4D01FFA89F90C9FC9F5D9
:1065C0007F41FF317B009BB20F911398109912937A
:1065D00000230992CDF838900D9005930A46069C49
:1065E000039E14444FEA546A0AF1010516F80AB0F2
:1065F00016F805900A94CBEB0909C4F3570409FB7C
:1066000004F9DDF810C0CDF80490DDF824901CF8F2
:106610000A7019F80A1019F805A0DDF81090530E49
:106620001CF8058019F80350DDF82490581C16F862
:1066300000C04FEA0B2BF65C19F80330DDF804902C
:10664000ABF5004B0BEB294BDDF81090C7EB0808BE
:10665000C1EB0A0A08FB04F804FB0AFA19F8004027
:10666000C2F35702DDF82490C6EB0C0C0CFB02FCC5
:10667000641B19F8000004FB02F43602C01A3F0242
:10668000A6F500462D0206EB2C4602FB00F0A7F50E
:106690000047A5F500451FFA8BFBB6B205EB244574
:1066A00007EB28470FFA86FC079A0FFA8BF93FB2DF
:1066B00009022DB21B02C9EB0707CCEB0505A3F5B8
:1066C0000043A1F5004102FB07F702FB05F503EBD0
:1066D00020400C9A059B01EB2A4189B20CB280B292
:1066E0001A44C4EB090992B2059C03B20BEB274B89
:1066F00002FB09F9C3EB0C0306EB25460E9D04FBD8
:1067000003F30FFA8BFB05FB0BFB36B205FB06F61A
:106710000F9F01EB29490FFA89F900EB234307FB8F
:1067200009BB1BB207FB0363DDF834904FEA2B4B28
:10673000214609F1FF32089C0BEB2343D2B2DDF86E
:1067400048C05B100D9206980A9A24F8023B0D9DF2
:10675000614489B2FF2D0244089405917FF43FAF54
:10676000109A4300139E1A4406FB0322109208E776
:10677000B0F5C04F80F2C7805A1ED2B20C92002BE7
:106780003FF4FFAE1FFA89F9C9F57F43FF330A933F
:106790000592039B109A0499CDF82490069F174404
:1067A0007D0E6C1C13F805907E084D5D11F804A059
:1067B00006F07E4C4FEA1C6C26F07F46C5EB0A0AB9
:1067C00013F80C0011F80C800AFB06FA13F804C049
:1067D0000397000257084FEA0828520E541C80F411
:1067E0000040C9EB0C0CA8F5004806FB0CFC13F8A4
:1067F00004B0CDF810A00FFA88F811F804A004B284
:10680000C4EB08089C5C8A5C07F07E46360E27F0D5
:106810007F47C4EB0B0BC2EB0A0ACDF834C007FB71
:106820000BFB0AFB07FADDF81CC09F5D8E5D0CFBBD
:1068300008F84FEA0929DDF834C03F023602240285
:1068400087F40047A4F50044A6F50046A9F50049E1
:1068500009EB2C4904EB2B4BDDF810C03CB22D02A8
:1068600036B2361BA5F50045079C12021FFA89F9BE
:1068700005EB2C45A2F5004204FB06F61FFA8BFB44
:106880000FFA89F42DB202EB2A422D1BDDF81CC051
:106890000FFA8BF412B2121B00EB28480CFB02F229
:1068A00009980CFB05F507EB26470FFA88F800FB63
:1068B00008F83FB200FB07F70BEB224B09EB25452D
:1068C0000A9A2DB202FB05880FFA8BFB02FB0B77AD
:1068D000059C4FEA2848089E601E08EB2747C0B277
:1068E0007F10039A069D26F8027BFF2805902A4414
:1068F00008967FF453AF109A6B000C9F1A4403FB69
:10690000072310933DE603F1FF3B5FFA8BFB002B5F
:106910003FF437AE1FFA89F9C9F57F4ADDF840C068
:106920000AF1FF0AD846039B049A0799CDF80C9008
:10693000CDF81CB0CDF810A0E346069808F1FF385A
:10694000584444084FEA5B0B04F07846360E0BF0CF
:1069500078459F5D12F806A02D0E5E5D12F805C009
:106960003F024FEA0A2A87F4004704F07E44AAF562
:10697000004A36024FEA0C2C240E3DB286F4004643
:106980000FFA8AFAACF5004C12F80490C5EB0A0A2B
:106990000BF07E4B1D5D0FFA8CFC34B24FEA1B6B83
:1069A00001FB0AFAC4EB0C0C01FB0CFC13F80B40C6
:1069B00012F80BB02D024FEA092985F40045A9F51C
:1069C000004924024FEA0B2B84F4004407EB2A47CA
:1069D0000FFA89F90FFA85FAABF5004B06EB2C4656
:1069E0000FFA8BFB0FFA84FCCAEB090901FB09F9CA
:1069F000CCEB0B0BDDF80CC001FB0BFB3FB20CFB2F
:106A000007F736B20CFB06F605EB2945DDF81090CA
:106A100004EB2B442DB209FB057724B209FB046675
:106A20003F14DDF820C007EB26465FFA88F87610A1
:106A3000DDF818B02CF8026BB8F1FF0F8344CDF8E5
:106A400020C07FF47AAF0698109A4300DDF81CB09E
:106A50001A4403FB0B23109393E500BF2DE9F00FBD
:106A6000B0F90CC0B0F918604FEA4C4C86B04FEA50
:106A70001C654DF2FC31760404906F00C0F60101F4
:106A80004EF290444AF6B46001F1020A4FEA1668E9
:106A90000237C0F60004C0F6010031F8181037F8CC
:106AA000049037F800B034F8154030F815003AF883
:106AB0001850370A4FEA1C2CC0EB0B0B6D1A1FFA4B
:106AC0008CFCC4EB0909BFB20CFB09F9049E0CFB5A
:106AD0000BFC07FB05F7B6F90E5000EB1C4CB5F5A7
:106AE000804F01EB17471FFA8CFCA8BFC5F5FF4A82
:106AF000BFB2BABFAA464FF00008A5F5804504EB27
:106B00001944B9BFCAF5804BCDF804800AF17F0A59
:106B10000195A8BF4FF0000B6745A4B2C8BFCCEBEE
:106B2000CC3C0394CCBF9CFBF7FC47F6FF7903F108
:106B3000FF34306A716ACCBFCDF808C0CDF8089038
:106B4000E4B2002B70D040F2F823C2F2000347F603
:106B50003C490593C0F601091B68CDF8009046F248
:106B60000D65C0F2190505FB03F5DDF80C8000FB8F
:106B700007FC08FB00F64FF25F33C3F66E432B446D
:106B800048F2010501EBEC31CFF6FF75F613A9428F
:106B9000C6EB6346B8BF294604DB47F6FF75A9423A
:106BA000A8BF2946761A06FB07F500EBE53000FB87
:106BB0000AFCDDF8049001FB0BF506FB09F64FEA31
:106BC000AC3C0CEBA53C48F201050CEBA636CFF62D
:106BD000FF75AE42B8BF2E4604DB47F6FF75AE42E6
:106BE000A8BF2E46029DDDF8008005FB06F6C6F321
:106BF000CF3686F400464FEA262CDFF83C9038F872
:106C00001C5039F91C800FFA85FCF6B2CCEB080C4D
:106C100006FB0CF6013CE4B205EB2626FF2C22F81D
:106C2000026B9CD1059A1360049C6162206206B0DD
:106C3000BDE8F00F704700BF3E7C01082DE9F00F62
:106C4000B0F90E60018BA6F5804601EB66060DB229
:106C500036B243F6FF718E42A8BF0E468D42B8BFD2
:106C6000294621EAE1756D042C0E4FEA440A4EF2E2
:106C70006401C0F601010AF1020A26EAE67688B04C
:106C800031F814703AF801B0760401902D0A300EF4
:106C9000ADB24FEA4008C7EB0B0B05FB0BFB08F14D
:106CA000020831F810C038F80190360AB6B2CCEBC1
:106CB0000909CDF808B006FB09F9DDF804B047F67C
:106CC0003831C0F6010131F8100038F801803AF887
:106CD00001A031F81410BBF90C40DDF808B00CEB42
:106CE00019494FEAE41CC0EB08080CF57E4C07EB91
:106CF0001B47C1EB0A0A0CF1D80C06FB08F605FB92
:106D00000AFA1FFA89F9BFB20CFB09F90CFB07F765
:106D10000CFB0CFCA41000EB1646C4F5FF540198C4
:106D200001EB1A4AB6B23F0C4FEA19491F341FFA59
:106D30008AFA06960297CDF80C900494CDF814A028
:106D40004FEA5C4C466A876AC56AD0F83080002BEF
:106D500000F0A78040F2F821C2F2000147F63C4B58
:106D6000079104320968C0F6010B23E0B7F5004F24
:106D7000C0F29C80554F4FF0FF084FF400793F88D8
:106D80003BF909A00FFA87F9C9EB0A0908FB09F9D1
:106D9000023B07EB29291FFA89F913F0FF0322F8B8
:106DA000049C22F8029C02F104026DD0A8463746EA
:106DB0000546264646F20D60C0F2190000FB01F0C0
:106DC0004FF25F31C3F66E4101444FEA614ABAF1B6
:106DD000000F49DD059CDDF8189004FB0AF009FB63
:106DE0000AFA00144FEA2A4A029C0CFB07F704FB3C
:106DF00006F900EBE93448F20109A4EBE734CFF6D9
:106E0000FF794C45B8BF4C4604DB47F6FF7084421F
:106E1000A8BF0446DDF80C900CFB08F809FB05F749
:106E200048F201090AEBE730A0EBE830CFF6FF7932
:106E30004845B8BF484604DB47F6FF77B842A8BFCD
:106E40003846DDF81090271809FB07F807EB68377C
:106E500017F5004F8ADC47F63C47C0F601074FF0B4
:106E600001084FF002098AE7059CDDF81890CAF185
:106E7000000A04FB0AF00AFB09FA00144FEA2A4A46
:106E80004042CAF1000AAFE7DDF81CB0CBF80010B1
:106E900001994C628E62C8620D6308B0BDE8F00FC4
:106EA00070472846344645463E46F1E7A7F5004779
:106EB0001FFA87F84FEA28274FEA47090BEB090723
:106EC0005FFA88F809F1020959E700BF3A7E010824
:106ED0002DE9F00F40F2F827C2F2000786B0D7F88C
:106EE00000C0049200F1400802469946956A46F2B5
:106EF0000D644FF25F31B5F1807FC0F21904C3F623
:106F00006E414FF0000301D8D56A9DBB04FB0CFC19
:106F100061441FFA81FC4BF2BC264FF25F35BCF591
:106F2000804FC0F60106C3F66E45D36228BF8C467B
:106F300020D204FB01F1B0F90CC00D444FEAEC1172
:106F400036F81140B0F90E60291406FB01F1E40097
:106F5000D4629362436800294FEAE1564FEA132452
:106F6000B8BF09165362B4BF04FB013304FB0633F8
:106F7000AC46536210324245B8D109F1FF32D2B269
:106F80004B46C7F800C00392002B00F0B18048F2D6
:106F900044274EF6A463C0F60107C0F60003046A56
:106FA000C16A826A456A0A44254405628262110CFC
:106FB00033F81110466BD0F830802C0EB044826B41
:106FC00001914D4EC16B37F814C036F914A00A4434
:106FD000C0F8308082630FFA8CF6140C33F814403A
:106FE000416C026CC5F30F2BC6EB0A09056D466DAB
:106FF0000BFB09F90A440294816CC46C06EB050A88
:107000003D4E21444FEA186436F914B0856D0CEBFF
:10701000294C37F81490C46DC8F30F2825440FFA93
:1070200089F4C4EB0B0B0264816408FB0BF8090CB8
:1070300033F8111009EB28490591110EC2F30F2204
:1070400037F8114036F911600092DFF8AC80C0F8D3
:1070500050A0029A85654FEA1A6B0FFA89F937F842
:107060001B1038F91BB002FB09F80FFA84F9C9EBC1
:107070000606DDF80090CAF30F2A09FB06F204EBBE
:1070800022420CB2C4EB0B0B0AFB0BFADDF804B086
:1070900001EB2A4A0FFA8CFC05992D0C0BFB0CFC1A
:1070A00012B233F8155001FB02F20FFA8AFA05FB0F
:1070B0000AF14FEA684808EB6C4C0CEB624202EBB9
:1070C000614212F5004FB8BF4FF4004205DBB2F544
:1070D000004FB4BF92B247F6FF72039C049D611E3D
:1070E000C9B225F8022BFF29039104957FF457AF0D
:1070F00006B0BDE8F00F7047468201082DE9F00F99
:10710000B0F90C1090B0049001F58061049E0E91CE
:107110000499F76A896A058C406A09930590B36BF4
:10712000306B0C910797716B099FD6F83CB0D6F87D
:1071300048A0D6F84080F46CD6F844C00A90069176
:107140000B93366D002F00F0AB8140F2F820C2F2B5
:10715000000004320F9003680392CDF808B0A146F6
:107160008AE02B460FFA8BF404FB03F44FF6FB4541
:1071700005FB03F52414002C4FEA154540F361810B
:10718000029908FB04F701FB04F30CFB04F41B1445
:107190003F142414059847F6FA610AFB00F20C9894
:1071A00003EBE23201FB00F148F20103A2EBE13212
:1071B000CFF6FF739A42B8BF1A4604DB47F6FF7357
:1071C0009A42A8BF1A4607990A9B09FB01F047F6A5
:1071D000FA6101FB03F107EBE03048F20103A0EB99
:1071E000E130CFF6FF739842B8BF184604DB47F68C
:1071F000FF739842A8BF1846069F0B9B06FB07F13A
:1072000047F6FA6707FB03F704EBE13148F20103A5
:10721000A1EBE731CFF6FF739942B8BF194604DB03
:1072200047F6FF739942A8BF19464318134413F554
:10723000004FD8BF48F2010305DDB3F5004FB4BFDE
:107240009BB247F6FF73099FBC1E039F14F0FF0417
:1072500027F8043C27F8023C07F104070397099438
:1072600000F0FE80059B069F0C93079B0B970A93EB
:1072700006915B460790059246F20D62C0F2190234
:1072800002FB03F34FF25F3BC3F66E4B9B440E9938
:10729000CBF3160399427FF664AF049ECBF30B0445
:1072A000A4F50064B6F90E3024B204EB4406049F42
:1072B00003FB06F63A8B03FB04F4CBF3CC3102F567
:1072C000C065A1F5805101FB03F105EB664543F66E
:1072D000FF7302F518602DB29D42A8BF1D4600EB5A
:1072E000E4300FFA80F825EAE57902F5F262984574
:1072F000A8BF984602EB21424FEA49494FEA19607C
:1073000012B228EAE8789A42B4BF94469C464FEA03
:10731000484846004EF26403C0F601034FEA186184
:10732000023636F803A04D000235CDF808A035F836
:1073300003A02CEAEC7C33F81070CDF804A04FEADF
:107340004C4CDDF808A04FEA1C624FEA19294FEABD
:107350001C2CC7EB0A0A1FFA89F91FFA8CFCCDF81E
:1073600034C009FB0AFC4FEA18281FFA88F8CDF848
:107370000880CDF820C033F81180DDF804C0540037
:10738000C8EB0C0ADDF808C002340CFB0AFACDF891
:1073900004A0DDF820A033F812C0E35A07EB1A4727
:1073A000DDF834A00897CCEB03070AFB07F747F694
:1073B0003833C0F6010333F81000F65A33F81110D1
:1073C00033F81220ED5AE45A0CEB174C019B089F3E
:1073D000361A08EB134A09FB06F9BBB2029E0D9F51
:1073E0006D1AA41A1FFA8AFA06FB05F507FB04F4C6
:1073F00047F67C7606FB03F706FB0AF31FFA8CFCC4
:1074000000EB194902EB144406FB0CF61FFA89F055
:107410001FFA84FC4FEAE3390FFA8BF44FF6FF733F
:1074200004FB03F4241401EB1545002C1FFA85F826
:1074300002904FEAE73A4FEAE6364FF6FA453FF751
:107440009FAE029A644202FB04F304FB08F704FBBC
:107450000CF41B143F1424145B427F42644299E6EF
:107460000F9F4C46D946DDF808B0C7F80090049F3E
:10747000079B7A62F862059A06983D84BA62C7F85B
:107480003CB0C7F848A03B63C7F84080FC64796310
:10749000B863C7F844C03E6510B0BDE8F00F704750
:1074A0000B9B06990A9F06930C9B0798059A0797D2
:1074B0000593DCE72DE9F00F017F84B059B100217D
:1074C0000A264FF0FF3547F6FF74816201620177AB
:1074D00006864562C462B0F90C10C789C1F5FF4148
:1074E0007F31891001F561610291416847F3CC0950
:1074F0005D1E09F58069EDB204680191002B00F072
:10750000D38040F2F823C2F2000348F244280393E8
:107510001968D0F82CC0C0F6010864E0C4F3875A9B
:107520000023036246F20D63C0F2190303FB01F16D
:107530004FF25F33C3F66E430B440CEBA34C4FEAA0
:107540002C2BBBF1000FB8BFCBF1000BD945C0F815
:107550002CC0C8BFCB4604DCBBF57A5FA8BF4FF494
:107560007A5B46F20D61C0F2190101FB03F34FF2A1
:107570005F31C3F66E4119440B140BFB03FB38F962
:107580001AA04FEAEB3303FB0AF348F2010A06EBB9
:10759000E336CFF6FF7A5645BCBF56464FF6FC732E
:1075A00009DBB6F5004FB5BF06FB06F34FF6FC73DB
:1075B0009B1347F6FF763FB203FB07F306EBE33678
:1075C00016F5004FD8BF48F2010605DDB6F5004FAD
:1075D000B4BFB6B247F6FF76013DEDB2FF2D22F8FB
:1075E000026B5FD0C789D0F828B0019B5E461C446F
:1075F000BBF1000F13D0260EDFF8B8A038F8163014
:107600003AF916A01EB2C6EB0A06C4F30F2A0AFB0B
:1076100006F603EB264636B206EB4606B610036ABC
:10762000DDF808A001339A45036228BFC4F3875AE6
:10763000BFF478AFB0F830A00AF1FF3A1FFA8AFA27
:10764000A0F830A0BAF1000F7FF468AF436ADBF115
:10765000010B38BF4FF0000B01334DF66444C0F806
:1076600028B043624FEA930BC0F6000414F80B40B5
:1076700003F003035B0044FA03F3022403F0030363
:1076800004FA03F3013B9BB20F2B03BF64244FF0BA
:10769000FF330486038604BFC0F828A043624FF07E
:1076A00080443DE7039B1960046004B0BDE8F00F1F
:1076B000704700BF468201082DE9F04F017F95B069
:1076C0000A9300F5D07304461746039300F5B46897
:1076D000002940F04D81A568B4F90E206D0894F999
:1076E0000D30A5F5003552120632280AC3F1AC035D
:1076F00000FB02F0268CA26AB4F822909BB204929E
:107700000D930796CDF82490616AE26A01E06D0856
:1077100040080026B4462B1AC0F6FF76B342C0F2EA
:10772000FF3CF4D86045F2D8258E060C06950A9DDC
:107730004FEA1349002D00F0308180B29BB20B90CC
:107740000C93C0F57F40C3F57F43FF30FF33C9F58D
:107750000055C6F50066DDF81CB0DDF81CC00E90C3
:107760000F930798099BB6B2ADB24DF684094CF25F
:10777000E83AB344AC44C0F60109C0F6010A00255A
:1077800001300133CDF840B0CDF844C03E1DCDF8F6
:107790001490CDF820A0129013930095029204E06B
:1077A0000498019A029006970492009DDDF840C06B
:1077B000ABB2276860689C441FFA8CFC38440CF11B
:1077C000FF39039F2060C9F3090917F90900DDF8A3
:1077D0002C90119F09FB00F0DDF80CA01F44BFB2F4
:1077E000CCF3090C1AF90CC007F1FF39DDF838B0F9
:1077F000C9F30B0918F909900BFB0C00DDF830C038
:10780000C7F30B070CFB09F944F2666C0CFB01F1A2
:1078100018F907C0099F0F9A1F4402FB0C99BFB2C9
:1078200000140002059D43F2B86A07F1010C0AFB3F
:1078300000114FEA6C0C7F1035F81CC035F817703A
:107840004FEA29494FEA09296744C91309EB570749
:10785000DDF834B00F440BFB07FA4FF6FF7C4FEA1C
:107860006A1ABAF1000FB8BFCAF1000AC0F2010CDF
:10787000E245B8BFD446089A4FEA6C2C049D32F812
:107880001CA041F6243C0CFB05FC41F6991B0BFBAC
:1078900000FB07FB0AF7029A4FF271404FEA2C3CBB
:1078A000CFF6FF700CEBEB3B00FB02F0DDF81CC0E9
:1078B000FF139C44C1EB070A1FFA8CFC0BEB203032
:1078C0004FEA2A2ACCF30B0BC9EB070908F80BA0E7
:1078D00048F20107DDF848A0CFF6FF77821A039D32
:1078E000BA424FEA2929CCF3090C9A44B8BF3A4668
:1078F000019005F80C901FFA8AFAB8BF48F2010708
:1079000006DBB2F5004FAABF47F6FF7797B23A46BB
:10791000DDF800B0DDF818900BF1010B0FFA89FCCF
:10792000624413984FEA4B0C0A9D5FFA8CFC52108C
:107930000344654526F8042C26F8027CCDF800B0F7
:107940009BB206F104067FF42BAF0198B3F5B46F38
:10795000A8BF4FF4B4636384049BCAF30B0AA4F872
:1079600020A06162A062E362278615B0BDE8F08FB7
:10797000184600214FF4806205F030FA00214FF4E0
:107980008052404605F02AFA04F120000021D0225E
:1079900005F024FA002323779DE60498069F0492BD
:1079A000099BDDF81CA0D1E72DE9F04F017F8DB0D8
:1079B000824691461C46B0F820B0466A00F5D07861
:1079C000002940F0EA80DAF8083000225B08A3F5CD
:1079D0008033C0F2FF72934205D900225B08C0F2E7
:1079E000FF729342F9D8BAF91800BAF90E20BAF921
:1079F0000C50A0F5005000EB62006D104DF2847247
:107A0000C0F60102C5F5DA45A0F3C71032F8100040
:107A10006035611EADB2C9B20395019008911A0C90
:107A2000BAF82870002C00F0C2809BB2DAF800404F
:107A30000293C3F57F43FF3340F2F820C2F2000007
:107A4000C2F580520A940693089C019B079092B25B
:107A50000168DAF804005A44C3F580530134CDF8C4
:107A60002CA00990059304940025924600E0164648
:107A70001FFA85FC0CEB0A0346F20D629BB2C0F2C2
:107A8000190202FB01F4581EC0F30A0038F9102055
:107A90004FF25F310298C3F66E4100FB02F22144BF
:107AA000039CC3F30A03081438F9133004FB00F0F5
:107AB000069CC01304FB032246F2666303FB00F03E
:107AC00052144FF2CD03CFF6FF73164403FB06F6B4
:107AD000C01300F5CC4066304FF63333C0EB26368A
:107AE000CFF6FF7303FB06F31B1303F5B34348F212
:107AF00001041A33CFF6FF74DC44A3421FFA8CFC56
:107B0000B8BF234604DB47F6FF74A342A8BF234651
:107B100003FB06F348F20104CFF6FF7400EBE333F6
:107B2000A342BCBF234648F2010406DBB3F5004F75
:107B3000AABF47F6FF749CB2234605983FB200FBEC
:107B400007F70198013500FB0373C3F30F37049B5C
:107B5000CCF30A0C9D4228F81C4029F8027B86D100
:107B600009AB93E8180409982344089C0BF1010B16
:107B700004FB00330798A344CAF800301FFA8BFBBC
:107B800001603FB2CBF30A0BCAF82870AAF820B004
:107B9000CAF824200DB0BDE8F08F404600214FF414
:107BA000805205F01BF900238AF81C300BE732469F
:107BB000E7E700BF2DE9F04F044691B0458C017F07
:107BC0000F93A66A038C04F5B46704F5D079089284
:107BD0000E930595406A0696D4F82CA00397CDF82D
:107BE0001090002940F02D81A168B4F90E304900B1
:107BF000A1F500319B120A0A303302FB03F209920D
:107C0000DDF824B000221346CBEB0101C0F6FF7271
:107C1000C0F2FF335D469D4298BF91420A910FD951
:107C20000B465A46002529465B085208C0F2FF352C
:107C3000C0F6FF718B4298BFAA42F3D80A9309920B
:107C4000B4F90C10B4F9182009114DF28473C0F680
:107C50000103C1F50361D2110A9E099F33F8122076
:107C600004310F9D89B2360C3F0C0D9107920B9693
:107C70000C970E9B0295D046C7E00B9E94E8060039
:107C8000C6F5005C9C441FFA8CFC0A440CF1FF35DD
:107C9000039F2260C5F30B05DDF828A017F90590B6
:107CA00040F2F8211FFA8AF709FB07F9C2F2000136
:107CB000DDF80CB00A6846F20D66CCF30B0C1BF92C
:107CC0000CC0C7F57F47C0F2190606FB02F607F1A4
:107CD000FF0505FB0C950C9FDDF81C904FF25F3201
:107CE000C7F5006CC9F5805AC3F66E42324400FBFA
:107CF0000AFADDF834B09C441FFA8CFC17140CF11E
:107D0000FF360BFB07F72D14DDF810B0C9F10000AA
:107D1000C6F309066D021BF9069005FB00AA4BF697
:107D2000D0460598C0F6010636F810603F1376007D
:107D300006FB07F7CDF800A040F6D77A0AFB08F853
:107D4000DDF824A001971FFA8AFB049F09FB0BF9B9
:107D5000CCF3090C17F90CA0009FCBF57F4B38131F
:107D60000BF1FF0B069F0BFB0A99C7EB000CDDF82C
:107D700004A00CEB28384FEA680C06EBEA36CCEB93
:107D800006064FEA2949DDF810B07612C3F3090759
:107D90005FEA49290A6048BF4FF000090BF8076005
:107DA00006D4B9F5803FB4BF4FEA29294FF0FF0947
:107DB00047F64062C0F6010232F919206D106244A4
:107DC000039EC3F30B015212013315F5004F725499
:107DD0009BB2D8BF48F2010505DDB5F5004FB4BF31
:107DE000ADB247F6FF75DDF80890089F19F0030F54
:107DF00018BFDDF814A027F8025B1CBF0AF10102CE
:107E000092B2089718BF05920690DDF808B00BF102
:107E1000FF32D2B2FF2A02927FF42FAF0F9B0E9D4A
:107E2000059E069F2B44B6F5B47F28BF4FF4B47669
:107E3000238466846062A762C4F82C8011B0BDE818
:107E4000F08F00214FF48052384604F0C7FF0498A9
:107E500000214FF4806204F0C1FF0023184623770D
:107E60000593C1E62DE9F00FC17E8EB00693B1B344
:107E70000023012140F6FD7A40F60C594FF03008FE
:107E80004FF4406CC0274FF484564FF48045402493
:107E9000C0F8F030C0F8F830C0F8FC30C0F80C3151
:107EA000C0F81031C0F82031C0F82431C0F8543186
:107EB000C0F85831C376C0F81CA1C0F8F490C0F8DF
:107EC0000481C0F808C1C0F81871A0F84261A0F898
:107ED000445180F8401180F85C11C0F84841037F9C
:107EE00033B3D0F8F060D0F80451D0F8184143F221
:107EF00033314CF63D2306F10108C0F204016E1C3B
:107F0000CFF6FF73651C4FF0000C44F2506422273B
:107F1000C0F8F880C0F80C61C0F82051C0F800111A
:107F2000C0F8143180F81CC0C0F82841C0F848716E
:107F3000B0F90C30B0F90E105B0001FB01F1C3F594
:107F40007F43FF3303FB03F4C90B01FB01F1240C56
:107F500003FB04F4090C01EB41038033A40C0893E8
:107F6000069BC4F5FF440121A0F8444180F840116C
:107F7000D0F824B0002B00F07181D0F8F450D0F884
:107F80000061D0F81471D0F81C310B950996D0F827
:107F90002051D0F848610A9790F85C710C930595D0
:107FA00003960097D0F8FC30D0F81051D0F8246137
:107FB000D0F808710293019507960D970B9B029DCF
:107FC00003FB05F4D0F8F830240B002B40F3258197
:107FD000013BC0F8F830002B40F01F81099B002BBB
:107FE000B8BF5B42E3180293099ED0F80C31002E13
:107FF000B6BF029F029C7C42002B0D9E019F00F0A9
:10800000108106FB07F54FEA1535C0F8105104F54D
:10801000804440F30D81013BC0F80C31002B40F04F
:1080200007810A9B002BB8BF5B421D44C0F810516A
:1080300001950A9B0C9F002BB6BF019D019B6B42D3
:10804000079D1C4407FB05F6059F360B002F40F3E8
:10805000F7807D1EC0F82051002D40F0EB80D0F855
:1080600028310595002BB8BF5B42F3180793038BAB
:1080700000251D44ADB2002940F0D180B0F8421176
:10808000691A18BF0121A0F8425125110495D0F8B2
:10809000543180F84011151D002978D1D0F8508155
:1080A000D0F84C61039F97B1B3F5805FC4BFA3F5CF
:1080B00000674FEAE70C039FCCBF1911802101FB39
:1080C00007F1D8BF4FF0000CE04406EB6126D0F872
:1080D000587148F2010106FB07FC08FB07F8CFF6D0
:1080E000FF7103EBEC338B42A4EBE838BCBFC0F864
:1080F00054110B4606DBB3F5004FA8BF47F6FF73DC
:10810000C0F85431C3EB080808FB06F648F2010139
:1081100007EBE636CFF6FF718E4207DBB6F5004F70
:10812000B8BFC0F8586103DB47F6FF71C0F85811BB
:108130000099012908BFD0F8581104D0009E022EE2
:108140000CBF41461946DDF81080089F8844CBEBF0
:10815000080807FB08F848F20101CFF6FF710BEBA6
:10816000E83B8B45BCBF8B4648F2010107DBBBF502
:10817000004FAABF47F6FF7B1FFA8BF1594622F842
:10818000021BAA4240D090F84011002986D0B0F9D5
:1081900042C1B0F944714DF2FC364FEA4C4CC0F686
:1081A00001064EF290414FEA1C687F04C0F60001C0
:1081B00006F1020939F8189036F8186001F1020A40
:1081C0004FEA176831F818103AF818804FEA1C2C5B
:1081D0003F0AC1EB0808C6EB09091FFA8CFCBFB2C5
:1081E00007FB08F70CFB09FC01EB174106EB1C46EB
:1081F00089B2B6B24FF0000AC0F84C61C0F8501115
:10820000884680F840A14DE706998B1E13F0FF03C6
:1082100006931DD090F84011D0E60294E4E60121C7
:1082200031E706FB07F31B0BC0F81031019300E7A1
:108230000195FEE605950796038B4FF4086518E750
:10824000038B079618BF4FF408657FF412AF0FE752
:10825000029B079DC0F8FC30C0F82451C0F824B040
:108260000EB0BDE8F00F70472DE9F00FC17EA0B051
:108270000B93002940F0BD8390F88011037F002B01
:1082800040F04E83038B90F8405103F5C064A4B2D4
:1082900090F86061002D40F00A84B0F842C1B4EB60
:1082A0000C0C18BF4FF0010C03F54065A0F84241DB
:1082B00080F840C1ADB2012426B9B0F862412C1B50
:1082C00018BF012403F5F053A0F862519BB280F867
:1082D0006041012521B9B0F882515D1B18BF01250D
:1082E000B0F90C1080F880514910C1F5AB4601F58A
:1082F000AB41703119910B997036A0F882311A9602
:10830000002900F00983D0F80071D0F8F4601597C7
:10831000D0F814711B961697D0F80C61D0F828711C
:10832000D0F8081105961797D0F82061D0F8487159
:108330001C910696D0F81C11D0F83C61129790F869
:108340007C7190F85C811D911896D0F83011D0F8AE
:108350006861109740F2F823D0F88871C2F20003E8
:108360001F931E91CDF83C8013961B68D0F8746162
:10837000D0F854111497D0F8FC7090F89C810797AE
:10838000D0F8107104320897D0F82471D0F894B165
:108390000997D0F83871CDF844800A9704920E9569
:1083A0000D94B2463DE1D0F85081D0F84C61129D59
:1083B00095B1B1F5805FC4BFA1F500674FEAE70C46
:1083C000129FCCBF0D11802505FB07F5D8BF4FF0DC
:1083D000000CE04406EB6526D0F8587148F2010520
:1083E00006FB07FC08FB07F8CFF6FF7501EBEC3145
:1083F000A942A4EBE838BCBFC0F85451294606DBBB
:10840000B1F5004FA8BF47F6FF71C0F85411C1EB9A
:10841000080808FB06F648F2010507EBE636CFF63A
:10842000FF75AE4207DBB6F5004FB8BFC0F8586124
:1084300003DB47F6FF75C0F858510F9D012D08BFAB
:10844000D0F8585104D00F9E022E0CBF45460D4661
:108450001A9F05EB241407FB04F40D9DE413002D73
:1084600040F0FE81D0F87081D0F86C61139D9DB111
:10847000BAF5805FC4BFAAF500674FEAE70C139F07
:10848000CCBF4FEA2A15802505FB07F5D8BF4FF072
:10849000000CE04406EB6526D0F8787148F201053F
:1084A00006FB07FC08FB07F80AEBEC3CCFF6FF7570
:1084B000AC45A2EBE83808DBBCF5004FBCBFC0F808
:1084C00074C1E24604DB47F6FF75C0F87451AA4652
:1084D000CAEB080808FB06F648F2010507EBE6368A
:1084E000CFF6FF75AE4207DBB6F5004FB8BFC0F858
:1084F000786103DB47F6FF75C0F87851109D012DB8
:1085000008BFD0F8785104D0109E022E0CBF45460B
:108510005546199F05EB221207FB02F204EBE234E9
:108520000E9A002A40F06381D0F89051D0F88C2147
:10853000149E9EB1BBF5805FC4BFABF500674FEAE8
:10854000E70C149FCCBF4FEA2B16802606FB07F6DC
:10855000D8BF4FF0000C654402EB6622D0F898714A
:1085600048F2010602FB07FC05FB07F5CFF6FF7694
:108570000BEBEC3BDDF83080B345A8EBE53507DBD2
:10858000BBF5004FB8BFC0F894B104DB47F6FF76E7
:10859000C0F89461B346CBEB050505FB02F248F247
:1085A0000106CFF6FF7607EBE232B242B8BFC0F861
:1085B000986106DBB2F5004FA8BF47F6FF72C0F81E
:1085C0009821119A012A08BFD0F8985103D0119E22
:1085D000022E18BF5D462C4414F5004FD8BF48F258
:1085E000010205DDB4F5004FB4BFA2B247F6FF7239
:1085F0000B9FDDF81080BC1E28F8042C28F8022CF4
:1086000014F0FF0408F10408CDF810800B9400F07A
:10861000758190F8607190F8802190F840C10D97B5
:108620000E92079A1B9D02FB05F4D0F8F820240B4C
:10863000002A40F3DA80013AC0F8F820002A40F01E
:10864000D480159A002AB8BF5242A2180792159EEC
:10865000089C1C9D002EB8BF079F04FB05F2B8BF05
:108660007E42059FA8BF079E120B002FD8BF08921D
:108670000CDD7D1EC0F80C51002D40F03C81169C95
:108680000595002CB8BF644214190894169A099FE6
:10869000002AB6BF089C089A62421D9C324407FB20
:1086A00004F5059E069F40F63D24002E08BF0024D9
:1086B0002D0B002F1444D8BF09950CDD7E1EC0F889
:1086C0002061002E40F01481179A0696002AB8BF48
:1086D0005242AA180992179A46F20D66C0F219067C
:1086E000002A06FB03F60A9A1E9BB8BF099D02FBEF
:1086F00003F84FF25F33C3F66E43B8BF6F423344A3
:10870000D0F83451069EA8BF099F43F23332002EA1
:1087100008BF0022002D4FEA18384FEA23463A449A
:1087200060DD013DC0F83451002D5BD1189D002D56
:10873000B8BF6D4245440A95189F002FB6BF0A9FE7
:108740000A9D7D4205FB06F5ED130C95BCF1000F6B
:108750003FF429AEB0F942C14DF2FC364FEA4C4C21
:10876000C0F601064FEA1C6806F10209B0F944712F
:1087700039F818907F044FEA1C2C36F81860CDF8B1
:108780000C904FEA17681FFA8CFC3F0ADFF8289319
:10879000CDF804C0BFB2DDF80CC04EF2904503978F
:1087A000C0F60005019F35F8185039F81880C6EB5F
:1087B0000C0907FB09FCDDF80C90CDF80880C5EB2F
:1087C000080809FB08F706EB1C4605EB1745ADB298
:1087D000B6B20027C0F84C61C0F85051A84680F8E6
:1087E0004071E4E5CDF82880A6E707942FE7B0F9BB
:1087F0008271B0F984614DF2FC327F04C0F601024F
:108800004EF290454FEA176C7604C0F6000502F16F
:10881000020838F81C8032F81C2005F102094FEAE2
:10882000166C35F81C5039F81CC03F0A360AC2EBEA
:108830000808C5EB0C0CBFB2B6B207FB08F706FB85
:108840000CF602EB174205EB164592B2ADB24FF0B3
:108850000009C0F88C21C0F8905180F8809167E63B
:10886000B0F962C14DF2FC364FEA4C4CC0F601063D
:108870004FEA1C6806F10209B0F9647139F81890E2
:108880007F044FEA1C2C36F81860CDF834904FEA7C
:1088900017681FFA8CFC3F0ADFF81C92CDF808C05D
:1088A000BFB2DDF834C04EF290450D97C0F600051A
:1088B000029F35F8185039F81880C6EB0C0907FBF1
:1088C00009FCDDF83490CDF80C80C5EB080809FBF5
:1088D00008F706EB1C4605EB1745ADB2B6B200270C
:1088E000C0F86C61C0F87051A84680F86071BDE5B1
:1088F00009950696EFE608920595C7E60799089A46
:10890000099C1F9D0A9EC0F8FC10C0F81021C0F8F9
:1089100024412B60C0F8386120B0BDE8F00F7047EB
:10892000B0F90E80038BB8F5804F1CB2ACBFA8F530
:10893000804A4FF0000AC4F540444FF6FF7CA24441
:10894000E245A8BFE246D0F80461CAF34F144FF4E1
:1089500000496CF31F49013604F5E24C4FEAAA3A8C
:10896000D0F8F070D0F8185104F5CF44B8F5605F36
:1089700004F104040AF6FC7AC0F80C61D0F82C610A
:108980001FFA8AFA07F1010705F10105B8BF4FEA9E
:1089900048089BB2C0F81491A0F864414FF4F02944
:1089A0004FF001040CF1480CC0F830A1C0F8F87089
:1089B00043F2333AC0F82051C0F80091B4BF08F533
:1089C00000784FF4E44803F5C06903F54065264498
:1089D0000027A0F844C1C0F828A1A446C0F83C81F3
:1089E000A0F84291ADB2C0F8346180F840410777F9
:1089F00068E440F6FD7C002301244FF484553027C1
:108A00004FF48046C0F830C14FF4C06A4FF440695B
:108A10004FF496684FF4FA6CC0F8F030C0F8F830B4
:108A2000C0F8FC30C0F80C31C0F81031C0F820316B
:108A3000C0F82431C0F82C31C0F83431C0F83831D6
:108A4000C0F85431C0F85831C0F84831C0F874311A
:108A5000C0F87831C0F86831C0F89431C0F8983166
:108A6000C0F8F4A0C0F80471C0F81871C0F80891FB
:108A7000C0F81C81A0F84251A0F86251A0F88251C0
:108A8000A0F84461A0F8646180F8404180F85C413E
:108A900080F8604180F87C4180F88041C0F88831DE
:108AA00080F89C41C376A0F884C1FFF7E7BB4FF084
:108AB000010CFFF7F9BB00BF92E4000810B443F6C5
:108AC000FF739942A8BF1946A1F58043002213F510
:108AD000C06302F10102FAD4181147F6B411441C24
:108AE000C0F6010151F8244051F8201003F00F03A3
:108AF000601A03FB00F301EB2310D0405DF8044B38
:108B0000704700BF2DE9F04FB0F90C60048BA6F55B
:108B1000804604EBA60689B0894631B292461F46CC
:108B200005680490FFF7CAFFDDF810800690B8F9D9
:108B30000E304046A3F5804304EBA30109B2FFF7D2
:108B4000BDFFD8F804207E1E079005F18045F6B2DF
:108B50000592D8F82C40D8F83000002F7FD047F687
:108B60003C4748F24423C0F60107C0F601030397CF
:108B700062E05F18C5F30F220231DDF818803F88EC
:108B80004444DFF8F4804FEA146C33F901B033F851
:108B90001C1038F91CC00FFA87F8CDF804C0C8EBD8
:108BA0000B0B02FB0BFBDDF81CC0019A0FFA81F8DE
:108BB0006044C8EB020CC4F30F2808FB0CF8CDF896
:108BC00008B04FEA106CDFF8B0B033F81C203BF966
:108BD0001CC0DDF808B001EB28410FFA82F8C8EBA1
:108BE0000C0C07EB2B47C0F30F2809B208FB0CFC59
:108BF0003FB201FB07F702EB2C4C3F140FFA8CF14C
:108C000001FB07F101F10041090CDDF80CC00F1266
:108C1000DFF868803CF8172038F917C017B2C9B2DE
:108C2000C7EB0C0701FB07F1013EF6B202EB212274
:108C3000FF2E2AF8022B12D0059A19F801CB154401
:108C4000290E0022490048F24427BCF1000F90D0C1
:108C50001046C0F601071446154602218DE7DDF8DF
:108C600010B005F14045CBF80050CBF82C40CBF8C4
:108C7000300009B0BDE8F08F468201083E7C010853
:108C80002DE9F04FB0F90C70058B07F5806707FBF5
:108C900007F795B00195019E7F1204460291039259
:108CA0000493A7EB87051FFA86F90DF1300B0DF140
:108CB0004C0809EB254A1FFA8AFA0FFA8AF1204676
:108CC000FFF7FCFE0AF10101064609B22046FFF754
:108CD000F5FEABB2801B03FB00F306EB23464BF81B
:108CE000046FC3453D44E4D1237FC3B140F2F82073
:108CF000C2F200000368002246F20D61C0F21901C1
:108D000001FB03F14FF25F33C3F66E430B44A1182E
:108D10000432182A0B62EFD1002203602277B4F9E3
:108D20000E3042F6A9229342DDF804C0A3F52A537F
:108D3000A3F12A0101EB41010FFA8CFAD4BF0AEB2F
:108D4000A1010AEBE10181F30F014DF2FC3349046B
:108D5000C0F60103080E9D1C33F8102035F81030C2
:108D60004FEA11299B1A1FFA89F909FB03F94EF200
:108D70009043C0F60003049D1B8802EB1942681E55
:108D80001FFA82F90593C0B2216DE26C002D00F04C
:108D900097800D9E0E9D049606950F9E109D07963A
:108DA0000895119E129D236809960A95139E049DAD
:108DB00047F63C48C0F601080B962B44029E16F875
:108DC000015B029635B1002525626562A562E56208
:108DD00025636563666A256A079FDDF818C0374416
:108DE000AC44A66A089D4FEAD74B35440BEBDC4BED
:108DF000E66ADDF824A0ABF5E04BA562B2440BEBCC
:108E0000D54B0A9E256B676235440B9F666B0BEB57
:108E1000DA4B37440BEBD54B0BEBD74B0BEBD34B70
:108E2000ABF5004B1FFA8BFB4FEA2B26C4F820C092
:108E30002563C4F82CA06763DFF890C038F816509B
:108E40003CF916702EB2BE1B5FFA8BFB0BFB06FBC8
:108E500001FB09F7DDF814C005EB2B2B0CFB01F629
:108E600048F2010502EBE732CFF6FF750FFA8BFBF4
:108E7000AA422360ABEBE636B8BF2A4604DB47F6CE
:108E8000FF75AA42A8BF2A46B61A06FB09F516F5D1
:108E9000004F01EBE531D8BF48F2010605DDB6F51C
:108EA000004FB4BFB6B247F6FF76039D013825F8F0
:108EB000026BC0B2049EFF28039533447FF47EAF5B
:108EC000E264216515B0BDE8F08F00BF3E7C01086B
:108ED0002DE9F04FB0F90C60058BA6F5006605EBA7
:108EE00066068DB036B243F6FF750591AE42B4BF4B
:108EF00031462946044606921D46FFF7DFFD627F94
:108F00006B1E0890DBB2043A0293089BD2B204F1C4
:108F1000200007929E0B07C8002D00F0E480079BFD
:108F200048F244256768C0F60105B6B2039503F020
:108F300002050A96EDB27E000497236809960B9508
:108F4000A7E0C3F3CF3A089E8AEAE3776FEA1345B6
:108F50006FEA0A0A3044BFB294F82C6001971FFAF6
:108F60008AFAADB24FEA430C049F9F4281BF4DF293
:108F7000B830079FC0F6000050F82700099F4FEA5D
:108F80001069674581BF079F4DF2B83107F0010CAA
:108F9000C0F6000193BF089F0CF1020C51F82C1091
:108FA000C91988BF86F00106039F88BF84F82C602A
:108FB0004FEA116C37F81C804E4F37F91CB00FFA8E
:108FC00088FCCCEB0B0B039FC1F30F2C0CFB0BFBB2
:108FD00037F819C0474F08EB2B4837F919900FFAAB
:108FE0008CFBCBEB0909C0F30F2B0BFB09FB0FFA32
:108FF00088F80AFB08F8B4F80E90019F0CEB2B4B95
:109000000FFA89FA4FEA28480FFA8BFBBAF5804F1E
:10901000A8BF3D460EB1C8F100080A9E06FB08F73E
:1090200048F2010602EB2742CFF6FF76B242B8BF04
:10903000324604DB47F6FF76B242A8BF32460B9FAA
:10904000002F3ED00BFB05FB1FFA88F84FEA1B4BA5
:10905000BAF5804FA8BF6FEA09094FEA89091FFADC
:1090600089F90FFA88F808FB09F8C9F57F4909F171
:10907000FF090FFA8BFB09FB0B8B029F069D7E1EDF
:10908000F6B24FEA2B4B25F802BBFF2E029606954F
:1090900029D0049F059E3B44236016F8015B05968A
:1090A000002D3FF44EAF002201264FF6FF7A0192C9
:1090B0001346226011461046944684F82C605546AB
:1090C00052E70BF5004B0BFB05FB079D0BF1004B2B
:1090D000012D08BF90444FEA1B4B14BF1FFA82F8C2
:1090E000C8F34F08B4E720626162A2620DB0BDE828
:1090F000F08F00BF468201082DE9F04FB0F90C5007
:1091000089B00491691004461E460592FFF7D6FC0B
:10911000B4F90E102062074649102046FFF7CEFC36
:10912000751E6062EDB2002E00F0988062684FF20A
:10913000AC4148F2442BC0F600010692C0F6010B88
:10914000266803463A46079167E00799C6F30F275A
:1091500061440CF1020CE06ADFF808A10244206BC4
:10916000E2624FEA126903443BF819803AF8199019
:10917000DDF81CA023633AF80CC0DFF8E8A0180E55
:10918000CDF804C03BF810C03AF8100009880290EE
:109190000698B0425CD80FFA88FACDF80CA0DDF83A
:1091A00008A00FFA89F90FFA8AF0DDF80CA0C2F3D3
:1091B0000F22CAEB090902FB09F20FFA8CFADDF85B
:1091C0000490CAEB0000C3F30F2303FB00F3C1EBD1
:1091D000090A07FB0AFA08EB22420CEB234C42F384
:1091E0004E0201EB1A4A02F5C0424CF38D0CCAF351
:1091F0004E0A02EB0C0303FB0AF3DB13A3F5C04397
:109200009BB2DDF814A0013DEDB22AF8023BFF2D20
:10921000CDF814A022D0226A636A0698DDF8109077
:109220000644266019F8018B00204FEA166CCDF831
:10923000109007464FEA4C0C4FF2AC41B8F1000FCA
:1092400083D02060C0F600014FF0020C064682E792
:109250000023E36223634FF42043D2E709B0BDE863
:10926000F08F00BF468201082DE9F04F058BB0F961
:109270000E4005F5C065A4F5804405EB640487B095
:10928000894621B280461E469246FFF717FCB8F980
:10929000102040080292B8F80C300490029819B2DD
:1092A000751E47F6FF72091AEDB2D8F8204092FBFE
:1092B000F6F2002E56D002FB01F248F2442103924E
:1092C000D8F80420C0F60101D8F800300592881CB7
:1092D000039ECDF8048030E0019A3C461760DDF82B
:1092E0001080013D4444270E31F8172030F917B0A3
:1092F00017B2C7EB0B07C4F30F2B0BFB07F702EBFF
:1093000027473FB20CFB07F703EB87074FEA176CC1
:1093100031F81C2030F91CB00FFA82FCC7F30F277C
:10932000CCEB0B0C07FB0CF7EDB202EB2747039AD3
:10933000FF2D16442AF8027B10D0059ADDF808802C
:109340001A44019B00271A6019F801BB3B4608EB41
:10935000E63CBBF1000FBFD11346C0E7DDF8048047
:10936000B8F80C30A8F81030C8F8204007B0BDE8B5
:10937000F08F00BF2DE9F04F8046078BB0F90E004B
:109380000FFA87FEA0F58040AEF5105E40108644CF
:109390004FEA8E0ECEF5FF4E89B01EF17F0E8A4643
:1093A00091461E46B8F82450D8F82040CDF80CE07D
:1093B00000F1928047F6FF7372469A42A8BF1A46A0
:1093C000039207F5C067391809B24046FFF776FBEC
:1093D000B8F91070B8F80C300497DDF810B01FB26F
:1093E00047F6FF72711E40080690CBEB070792FB11
:1093F000F6F2C9B2002E66D002FB07F2D8F80400DC
:10940000059248F24422C0F60102D8F80030CDF8A7
:109410000880079002F1020C059ED0463DE0DDF881
:1094200008B05446CBF800A006982DB2044404EBD3
:1094300085354FEA156A32F81A003CF91AB00FFA6E
:1094400080FACAEB0B0AC5F30F2505FB0AF5DDF818
:1094500004B0DDF80CA000EB25450AFB0BF72DB29C
:10946000FF1307FB05F703EB4700050E32F815A0C5
:109470003CF915B00FFA8AF7C0F30F20C7EB0B07C2
:1094800000FB07F001390AEB204085B2C9B205980C
:10949000FF29064429F8025B11D00798049F18445D
:1094A000029B4FF0000A186018F801BB07EBE63783
:1094B00053460197BBF1000FB1D10346B4E7DDF885
:1094C0000880B8F80C30A8F81030A8F82450C8F874
:1094D000204009B0BDE8F08F0023039371E700BF7F
:1094E0002DE9F04F058BB0F90E4005F5C065A4F5E8
:1094F000804405EB6404804689B08B4621B29246D5
:109500001C46FFF7DBFAB8F80C30B8F910101AB2A5
:10951000651E47F6FF76571A0491EDB2B8F824108D
:10952000D8F8202096FBF4F6002C6CD006FB07F64A
:1095300098E8180048F24427400A0596C0F601074B
:1095400006940790CDF80C8037E007EB09006346DE
:1095500009F10209C2F30F21008837F909C004B2EA
:10956000C4EB0C0401FB04F4DDF804C000EB24445C
:1095700024B20CFB04F803EB48084FEA1860DFF84C
:1095800098C037F810103CF9104008B2201AC8F300
:109590000F2808FB00F801EB284189B2013D41F397
:1095A0004620EDB2059CDDF81C808130FF2D26445D
:1095B0002AF8021B08FB002221D0DDF818C0DDF8D4
:1095C0000C809C44C8F800C01BF8011B049C02914D
:1095D00004EBE6340194029C4FEA126900214FEA41
:1095E00049090B4648F24420002CAED0039C0022CF
:1095F0002260C0F601004FF002090A46ACE7DDF830
:109600000C80B8F80C30A8F81030A8F82410C8F86E
:10961000202009B0BDE8F08F468201082DE9F04F07
:10962000017F95B0804614460593002900F04581DE
:10963000C34A866F02F10C05034632F9021FB6F5E4
:10964000806F4FF08040B8BF1862AA42C3F8A410E0
:1096500003F10403F1D1002388F81C30B8F818A0F6
:10966000B84D1FFA8AF905F10C07464635F8021F76
:109670004046494409B2FFF721FABD424FEA400093
:10968000F06406F10406F1D1B8F90E200FFA8AF160
:10969000A1F5C06101EBA20181F30F014DF2FC3392
:1096A0000904C0F60103080E9D1C35F8105033F86C
:1096B0001030090A88B2E91A00FB01F003EB1043ED
:1096C0009BB2B8F8D0000493D8F8D83043F25721B1
:1096D00006900193D8F8DC00D8F8E0308A42029076
:1096E000009300F3178102F580524FF0000A0B92AD
:1096F000CDF828A0059A4FF4803393FBF2F30C9336
:10970000002A00F0C28040F2F8230A98C2F2000357
:1097100048F2442AC0F6010A0434C0F540501968E2
:109720000993CDF820A003940D904FF0000C08F1A0
:10973000200946F20D63C0F2190303FB01F34FF257
:109740005F31C3F66E4119440B140C9ADDF824A066
:10975000B3F5804F9444CAF80010C8BF4FF480435B
:1097600006DC4FF44042CFF6FF729342B8BF134677
:109770000198049A1B1A02FB03F3029A00EBE330F0
:10978000DDF810A0831A0AFB03F30190009802EBA6
:10979000E332131A0AFB03F3029200EBE3300022D8
:1097A00007910899009017464C46C8EB04034B44B8
:1097B000DD6853F8200CDFF890A1284443F8200C12
:1097C000050E31F815603AF915B09D6B0FFA86FA5F
:1097D0005B6EC0F30F20CAEB0B0A00FB0AF05B1BA9
:1097E0000CFB03F306EB204636B205EBE33505FB35
:1097F00006F50EA82D1485500432182A04F104042D
:109800002F44D2D100980F9A119B02FB00F203FB68
:1098100000F3DDF834A00A9812120AFB02F25B1280
:10982000DDF82CA000FB03F30AFB07F70E9848F2C3
:10983000010400EBA23000EBA33303EBA737CFF614
:10984000FF74A7420799BCBF274648F2010206DB16
:10985000B7F5004FAABF47F6FF72BAB2174606988F
:10986000DDF80CA003B205981F447F10831E2AF870
:10987000047C2AF8022C13F0FF030AF1040ACDF845
:109880000CA0059302D0069253E7069AA8F8D020C0
:10989000009B0198029AC8F8E030C8F8D800C8F8D0
:1098A000DC200B2308F1A00858F8042F013B48F8EE
:1098B0002C2CF9D115B0BDE8F08FB0F90C30B3F510
:1098C000FA4FBFF6CBAEC3F5FF4303F17F0E4FEA6D
:1098D0002E2E0EFB0EFE4DF26C374DF2C8364FEABF
:1098E000EE1E0B46C0F60007C0F600060246F95A07
:1098F000F55A906F4D1B0EFB05F5A1EBE51100FB32
:1099000001F0023300140C2BC2F8A40002F104028F
:10991000EDD1A3E6B2F5804F0BDBA2F5804243F216
:10992000582303FB02F34FF480409B130B900A93E0
:10993000E0E600224FF480430A920B93DAE600BF80
:109940006ECE00085ED30008468201082DE9F04F74
:10995000017F97B0119091460C93D1B140F2F8205D
:10996000C2F200000368119C002246F20D61C0F2B1
:10997000190101FB03F14FF25F33C3F66E430B4451
:10998000A1180432102A0B62EFD1119C002203604F
:109990002277119F119D7F68119A0D97119FEE8973
:1099A000126A7F6A34B2A51202920397119A119F2C
:1099B0000135FF6ADDF844804DF200036D10E412BA
:1099C000926AC0F60003B60105EB450504EB4404BA
:1099D000DDF844B004970592B8F81870B6B203EBFE
:1099E000450503EB44044FF0000A0DF14C0834F830
:1099F0000A3035F80A10DA19C91A06FB01F102EB30
:109A0000214109B25846FFF759F848F81A000AF1FF
:109A1000020ABAF1060FEAD1DDF844A04DF268035C
:109A2000BAF80C00C0F6000340F385229918497873
:109A30009A5C80014FF6B40301EBC11102EBC21234
:109A4000C0F6000380B20690C818D1180C9A002AFC
:109A500000F0BD81139B149C159D09F104090E9320
:109A60000F941095CDF820900346029F0D9E059D02
:109A70000F9C3744254402970595109E7D0E049F48
:109A800011F8058037446E1C11F806A0DDF808B007
:109A9000039A0E980497C8EB0A0A5F5DCBF357054B
:109AA000024413F806C005FB0AFA540EDDF81490C0
:109AB0000392C7EB0C0C621C4FEA08284FEA59606E
:109AC0008E5C13F804900CFB05FC9A5CA8F500482A
:109AD000DDF810B008EB2A480D5DC9EB0202441C0A
