:020000040800F2
:10400000500700201D7400081557000805570008C8
:10401000095700080D57000811570008000000005C
:104020000000000000000000000000001957000818
:104030001D57000800000000215700082557000800
:1040400065740008657400086574000865740008EC
:1040500065740008657400086574000865740008DC
:1040600065740008657400086574000865740008CC
:1040700065740008657400086574000865740008BC
:1040800065740008657400086574000865740008AC
:10409000657400086574000865740008657400089C
:1040A00065740008A9570008657400086574000865
:1040B000657400086574000865740008657400087C
:1040C000657400086574000865740008657400086C
:1040D000657400086574000865740008657400085C
:1040E000657400086574000865740008000000002D
:1040F00000000000000000000000000000000000C0
:1041000000000000000000005FF808F1F0B4244F48
:10411000064600F120054FF01B0C3C460FCC3060EA
:104120007160B260F3600FCC3446F361306171614D
:10413000B261002314F8012B1344AC429BB2F9D1B5
:104140003A8C798C9A4223D0164B243F9F420CF133
:10415000FF3CE2D1002206F10C03A6F8442043F80C
:10416000042B43F8042B43F8042B0F4F43F8042B84
:104170004FF6FF7545F2AD0448F24C106FF446510E
:104180001A60B76035607460F0603161F0BC7047F0
:104190006145D9D10CF1010CA6F844C0F0BC7047C0
:1041A000CCFF0108DCFB010855DBFFFF826A036CD2
:1041B0002DE9F0479918D31A0FBF83684FF0C062FA
:1041C00092FBF3F38360334D03EB4303B0F84440B9
:1041D00003EBC30285FB023504EBC4042E4B0646F9
:1041E0004910A4002D4F4160D217C06A316A2344A0
:1041F000C2EBE502BB423261F0603160354632D934
:104200000023A6F8443002F0D7FD254802F014FE42
:10421000DFF89880DFF888A0A7F2DF375446C4EBB8
:1042200006090AF1200A204659F80410043402F065
:1042300025FE5445F7D106F12002002115F8013B77
:104240001944954289B2F9D1384602F047FE4046FA
:10425000B6F8441002F042FEB6F844300133A6F836
:104260004430BDE8F08702F0A7FD0E4B0C48234414
:1042700023F47F7323F0030304F1006A83420AF5F9
:10428000FE3A01D002F0D8FDDFF82080064FA044AE
:104290002744C3E76766666624FC0108FFFF010840
:1042A00000FC0108FFFB010820FC010822FC0108BA
:1042B000B0F80021034602F15F008AB2801A80B292
:1042C000BE2817D9A2F5905212B2002AB8BF02F246
:1042D000FF125212A3F800110DD410490B2AA8BFE7
:1042E0000B2212B203F5927301EBC20292E80300B3
:1042F00083E803007047524211B208480B29A8BF57
:104300000B2100EBC10103F5927203C982E803009F
:10431000C3F82411C3F82801704700BFFC740008DB
:1043200090F82311012200232DE9F047044680F87C
:10433000F020C0F8F82080F8F130C0F810310029E2
:104340006AD14FF410530022C4F8EC20A4F8FE30D8
:10435000C4F8E820C4F8C8216262C4F8C42104F596
:10436000A273226204F5E271002243F8042B994201
:10437000FAD1102104F12806D4F8EC20002302EB36
:104380004205013206EB450002F01F0226F8153007
:1043900043800371C4F8EC20626A0139551C184649
:1043A00089B205F01F03A05463620029E4D1244DB3
:1043B000244F00220023012604F5EC7A04F5E87965
:1043C00004F5F47804F5F07CA4F80211A4F80411C3
:1043D000C4F80811A4F80C11A4F8F410A4F8F21011
:1043E00084F8F00184F80E61CAE90023C9E90023CA
:1043F000C8E90023CCE90023C4F82461C4F828618B
:1044000084F82301C4F82C71C4F81451C4F838514D
:10441000C4F83C51BDE8F0874FF4F051FFF748FF76
:1044200094F8F120A2EB02135B029BB203F5F0516A
:10443000022A03F5105389B29BB284D18BB282E772
:10444000E02D900000DC0500002930B44FF000039F
:104450000EDA01F5C06109B2013B00299BB2F8DB1D
:10446000B1F5C06F07DBA1F5C061013309B29BB2A2
:10447000B1F5C06FF7DA0C110C4A651C52F82550E3
:1044800052F8242001F00F01AC1A01FB04F130BCFA
:10449000D0F8F80002EB111200FB02F01BB2002B67
:1044A000B6BF5B429840D840704700BF9C1D0108D2
:1044B000214AD0F8F830002908BF0121D2F87C0148
:1044C000B1FBF3F39842F0B412684FF000040BD242
:1044D0005B0804F5C0649842A4B2F9D39A4205D9A6
:1044E000A4F5C0645B00A4B29A42F9D8124F6125CA
:1044F0003846691050F8212000EB8106934205D917
:1045000011E050F822509D420FD311464A10002965
:1045100000EB8206F5DCC01B24B2801004EB001017
:1045200000B2F0BC70470A4629468A1A551E002D73
:1045300006F10400DDDCEEE79C1D010890F8F83080
:10454000012B05D95B0801F5C061012B09B2F9D82F
:10455000002A02DD4FF48030704712F5804F0CDCEA
:1045600002F5004202EBC202A1F5905101EB2210CC
:1045700000F5004020EAE0707047C1F5DC4302F529
:10458000804202FB03F001F5905101EBA03000F5F1
:10459000004020EAE07070472DE9F00FBDF92000DF
:1045A0006FF04B0420EAE070002A04FB00F4BCBF6B
:1045B000524212B28031002BB8BF5B4209B2B8BF81
:1045C0001BB221EAE171394D6FF0650A64110AFBF3
:1045D00002FA03FB00F901FB00F6A3EB031704F555
:1045E000763405FB01FB01FB03FC02FB00F547F3FE
:1045F0001A179B3402FB03F83C4401FB02F704EB5F
:104600006A144FEA29494FF0DB0A361404EB6B14A5
:10461000C9EB49190AFB06F62D1400FB00F04FEA1E
:104620002C4C4FF0320A02FB02F204EB691405EB4A
:1046300045054FEA28480AFB0CFC3F1401FB01F139
:1046400040F2A91904EBE504C8EBC80809FB07F719
:1046500004EB2818001408EB661603FB03F312148E
:104660006FF00A0B06EB6C16091400EB40050BFB10
:1046700002F24FF4427406EB671600EB850004FB70
:1046800001F106EB601000EB635303EB621313EBD5
:10469000611007D4BDE8F00F47F6FF739842A8BF3A
:1046A000184670470020BDE8F00F704768FDFFFF17
:1046B0002DE9F04F90F82381A5B08246B0F8F27052
:1046C000B0F8F49090F8F640B8F1000F00F0A28333
:1046D000D0F814613146FFF7EBFE179606B2002EB4
:1046E0000546AAF8FE00C0F2A583AD01B312ADB233
:1046F00003F1010B0F95CDF81CB0BAF904B1834D4D
:104700000BFB0BFC55F823304FEA6B009AF80E11A7
:104710004FEAEC3CC0EB0B0ECCF5004CC0F5004072
:104720000893079B0A9100040CEB4C0C4FEA6C0CAD
:10473000CBF5A0314FF00072219055F823300A9844
:1047400092FBFCFC4FEA0E4E0904CDF868C0CDF890
:1047500080E022910993002840F04C83BAF90211BD
:10476000BAF90C2147F6FF7C0A9107920A99079A39
:104770000CFB01FE4FEAEE3EAEF5004E1FFA8EFE38
:104780004FEAAE33314603F11506143355F826606F
:104790004FEA8E0E55F823501FFA8EFE50461195A3
:1047A000CDF818C0CDF86CE01296FFF7C7FE584B55
:1047B000C21153F8221003EB8203DB88090C00F0CE
:1047C0007F005B1A00FB03F3079D01EBE313002D51
:1047D0001393DDF818C040F341830CFB05FC4CF348
:1047E000CF3CCCEB4C13CCEB83239B1303F5006342
:1047F000CDF864C01C93DAF8E051DAF8E8610BF503
:10480000004B0D95179D4FEA0B4BAB450A96179E33
:10481000DAF8D83128BFC5EB0B0BDAF810019AF89B
:104820002211DAF8D021B34528BF5E460AF1280CE0
:104830004FF0100B0C9307901F910E922396CDF81A
:1048400040B0CDF850C04346DAF82C01DAF8201019
:10485000421CCAF82C211AF80150013101F01F0145
:1048600015F00106CAF8201006D1E90640F14F8282
:1048700001218AF8F01107964BB3290740F13882DD
:10488000DAF83011DAF8283101319942CAF83011DA
:10489000C0F02E821F4B00219842CAF8301140F21E
:1048A0005682DAF83C21DAF834310021CAF82C11AA
:1048B000DAF838110798521A01EB22221344191A18
:1048C00002EB6131CAF834311791CAF838211EB3AE
:1048D000DAF8EC10149D01EB4102013105EB4203C3
:1048E00001F01F0125F81270A3F802901C71CAF89C
:1048F000EC10DDF8408008F1FF3313F0FF03109354
:1049000000F039829AF823319EE700BF00000020B2
:1049100098150108FEDB05009AF8F070022F159734
:1049200000F00D82079800F140494FEA99535B006F
:10493000C9F38F191896CDF8589003F1020B209FF8
:10494000079EDDF884803E44079DB10DDDF8209080
:1049500045444800DDF82480023039F8114039F927
:1049600000C038F90000AA0D0B9020B2C6F38F16D4
:10497000C0EB0C0C06FB0CFC5700023739F8120098
:1049800039F9079038F9077038F811101D97CDF8EC
:1049900078C007B2DDF82CC038F81220C7EB090741
:1049A0000FFA81F9C9EB0C09DDF874C0C5F38F1556
:1049B00009FB06F60FFA82F905FB07F7C9EB0C08AD
:1049C00008FB05F81E9D00EB274080B204EB254450
:1049D00002EB284807B2A4B201EB26460FFA88F88A
:1049E0000FFA84FCC7EB080836B20F9FCCEB060623
:1049F00008FB07F807FB06F600EB284004EB26440B
:104A000024B200B2DDF86880001B08FB00F08012C1
:104A100010F5004F40F37781B0F5004FC0F23082BF
:104A20001F214FF4805240F6FE70DDF84490DDF80F
:104A300048C039F8004039F902603CF8000025B25E
:104A40003CF90220751B07B201FB05F5D21B01FBE7
:104A500002F204EB6515ADB200EB62122CB212B299
:104A6000121B1B9C9AF8F06104FB02F205EB224535
:104A70000B962DB21EB9189F002F08BF00250D9868
:104A800013992D1A01FB05F50A9A00EBE530139CEA
:104A9000811A04FB01F1229D079E0D900A982E4475
:104AA000DDF82080099DB20D00EBE13038F812707E
:104AB0000A9035F8120038F80350DDF82480DDF84C
:104AC00020C038F803100A9BDDF87080540003FB07
:104AD00008F2DDF8248002343CF9049038F90440EF
:104AE0003CF90B80DDF824C03BB23CF90BB0C6F3B7
:104AF0008F16CDF814B0C3EB090B2BB2C3EB08082B
:104B0000169B06FB0BFB03FB08F81E94CDF8748084
:104B1000DDF8788007EB2B470FFA80FBCBEB080B17
:104B2000DDF814800BFB06F60FFA81FBCBEB0809CE
:104B3000DDF858B002F10042DFF860C30BFB09F961
:104B4000940DDDF874803CF814300CF1020C05EB88
:104B500028453CF914400FFA83FBBFB200EB264610
:104B6000ADB201EB2949CBEB04040FFA87F80FFA39
:104B700085FCDDF83CB036B20FFA89F9C8EB0606C1
:104B8000CCEB090909FB0BF9C2F38F1206FB0BF6FC
:104B900002FB04F205EB294507EB264703EB224213
:104BA0000A983FB22DB21A9C12B27F1B1999121AA1
:104BB00004FB07F701FB02F9BB1200EBE93913F51F
:104BC000004F1FFA89F940F39880B3F5004FC0F207
:104BD0004C811F224FF4805340F6FE71119D129EAE
:104BE000685A715AED5E04B2F35E2C1B0EB202FBE2
:104BF00004F49B1B02FB03F300EB6414A4B201EB6F
:104C0000631320B21BB21B9F1B1A03FB07F30B9805
:104C100004EB23431BB218B91899002908BF0023DD
:104C20000E9A139C9B1A04FB03F30C9D02EBE332D8
:104C3000531B04FB03F31C9E05EBE3356B0006FBE3
:104C400003F1944C880D0E9234F81020023434F99C
:104C5000104010B2201AC1F38F1101FB00F102EBDA
:104C600021410FB2DDF86480C3EB470708FB07F76B
:104C7000159803EBE73707991F9B239A012818BF64
:104C8000002391420C95BFB24ED20B9C002C5CD1FC
:104C90000124814B179E9E428CBF01233023013B90
:104CA000CAF8403144F00204DAF8EC30DDF8508004
:104CB00003EB430108EB410228F81170A2F80290BF
:104CC000147101339AF8F02103F01F03CAF8EC3095
:104CD000002A3FF40EAE189800287FF40AAE079918
:104CE000179D491934BF0026012607911F9600E63B
:104CF000DAF83C21DAF83431DAE500224FF40061C9
:104D000040F602036AE70121002002228DE69AF8AC
:104D1000F01001293FF4B0AD1F9900293FF4ACAD6C
:104D20008AF8F0610796A7E50B9D0124002DB0D00D
:104D3000002BAED1DAF84031002BB5D0AFE70799A0
:104D400000294ADB01F14049EFE50024F0E74FF08C
:104D5000FF31DAF82431B1FBF2F2A2FB03234FF06A
:104D600000400021994208BF904238BF0246CAF86D
:104D70003C21002399E50E9A0AF5E871D317C1E9A1
:104D800000230C9A0AF5EC76D31710460D9A1946B3
:104D9000D317CDE902230A9AC6E90001D3170AF511
:104DA000F075104619460AF5F476DDE90223C5E9E7
:104DB0000023C6E90001079B8AF8F6401F9D179C57
:104DC000AAF8F270AAF8F490CAF81031CAF814419F
:104DD0008AF8225125B0BDE8F08FAB0732D5012407
:104DE0004FF00045169640F2022B4FF400731894D2
:104DF0000795A4E5BAF902C1BAF90C016346079018
:104E00000090314650465A46CDF828C0FFF7C4FB03
:104E10008446ABE4B0F8FE502EB23146FFF714FBE7
:104E2000002ECAF81401CAF83801CAF83C011790DC
:104E3000BFF65BAC002301200F93AAF8FE301E469C
:104E400007905AE4079B189603F14042930D5B00CC
:104E5000C2F38F12169203F1020B70E500264FF495
:104E6000006C1996CDF870C0C5E4FB12A3F5804321
:104E70009AB2531101335B0002F01F02991EADE696
:104E8000A0F5004081B24A110132520001F01F0129
:104E9000901ECAE5607D0008A9AAAA02709D0008BC
:104EA0002DE9F04F90F82331ADB08246002B00F091
:104EB000B083D0F814412146FFF7FAFA1694AAF805
:104EC000FE0005B2BAF80271664BA7F50047C7F3BA
:104ED0008D0707EB4707BFB27C132946BAF90C616F
:104EE00004F11A05193453F82550FF0053F8243003
:104EF0003246BFB2504621971D951C93FFF71EFB0B
:104F0000C517C20942EA4562574B1146013253F8B0
:104F1000214053F8222000F07F05121B62EB0203B0
:104F2000E91702FB01F7A2FB050105FB0375C209A6
:104F3000294442EA416210194FEAE11343F10001AA
:104F4000CDE90001BAF8F210002E1491BAF8F490ED
:104F50009AF8F6B040F36A83C6EB4613C6EB832398
:104F60009B1303F500631F9620935246F2E97401E8
:104F7000269252464FF48054CDE91801F2E97601A9
:104F8000279252462494CDE90601F2E9780125944E
:104F90002892DAF8103152469AF82241CDE91A01E6
:104FA000F2E97A014FF0110CCDE90801DAF8087145
:104FB0004FF000406FF0004129920B931594CDF80B
:104FC0005CC00A90239117994B1E13F0FF031793AF
:104FD00000F08982DAF82C61DAF820300136CAF85C
:104FE0002C611AF80380BAF90421013303F01F037E
:104FF000D21B18F0010CCAF8203007EB221708D199
:1050000018F0100F00F0348201238AF8F031CDF847
:105010002CC018F0080F0CD09AF823314BB146B1D0
:10502000124B9E4240F2888200240B940023CAF85F
:105030002C31BCF1000F1BD0DAF8EC000AF1280289
:1050400000EB4001DDF850C0013002EB410300F0FD
:105050001F0022F811C0A3F8029083F804B0CAF828
:10506000EC00B0E70000002098150108FFDB050008
:105070002398874220D0C44BA7F5004292B2111268
:10508000981C33F8113030F81110D2B2C91A02FB53
:1050900001F203EB22239BB2012B40F21B824FF063
:1050A0000062C3F58031B2FBF3F4B2FBF1F124945A
:1050B00025911B040A9323970B980A99884200F2C2
:1050C000BE819AF8F020249B4FEA103B022A1E92E0
:1050D0000BFB03FB00F0E0814FEA1B424FEADB359C
:1050E0005111C5F34A1449006400002002F01F0268
:1050F0008B1CCDF8A8B005F01F05A61C2290DDF88A
:1051000070B0DDF874C03BF801003BF90390DDF8A6
:1051100074B03CF801103BF903300FFA80FCCCEB83
:10512000090C0FFA81F902FB0CFCC9EB030302FB2B
:1051300003F300EB6C1080B201EB631302B2DDF8F5
:1051400084C01BB29B1A0CFB03F300EB234000044A
:10515000C117DDE91823801A61EB0301019BDDF81B
:10516000009000FB03FCA0FB092309FB01CC4FEAE4
:10517000D27B63444BEA430CD817CDF830C00D9076
:10518000DDE90C01DDE91823121843EB0103104699
:105190001946CDE91823DDE90623801A61EB0301E6
:1051A000019B00FB03FCA0FB092309FB01CC4FEA98
:1051B000D27B63444BEA430CD817CDF838C00F902C
:1051C000DDE90E01DDE90623121843EB0103DDF8EA
:1051D0008090D10BCDE9062341EA434209FB02F05E
:1051E000079BDDF87090DB13DDF874B00393674B19
:1051F0004FEA905C39F80410029203F1020933F887
:105200001C203BF80430DDF870B039F91CC03BF9C4
:105210000640DDF874900FFA82FBCBEB0C0CC0F368
:105220008F1039F9066000FB0CF00FFA81F9C9EB19
:1052300004091CB205FB09F9341B05FB04F4DDF875
:1052400008C002EB204212B21F9801EB6911CCEBAF
:10525000420289B203EB641300FB02F2219C0DB2FF
:105260001BB25B1B03FB04F30CEBE23292B2149211
:105270002A9801EB234300281BB2B8BF5B421B04F2
:10528000019C1A46DB17DDE91A01121A63EB0103D0
:1052900002FB04F1DDF8009009FB0311A2FB0923D6
:1052A0000B444FEAD27B4BEA430CD817CDF840C0F1
:1052B0001190DDE91A23DDE91001121843EB010317
:1052C000CDE91A23DDE90801121A63EB010302FBA1
:1052D00004F109FB0311A2FB09230B444FEAD27B23
:1052E0004BEA430CD817CDF848C01390DDE9120102
:1052F000DDE90823121843EB0103209C110CCDE9D2
:10530000082341EA0342049204FB02F2099B20486D
:1053100002F10042910D1B14059330F81130023058
:1053200030F9110019B2411AC2F38F1202FB01F2D7
:10533000DDF810B003EB22490A9C169B0FFA89F99D
:10534000DDF87CC0CBEB0909A3420CFB09F994BF43
:10535000C3EB04030A9B169C1E9815990B9AA34253
:1053600038BF2346012818BF00210BEBE9399A42C8
:105370001FFA89F915919AF8F03180F08780002B97
:1053800041D0DDF888B005E0201F0108607D0008ED
:10539000709D0008159B002B37D1DAF84031002BA7
:1053A00039D10A98002840D0229908F01003DBB2C6
:1053B000002900F041810BB9159909B10BF0FE0BE2
:1053C000DAF8EC300AF1280103EB4300149C01EBFE
:1053D000400221F81040A2F8029082F804B0013394
:1053E0009AF8F02103F01F03CAF8EC302AB3229890
:1053F00000286CD10B99169BC91834BF00240124D6
:105400000B911594DFE54FF0010B994B169C9C42D4
:105410008CBF012330230A984BF0020B013B5FFA4B
:105420008BFBCAF840310028BED14BF0010B08F0CD
:1054300010035FFA8BFBDBB2BDE71592C3E50B9C53
:105440000A982599C0EB040B4FEA1B3B01FB0BFBB1
:105450009AF8F0200BF1004B022A1E927FF43CAE2A
:1054600018F0020F20D14FF00209CDF8789033E602
:105470009AF8F030012B3FF4CCAD159A002A3FF496
:10548000C8AD8AF8F0C1CDF82CC0C2E54FF0010BD1
:10549000002B7FF47FAFB8E70B9B0A9CA342FFF47D
:1054A0001BAE18F0020FDED00A990025013102264A
:1054B0004FF0004901200B912C462A461E9640F6DB
:1054C00002034FF40061CDF8A890229017E6002067
:1054D000159078E54FF000694FF4006BCDF890908F
:1054E000CDF894B0E5E5269CDDE91823C4E9002356
:1054F000DDE90601279A149BC2E90001DDE91A01E2
:10550000289A0B9CC2E90001DDE90801299AC2E949
:105510000001AAF8F230CAF81041169B159CAAF8AF
:10552000F4908AF8F6B0CAF814318AF82241CAF821
:1055300008712DB0BDE8F08FDAF8C43100241E9355
:105540001E980AEB830300F14002C3F8446100F1A6
:1055500020052A96CDF8ACB0169401202297264655
:105560009346C7B25B460024191A03F01F0201F0EC
:105570001F010AEB81010AEB8202D2F84421D1F823
:105580004411013B511A0029B8BF4942B1EB121F27
:105590003CBF0134E4B2AB42E6D1A64200F10100C7
:1055A0009CBF169726460828DBD11E99169B4A1CDD
:1055B00002F01F022A9ED11ADAF8C83101F01F0149
:1055C0000AEB8101F31AD1F84441002BB8BF5B42CA
:1055D000B3EB161FDAF8283138BF264603FB06F373
:1055E0004FF0FF30DAF82411B0FBF3F0A0FB01011B
:1055F000CAF8C42100234FF000428B4208BF824208
:1056000038BF1046229FDDF8ACB0CAF8C8411690EA
:105610000CE5B0F9FE502946FEF716FFCAF8140152
:10562000CAF83801CAF83C0116904BE400224FF446
:1056300000631F92209398E4DAF8EC300AF1280115
:1056400003EB4300149C01EB400221F81040A2F848
:10565000029082F804B001339AF8F02103F01F039E
:10566000CAF8EC30002A7FF4C5AE22981590AAE45F
:10567000A9AAAA028268016802EB42035B002DE935
:10568000F001CC5C0B447CB94568598801329B8899
:10569000AA42826041618361C1600361C46100D339
:1056A0008460BDE8F00170475D88C768C169C7EBD9
:1056B000050C01FB0CFC93F801809C8806699CFB9F
:1056C000F8FCC6EB0408BC4408FB01F7C0F814C0A2
:1056D00093F801C0013197FBFCF73E448661C1613C
:1056E0005B789942DDDD4168013200238A428260A5
:1056F00045618461C5600461C36128BF8360BDE802
:10570000F0017047FEE700BFFEE700BFFEE700BF05
:10571000FEE700BF704700BF704700BF704700BF83
:10572000704700BF1C4B10B593F8A830042B04D071
:10573000BDE81040184800F02FBC184B9A6892B290
:1057400082F002031105C3F340035CBF43F0020380
:10575000DBB25405124C58BF43F0040322785007C3
:1057600003D4590748BF43F0080390070ED49907A4
:1057700001D543F01003084819460A4A237000F087
:10578000AFFBBDE81040044800F006BC9A07F2D415
:1057900043F02003EFE700BF68090020000C014040
:1057A000300A0020580900202DE9F84F9C480121BB
:1057B00001F024FE08B9BDE8F88F9A4C0121984801
:1057C00001F028FE984B21794FF480521A615A61FA
:1057D000002959D12188A3F554430A1242F480527A
:1057E0009A81924B1A89D207FBD5914A090292F805
:1057F000A82089B20120042A9981207100F08D80AF
:10580000032AD8D08B4A1368013313605A07D2D1C8
:10581000894A8A4B148950899189D3F83490D3F8F6
:105820003880D3F83CC09F6ADE6A1D6BB2F802B0C4
:10583000B2F804A0C4F5FF44C0F5FF40C1F5FF4134
:10584000D2887F34C9EBC9097F30C8EBC8087F31E3
:10585000CCEBCC0C07EB470706EB4606C5EB051572
:105860004C44404461445F4456442A44E410C01010
:10587000C910BF10B61012115C639863D9639F62A0
:10588000DE621A63BDE8F88F6188684B0A1242F441
:1058900010529A81654B1A89D707FBD5644D0902CE
:1058A00095F8A82089B20020042A998120715D49C9
:1058B0001DD0032A00F0A980614B62491E68D1F80F
:1058C000F8700136BE421E6029D25C4B5A491A6AF2
:1058D0000988C2EB021211441A680911521A5A625D
:1058E0001F2A1962554BDCBF00225A628AE75648CC
:1058F000564B026813440360002B4FEA1242544B8C
:105900000A804A804FF480514FF40062B5BF59615C
:1059100019615A611A61BDE8F88FBDE8F88F424EEF
:105920001860B3689BB283F002001E05C0F340000C
:105930005CBF40F00200C0B25F05464F58BF40F068
:1059400004003B785E0703D4460748BF40F00800D8
:105950009B074DD4860701D540F01000D1F824C034
:10596000364B0CF1010606F01F064E62D1F8E860D6
:1059700001F80C0006EB460801EB48080136B8F8C0
:105980002AA006F01F093870B8F8286098F82C0093
:105990000FFA8AF7C1F8E890596A72BB89B27F4260
:1059A00007FB01F706FB01F13F0C00F00206A7F52B
:1059B0000047090C67802180F4B2254E4FF48057D0
:1059C00010F0010014BF7761376164B1204C4FF4CF
:1059D00000666661002A7FF479AF88B1A5F8961059
:1059E000A5F8982072E71A4C4FF400662661F1E79B
:1059F0008307B3D440F02000B0E74FF6FF71CEE745
:105A0000A5F89600A5F8981060E7134D2846FFF713
:105A100031FE2A8B6B6962802380BDE8F88F00BF5E
:105A2000002C014054070020000C014000380040C9
:105A3000680900202C0A002058090020380A00209C
:105A4000800A002060070020280A00206F128300CF
:105A500000080140300A0020840A0020F8B5174EE3
:105A600001223046164C40F2ED2100F0EFFE0021FD
:105A7000144800F0F9FC2046FEF748FB124800F0FD
:105A8000B1FD124D124800F00FFE124800F0F4FD77
:105A90002846FEF745FC104F104B29462246CC25E0
:105AA00000240F481F605D609C60DC6100F02EF9EF
:105AB0003046BDE8F84000F019BF00BF340A0020AE
:105AC000380A0020580900205407002060070020F1
:105AD00050070020300A002088000020840A00209F
:105AE000680900202DE9F041444EFFF7B7FF444C10
:105AF000444DB71C02E0444800F07AFCD4F8E8308A
:105B0000D4F8EC20013B9B1A03F01F030F2BF2D9B2
:105B10002B6BE868B3F5004348BFDB434FEA430310
:105B20009BB24FEA232136F8112037F8111003F009
:105B3000FE03C2EB010103FB01F302EB2322EB6A3C
:105B40002969C0EB030801FB08F84CBF4FF0FF3E8A
:105B50004FF0010E92B20EFB02F2A86A6968AB68C0
:105B6000401A4FEAE83803FB00F308FB02F8DB13A6
:105B700094F8232103EB284808F5F058002A37D180
:105B800094F8F1301E4AA3EB031108EB4128022BD5
:105B90001FFA88F81DD0696B08F5C068A2F80211D9
:105BA000A2F8FE801748298FCBB90FFA81FE17495A
:105BB000C36BBEF5FE4FA8BF4FF4FE4E8E45A8BF87
:105BC00071461046A2F80C31A2F80411FEF770FDE0
:105BD00091E76B6B298FA2F8FE80A2F80231EB6B84
:105BE0000748A4F80411A4F80C31FFF759F982E72B
:105BF00003480FFA88F1FEF75BFBC1E74481010817
:105C000060070020380A0020680900200081FFFF9B
:105C10002DE9F843D0F8AC30B0F8B88093F8F02014
:105C2000314E80F8B42093F8F1204FEAC80880F88C
:105C3000B52093F823212D4B46449E42054680F81B
:105C4000B62000F1B40431D90023A0F8B83001F037
:105C5000B3F8274801F0F0F8264801F0EDF826489F
:105C600001F0EAF8254801F0E7F8DFF89C90244EAF
:105C70001F4FD5F8B410384601F000F905F1B8020D
:105C8000002114F8013B1944944289B2F9D14846E5
:105C900001F024F93046B5F8B81001F01FF9B5F855
:105CA000B8300133A5F8B830BDE8F88301F084F8C6
:105CB000144B26F47F70434423F47F7320F00300D9
:105CC00023F0030308F10067834207F5F63705D098
:105CD00001F0B2F8BE1D07F10409CAE7084EDFF86B
:105CE00028904644C144C4E708EC0108FFFB0108C2
:105CF00000EC010800F0010800F4010800F80108B8
:105D000006EC0108FFEB010804EC01082DE9F04165
:105D1000704C82B006464FF4806E48238846204679
:105D200001A901271546ADF804E08DF807308DF87C
:105D3000067001F0EFF806F1900000F0C9FC06F1E2
:105D40009A0000F053FDA368634F13F4806F0CBFFB
:105D500004230023C6F8B050C6F8AC8086F8A830FB
:105D600006F1B40C06F1B80540F2FF1E3868634630
:105D7000CCF80000002213F8014B2244AB4292B24F
:105D8000F9D1BB88F988934251D0544B083F9F42C8
:105D90000EF1FF3EEAD1002302220121A6F8B8301D
:105DA00086F8BA1086F8BB2088F82331C8F830315D
:105DB00096F8BA30D6F8AC2003F00303032B69D071
:105DC000012B82F8F03068D03046FFF721FF96F8BB
:105DD000BB30D6F8AC1003F00303032B61D0C3F142
:105DE0000203D8B20022002301F5EC7E01F5E8772A
:105DF00001F5F47501F5F0740228CEE90023C7E936
:105E00000023C5E90023C4E9002381F8F1005ED036
:105E10000123C1F8F8303046FFF7FAFE4FF4004393
:105E2000A6F89630A6F8983002B0BDE8F08171452A
:105E3000ABD196F8B52096F8B430C2F1020286F8DC
:105E4000BB2086F8BA3096F8B60098F823310EF1E8
:105E5000010E0030A6F8B8E018BF01206BB960B1A0
:105E6000C8F8C831C8F8C43108F5E27108F5A27362
:105E7000002243F8042B9942FAD1002388F8230129
:105E8000C8F8303196F8BA30D6F8AC2003F00303E6
:105E9000032B95D1012382F8F030012382F8F031F1
:105EA00092E70022002301F5EC7E01F5E87701F589
:105EB000F47501F5F0740120CEE90023C7E9002351
:105EC000C5E90023C4E9002381F8F100A0E7042319
:105ED0009FE700BF00080140F8FB0108F8EB01084C
:105EE0002DE9F00390F89B5090F89A40D5F1010508
:105EF00001F0050338BF0025C1F34001D4F10104CE
:105F000038BF002419430CBF0023012380F88C50B4
:105F100080F88D4080F88E3001270026DFF874C0AD
:105F200004E090F88D400137BFB20136B3B2032BC5
:105F300032F8131024D03CF82380DFF858908845BD
:105F400088BF44F0010480F88D406BB10CEB8303F3
:105F50005B888B4238BF45F00105072F80F88C50D5
:105F6000DFD1BDE8F003704790F88E30B9F80280B9
:105F700088452CBF194643F0010180F88E10D2E706
:105F8000C94389B2B1F5805F38BF44F0010480F89D
:105F90008D40DBE764D301082DE9F047AC4D00F1FB
:105FA0009A062B680446013330462B6000F036FC1D
:105FB00030462246002310F8011B802939D021BB2E
:105FC000D2F8A0603EB32F68DFF88482BE1BB6F51E
:105FD0007A7F20DDD4F8887004F1040C07F1010900
:105FE0000CEBC70E4FF0040A09F00F090CF837A0AC
:105FF000CEF80460AEF80230C4F88890D8F800609B
:106000002660C2F8A01010F8011C7F2903D1D2F835
:10601000A010002941D10133022B02F10402CAD1A0
:1060200094F8A830042B32D8DFE803F070BC90A6B7
:106030005500D4F88810271D01F1010E07EBC106A9
:106040004FF004080EF00F0E4FF0000C07F83180EF
:106050007380C6F804C0C4F888E029682E682160FF
:10606000C2F8A06010F8011CA9E74FF6FF710022EA
:1060700093F82331A4F89210A4F894203BB12B6834
:106080001B0604D50023A4F89430A4F8923004F140
:10609000900000F083FBBDE8F0872F68D4F888609B
:1060A00007F1010C04F1040E06F101090EEBC6071D
:1060B000C1EB0C0C4FF0040809F00F010EF836800C
:1060C000C7F804C07B80C4F88810296800262160C6
:1060D000C2F8A0609FE794F88E30002B77D194F837
:1060E0008C20002A40F0A48094F88D30002B40F0E2
:1060F000818084F8903084F89130A4F89230A4F82C
:106100009430A4F89630A4F89830C0E7D4F8AC30B6
:1061100093F8F02093F8F110961E70427041D2F17E
:10612000010238BF0022012984F8900084F89120F0
:1061300070D09AD302295AD100214FF6FF7293F8FA
:106140002331A4F89210A4F8942097E700234FF687
:10615000FF72012184F89030A4F89230A4F89630B0
:1061600084F89110A4F89420A4F8982004F19000E9
:1061700000F014FBBDE8F08700234FF6FF72012109
:1061800084F8901084F89130A4F89430A4F89830F2
:10619000A4F89220A4F8962004F1900000F0FEFAF2
:1061A000BDE8F0874FF6FF73012284F8912084F850
:1061B0009020A4F89430A4F89230A4F89830A4F871
:1061C000963004F1900000F0E9FABDE8F0874FF650
:1061D000FF73012284F8902084F89120A4F8923073
:1061E000A4F89430A4F89630A4F898304FE793F8C8
:1061F000233143E74FF6FF73012184F89020A4F880
:106200009220A4F8962084F89110A4F89430A4F871
:1062100098303CE793F82331002B3FF434AF4FF430
:1062200000524FF48043A4F89220A4F8943026E75B
:106230004FF6FF72012184F89130A4F89430A4F84D
:10624000983084F89010A4F89220A4F896201EE7C5
:10625000A40A002090F8A830F0B4042B3FD0032B00
:106260003FD0012B29D0022B40D0002380F8BC3036
:106270004C88002C4ED0012C31D14B68B3F57A7F7D
:1062800070DDD0F8AC1091F8233183F0010563B9CB
:10629000C1F8C831C1F8C43101F5E27401F5A27347
:1062A000002243F8042B9C42FAD1002381F82351A9
:1062B000C1F83031F0BCFFF7ABBC4B68B3F57A7F67
:1062C00004DD90F8BC30013380F8BC304B8843B912
:1062D000D0F8B03002219A6A1A6480F8A810F0BC95
:1062E0007047002380F8A830F0BC70474B8800222C
:1062F00080F8A820002B5ED0012BF0D190F8BC30A4
:10630000012BECD14B68B3F57A7FE8DD032380F8ED
:10631000A830E4E74B68B3F57A7F05DDD0F8B030FC
:106320001B6AB3F5404F12DA90F8BA300133DBB292
:1063300003F00302032A80F8BA30D0F8AC300AD058
:10634000012A83F8F02009D0F0BCFFF761BC0123DB
:1063500080F8A830C3E7012283F8F020012283F8F7
:10636000F021F1E790F8BB30D0F8AC100133DBB28C
:1063700003F00302032A80F8BB3021D0C2F10202ED
:10638000D4B20023002201F5EC7C01F5E87701F599
:10639000F47601F5F075022CCCE90023C7E900235F
:1063A000C6E90023C5E9002381F8F1401DD001238F
:1063B000C1F8F830C8E7D0F8B000F0BCFDF7F6BE81
:1063C0000022002301F5EC7C01F5E87701F5F47675
:1063D00001F5F075CCE90023C7E90023C6E90023E5
:1063E000C5E9002381F8F140E1E70423E0E700BFBD
:1063F00030B5D0F88820D0F8843083B0D31A1A078B
:10640000044618BF6D4607D120E0D4F88820D4F8A0
:106410008430D31A1B0719D0D4F8843004EBC3029C
:10642000043292E8030085E803009DF80020013360
:1064300003F00F03042AC4F88430E6D1019B002B3B
:10644000E3D020466946FFF705FFDEE7054B2268EB
:1064500019688A1AB2F57A7F01D91B68236003B0E4
:1064600030BD00BFA40A00202DE9F04792B00124FE
:106470000025FC2307460E46554801A9ADF8043017
:106480008DF806408DF8075000F044FD01A95148F1
:10649000ADF804408DF806408DF8075000F03AFD45
:1064A0004D4800F0DFFBDFF83891AE424FF020029C
:1064B0004FF400530CBF4FF0070AA2464FF4807C04
:1064C0004FF4806E444807A94FF080080F92109354
:1064D000CDF834C0CDF838E0089709950B951195A3
:1064E000CDF828A0CDF81C90CDF8308000F03AFC13
:1064F0002146394800F056FC384800F0D9FA4FF4EC
:1065000060224FF4006302958DF80C408DF80D4029
:106510000492059356B3314802A98DF8184000F053
:10652000FDFA22462D480421062300F04DFB2B489E
:10653000012100F017FB294800F028FB274800F054
:106540002BFB0028FAD1254800F02AFB234800F055
:106550002DFB0028FAD12148012100F00DFB1F4836
:10656000012100F027FB12B0BDE8F087072502A942
:106570001A488DF8185000F0D1FA062122460B4631
:10658000164800F021FB154803210222062300F0E3
:106590001BFB124804210322052300F015FB0F48C2
:1065A00002210422032300F00FFB05210A460B48B9
:1065B000032300F009FB094808210622032300F009
:1065C00003FB29462A460548032300F0FDFAAEE7FF
:1065D00000080140000C0140080002400024014076
:1065E0004C240140F0B5224E87B00746694630463C
:1065F0004FF48052032410231E4DADF800208DF877
:1066000002408DF8033000F085FC304669464FF4B7
:10661000204218238DF80240ADF8002000248DF8A8
:106620000330022600F076FC4FF4827C4FF4006EBB
:106630004FF400720723284601A9ADF806C0ADF853
:1066400008E0ADF80E20ADF81430ADF80440ADF818
:106650000C40ADF81040ADF81240ADF80A6000F003
:1066600029FD2846012100F045FD3C7107B0F0BD31
:10667000000C01400038004030B583B004460122D0
:10668000482340F60245074801A98DF80730ADF8C8
:1066900004508DF8062000F03DFC0023237003B069
:1066A00030BD00BF000C014010B582B003221023A2
:1066B0004FF4C054054801A9ADF804408DF80620F8
:1066C0008DF8073000F026FC02B010BD0008014034
:1066D00070B5304D88B0304C0126284669464FF4DD
:1066E00070721823ADF800208DF803308DF8026029
:1066F00000F010FC3022694628461023ADF8002037
:1067000000258DF803308DF8026000F003FC40F2A4
:10671000FF132046ADF80830ADF80450ADF80A502C
:10672000ADF806508DF80C5000F032FE204601A95D
:1067300000F0EEFC6023204604A9ADF81030ADF85F
:106740001260ADF81650ADF8185000F005FD204667
:10675000082100F025FE204604A900F03BFD20465C
:10676000082100F025FE204604A900F07BFD20460C
:10677000082100F027FE204604A900F0BBFD2046BA
:10678000082100F027FE2046314600F0E9FD08B060
:1067900070BD00BF000C01400008004070B50189C9
:1067A000104D0446C909284600F01EFEE18828461F
:1067B000C90900F01BFEA1882846C90900F018FE8F
:1067C0006188094E2846C90900F014FE2278304637
:1067D000202100F0FFFB304662781021BDE87040B8
:1067E00000F0F8BB00080040000C014010B5FF218C
:1067F00082B0022200F038FE03240122482306481A
:1068000001A9ADF804408DF806208DF8073000F09E
:1068100081FB02B010BD00BF0008014070B50A4DF9
:10682000044606780121284600F0CEFB7600F6B239
:10683000637830432070022128465D0000F0C4FBDD
:10684000EDB22843607070BD0008014030B51446B9
:1068500085B00D4600F064F82CB14FF000604FF4A5
:10686000804100F01BF944F60D20012100F0FEFBF1
:1068700044F20600012100F005FC0120014600F071
:10688000E9FB0121174800F0ABFB4FF4004000F09A
:10689000D7FB00241448ADF80850ADF80440ADF81B
:1068A0000A40ADF806408DF80C4000F071FD01A9DA
:1068B0000D4800F02DFC01210B4800F051FD4FF474
:1068C000A06000F0A9F81922012368468DF8014064
:1068D0008DF802408DF800208DF8033000F0A6F806
:1068E00005B030BD00013000002C014038B5012159
:1068F0000A46074800F042FD064D074B0748F024C2
:106900005D60002180F82340072299601A6038BD3D
:10691000002C01403F19010010E000E000ED00E014
:106920003A4B10B419683A4A41F0010119605C68A9
:1069300083B022405A601A68002122F0847222F447
:1069400080321A601A684FF41F0022F480221A6005
:106950005A6822F4FE025A609860009101911A6808
:1069600042F480321A6003E0009BB3F5A06F0AD0B6
:10697000264B1B6803F400330193009B0133009303
:10698000019B002BF0D0214B1B6813F4003318BF80
:1069900001230193019B012B00D0FEE71D4A1B4BF5
:1069A000116841F010011160116821F003011160BC
:1069B000116841F0020111605A685A605A685A60C1
:1069C0005A6842F480625A605A6822F47C125A6013
:1069D0005A6842F4E8125A601A6842F080721A60EB
:1069E0000A4B1A689201FBD55A6822F003025A60DA
:1069F0005A6842F002025A60044B5B6803F00C03D1
:106A0000082BF9D103B05DF8044B70470010024029
:106A10000000FFF80020024040F0BF60024B40F44D
:106A20000030D860704700BF00ED00E0C37830B49C
:106A30005BB90378012103F01F02914030BC5B0970
:106A4000144A203342F823107047134B4478DB6814
:106A50000F22DB43C3F30223C3F1040122FA03F341
:106A60008C408578017803EA0502224301F16043F6
:106A70001201D2B203F5614383F8002303780121A8
:106A800003F01F02914030BC024A5B0942F8231018
:106A9000704700BF00E100E000ED00E021F0604140
:106AA00021F07F01014B08439860704700ED00E042
:106AB00008B5174B984212D0164B98421BD0164B74
:106AC000984200D008BD4FF40040012100F0E6FAE2
:106AD000BDE808404FF40040002100F0DFBA4FF459
:106AE0000070012100F0DAFABDE808404FF40070B0
:106AF000002100F0D3BA4FF48060012100F0CEFAFB
:106B0000BDE808404FF48060002100F0C7BA00BF24
:106B10000024014000280140003C014043680A680D
:106B200023F4702330B423F480730C79134343EAC5
:106B30000423436085688C68CA68094B22432B4054
:106B40004D79134343EA450383600B7CC26A013BE2
:106B5000DBB222F4700242EA0353C36230BC7047D6
:106B6000FDF7F1FF836819B923F0010383607047D3
:106B700043F0010383607047836819B923F480737D
:106B80008360704743F4807383607047836843F089
:106B900008038360704700BF8068C0F3C00070477F
:106BA000836843F004038360704700BF8068C0F3CC
:106BB00080007047836819B923F4A003836070478D
:106BC00043F4A00383607047092970B41FD9A1F171
:106BD0000A0404EB44040726A64003FA04F4C5683B
:106BE000062A25EA060343EA0403C3601DD90C2ADA
:106BF00029D970BC0D3A02EB82021F23934001FA9F
:106C000002F2C16A21EA03031A43C262704701EB30
:106C100041040726A64003FA04F40569062A25EA7A
:106C2000060343EA04030361E1D870BC013A02EBB6
:106C300082021F23934001FA02F2416B21EA03030F
:106C40001A4342637047073A02EB82021F239340C4
:106C500070BC01FA02F2016B21EA03031A430263DA
:106C6000704700BF0168324A002321F001019042C1
:106C70000160036043608360C36044D02D4B984241
:106C800025D02D4B984230D02C4B984234D02C4BF1
:106C9000984223D02B4B98423BD02B4B98420FD09D
:106CA0002A4B98423CD02A4B984210D0294B98420C
:106CB0001BD0294B98421FD0284B98420ED07047CA
:106CC00053F87C2C42F0706243F87C2C704753F8E8
:106CD000182C42F0F00243F8182C704753F8542C4B
:106CE00042F4702243F8542C704753F82C2C42F491
:106CF000706243F82C2C704753F8402C42F47042D9
:106D000043F8402C7047164B5A6842F00F025A6005
:106D1000704753F8682C42F4700243F8682C7047AF
:106D200053F8042C42F00F0243F8042C704700BFC4
:106D3000080002401C0002403000024044000240B3
:106D4000580002406C0002408000024008040240EB
:106D50001C04024030040240440402405804024033
:106D6000000002408A68F0B40C6A0B6914434A6957
:106D70001C438B69CE69224307684D6A13438C6AB2
:106D80001E43354327F4FF43CE680F684A682C43FF
:106D900023F070032343036046608760C260F0BC49
:106DA000704700BF036819B923F0010303607047FF
:106DB00043F0010303607047024B0349034A5960E3
:106DC0005A6070470020024023016745AB89EFCD30
:106DD000084BDA68D1070BD4DA68520701D50220D4
:106DE0007047DB6813F0100F0CBF042003207047BE
:106DF000012070470020024010B582B00446FFF722
:106E0000E7FF012812D1A4B1FF23002201920193D0
:106E1000019B2BB1019B013B0193019B002BF9D1FD
:106E2000FFF7D6FF012804F1FF34ECD00CB102B01B
:106E300010BD052002B010BD38B5054640F6FF7004
:106E4000FFF7DAFF042800D038BD0B4C40F6FF7086
:106E5000236943F0020323616561236943F0400322
:106E60002361FFF7C9FF0528EED0226941F6FD73C3
:106E70001340236138BD00BF0020024070B50023DD
:106E800082B005460F200C460193FFF7B5FF04289A
:106E900001D002B070BD104EA3B232690F2042F093
:106EA000010232612B80FFF7A7FF042808D00528D4
:106EB000EFD0326941F6FE731340336102B070BD0A
:106EC00002350195019B240C1C800F20FFF794FFD5
:106ED0000528EED1DDE700BF0020024070B5044672
:106EE0000F200D46FFF788FF042800D070BD084E24
:106EF0000F20336943F0010333612580FFF77CFFE6
:106F00000528F3D0326941F6FE731340336170BD3A
:106F100000200240F0B4CD78EB0648BF8B7809889A
:106F200005F00F0648BF1E4311F0FF0F20D0076881
:106F3000002302E00133082B19D001229A4002EA13
:106F400001049442F6D19A004FF00F0C0CFA02FCA7
:106F500006FA02F227EA0C07282D47EA020731D089
:106F6000482D03F1010308BF0461082BE5D1076038
:106F7000FF2923D94768002302E00133082B1CD0E6
:106F8000012403F1080204FA02F202EA0104944225
:106F9000F3D19A004FF00F0C0CFA02FC06FA02F241
:106FA00027EA0C07282D47EA020709D0482D03F1EC
:106FB000010308BF0461082BE2D14760F0BC7047B1
:106FC0004461DAE74461B5E7836819420CBF0020E9
:106FD000012070470AB9416170470161704700BFE5
:106FE00030B4164A00F44014B4F5401F85B253681B
:106FF0001CD0C20211D5C0F30342032404FA02F2EA
:1070000023EA020343F0706319B1400D000185408B
:107010002B430A4A30BC53607047420D120105FAF7
:1070200002F223EA020343F07063EDE7546823F0B1
:10703000706324F070645460E6E700BF0000014014
:10704000034B5A6822F4404210435860704700BF17
:1070500000100240044B5A6919B922EA0000586135
:10706000704710435861704700100240044B9A6902
:1070700019B922EA0000986170471043986170477F
:1070800000100240044BDA6919B922EA0000D86105
:1070900070471043D861704700100240044BDA6813
:1070A00019B922EA0000D86070471043D8607047D1
:1070B00000100240F0B40B884C888A881C43CB88AF
:1070C00014430A891C434B898F8922430588CE8942
:1070D0001A433A43324305F4415313439BB20380AE
:1070E000838B0A8A23F400631B041B0C8383F0BC8C
:1070F00002827047038829B923F040031B041B0C4C
:10710000038070479BB243F040030380704700BF89
:10711000038830B403F08F0303800588CA884B8846
:10712000ADB215431D430B4B8C880A88ADB2984213
:1071300005808485028507D003F50063984203D05B
:1071400030BC0123838270470B7A30BC0386012355
:1071500083827047002C0140038CF0B423F00103BC
:107160001B041B0C0384028C0D8984884F88038BBD
:107170002F4322F0020223F07303154D12041B0467
:107180000E88120CBFB21B0CA84247EA0202A4B23E
:1071900043EA06030AD005F50065A84206D0C9886F
:1071A00084800383F0BC8186028470474F898D8977
:1071B000CE8922F008023A432E438F8847F6FF45D6
:1071C00022F00402B6B225403A4346EA0504E6E757
:1071D000002C0140038CF0B423F010031B041B0CA3
:1071E0000384028C848822F02002038B0D89120410
:1071F00023F4E643120C42EA05124F881B040E8862
:10720000174D1B0C42EA071243EA0623A84292B22A
:10721000A4B29BB20AD005F50065A84206D0C98881
:1072200084800383F0BC01870284704722F08002CF
:10723000B1F80AC092B247F2FF368F8942EA0C1CBD
:1072400026404FF6BF758A88CC890CEA050546EAC8
:10725000870645EA021246EA840492B2A4B2DEE747
:10726000002C0140038CF0B423F480731B041B0C2E
:107270000384028C0D8922F4007284881204838BAB
:10728000120C42EA05224F8823F07303184D1B04A9
:107290000E8842EA07221B0CA84292B2A4B243EA2B
:1072A00006030AD005F50065A84206D0C988848087
:1072B0008383F0BC81870284704722F40062B1F8B6
:1072C0000AC092B244F6FF768F8942EA0C2C26401F
:1072D0004FF6FF358A88CC890CEA050546EA071681
:1072E00045EA022246EA041492B2A4B2DEE700BFE5
:1072F000002C0140038CF0B423F480531B041B0CBE
:107300000384028C848822F40052838B0D8912043A
:1073100023F4E643120C42EA05324F881B040E8820
:107320000E4D1B0C42EA073243EA0623A84292B2F2
:10733000A4B29BB20BD005F50065A84207D0C9885E
:1073400084808383F0BCA0F84010028470478D894C
:10735000C4F30D0444EA8514A4B2F0E7002C014004
:10736000038829B923F001039B059B0D0380704717
:107370009BB243F001030380704700BF83899BB237
:107380001AB923EA0101818170471943818170474D
:10739000038923F007031B041B0C0381704700BF04
:1073A000038B23F008031B041B0C19430183704754
:1073B000038B23F400631B041B0C43EA01218BB2F3
:1073C00003837047838B23F008031B041B0C1943B2
:1073D00081837047838B23F400631B041B0C43EAF7
:1073E00001218BB283837047818670470187704784
:1073F00081877047A0F84010704700BF038A8289D8
:1074000011EA030092B203D011420CBF0020012008
:10741000704700BFC94389B201827047002100F064
:1074200004B80B4B5B58435004310A480A4B4218CE
:107430009A42FFF4F6AF094A00F003B8002342F87D
:10744000043B074B9A42FFF4F9AFFEF74BFB704742
:1074500098D30108000000205005002050070020AC
:10746000A80A0020FFF7FEBFF0B4840743D0541EE3
:10747000002A3ED0CDB2034603E0621E002C38D075
:10748000144603F8015B9A07F7D1032C2AD9CDB231
:1074900045EA05250F2C45EA054515D9A4F1100745
:1074A0003F0903F1100606EB07161A4615605560F2
:1074B0009560D5601032B242F8D104F00F04013764
:1074C000032C03EB07130DD91E462246043A032A68
:1074D00046F8045BFAD8221F22F003020432134458
:1074E00004F003042CB1C9B21C4403F8011BA342ED
:1074F000FBD1F0BC704714460346C6E7010000000C
:10750000010000000500000004000000040000006D
:10751000030000000300000002000000050000005E
:107520000300000002000000010000000300000052
:10753000010000000400000001000000060000003F
:107540000100000008000000010000000C00000025
:107550000100000010000000010000002FECB6EB5D
:107560003FEBC7EA52EADBE968E9F2E881E80DE8B7
:107570009CE72BE7BCE64CE6DEE56FE503E597E428
:107580002CE4C2E357E3F0E287E220E2BAE155E1FE
:10759000F0E08CE02AE0C7DF66DF05DFA6DE46DE2E
:1075A000E9DD8BDD30DDD4DC79DC1FDCC6DB6FDBB5
:1075B00018DBC0DA6CDA16DAC4D970D91DD9CCD888
:1075C0007CD82CD8DDD78ED742D7F6D6A9D65FD6B1
:1075D00016D6CCD584D53DD5F6D4B1D46BD427D42A
:1075E000E4D3A1D360D31ED3DED29FD260D223D204
:1075F000E6D1A9D16ED133D1F9D0C1D088D050D045
:107600001AD0E4CFAECF7ACF46CF13CFE0CEB0CEF4
:107610007ECE4DCE1FCEEFCDC2CD94CD68CD3CCD2C
:1076200011CDE5CCBDCC93CC6ACC43CC1BCCF6CBF6
:10763000CFCBAACB86CB61CB3ECB1CCBF9CAD8CA69
:10764000B7CA96CA77CA58CA39CA1BCAFFC9E1C99C
:10765000C6C9A9C990C973C95AC941C928C90FC99E
:10766000F7C8E0C8CAC8B2C89DC888C872C85EC892
:107670004AC837C823C811C8FFC7EDC7DBC7CCC786
:10768000B9C7ABC79AC78CC77CC76EC760C752C79C
:1076900045C738C72CC71FC714C708C7FCC6F2C6E2
:1076A000E6C6DDC6D3C6C9C6C0C6B7C6AEC6A5C681
:1076B0009EC695C68EC686C67FC679C672C66CC67D
:1076C00065C660C659C655C64EC64AC644C641C6FA
:1076D0003BC637C633C62FC62BC628C624C622C60D
:1076E0001DC61BC618C615C612C611C60EC60BC6C9
:1076F0000AC608C605C605C602C600C6FFC5FEC541
:10770000FCC5FCC5F9C5F9C5F9C5F7C5F6C5F5C58C
:10771000F5C5F5C5F3C5F3C5F3C5F1C5F2C5F1C5AA
:10772000F1C5F0C5F0C5F0C5F0C5EFC5F0C5F0C5B1
:10773000EEC5F0C5EEC5F0C5EDC5F0C5EEC5EEC5AC
:10774000EFC5EEC5EEC5EFC5EEC5EEC5EFC5EEC59E
:10775000EEC5EEC5EFC5EDC5F0C5EDC5EFC5EEC58F
:10776000EEC5EFC5EDC5F0C5EDC5EFC5EEC5EEC57F
:10777000EFC5EEC5EEC5EFC5EEC5F0C5EDC5F0C56C
:10778000EEC5EFC5F0C5EFC5F0C5EFC5F0C5F0C556
:10779000F0C5F0C5F0C5F2C5F0C5F3C5F1C5F4C537
:1077A000F3C5F5C5F4C5F6C5F6C5F7C5F9C5F9C500
:1077B000FBC5FAC5FDC5FEC5FFC501C603C603C6A8
:1077C00006C607C60AC60CC60EC610C612C615C621
:1077D00018C61BC61DC622C625C628C62BC630C65F
:1077E00034C637C63BC641C644C64AC64EC655C651
:1077F00059C660C666C66BC672C679C67FC686C6DF
:107800008EC695C69EC6A6C6AEC6B7C6C0C6C9C6F3
:10781000D3C6DDC6E8C6F1C6FEC608C714C71FC773
:107820002CC738C746C752C761C76EC77DC78BC74D
:107830009BC7AAC7BBC7CBC7DCC7EDC7FFC711C86B
:1078400024C836C84BC85EC872C889C89CC8B4C8AA
:10785000C9C8E0C8F8C810C928C941C95BC973C9FB
:1078600090C9AAC9C5C9E2C9FEC91BCA3ACA58CA41
:1078700077CA97CAB8CAD7CAFACA1BCB3ECB62CB63
:1078800085CBABCBCFCBF6CB1BCC43CC6ACC94CC4B
:10789000BDCCE5CC12CD3BCD69CD93CDC3CDEFCDE5
:1078A0001FCE4ECE7ECEB0CEE0CE14CF46CF7ACF16
:1078B000AECFE4CF1AD051D089D0C0D0FAD033D1D6
:1078C0006ED1ABD1E5D124D260D2A0D2DED21FD30B
:1078D00060D3A2D3E4D328D46BD4B1D4F7D43DD5AC
:1078E00084D5CDD516D65FD6ABD6F6D642D78FD7B0
:1078F000DED72CD87CD8CCD81FD970D9C3D917DA09
:107900006CDAC1DA17DB6FDBC8DB1FDC79DCD5DCB6
:107910002FDD8DDDE8DD48DEA6DE06DF65DFC8DFB2
:1079200029E08DE0F0E055E1BAE120E288E2EFE203
:1079300059E3C2E32CE499E402E571E5DEE54CE6A7
:10794000BCE62BE79CE70FE880E8F3E868E9DBE9B1
:1079500052EAC7EA40EBB6EB2FECA9EC23ED9DED24
:1079600019EE95EE12EF90EF0EF08DF00EF18DF115
:107970000FF291F213F397F31BF49FF425F5AAF598
:1079800032F6B7F641F7C8F751F8DCF866F9F1F9C5
:107990007CFA09FB95FB22FCB0FC3EFDCEFD5DFEB2
:1079A000ECFE7DFF0D009E003101C2015502EA028E
:1079B0007D031104A6043B05D1056606FD06950767
:1079C0002B08C3085B09F4098B0A250BBE0B580C66
:1079D000F10C8D0D250EC10E5D0FF70F93103011B8
:1079E000CA1167120313A1133D14D9147715141685
:1079F000B1164E17ED178A182819C519641A021BFB
:107A00009F1B3E1CDB1C7A1D181EB61E531FF21F47
:107A100090202D21CA2169220723A3234124DE249B
:107A20007B251826B5265127ED278A282529C12927
:107A30005C2AF82A922B2C2CC72C602DFB2D932E20
:107A40002C2FC52F5C30F4308D312232B9325033B7
:107A5000E5337A340F35A3353636CA365B37EE3721
:107A600080381039A139313AC03A4D3BDD3B6A3C90
:107A7000F63C823D0E3E983E233FAA3F3540BB4038
:107A80004341C9414E42D4425743D9435C44DE444A
:107A90005E45DE455D46DB465947D4475048CB48F6
:107AA0004349BD49344AA94A214B944B094C7B4C6C
:107AB000ED4C5E4DCD4D3C4EA84E174F814FEB4FD8
:107AC0005550BD5024518951EF515252B552165361
:107AD0007653D55332549054EA5446559D55F55536
:107AE0004D56A156F65648579A57EA573858875870
:107AF000D2581E596759B059F8593D5A815AC55A3A
:107B0000065B475B865BC35B005C3B5C745CAC5CA8
:107B1000E35C185D4D5D7F5DB05DE05D0E5E3C5EDB
:107B2000665E915EB85EE15E065F2B5F4C5F6F5FE5
:107B30008E5FAC5FCA5FE45FFF5F18602F604360D9
:107B400058606C607B608C609A60A760B160BC60BC
:107B5000C460C960D060D260D660D660D460D360A3
:107B6000CF60C960C360BA60B060A76099608B6085
:107B70007B606A60576044602D601860FF5FE35F60
:107B8000C95FAC5F8E5F6D5F4D5F295F065FDF5E33
:107B9000B85E905E665E3A5E0E5EDF5DAF5D7F5DF5
:107BA0004C5D185DE25CAB5C735C3B5CFE5BC35B95
:107BB000855B465B055BC35A825A3B5AF759B059FD
:107BC00066591E59D25886583958E9579A57475717
:107BD000F656A0564B56F5559D554555EA548F54CB
:107BE0003254D45376531653B3525152EF518951F4
:107BF0002351BC505450EB4F804F154FA84E3B4E75
:107C0000CD4D5C4DEC4C7C4C074C944B204BA94A21
:107C1000334ABB494449C9484F48D4475847DA46D4
:107C20005C46DE455D45DE445C44D9435743D24261
:107C30004F42C7414241BB403440A93F233F973E9A
:107C40000D3E823DF63C693CDC3B4D3BC03A2F3A51
:107C5000A1390F397F38ED375B37C9363636A23553
:107C60000F357934E5334E33B93222328C31F4306A
:107C70005C30C42F2C2F932EFA2D602DC72C2C2C6A
:107C8000912BF72A5C2AC02925298928ED2750271E
:107C9000B52617267B25DE244024A323062368224D
:107CA000CB212C218F20F21F531FB51E171E7A1DCA
:107CB000DA1C3E1C9F1B011B631AC5192819891861
:107CC000EC174F17B11613167615D9143C14A013E0
:107CD00003136612CA112F119210F70F5C0FC00E1A
:107CE000260E8B0DF10C570CBD0B240B8C0AF309DF
:107CF0005A09C2082B089407FD066606D1053B0504
:107D0000A50411047C03EA025402C20130019E0062
:107D10000C007CFFECFE5CFECDFD3EFDAFFC22FCCA
:107D200095FB08FB7BFAF1F965F9DCF851F8C8F727
:107D30003FF7B8F631F6A9F525F59FF41AF496F356
:107D400013F390F20FF28DF10CF18DF00FF08FEF35
:107D500012EF94EE19EE9CED23EDA7EC30EC000051
:107D600000006001BF021E047C05DA063608920995
:107D7000EC0A450C9B0DF00E43109411E2122D14E9
:107D80007615BB16FD173C19781AB01BE31C131EA1
:107D90003F1F66208921A722C023D524E425EE2693
:107DA000F327F228EB29DF2ACD2BB52C972D732E44
:107DB000482F1730E030A2315D321133BF336634C3
:107DC00006359F353136BC364037BC373238A0389F
:107DD00006396639BE390F3A593A9B3AD63A093BC9
:107DE000363B5B3B793B8F3B9F3BA73BA83BA23B92
:107DF000953B823B673B463B1D3BEF3AB93A7D3AA8
:107E00003B3AF239A4394F39F43893382D38C13719
:107E10004F37D8365B36DA355335C8343834A33368
:107E20000A336D32CB3126317C30CF2F1F2F6B2E92
:107E3000B42DF92C3C2C7D2BBB2AF6293029672840
:107E40009D27D0260326342564249323C222F021C3
:107E50001D214A20771FA51ED21D001D2F1C5F1B50
:107E60008F1AC119F41828185F179716D1150D1518
:107E70004C148D13D01217126011AD10FC0F4F0F60
:107E8000A60E000E5E0DC00C260C900BFE0A710AA9
:107E9000E8096309E4086908F30782071707B006D1
:107EA0004F06F3059C054B050005BA047A043F0410
:107EB0000B04DC03B303900373035C034B03400325
:107EC0003B033C034303500363037D039C03C20352
:107ED000ED031F0456049404D70420056F05C40560
:107EE0001F067F06E6065107C3073908B50837099C
:107EF000BE094A0ADB0A710B0C0CAC0C500DFA0DD2
:107F0000A70E5A0F1010CB108A114E121513DF1343
:107F1000AE14801556162F170B18EA18CC19B21A82
:107F2000991B841C711D601E511F45203A2131226E
:107F30002A23252420251D261C271B281B291C2A13
:107F40001D2B1F2C212D242E262F29302B312D3295
:107F50002F33303430352F362E372C382839233A0A
:107F60001D3B153C0B3D003EF33EE43FD340C0417A
:107F7000AB42934379445C453C461A47F647CE48AA
:107F8000A349754A444B104CD94C9F4D614E1F4F2D
:107F9000DA4F92504651F651A2524B53F05391543E
:107FA0002F55C8555E56EF567D5706588C580D59BB
:107FB0008B59045A7A5AEB5A585BC15B265C875C32
:107FC000E45C3D5D925DE35D305E795EBE5E005FC8
:107FD0003D5F765FAC5FDE5F0C6037605D60816047
:107FE000A060BC60D560EA60FC600B6116611E6138
:107FF00023612561246121611A6110610461F560CA
:10800000E360CF60B960A06085606860486026600A
:108010000360DD5FB65F8D5F625F365F085FD95ECC
:10802000A85E775E435E0F5EDA5DA45D6D5D355DD3
:10803000FC5CC35C895C4F5C145CD95B9E5B625BDF
:10804000275BEB5AB05A745A395AFE59C3598859AA
:108050004E591559DC58A4586C583558FF57CA5713
:10806000965762573057FF56CF56A056725646560F
:108070001B56F155C955A2557C55595536551655BF
:10808000F654D954BD54A3548A5474545F544C5478
:108090003A542B541D5411540754FF53F953F553BC
:1080A000F253F253F353F753FC5303540C54175445
:1080B000235432544354555469547F549754B15403
:1080C000CC54EA54095529554C5570559655BD5513
:1080D000E65511563D566B569B56CB56FE563157BC
:1080E00067579D57D5570E5848588458C158FE5861
:1080F0003D597E59BF59015A445A885ACD5A135B8B
:108100005A5BA15BE95B325C7C5CC65C105D5C5DCC
:10811000A75DF45D405E8D5EDB5E295F765FC55FC7
:1081200013606260B060FF604E619D61EC613A6215
:108130008962D86226637463C26310645D64AA6452
:10814000F76443658F65DB6526667066BA6604670B
:108150004D679567DD6724686A68B068F5683969B6
:108160007C69BF69016A426A826AC26A006B3E6BBF
:108170007B6BB76BF26B2C6C656C9D6CD56C0B6D6F
:10818000406D756DA86DDB6D0C6E3D6E6C6E9B6EFB
:10819000C86EF46E206F4A6F746F9C6FC46FEA6F85
:1081A0001070357058707B709C70BD70DD70FB7006
:1081B0001971367152716D718771A171B971D07178
:1081C000E771FD711272267239724C725D726E72B5
:1081D0007E728E729D72AB72B872C472D072DC7293
:1081E000E672F072FA7203730B7313731A732073CF
:1081F00026732C73317336733A733E734173447331
:10820000477349734B734D734E734F735073517370
:1082100051735173507350734F734F734E734D734B
:108220004B734A7349734773467344734273417384
:108230003F733D733B733A733873367335733373DF
:10824000327330732F732E732C732B732B732A732B
:1082500029732973297328732873297329732A733F
:108260002A732B732D732E733073327334733673FA
:1082700038733B733E734173457349734D73517348
:1082800055735A735F7364736A736F7375737C731A
:1082900082738973907397739E73A673AE73B6736C
:1082A000BF73C773D073D973E373EC73F673007441
:1082B0000A74157420742A74357441744C7458749B
:1082C000647470747C7488749574A174AE74BB7497
:1082D000C874D674E374F174FE740C751A7528753D
:1082E000367545755375627570757F758D759C759E
:1082F000AB75BA75C975D875E775F67505761576D7
:1083000024763376427652766176707680768F76F2
:108310009E76AE76BD76CC76DC76EB76FA7609770D
:10832000187728773777467755776477737781772B
:1083300090779F77AD77BC77CB77D977E777F6776C
:108340000478127820782E783C784A7857786578C7
:10835000727880788D789A78A778B478C178CE785A
:10836000DB78E778F47800790C7919792579317917
:108370003C79487954795F796B79767981798D790F
:108380009879A279AD79B879C379CD79D779E2793D
:10839000EC79F679007A0A7A147A1E7A277A317A99
:1083A0003A7A437A4D7A567A5F7A687A717A7A7A2B
:1083B000827A8B7A947A9C7AA57AAD7AB57ABE7AEB
:1083C000C67ACE7AD67ADE7AE67AED7AF57AFD7AD0
:1083D000047B0C7B147B1B7B227B2A7B317B387BD1
:1083E000407B477B4E7B557B5C7B637B6A7B717BF1
:1083F000787B7F7B857B8C7B937B9A7BA07BA77B29
:10840000AE7BB47BBB7BC27BC87BCF7BD57BDC7B6D
:10841000E27BE97BEF7BF57BFC7B027C097C0F7CBC
:10842000157C1C7C227C297C2F7C357C3C7C427C0E
:10843000487C4F7C557C5B7C627C687C6E7C757C68
:108440007B7C817C887C8E7C947C9A7CA17CA77CC4
:10845000AD7CB47CBA7CC17CC77CCD7CD47CDA7C1E
:10846000E07CE77CED7CF37CFA7C007D077D0D7D74
:10847000137D1A7D207D277D2D7D347D3A7D417DC4
:10848000477D4D7D547D5A7D617D677D6E7D747D18
:108490007B7D817D887D8E7D957D9B7DA27DA87D68
:1084A000AF7DB57DBC7DC27DC97DCF7DD67DDC7DB8
:1084B000E37DE97DF07DF67DFD7D037E0A7E107E05
:1084C000177E1D7E247E2A7E317E377E3E7E447E50
:1084D0004B7E517E587E5E7E657E6B7E727E787EA0
:1084E0007E7E857E8B7E927E987E9E7EA57EAB7EF6
:1084F000B27EB87EBE7EC57ECB7ED17ED87EDE7E4D
:10850000E47EEA7EF17EF77EFD7E047F0A7F107FA7
:10851000167F1C7F237F297F2F7F357F3B7F417F05
:10852000477F4E7F547F5A7F607F667F6C7F727F6C
:10853000787F7E7F847F8A7F907F967F9C7FA27FDB
:10854000A87FAE7FB47FB97FBF7FC57FCB7FD17F50
:10855000D77FDC7FE27FE87FEE7FF47FF97FFF7FCC
:10856000FF7F00008FFF15FF9BFE21FEA9FD2EFD62
:10857000B5FC3AFCC2FB48FBCFFA55FADBF963F9CC
:10858000E8F870F8F8F77DF705F78CF614F69AF529
:1085900022F5A9F431F4B9F340F3C9F251F2D9F15B
:1085A00062F1EAF073F0FCEF84EF0FEF97EE21EE4B
:1085B000ABED33EDBEEC48ECD2EB5EEBE8EA73EAF0
:1085C000FEE98AE915E9A1E82DE8B9E746E7D2E630
:1085D00060E6ECE57BE508E595E425E4B3E341E3FB
:1085E000D1E260E2EFE180E110E1A0E032E0C2DF41
:1085F00054DFE6DE77DE0ADE9DDD2FDDC4DC57DCEE
:10860000EBDB80DB14DBAADA3FDAD5D96CD902D9EF
:1086100099D830D8C8D761D7F9D691D62BD6C5D539
:108620005FD5F9D495D430D4CBD368D305D3A1D2B8
:108630003FD2DDD17BD11AD1BAD05AD0F9CF9BCF5E
:108640003CCFDECE7FCE22CEC5CD68CD0ECDB0CC18
:1086500057CCFCCBA2CB48CBEFCA97CA3ECAE8C9DD
:1086600090C93BC9E4C88FC83BC8E6C792C740C79A
:10867000ECC69BC648C6F9C5A7C557C509C5BAC447
:108680006CC41EC4D2C385C339C3EEC2A4C25AC2CD
:108690000FC2C8C17FC137C1F0C0A9C064C01FC02C
:1086A000DABF96BF53BF10BFCEBE8DBE4CBE0BBE51
:1086B000CCBD8DBD4EBD12BDD4BC98BC5CBC22BC33
:1086C000E6BBADBB74BB3CBB04BBCCBA96BA60BACC
:1086D0002BBAF7B9C3B991B95DB92CB9FCB8CAB80E
:1086E0009CB86CB83EB810B8E4B7B7B78CB761B7F0
:1086F00037B70EB7E5B6BDB696B66FB649B625B66E
:10870000FFB5DCB5B9B597B575B554B535B514B584
:10871000F6B4D9B4BBB49EB483B467B44EB434B425
:108720001BB402B4ECB3D5B3BEB3AAB395B381B353
:108730006FB35CB34BB33AB32AB31BB30CB3FFB202
:10874000F1B2E5B2D9B2CFB2C4B2BBB2B3B2ABB23E
:10875000A4B29DB298B293B28FB28CB289B287B2F2
:1087600085B286B285B287B289B28BB28FB293B22C
:1087700098B29CB2A4B2AAB2B3B2BBB2C4B2CFB2E6
:10878000DAB2E5B2F1B2FEB20DB31AB32AB33AB31C
:108790004BB35CB36FB381B395B3AAB3BFB3D5B3D7
:1087A000EBB303B41BB434B44DB468B483B49FB416
:1087B000BBB4D8B4F7B414B535B555B575B597B5E0
:1087C000B9B5DCB500B624B649B66FB696B6BCB638
:1087D000E6B60DB737B761B78CB7B7B7E3B711B81F
:1087E0003EB86CB89BB8CBB8FBB82CB95EB990B9A1
:1087F000C4B9F6B92CBA60BA96BACDBA04BB3CBBC0
:1088000074BBADBBE7BB20BC5CBC98BCD4BC11BD89
:108810004FBD8DBDCCBD0BBE4CBE8DBECEBE11BFFF
:1088200053BF96BFDBBF1EC064C0A9C0F1C037C133
:108830007FC1C7C110C25AC2A4C2EDC23AC385C328
:10884000D2C31EC46CC4BBC408C559C5A8C5F8C5ED
:1088500049C69BC6EDC63FC793C7E6C73BC88FC88E
:10886000E5C83BC991C9E7C93FCA98CAEFCA49CB15
:10887000A2CBFCCB56CCB2CC0CCD69CDC6CD22CE92
:1088800080CEDECE3CCF9ACFFBCF59D0BAD01BD111
:108890007CD1DDD140D2A1D205D368D3CCD330D4A2
:1088A00094D4FAD45FD5C5D52CD691D6FAD660D754
:1088B000C9D731D899D803D96BD9D6D93FDAABDA31
:1088C00015DB80DBEBDB58DCC4DC30DD9DDD0BDE53
:1088D00077DEE6DE55DFC2DF32E0A0E011E180E1C5
:1088E000F0E160E2D1E242E3B2E325E495E409E598
:1088F0007AE5EEE560E6D3E646E7BAE72DE8A1E8DB
:1089000016E989E9FFE973EAE8EA5EEBD3EB48ECA4
:10891000BEEC34EDABED20EE98EE0FEF85EFFCEF03
:1089200073F0EAF063F1D9F151F2C9F242F3B9F30D
:1089300032F4A9F423F59BF513F68CF605F77EF7D0
:10894000F8F771F8EAF862F9DCF956FACEFA49FB61
:10895000C2FB3BFCB5FC2FFDA8FD22FE9CFE16FFD2
:108960008FFF08008100FB007501EF016802E20241
:108970005B03D5034F04C8044205BB053406AE06AD
:108980002607A007190892080B098309FD09750A33
:10899000ED0A670BDE0B570CCF0C470DBE0D360EE4
:1089A000AE0E250F9D0F14108B1002117811EF11D0
:1089B0006512DB125113C7133C14B21426159C1513
:1089C00010168516FA166D17E2175518C9183B19B7
:1089D000AF19211A941A051B781BE91B5B1CCC1CD0
:1089E0003C1DAD1D1D1E8E1EFC1E6D1FDB1F4B2072
:1089F000B8202721952102226F22DC224923B523AA
:108A000020248C24F6246225CC253526A02609278F
:108A10007227DA274328A92813297829DF29452A2C
:108A2000AB2A102B752BD92B3E2CA12C052D672D95
:108A3000C92D2C2E8D2EED2E4E2FAE2F0E306D30DB
:108A4000CC3029318831E43142329E32FA3255330A
:108A5000AF330B346434BD3416356F35C5351D3630
:108A60007536C93621377437CA371E387138C4385D
:108A700017396839BA39093A5B3AAA3AFA3A473BA0
:108A8000963BE33B303C7B3CC83C123D5C3DA73D04
:108A9000F03D393E803EC83E0F3F553F9A3FDF3F95
:108AA00024406840AB40ED402F417041B141F0415E
:108AB00031426E42AD42EA42264364439F43D9436A
:108AC00014444D448544BE44F5442D4562459845C3
:108AD000CD450046344667469A46CA46FB462C4773
:108AE0005A478A47B747E54712483D486848934880
:108AF000BC48E6480E4935495D498349A949CD49F5
:108B0000F249154A374A5A4A7A4A9C4ABC4AD94AD3
:108B1000F94A174B324B504B6A4B864B9F4BB94B24
:108B2000D14BEA4B004C174C2C4C424C544C694CEA
:108B30007B4C8D4C9E4CAF4CBE4CCD4CDB4CE84C32
:108B4000F74C014D0C4D184D204D2A4D324D3A4DEC
:108B5000404D464D4C4D504D544D564D594D5A4D2E
:108B60005B4D5C4D5A4D5A4D584D564D534D504DE1
:108B70004B4D454D404D394D314D294D204D164DF4
:108B80000C4D014DF44CE94CDA4CCC4CBE4CAD4C88
:108B90009E4C8C4C7A4C684C544C404C2B4C164C94
:108BA000FF4BE94BD14BB84B9F4B854B694B4F4B20
:108BB000334B154BF84AD94ABB4A9A4A7A4A584A23
:108BC000374A144AF149CC49A84983495B49354998
:108BD0000D49E548BC48924867483D481048E5477C
:108BE000B74788475A472B47FA46CA4699466646CA
:108BF00034460046CC45974562452B45F544BE4476
:108C000085444C441344D8439E4362432643EA427E
:108C1000AB426E423042EF41B1416F412E41EC40D8
:108C2000AB4066402440DE3F9A3F543F0E3FC83E73
:108C3000803E383EF03DA63D5C3D113DC73C7B3C4F
:108C40002F3CE23B953B473BF93AA93A5A3A0A3A5C
:108C5000B93968391639C43870381E38C83774378E
:108C60002037CA3673361D36C5356E351635BC34D9
:108C700064340A34AF335533F9329E324032E53131
:108C800087312931CC306D300E30AD2F4E2FED2E87
:108C90008C2E2B2EC92D662D042DA12C3C2CD92BCE
:108CA000752B102BAA2A442ADF2978291129AA28F2
:108CB0004228DA27712709279F263526CB256225EA
:108CC000F6248B242024B4234823DC226F220222A2
:108CD00094212621B8204A20DB1F6C1FFC1E8D1E0C
:108CE0001D1EAD1D3C1DCC1C5A1CE91B781B051B11
:108CF000931A211AAE193B19C8185418E2176D17A8
:108D0000F916841611169B152615B2143B14C713B9
:108D10005113DB126512EF11771101118A10131034
:108D20009D0F240FAE0E360EBE0D470DCF0C560C08
:108D3000DE0B660BED0A750AFC0983090B09910825
:108D400019089F072707AE063306BB054105C8046F
:108D50004E04D5035B03E1026802ED017501FB00DF
:108D6000810007008FFF00007EEF20EFC0EE63EE72
:108D700005EEA8ED4BEDEFEC92EC36ECDCEB7FEB87
:108D800026EBCBEA71EA18EABFE964E90EE9B6E836
:108D90005CE807E8AFE75AE702E7ADE658E603E626
:108DA000ACE55AE505E5B2E45EE40BE4BAE366E35C
:108DB00016E3C4E273E223E2D2E183E133E1E4E0CB
:108DC00094E047E0FADFAADF5EDF11DFC5DE78DE80
:108DD0002DDEE2DD95DD4DDD00DDB9DC6EDC24DC71
:108DE000DDDB94DB4CDB04DBBCDA77DA30DAE9D9A3
:108DF000A3D95FD919D9D5D890D84DD808D8C7D715
:108E000082D741D7FED6BDD67CD63BD6FBD5B9D5C9
:108E10007BD53BD5FBD4BED47ED441D404D4C5D3BA
:108E20008AD34DD310D3D6D299D25FD225D2E9D1ED
:108E3000B1D177D13DD106D1CCD095D05DD026D05F
:108E4000F0CFB8CF83CF4CCF18CFE3CEAECE79CE14
:108E500047CE11CEE1CDADCD7ACD49CD16CDE5CC05
:108E6000B5CC84CC54CC25CCF5CBC6CB98CB69CB38
:108E70003CCB0DCBE0CAB5CA86CA5CCA31CA04CAAB
:108E8000D9C9B0C985C95AC933C908C9E0C8B8C861
:108E900090C868C842C81AC8F4C7CDC7A9C784C754
:108EA0005DC73BC715C7F2C6CEC6ABC688C667C688
:108EB00044C622C602C6E1C5C0C59FC582C561C5FC
:108EC00041C525C504C5EAC4CAC4ACC491C475C4AF
:108ED00059C43BC422C408C4EBC3D2C3B9C39EC3A4
:108EE00086C36EC354C33EC326C30FC3F8C2E1C2D8
:108EF000CCC2B6C2A1C28BC277C264C250C23CC24D
:108F000029C217C204C2F3C1E0C1D0C1BFC1B0C100
:108F10009FC18FC17FC171C162C155C145C13AC1F5
:108F20002BC120C113C106C1FCC0F1C0E5C0DBC02C
:108F3000D1C0C7C0BFC0B5C0ADC0A5C09DC094C0A2
:108F400090C086C082C07CC074C072C06BC068C054
:108F500062C061C05BC059C058C054C052C052C04A
:108F600050C050C050C04EC050C051C052C053C07D
:108F700054C058C05BC05CC061C063C068C06EC0F4
:108F800071C076C07EC081C089C091C096C09EC0AD
:108F9000A6C0AEC0B8C0C0C0C9C0D3C0DDC0E8C0A4
:108FA000F3C0FDC00AC115C122C12FC13BC14AC1D6
:108FB00057C166C173C183C191C1A3C1B1C1C3C14E
:108FC000D3C1E5C1F5C108C21CC22CC241C252C204
:108FD00068C27CC291C2A5C2BAC2D0C2E6C2FCC2FB
:108FE00014C32BC341C35AC373C38BC3A3C3BEC330
:108FF000D7C3F2C30BC428C441C45EC47AC497C4A7
:10900000B2C4D0C4EEC40CC52AC548C567C588C55E
:10901000A6C5C7C5E8C507C62AC64BC66EC68FC655
:10902000B2C6D6C6FAC61CC741C766C78AC7B1C78B
:10903000D5C7FCC722C84AC870C898C8C0C8E8C805
:1090400011C93BC963C98EC9B7C9E3C90DCA39CAB9
:1090500064CA90CABDCAEBCA17CB45CB72CBA0CBB2
:10906000D0CBFFCB2DCC5FCC8DCCBFCCEFCC21CDEA
:1090700054CD84CDB7CDEACD1ECE51CE84CEB8CE60
:10908000EECE23CF57CF8ECFC5CFFACF32D069D017
:10909000A0D0D9D010D149D183D1BCD1F7D12FD212
:1090A0006BD2A6D2E2D21CD35AD396D3D2D310D449
:1090B0004DD48CD4CAD409D549D588D5C6D508D6BF
:1090C00048D688D6CCD60AD750D790D7D3D717D87A
:1090D0005AD89FD8E3D826D96ED9B1D9F7D93FDA73
:1090E00085DACBDA13DB5ADBA3DBECDB33DC7DDCAC
:1090F000C7DC11DD5BDDA5DDF2DD3BDE88DED5DE24
:1091000020DF6EDFBBDF09E057E0A6E0F4E042E1DC
:1091100094E1E2E133E283E2D5E226E378E3CAE3D5
:109120001CE470E4C2E417E56AE5BFE514E668E60E
:10913000BEE615E76AE7C3E718E86FE8C7E820E985
:1091400077E9D1E92AEA85EADDEA38EB93EBEDEB42
:109150004AECA5EC01ED5FEDBAED18EE77EED4EE3A
:1091600033EF90EFF2EF50F0B1F010F171F1D3F175
:1091700034F295F2FAF25AF3BDF322F484F4E8F4EF
:109180004FF5B1F518F67CF6E3F649F7AFF717F8A7
:109190007FF8E5F84EF9B8F91FFA8AFAF2FA5CFBA3
:1091A000C8FB32FC9CFC09FD75FDE0FD4EFEBAFEDD
:1091B00029FF96FF03007300E2004F01C101300256
:1091C000A10211038203F5036504D9044A05BE0513
:1091D0003206A40619078E0703087708ED0864090C
:1091E000DA09500AC70A3F0BB80B2E0CA80C210D48
:1091F0009A0D140E8E0E080F830FFF0F7A10F510C4
:109200007411EE116C12EA126713E6136514E2147E
:109210006315E2156116E4166217E6176518E9187A
:109220006B19ED19701AF31A771BFC1B811C041DB6
:109230008B1D111E951E1E1FA11F2B20B2203B212E
:10924000C2214B22D3225E23E8237124FB248825EC
:1092500011269E262B27B4274228D1285E29EB29E8
:109260007A2A082B972B262CB62C472DD72D672E24
:10927000F92E8B2F1D30AF304131D6316732FD32A0
:1092800090332534BB344F35E5357C361137A9375B
:109290004038D7387039073AA13A3A3BD23B6D3C57
:1092A000063DA13D3E3ED83E733F0F40AC404A4193
:1092B000E64183422243C0435E44FE449E453C4611
:1092C000DC467F471E48C1486049044AA54A4A4BCC
:1092D000EC4B8F4C334DD84D7C4E224FC64F6D50CA
:1092E0001251B95161520653AE535854FF54A95507
:1092F0005056FB56A3575058FA58A4594F5AFB5A88
:10930000A85B555C015DAD5D5D5E095FBA5F66603F
:109310001661C66175622663D76387643865EA653E
:109320009E664F670168B46869691D6AD26A856B79
:10933000396CF06CA86D5C6E126FC96F81703971F9
:10934000F271A9725F731974D774907549760177B9
:10935000BE777B783979F279AC7A677B2C7CEE7CAE
:10936000A57D577E187FFE7F327E727DC27C087C91
:10937000487B847AC879107956789977DD761F769C
:109380006A75B074F6733C738172CB7114715C7042
:10939000A36FEC6E376E816DCC6C166C5F6BAB6A35
:1093A000F86946698F68DD6729677966C76514655E
:1093B0006364B06303635262A161F2604260955FCF
:1093C000E75E395E8A5DDD5C315C855BD95A2C5A7B
:1093D0008259D5582D588157D8562F568455DE546A
:1093E00035548D53E3523F529751F0504C50A34F98
:1093F000004F5B4EB64D114D6F4CC94B284B854A03
:10940000E24941499E48FD475E47BB461D467C45B3
:10941000DD443E44A04301436342C64129418C40A0
:10942000EF3F533FB83E1D3E823DE83C4C3CB43BD1
:109430001A3B813AE8395039B83822388937F3363F
:109440005C36C63531359B3408347233DC324B32EE
:10945000B63125319130FE2F6D2FDC2E4A2EBA2DDC
:10946000282D9A2C082C7B2BEB2A5D2ACD2941290B
:10947000B42825289A270C278226F5256B25DF247A
:109480005524CB234123B8223022A5211F21962029
:109490000F20881F011F7A1EF61D6E1DEB1C651C18
:1094A000E01B5C1BDA1A551AD3194F19CE184B184A
:1094B000CB174917C9164716C8154915C9144B14B7
:1094C000CA134F13D0125212D5115A11DC1060106A
:1094D000E60F6A0FEF0E750EFA0D810D080D8F0C59
:1094E000160C9F0B260BAF0A380ABF094C09D60889
:1094F0005E08EB07760702078C061A06A6053405F8
:10950000C0044F04DC036C03FA0289021A02A901A9
:109510003901CA005C00EDFF80FF10FFA5FE37FE99
:10952000CAFD5FFDF3FC86FC1CFCB2FB46FBDEFAC9
:1095300072FA0BFAA1F938F9D2F868F802F89AF73A
:1095400034F7CEF668F602F69DF539F5D4F470F4EA
:109550000CF4AAF346F3E4F281F220F2BFF15EF1DB
:10956000FCF09DF03DF0DCEF7FEF0000B7EF56EF31
:10957000F7EE94EE37EED8ED79ED1BEDC1EC63EC30
:109580000AECB0EB55EBFFEAA5EA4EEAF4E99FE9F5
:1095900044E9EDE895E83DE8E4E78BE735E7DBE60D
:1095A00085E62EE6D8E581E52FE5DBE488E435E4C1
:1095B000E6E393E345E3F3E2A4E256E204E2B6E134
:1095C00066E116E1C5E076E026E0D7DF88DF38DF28
:1095D000ECDE9DDE53DE05DEBBDD71DD28DDDFDC8C
:1095E00098DC50DC07DCC1DB79DB33DBEBDAA3DAB8
:1095F0005DDA14DACDD986D940D9F8D8B4D86DD887
:109600002BD8E5D7A4D760D721D7DFD69FD661D690
:1096100021D6E1D5A3D563D524D5E6D4A8D467D483
:1096200029D4EAD3ACD36CD330D3F2D2B7D279D227
:1096300040D206D2CBD195D15BD124D1EED0B7D0D8
:1096400080D049D013D0DDCFA6CF6FCF39CF02CF96
:10965000CDCE95CE62CE2CCEF8CDC4CD92CD5FCD01
:109660002FCDFDCCCECC9FCC6FCC43CC11CCE5CB59
:10967000B7CB88CB5ACB2CCBFECACECAA3CA74CAEE
:1096800047CA19CAEDC9C4C997C96EC944C91CC91A
:10969000F4C8CDC8A7C87FC85BC833C810C8E7C71F
:1096A000C3C79EC776C752C72DC705C7E2C6BDC68A
:1096B00099C675C652C632C60FC6EEC5D1C5AFC56E
:1096C00092C574C555C537C51CC5FCC4E0C4C2C429
:1096D000A6C487C46BC44EC430C415C4F9C3DCC36C
:1096E000C3C3A8C390C376C35FC348C332C31CC3FC
:1096F00005C3F2C2DBC2C6C2B2C29DC288C272C278
:109700005EC249C235C220C20CC2FAC1E6C1D6C18E
:10971000C3C1B3C1A4C195C186C178C16CC15EC1CA
:1097200051C145C137C12CC11FC112C105C1FAC009
:10973000EDC0E1C0D6C0C9C0C1C0B6C0ADC0A4C0F4
:109740009EC094C091C089C086C080C07CC078C0D3
:1097500072C06FC06AC067C062C05EC059C056C0E8
:1097600054C051C04EC04CC04CC04AC04BC04DC08C
:109770004FC050C053C057C05AC05FC061C067C01F
:109780006BC06FC074C077C07DC080C086C08CC005
:109790008FC097C09DC0A5C0AEC0B7C0C2C0CAC070
:1097A000D6C0E3C0EDC0FCC006C113C120C12CC1AE
:1097B0003AC145C153C15FC16DC17AC187C196C16C
:1097C000A6C1B5C1C5C1D6C1E9C1FAC10FC221C286
:1097D00037C24BC25FC275C289C2A0C2B2C2C9C27F
:1097E000DEC2F3C207C31FC333C34BC361C379C314
:1097F00091C3ABC3C5C3DEC3FBC316C433C450C4DB
:109800006CC48BC4A7C4C5C4E2C400C51EC539C599
:109810005AC575C596C5B2C5D2C5F3C512C634C6FC
:1098200056C678C69CC6BFC6E5C60AC72EC755C76A
:109830007AC7A0C7C6C7ECC711C838C85DC883C8F7
:10984000ABC8CFC8F9C81FC948C971C99DC9C6C925
:10985000F1C91ECA4BCA78CAA6CAD3CA02CB2FCB3B
:1098600060CB8CCBBACBEACB16CC45CC75CCA2CC9A
:10987000D3CC02CD32CD64CD96CDCACDFCCD30CE89
:1098800067CE9ACED1CE08CF3DCF75CFABCFE1CF4B
:1098900018D04ED086D0BCD0F2D02AD160D19AD187
:1098A000D2D10AD245D27FD2BCD2F8D235D372D32C
:1098B000B1D3F0D32ED46ED4ACD4EBD42BD568D5A1
:1098C000A9D5E8D526D666D6A6D6E4D627D766D7B4
:1098D000A9D7EDD730D873D8BAD8FED846D98CD905
:1098E000D3D91BDA63DAA9DAF1DA39DB81DBC6DB3B
:1098F00010DC55DC9FDCE6DC2EDD78DDC3DD0BDE25
:109900005ADEA3DEF3DE40DF8EDFDDDF2EE07CE01B
:10991000CEE01CE16DE1BCE10DE25CE2ABE2FCE219
:109920004BE39CE3ECE33EE48FE4E3E435E58BE5D5
:10993000DFE535E68EE6E2E63DE793E7EBE745E86F
:109940009DE8F5E84DE9A5E9FEE956EAADEA06EB42
:109950005EEBB8EB11EC6EECC6EC25ED81EDE0EDC5
:109960003EEE9FEEFDEE5FEFC0EF20F081F0E3F002
:1099700043F1A3F103F264F2C5F224F386F3E7F3B3
:1099800049F4ACF40EF573F5D8F53FF6A6F60DF7ED
:1099900075F7DFF747F8B2F81AF985F9ECF957FAD5
:1099A000BEFA27FB90FBFAFB61FCCAFC36FD9DFD6D
:1099B0000BFE76FEE5FE51FFC3FF2F00A100130151
:1099C0008301F6016802DA024B03BC032F049E04F4
:1099D00011058005F2056306D4064707BB072E086C
:1099E000A20819098F09090A810AFB0A740BF00BF6
:1099F000680CE50C5E0DD80D530ECC0E450FBD0F57
:109A00003610B1102A11A4111F129B1217139513AF
:109A100016149414161598151B169C162217A317C6
:109A20002718A9182C19AE192E1AB11A311BB21BFE
:109A3000341CB71C381DBD1D401EC81E4D1FD61F2F
:109A40005F20EA207521FF218C221823A4232E24D5
:109A5000B9244625CE255726E3266927F4277C28F6
:109A6000082992291F2AAC2A3A2BCC2B5C2CEF2CEC
:109A7000832D172EAB2E412FD42F6A30FE308F311D
:109A80002432B3324833D6336834F9348A351E363B
:109A9000B1364637DC3774380E39AA39443AE23ADF
:109AA0007F3B1D3CBD3C583DF63D913E2E3FC73FA0
:109AB0006040FA4091412A42C4425D43F8439344D6
:109AC0003145D34572461647BA4762480649B04900
:109AD000564AFE4AA34B484CEF4C8F4D324ED24E65
